:020000040800F2
:1000000018080020310200081F1F0008151D0008F5
:100010001D1F000841070008E12A00080000000039
:10002000000000000000000000000000F9250008AA
:10003000B509000800000000012200086926000838
:100040004B0200084B0200084B0200084B0200085C
:100050004B0200084B0200084B0200084B0200084C
:100060004B0200084B0200084B0200084B0200083C
:100070004B0200084B0200084B0200084B0200082C
:100080004B0200084B0200084B0200084B0200081C
:100090004B0200084B0200084B0200084B0200080C
:1000A0004B0200084B0200084B0200084B020008FC
:1000B0004B0200084B0200084B0200084B020008EC
:1000C0004B0200084B0200084B0200084B020008DC
:1000D0004B020008D52A00084B0200084B0200081A
:1000E0004B0200084B0200084B0200084B020008BC
:1000F0004B0200084B0200084B0200084B020008AC
:100100004B0200084B0200084B0200084B0200089B
:100110004B0200084B0200084B0200084B0200088B
:100120004B0200084B020008F90800084B020008C7
:100130004B0200084B0200084B0200084B0200086B
:100140004B0200084B0200084B0200084B0200085B
:100150004B0200084B020008050900084B0200088A
:100160004B0200084B0200084B0200084B0200083B
:100170004B0200084B0200084B0200080000000080
:100180004B0200084B02000800F002F800F041F8B2
:100190000AA090E8000C82448344AAF10107DA45E2
:1001A00001D100F036F8AFF2090EBAE80F0013F0F3
:1001B000010F18BFFB1A43F0010318476036000017
:1001C00080360000103A24BF78C878C1FAD85207A8
:1001D00024BF30C830C144BF04680C6070470000C1
:1001E0000023002400250026103A28BF78C1FBD840
:1001F000520728BF30C148BF0B607047642900F028
:10020000E380002070471FB502F0C0FD1FBD10B590
:1002100010BD00F063FA1146FFF7F5FF02F09EFCF7
:1002200000F081FA03B4FFF7F2FF03BC02F070FCA8
:100230000948804709480047FEE7FEE7FEE7FEE77A
:10024000FEE7FEE7FEE7FEE7FEE7FEE704480549B6
:10025000054A064B70470000012700088901000885
:10026000180200201808002018040020180400209C
:1002700053EA020C00F069802DE9F04B4FF00006C4
:10028000002B1FBFB3FA83F503FA05F424FA05F631
:100290005E4012BF1643B2FA82F502FA05F4C5F1C8
:1002A00020051EBF22FA05FC44EA0C04203556EA5C
:1002B000044C4FEA144418BF641C4FF000084FF080
:1002C0000009904271EB030C39D3002919BFB1FA30
:1002D00081F701FA07F6B0FA80F700FA07F6C7F1DE
:1002E00020071EBF20FA07FC46EA0C062037B6FBA3
:1002F000F4FCA7EB0507103F07F01F0BCBF120061E
:100300000CFA0BFB2CFA06F644BFB3460026202F4E
:10031000A4BF5E464FF0000B5BEA060C08BF4FF02F
:10032000010B19EB0B09ABFB027C48EB0608C01B69
:1003300006FB02CC0BFB03CC71EB0C01C1E70B46B7
:10034000024641464846BDE8F08B13B54FF0000029
:100350004FF00001AFF30080BDE81C407047000083
:100360000FB4044910B503AA029800F089F910BC33
:100370005DF814FB0C00002070B504468569006828
:10038000C10601D5302600E02026C00707D070BD89
:10039000D4E9012130469047206A401C20626D1E3E
:1003A000F6D570BD70B5044685690078C00707D1E1
:1003B00070BDD4E9012120209047206A401C2062B2
:1003C0006D1EF6D570BD00002DE9F04106460024F3
:1003D00010687529314616A510D0AFF300800028AB
:1003E00002DA404213A507E031688A0701D512A559
:1003F00002E0490704D511A5012401E0AFF3008014
:1004000000210A2206F1240709E0B0FBF2FCB0FB50
:10041000F2F302FB1C00303078541846491C0028C7
:10042000F3D123462A463046BDE8F04100F0CEB86D
:10043000000000002D0000002B0000002000000044
:100440002DE9F05F894604464FF0000ADFF824B139
:10045000FB44C0F820A02046E168884700287DD0F2
:10046000252806D0D4E901219047206A401C20624B
:10047000F1E700255F462046E168884720280646C8
:1004800007DB312E05D2B81910F8200C08B105434E
:10049000F1E7A80701D525F00405C4F81CA0002742
:1004A000C4F818A02A2E09D0304602F02AFB38B32F
:1004B00004EB8708303EC8F8186019E059F8041BAF
:1004C000204604EB87029161E1688847012F0646C8
:1004D00018D1E069002820DA25F020051DE0D8F8C1
:1004E000180000EB800006EB40003038C8F8180018
:1004F0002046E1688847064602F003FB0028EED15B
:10050000012F0AD02E2E08D12046E16888477F1C93
:100510000646022F45F02005C4DBA069002803DA57
:10052000404245F00105A061E80701D025F0100523
:10053000A6B1A6F14100192802D8203645F400657D
:100540004A463146204625604D46FFF757FE60B1CA
:10055000012807D0ED1D25F0070000E007E000F1BD
:10056000080978E705F1040975E730467AE7206A5B
:10057000BDE8F09FB43300004FF0000200B5134611
:1005800094469646203922BFA0E80C50A0E80C50B3
:10059000B1F12001BFF4F7AF090728BFA0E80C5064
:1005A00048BF0CC05DF804EB890028BF40F8042B5D
:1005B00008BF704748BF20F8022B11F0804F18BFCA
:1005C00000F8012B70477047704770472DE9F047DE
:1005D0000D4699469246044600F1240801688806B3
:1005E00004D5E06921F01001216000E00120A8425B
:1005F00001DD471B00E00027A1697A1902EB090021
:10060000081AA0612078C00602D42046FFF7B4FE85
:10061000002608E0D4E901211AF806009047206A74
:10062000401C761C20624E45F4DB2078C0060AD5BB
:100630002046FFF7A1FE06E0D4E9012130209047D3
:10064000206A401C2062381EA7F10107F4DC07E095
:10065000D4E9012118F805009047206A401C206267
:10066000281EA5F10105F3DC2046FFF79BFE20784C
:10067000000602D50220BDE8F0870120FBE700005C
:10068000074B70B50D467B4400F011F80446284630
:1006900000F020F810B14FF0FF3070BD204670BD63
:1006A000BF24000001694A1C02610878704700B548
:1006B0008FB0CDE901310021059105497944CDE99B
:1006C000031011466846FFF7BBFE0FB000BD0000E7
:1006D000E5FFFFFF007B00F080007047754600F0EB
:1006E0002BF8AE4605006946534620F007008546C4
:1006F00018B020B5FFF7AAFDBDE820404FF0000676
:100700004FF000074FF000084FF0000B21F00701F9
:10071000AC46ACE8C009ACE8C009ACE8C009ACE83C
:10072000C0098D46704710B50446AFF300802046DF
:10073000BDE81040FFF776BD00487047B8010020C3
:10074000FEE7000070B5002400F02AF84FF40065C1
:10075000124E04E0641CE4B2012002F0DBF92946E9
:10076000304600F001FC10B1642CF3D30FE0642C90
:100770000DD2002404E0641CE4B2012002F0CAF9A6
:100780002946304600F0F0FB18B1642C04D3012058
:1007900070BD642CEFD3FAE7002070BD001002405A
:1007A00000B585B04FF400600090002001906946CC
:1007B000024800F0FDFA05B000BD00000010024044
:1007C00000B585B04FF40060009001200190022038
:1007D00003906946024800F0EBFA05B000BD000046
:1007E0000010024010B500F06DF8BDE81040FFF7B2
:1007F000A9BF000070B500244FF40065134E04E05B
:10080000641CE4B2012002F085F92946304600F06C
:10081000ABFB08B1642CF3D3002404E0641CE4B205
:10082000012002F077F92946304600F09DFB08B917
:10083000642CF3D3282002F06DF92946304600F0ED
:1008400093FB002800D0012070BD00000010024082
:1008500070B5002004464006050EFFF7CBFF641C70
:100860002843E4B2082CF6D370BD2DE9FC410D46B7
:10087000064600F027F8FFF765FF10B10120BDE83C
:10088000FC8100246F46FFF7E3FF3855641CE4B297
:10089000052CF8D39DF800309DF801209DF802103A
:1008A0009DF803009C180F183C449DF80470BC424E
:1008B00005D102EB03222A8000EB012030800020CA
:1008C000DDE7000070B5FFF77BFF0A4D4FF40064D1
:1008D00000222146284600F053FB142000F056FA6F
:1008E00001222146284600F04BFBBDE870401E2047
:1008F00002F010B900100240014800F0D5B8000025
:10090000F8000020014800F0CFB800005801002096
:1009100001681823CAB2103AB2FBF3F2054B6FF329
:100920000901032A9B5CC36500D9091D816508463E
:1009300070470000E837000810B5014600208B69B9
:100940008A6A4FF0C07453B1B3F5005F15D072B12D
:10095000012A0CD0022A0AD0032A09D104E01AB1D4
:10096000012A06D0022A03D1C96AC90100D5012093
:1009700010BDC96AA142FAD010BD002AF7D0012AE1
:10098000F2D0022AF3D0032AF3D010BD30B50468A8
:10099000256825F480252560046863608368402B02
:1009A000036803D099600068C26030BD9A60006837
:1009B000C16030BD704772B6FEE700002DE9FF5FF1
:1009C000DFF8BC9017468A464FF02108002601F157
:1009D000010B00BF06EB061109EB4104397894F8CE
:1009E000200088422AD194F821007978884225D1C4
:1009F00003980AF0FF0100280098C0B224D001F04B
:100A00003FFB00250121605DC043C0B201F0D6FB71
:100A10006D1CEDB2102DF5D300980BF0FF01C0B2A4
:100A200001F02EFB002560190121007CC043C0B2FB
:100A300001F0C4FB6D1CEDB2102DF4D3761CB6B2E0
:100A40004645C7D3BDE8FF9F01F01AFB00250121F1
:100A5000605D01F0B3FB6D1CEDB2102DF7D3009873
:100A60000BF0FF01C0B201F00BFB00256019012162
:100A7000007C01F0A3FB6D1CEDB2102DF6D3DDE779
:100A80008633000890F83510022903D08021416593
:100A900001207047052180F835100068016821F0B9
:100AA00001010160002070472DE9F84304464FF032
:100AB0000009CDF8009063484FF41651A56D006809
:100AC000B0FBF1F72E6894F85C10082000FA01F1F1
:100AD00031420FD021680A6852070BD50A6822F00C
:100AE00004020A6094F85C108840A860606D40F0D1
:100AF0000100606594F85C104FF0010808FA01F0FD
:100B0000304208D021684969090604D5A860606DA3
:100B100040F00200606594F85C1004208840304288
:100B200008D021680968890704D5A860606D40F085
:100B30000400606594F85C1010208840304218D0A2
:100B400021680968090714D5A8602068016849036D
:100B500004D50068000308D5A16C07E00168C90549
:100B600003D4016821F008010160216C09B120461D
:100B7000884794F85C1020208840304231D02168AA
:100B80000968C9062DD5A86094F8350005282068A5
:100B9000016806D0490347D5006800031DD4616C85
:100BA0001CE021F0160101602068416921F08001FC
:100BB0004161206C08B9A06C20B12068016821F067
:100BC0000801016094F85C103F208840A86084F818
:100BD000349084F83580216D1FE0E16B09B1204627
:100BE0008847606D00282BD0606DC00714D00520A9
:100BF00084F835002068016821F001010160009847
:100C0000401C0090B84203D820680068C007F6D1A5
:100C100084F8349084F83580E16C002910D001B05C
:100C20002046BDE8F04308470168C905D5D40168EE
:100C300021F01001016084F8349084F83580CCE70D
:100C4000BDE8F8831C0000202DE9F041044600F0C7
:100C50009DF906465CB1002584F83450022084F8E2
:100C600035002068016821F0010101600DE00120DC
:100C7000BDE8F08100F08AF9801B052805D9202005
:100C80006065032084F83500F2E720680068C0073B
:100C9000F0D12268116820480140D4E901031843CB
:100CA000D4E903363343184363691843A3691843EF
:100CB000E3691843236A18430843616A042903D18E
:100CC000D4E90B1319430843106020684069666A31
:100CD00020F0070130460E43012704280CD1A06AFA
:100CE0000643E06A40B12046FFF726FE20B14020CF
:100CF000606584F83570BAE7206846612046FFF7E2
:100D000007FE94F85C203F2191408160656584F87E
:100D100035700020ACE700003F8010F02DE9F04175
:100D20000446866D90F83400002501280DD001207E
:100D300084F8340094F835700020012F07D084F82F
:100D4000340002252846BDE8F0810220FBE7022797
:100D500084F8357060652046FFF718FE94F85C1043
:100D60003F208840B0602068016841F016010160B2
:100D7000206C20B12068016841F008010160206802
:100D8000016841F001010160DCE7000070B5044634
:100D900000F0FCF80546601C02D0044800780444CA
:100DA00000F0F4F8401BA042FAD370BD1000002000
:100DB0002DE9F84F00224FF0010803254FF00F0EE8
:100DC0000B6808FA02F42340A3426ED14E68012E4C
:100DD00005D0022E03D0112E01D0122E12D186681A
:100DE0004FEA420C05FA0CF7BE43CF6807FA0CF73E
:100DF000374387604668A6430C79C4F300149440D7
:100E000034434460C668570005FA07FC8C6826EA3C
:100E10000C06BC403443C4604C68022C01D0122C38
:100E200013D1D40800EB8404A346D4F820905407CF
:100E30004FEAD46A0EFA0AF629EA06090E6906FA9A
:100E40000AF646EA0906CBF8206006680C7926EA1D
:100E50000C0604F00304BC40344304604C68E40016
:100E600065D5364C266846F480462660246822F014
:100E7000030604F480440094314C3444A446D4F86E
:100E800008489607370F0EFA07F6B4432D4EB042C6
:100E900001D1002624E02C4EB04201D101261FE0F2
:100EA0002A4EB04202D102261AE040E0284EB0425B
:100EB00001D1032614E0274EB04201D104260FE0F1
:100EC000254EB04201D105260AE0244EB04201D1A0
:100ED000062605E0224EB04201D1072600E0082692
:100EE000BE402643CCF808681E4E34684F689C43C9
:100EF000FF0300D51C4334601A4C241D26684F683C
:100F00009E43BF0300D51E432660164E0836346844
:100F10004F689C43FF0200D51C433460114E0C36D1
:100F200034684F689C43BF0200D51C433460521C98
:100F3000102AFFF445AFBDE8F88F000044380240A6
:100F4000003001400000024000040240000802405E
:100F5000000C024000100240001402400018024041
:100F6000001C0240003C01400069084000D0012004
:100F70007047426931EA020200D109048161704779
:100F80000AB1816170470904FBE7000001488068ED
:100F90007047000010000020024881680278114468
:100FA00081607047100000200B4810B5016841F4C3
:100FB00000710160016841F480610160016841F4E1
:100FC00080710160032000F06FF80F2000F006F838
:100FD00000F024F8002010BD003C024070B50D4D1B
:100FE00004464FF47A712878B1FBF0F00A49096899
:100FF000B1FBF0F000F038FC48B9102C07D2002209
:101000002146501E00F030F800206C6070BD0120B9
:1010100070BD0000100000201C0000200A4808B528
:10102000016841F480410160006800F48040009054
:101030000548001F016841F080510160006800F020
:101040008050009008BD000044380240002809DBB1
:1010500000F01F02012191404009800000F1E020D2
:10106000C0F8001170470000F0B40E4B1B680C462E
:10107000C3F30223C3F10705042D00D90425191D6C
:10108000072901D2002300E0DB1E012606FA05F144
:10109000491E214099409E40761E16403143F0BCC7
:1010A00001F01FBD0CED00E0064900F007020868E2
:1010B0004FF6FF03184040EA0220034A104308603D
:1010C000704700000CED00E00000FA052DE9F04744
:1010D0000E46050065D0DFF81481D8F80000F7B29D
:1010E00000F00F00B04207D288F80070D8F8000076
:1010F00000F00F00B04254D128683D4C810712D552
:10110000400703D5206840F4E050206028780007AD
:1011100003D5206840F4604020602068A96820F072
:10112000F000084320602878C0072DD03049686857
:101130000839012812D0022813D0032811D00968D9
:10114000890700292DDA216821F00301014321607C
:10115000FFF71CFF814641F2883A0EE009688903D7
:10116000EFE709688901ECE7FFF710FFA0EB090141
:10117000514502D90320BDE8F0872068696800F076
:101180000C00B0EB810FEFD1D8F80010404601F011
:101190000F01B14207D90770006800F00F00B0429C
:1011A00001D00120E7E72878400705D52068E968E5
:1011B00020F4E050084320602878000706D5206816
:1011C000296920F4604040EAC100206000F038F84E
:1011D0002168084AC1F30311515CC8400649086000
:1011E00006480068FFF7FAFE0020C4E7003C024012
:1011F00008380240F03700081C00002014000020CE
:101200000448054900680968044AC1F38221515C19
:10121000C84070471C000020083802400038000811
:101220000448054900680968044AC1F34231515C29
:10123000C84070471C0000200838024000380008F1
:10124000154810B5006810F00C02144813D0411076
:10125000042A0FD0082A0ED10F4C241F22682368BD
:1012600002F03F025B0207D52068C0F38810A0FBA4
:10127000010106E0084610BD2168C1F38811A1FBF9
:1012800000010023FEF7F4FF2168C1F30141491C6E
:101290004900B0FBF1F010BD083802400024F40012
:1012A0002DE9F84F040076D02078DFF838A3CE4D32
:1012B000C00749D0DAF800105046C1F38101012976
:1012C00008D00068C0F3810002280AD1281D0068F8
:1012D000400206D52868800336D560680028E2D031
:1012E00032E06068B0F5803F10D0B0F5A02F2868DC
:1012F00010D020F480302860286820F480202860F6
:101300006068A0B1FFF742FE06460CE0286840F492
:101310008030F4E740F480202860F7E7FFF736FEDE
:10132000801B642873D828688003F7D50CE0FFF78A
:101330002DFE064605E000BFFFF728FE801B64284F
:10134000F0D828688003F7D42078DFF8A0828007DF
:101350004FF000093ED5DAF80010504611F00C0F9E
:1013600009D00068C0F3810002280BD19D48001FFE
:101370000068400206D42868800715D5E068012877
:1013800009D111E0E068B8B10120C8F80000FFF70A
:10139000FDFD064605E020E1FFF7F8FD801B022871
:1013A000C0D828688007F7D52868216920F0F800A0
:1013B00040EAC10028600DE0C8F80090FFF7E6FDA4
:1013C000064604E0FFF7E2FD801B02281FD82868CC
:1013D0008007F7D42078000722D5824E84486169BF
:1013E0006C3671B101210160FFF7D0FD074604E0C2
:1013F000FFF7CCFDC01B022809D830688007F7D55D
:101400000EE0C0F80090FFF7C1FD074605E082E05E
:10141000FFF7BCFDC01B02287DD830688007F7D4D9
:101420002078400768D5DFF8BCB100270BF1380BF6
:10143000DBF80000C0000BD4DBF8001041F0805155
:10144000CBF80010DBF80000012700F0805000907E
:10145000684E3068C00510D4306840F48070306049
:10146000FFF794FD009005E0FFF790FD0099401A0A
:10147000022850D83068C005F6D55A4EA0686836A4
:1014800001280FD00528306810D020F0010030600E
:10149000306820F004003060A068B8B1FFF776FD36
:1014A00000900FE0306840F00100F4E740F00400E5
:1014B0003060F7E7FFF76AFD0099411A41F2883082
:1014C000814266D830688007F4D50EE0FFF75EFDF4
:1014D000009007E0FFF75AFD0099411A41F2883069
:1014E000814256D830688007F4D42FB1DBF8001061
:1014F00021F08051CBF80010A069D0B3DAF80020B9
:101500005146C2F38102022A4AD00228484607D037
:10151000C8F8600000E03CE0FFF738FD04463BE01F
:101520004746C8F86000FFF731FD064605E000BFFA
:10153000FFF72CFD801B02282BD828688001F7D4E8
:10154000D4E907010843A16A2B4A490802EB01418B
:10155000626A41EA8211084394F82C1040EA016162
:101560002048001F016001203866FFF70FFD044688
:1015700005E034E0FFF70AFD001B022809D82868BF
:101580008001F7D52BE000BFFFF700FD001B02280C
:1015900002D90320BDE8F88F28688001F4D41EE04A
:1015A0000128F7D00868E26900F48001914214D163
:1015B000226A00F03F0191420FD147F6C071626A82
:1015C0000140914209D1A26A00F44031914204D114
:1015D000E16A00F07060884201D00120DAE7002063
:1015E000D8E70000083802400038024000004742B7
:1015F000800E4742007000400000FFFF70B50400FD
:1016000005D00025A56294F8510010B106E0012034
:1016100070BD84F85050204600F030F8022084F865
:1016200051002068016821F040010160D4E9010106
:101630000843D4E903121143084361690843218B2D
:1016400001F400710843E1690843216A0843A16A73
:10165000084321680860A069042101EA1040616A1A
:101660000843216848602068C16921F40061C161B4
:101670006565012084F85100002070BDF0B587B089
:10168000044614216846FEF777FF1C49206888420B
:1016900032D11B480024016841F480410160006898
:1016A00000F48040059016481038016841F00401AC
:1016B0000160016801F004010591016841F0020137
:1016C00001600068022500F0020005900C20CDE9C1
:1016D000000502AA0326052782E8D00069460948CA
:1016E000FFF766FB2803CDE9000502AA694682E8F8
:1016F000D0000548FFF75CFB07B0F0BD00380040A4
:101700004038024000080240000402402DE9F84F32
:10171000044690F8500000271D46164689460128C9
:101720000DD04FF0010B84F850B0FFF72FFC80462E
:1017300094F85100BA46012804D002278EE0022016
:10174000BDE8F88FB9F1000F7DD0002E7BD00320CB
:1017500084F85100C4F854A0C4F83090A686E686F8
:10176000C4F838A0A4F83CA0A4F83EA0C4F844A053
:10177000C4F840A0A068B0F5004F04D1206801680B
:1017800041F48041016020680168490603D4016882
:1017900041F040010160E068B0F5006F606803D07F
:1017A00030B3012E24D040E008B1012E1CD1206BB3
:1017B00021680088C86006E020688168890709D52B
:1017C000216B0988C160206B801C2063E08E401E65
:1017D000E08609E0FFF7DAFBA0EB0800A84202D39D
:1017E000681C01D031E07DB3E08E0028E4D11FE019
:1017F000206B21680078087306E0206881688907FB
:1018000009D5216B09780173206B401C2063E08EA1
:10181000401EE08609E0FFF7B9FBA0EB0800A842F4
:1018200002D3681C01D010E075B1E08E0028E4D12D
:1018300042462946204600F069FE08B12020606536
:10184000A06820B107E008E0FFE7032706E0206872
:10185000C16880680090606D00B1012784F851B0C4
:1018600084F850A038466BE710B5401EB0F1807F79
:1018700001D3012010BD4FF0E02460610F216017FB
:1018800001F02FF90020A06107202061002010BD89
:1018900070B590F83C20012A32D0012480F83C40F9
:1018A000022280F83D2003685A689D6822F0700685
:1018B0000A6832435A60134B02689A4214D0B2F15C
:1018C000804F11D0104B9A420ED0104B9A420BD041
:1018D0000F4B9A4208D00F4B9A4205D00E4B9A42BA
:1018E00002D00E4B9A4204D1496825F08003194377
:1018F000916080F83D40002180F83C10084670BDA2
:10190000022070BD000001400004004000080040BB
:10191000000C00400004014000400140001800405D
:1019200010B5040003D094F83D0010B107E0012089
:1019300010BD002084F83C00204600F00DF8022085
:1019400084F83D00211D206800F0E8FE012084F8A5
:101950003D00002010BD000008B50068064988421F
:1019600008D10648016841F010010160006800F0EC
:101970001000009008BD00000010004040380240F8
:10198000022180F83D1001688A6802F00702062AE9
:1019900003D00A6842F001020A60012180F83D107C
:1019A00000207047022180F83D1001680A6A41F268
:1019B00011131A4207D10A6A9B101A4203D10A680E
:1019C00022F001020A60012180F83D1000207047DA
:1019D0007047000070B5026804461068D16853690A
:1019E00010F00F0F52D003F0010501F490762E4352
:1019F0005FD0C20705D0CA0503D5E26B42F00102F1
:101A0000E263420705D5DA0703D0E26B42F0020237
:101A1000E263820705D5DA0703D0E26B42F00402E5
:101A2000E263020707D501F020022A4303D0E26BEC
:101A300042F00802E263E26B002A33D0800604D54C
:101A4000880602D5204600F034FF20684069E16B2B
:101A5000C0F38010090700D428B3204600F012FF1D
:101A60002068416949061AD5416921F04001416168
:101A7000606BA0B11B490165606BFFF703F800289C
:101A800010D0606B016DBDE870400847830610D52B
:101A90008B060ED52046BDE8704000F00ABF2046F8
:101AA000FFF796FF70BD2046FFF792FF0020E0632E
:101AB00070BD030606D50B0604D52046BDE8704070
:101AC00000F0D6BF4006F3D54806F1D5D1682046D0
:101AD00021F04001D160202184F8391000F0F8F89D
:101AE00070BD0000E527000870B5040004D094F82C
:101AF0003900002510B106E0012070BD84F838508F
:101B0000204600F023F8242084F839002068C168BA
:101B100021F40051C160204600F016FF20680169E1
:101B200021F4904101612068416921F02A0141615D
:101B30002068C16841F40051C160E563202084F849
:101B4000390084F83A00002070BD00002DE9F04112
:101B500086B0064614216846FEF70EFD304930680F
:101B600088425AD12F480024016841F010010160D9
:101B7000006800F0100005902A481438016841F010
:101B8000010101600068694600F0010005904FF412
:101B9000C06000900220CDE90104032003900720DB
:101BA00004902148FFF704F9214D20484FF00067C9
:101BB0002860C5E901744FF48068C5E903488015C1
:101BC0006C61C5E906402C6228466C62FFF73CF860
:101BD00008B1FEF7F0FE7563AE63154D134860352E
:101BE0007830E5E802074020A5E81101104845F8E3
:101BF00014496030AC61EC612C626C62FFF724F830
:101C000008B1FEF7D8FE3563002211462520AE63E9
:101C1000FFF72AFA2520FFF719FA06B0BDE8F08190
:101C2000001001404438024000000240406402407D
:101C3000F8000020F8B5044690F83A0020283CD17E
:101C4000C1B3BAB394F83800012836D0012084F823
:101C50003800A162A2850025E563222084F83A00BD
:101C6000636B1748D863636B16481864636B164838
:101C7000D864606B134605650846666B21680246AA
:101C80003046091DFFF74AF8206801684168009155
:101C900084F83850C16841F48071C160206841699E
:101CA00041F0010141612068416941F04001416119
:101CB0000020F8BDFFE70120FBE70220F9E7000064
:101CC0003F2800087B280008F52700087047704768
:101CD0007047000030B50D4887B0016841F002013F
:101CE000016000680A4D00F002000590012000909C
:101CF00002240190694603942846FFF759F8694683
:101D000028460094FFF754F807B030BD3038024041
:101D100000040240FEE700000D4808B5016841F4E8
:101D2000800101600068002200F4800000901146EC
:101D30003A20FFF799F93A20FFF788F90022114677
:101D40004620FFF791F9BDE808404620FFF77EB92D
:101D5000303802402DE9F04786B014216846FEF77E
:101D60000BFC3A480025016841F0800101600168E0
:101D700001F080010591016841F0040101600168F2
:101D800001F004010591016841F001010160016861
:101D900001F001010591016841F002010160016853
:101DA00001F002010591016841F010010160006835
:101DB000DFF89CA000F010000590002248F21011FE
:101DC0005046FFF7DDF8012240215046FFF7D8F8D2
:101DD000DFF88080002203214046FFF7D1F8DFF8CA
:101DE00078904FF40067002239464846FFF7C8F85C
:101DF0004FF4887001248DE8310069465046039500
:101E0000FEF7D6FF4020CDE900040226CDE90246C8
:101E100069465046FEF7CCFF03208DE83100039061
:101E200069464046FEF7C4FFCDE90074CDE902469D
:101E300069464846FEF7BCFFE0038DE8710069463D
:101E40005046FEF7B5FF06B0BDE8F08730380240D7
:101E50000000024000040240001002400F4810B58C
:101E60000D4901604FF48271416000218160C160C1
:101E70004FF400720161C0E90512C1610162416263
:101E800081620A21C162FFF7B9FB002803D0BDE8D7
:101E90001040FEF790BD10BD00380040200000202B
:101EA0001CB500240E4800940C4901940160532194
:101EB000C0E901144FF6FF718461C160FFF730FD86
:101EC00008B1FEF778FD0094694605480194FFF7D4
:101ED000DFFC002801D0FEF76EFD1CBD00100040A5
:101EE000780000200C4810B50A4901604FF4E13138
:101EF0004160002181600C22C160C0E9041281614F
:101F0000C161FFF7F1FD002803D0BDE81040FEF7E6
:101F100052BD10BD00100140B8000020FEE7FEE7F2
:101F200070B5002404F1B000C0B2002100F046F901
:101F30000021084600F042F90021102000F03EF98F
:101F400000250121002000F039F96D1CEDB2802D33
:101F5000F7D3641CE4B2082CE4D370BD70B5012241
:101F6000464D140221462846FFF70AF83220FEF7B4
:101F70000DFF002221462846FFF702F83220FEF727
:101F800005FF012221462846FEF7FAFF0021AE2078
:101F900000F014F90021084600F010F9002110208B
:101FA00000F00CF90021402000F008F90021812008
:101FB00000F004F90021CF2000F000F90021A12059
:101FC00000F0FCF80021C82000F0F8F80021A6205D
:101FD00000F0F4F80021A82000F0F0F800213F20E4
:101FE00000F0ECF80021D32000F0E8F800210846CA
:101FF00000F0E4F80021D52000F0E0F80021802076
:1020000000F0DCF80021D92000F0D8F80021F12000
:1020100000F0D4F80021DA2000F0D0F800211220DE
:1020200000F0CCF80021DB2000F0C8F800214020AF
:1020300000F0C4F80021202000F0C0F800210220A8
:1020400000F0BCF800218D2000F0B8F80021142029
:1020500000F0B4F80021A42000F0B0F80021A62080
:1020600000F0ACF80021AF2000F0A8F8FFF758FF0F
:10207000BDE870400021084600F002B800000240B0
:1020800010B50446B031C8B2002100F097F8102016
:1020900040EA1410002100F091F804F00F00BDE8B0
:1020A000104040F00100002100F088B82DE9F04117
:1020B000203A00240E468046D7B27F2803D900205C
:1020C0008E1C8046F6B2224D314613B3FFF7D8FF7F
:1020D00004EB07100121285CC043C0B200F06EF889
:1020E000641CE4B2082CF3D3761CF1B24046FFF72F
:1020F000C7FF002404EB071028440121007AC043E5
:10210000C0B200F05BF8641CE4B2082CF2D3BDE866
:10211000F081FFF7B5FF00BF04EB07100121285C39
:1021200000F04CF8641CE4B2082CF5D3761CF1B234
:102130004046FFF7A5FF002404EB071028440121C7
:10214000007A00F03BF8641CE4B2082CF4D3DEE71C
:10215000962D00082DE9F0478046002608981D4678
:1021600091468A463446470823E0281B401EC1B2E8
:102170000A2000F003FEB9FBF0F00A21B0FBF1F2F7
:1021800001FB120026B9691E8C4201DA38B1012622
:102190003030C2B207FB0480C0B2002304E007FB6A
:1021A00004800023C0B220225146FFF77FFF641C49
:1021B000E4B2AC42D9D3BDE8F087000073B50E4D50
:1021C0000C46002210212846FEF7DAFE4FF40041AB
:1021D0000CB1012200E000222846FEF7D1FE4FF4A8
:1021E0007A73012269460548FFF790FA012210210F
:1021F0002846FEF7C5FE7CBD0000024020000020FE
:102200007047000000B585B00220009001200390C7
:102210000020019069460248FEF7CAFD05B000BDE6
:102220000004024000B585B002200121CDE9000183
:10223000039069460248FEF7BBFD05B000BD0000F3
:102240000004024010B50F4C002201212046FEF789
:1022500097FEFFF7E7FF002202212046FEF790FEDF
:10226000142000F057FC012211462046FEF788FE9C
:10227000142000F04FFC20460022BDE81040012150
:10228000FEF77EBE0004024010B50F4C0022012173
:102290002046FEF775FEFFF7C5FF0122022120460A
:1022A000FEF76EFE142000F035FC01221146204698
:1022B000FEF766FE142000F02DFC20460022BDE84B
:1022C00010400121FEF75CBE000402402DE9F04100
:1022D00080460024FFF796FF154E00254FF6FF7746
:1022E000002201213046FEF74BFE142000F012FCC4
:1022F000012211463046FEF743FE07EA440402215C
:102300003046FEF731FE08B1641CA4B2142000F080
:1023100001FC6D1CEDB2082DE2D3B8F1000F04D022
:10232000FFF790FF2046BDE8F081FFF7ADFFF9E72A
:102330000004024070B50546FFF774FF164E0022F8
:1023400001213046FEF71CFE0024280601D501229B
:1023500000E0002202213046FEF712FE6806050E5C
:10236000142000F0D7FB012211463046FEF708FE8C
:10237000142000F0CFFB002201213046FEF700FEC2
:10238000142000F0C7FB641CE4B2082CDDD3BDE8C8
:102390007040142000F0BEBB0004024010B5FFF7EF
:1023A00041FF0E4C012202212046FEF7E9FD0122E9
:1023B00011462046FEF7E4FD142000F0ABFB00229E
:1023C00002212046FEF7DCFD142000F0A3FB20468E
:1023D0000022BDE810400121FEF7D2BD00040240FA
:1023E00010B5FFF71FFF0E4C002201212046FEF71B
:1023F000C7FD002202212046FEF7C2FD142000F096
:1024000089FB012211462046FEF7BAFD0122022176
:102410002046FEF7B5FDBDE81040142000F07ABB61
:102420000004024070B50024FFF7ECFE134D0122BA
:1024300002212846FEF7A4FD0A2000F06BFB0122D2
:1024400011462846FEF79CFD0A2000F063FB07E0DA
:10245000641CE4B2FA2C03D9FFF7C2FF012070BD5F
:1024600002212846FEF780FD0028F1D1002201213B
:102470002846FEF785FD002070BD000000040240E4
:1024800010B5FFF727FC0321BDE81040202000F025
:1024900021B810B5FFF782FFB120FFF74BFFFFF720
:1024A000C1FF0120FFF712FF04020120FFF70EFF1A
:1024B00004440120FFF70AFF24020120FFF706FF72
:1024C000204404020020FFF701FF0444FFF788FFC7
:1024D000204610BD70B50D460446FFF75FFFB020E3
:1024E000FFF728FFFFF79EFF2046FFF723FFFFF7C8
:1024F00099FF2846FFF71EFFFFF794FFFFF770FFD5
:10250000BDE870406420FEF741BC000038B50446C9
:102510001248134B0068B0FBF3F04FF47A73584342
:1025200000906068B0F5827F0DD10B4600920022CA
:102530008021204600F016F870B1606D40F0200058
:102540006065032038BD009830B1401E00902068BF
:102550008068C0430006F6D5002038BD1C0000206E
:1025600000366E012DE9F0411D4617460E46044621
:10257000DDF8188008E0681C06D0FEF707FDA0EB28
:102580000800A8420BD255B12068806836EA0000E6
:1025900030D00020B842EED10020BDE8F0812068A4
:1025A000416821F0E00141606068B0F5827F0BD1A5
:1025B000A068B0F5004F02D0B0F5806F04D120685C
:1025C000016821F040010160A06AB0F5005F09D107
:1025D0002068016821F4005101602068016841F41D
:1025E00000510160012084F85100002084F850005F
:1025F0000320D2E70120CDE7704700002DE9F04726
:10260000044607461078DDF820901E461546884699
:10261000002827D0802C25D8C2B2802A0CD9802C43
:1026200020D84B462A4641462046FEF7C7F9A01956
:1026300084B215F8020FEBE70D2A0CD008F0FF0169
:10264000E0B24B46FFF732FD04EB56001FFA80F470
:1026500015F8010FDCE708EB06001FFA80F83C468E
:102660006D1CF5E7BDE8F087FEF796BC30B593B07A
:1026700030216846FDF780FF14210CA8FDF77CFF90
:102680001D480025016841F080510160006800F09C
:10269000805011901948016841F480410160006840
:1026A000022400F480401190012000900004019069
:1026B0008001CDE9064008AA0420A82182E8130081
:1026C0000B906846FEF7ECFD08B172B6FEE70CA968
:1026D0000F2081E831004FF4A0500F904FF480504C
:1026E000109005210CA8FEF7F1FC002801D072B66D
:1026F000FEE713B030BD00004038024000700040DB
:102700000548016841F47001016003494FF0006021
:10271000803908607047000088ED00E0F0B502687D
:10272000254C264D264E274F274B4FF0804CA0427C
:1027300009D0604507D0A84205D0B04203D0B842C6
:1027400001D0984204D122F0700E4A6842EA0E028B
:10275000A0421BD0604519D0A84217D0B04215D076
:10276000B84213D0984211D0184DA8420ED0184D3F
:10277000A8420BD0174DA84208D0174DA84205D04B
:10278000164DA84202D0164DA84203D122F440753E
:10279000CA682A434D6922F080022A4302608A688F
:1027A000C2620A688262A04201D0984201D10969DE
:1027B000016301214161F0BD0000014000040040BF
:1027C00000080040000C00400004014000400140AF
:1027D000004401400048014000180040001C004037
:1027E0000020004010B5806B0021C185C184FFF737
:1027F000EFF810BD70B5846B2068406994F839100B
:10280000C0F3C0100025212904D118B1E584204669
:1028100000F046F82068406994F83A10C0F3801040
:10282000222904D118B1E585204600F02BF8E06B91
:1028300040F01000E0632046FFF7CAF870BD10B505
:102840000146806B09680968C90513D40021C18558
:102850000168CA6822F48072CA6001684A6922F07D
:1028600001024A6101684A6922F040024A6120215E
:1028700080F83A10FFF72AFA10BD10B5806BFFF709
:1028800026FA10BD0168CA6822F49072CA60016815
:102890004A6922F001024A61202180F83A1070470B
:1028A0000168CA6822F0C002CA60202180F839108D
:1028B000704710B590F83A10222901D0022010BDBF
:1028C0008168B1F5805F11D00169002901681FD0CE
:1028D000496801F07F03816A4A1C82620B70C18DD6
:1028E000491E0904090CC18518D02BE00269816AD0
:1028F000002A0268526805D0D2B20A80816A491C57
:102900008162ECE7C2F308020A80816A891CF7E75A
:102910004A68816A4B1C83620A70E0E70168CA68F2
:1029200022F02002CA600168CA6822F48072CA607C
:1029300001684A6922F001024A61202180F83A10B8
:10294000FFF7C4F9002010BD2DE9F04104460068EE
:102950000169E26821F44051114301612169A068D5
:10296000E26908436169114308432168CA6849F272
:102970000C639A430243CA6020684169A26921F44A
:10298000407111434161E069192764253226B0F591
:10299000004F354A354920684FF0000806D088427C
:1029A00001D0904236D1FEF73BFC35E0884201D0A1
:1029B000904202D1FEF734FC01E0FEF721FC616891
:1029C0004A18A0FB070148EB0803FDF751FC01463C
:1029D000B0FBF5F00201B1FBF5F06FF018035843BE
:1029E00001EB800006EBC000B0FBF5F000F0F80052
:1029F00002EB4002B1FBF5F0584301EB800006EB1F
:102A0000C000B0FBF5F000F00700216810448860BA
:102A1000BDE8F081FEF7F4FB61688B0F8A00A0FB34
:102A20000701FDF725FC0146B0FBF5F06FF0180239
:102A3000504301EB800006EB0010B0FBF5F000F016
:102A4000F002B1FBF5F002EB0012B1FBF5F06FF014
:102A50001803584301EB800006EB0010B0FBF5F0C3
:102A600000F00F00D1E70000001401400010014009
:102A700090F83910212901D0022070478168B1F502
:102A8000805F016A0BD04A1C0262026809785160BB
:102A9000C18C491E0904090CC1840ED017E00988B5
:102AA0000268C1F30801516001690029016A02D07E
:102AB000491C0162ECE7891CFBE70168CA6822F047
:102AC0008002CA600068C16841F04001C160002016
:102AD000704700000148FEF77DBF0000B8000020ED
:102AE000FEE70907090E002804DB00F1E02080F86A
:102AF0000014704700F00F0000F1E02080F8141D72
:102B0000704730380A2801D20120704700207047F2
:102B10007047000070B54FF6FA710A4D081A84B27A
:102B2000286844622846FEF72BFF4FF6F9712868A3
:102B300001E0426A94B28C42FBD3BDE87040014888
:102B4000FEF730BF7800002003490A685206FCD522
:102B5000C2B24A6070470000001001400EB5FEF797
:102B600023FAFFF783FDFFF7F5F8FFF7D5F8FFF736
:102B7000B9F9FFF795F9FFF771F901226A496B4836
:102B8000FFF758F8FFF7EAF90024102368A20221A2
:102B900020460094FFF732FD4FF4FA7602E030460B
:102BA000FEF7F4F8FDF71EFE0028F8D1FFF768FCE9
:102BB0006420FEF7EBF808212020FFF78BFCFFF7DD
:102BC00068FC594D010C80B2C5E901104FF4C8777B
:102BD0000CE008212020FFF77DFCFFF75AFC010CD8
:102BE00080B2C5E901103046FEF7D0F86868B842F7
:102BF00002D1A8680028ECD0FFF792F9DFF84091E5
:102C000010266FF004074FF01E084FF47A7A02A9DD
:102C100001A8FDF72AFE08212020FFF75BFCFFF743
:102C200038FC000C6860BDF80400C2B207EB10214C
:102C300044A0FDF795FBBDF80800C2B208EB1021D7
:102C400040A0FDF78DFB41A06968FDF789FB40219D
:102C50004846FEF78EF910233EA20121042000947D
:102C6000FFF7CCFCBDF80400009607EB102203230D
:102C700001212820FFF76EFA102338A201214020FD
:102C80000094FFF7BBFCBDF804000123C2B200961C
:102C900019464820FFF75EFA102331A20121542083
:102CA0000094FFF7ABFC10232EA203210420009414
:102CB000FFF7A4FCBDF80800032308EB10220096E0
:102CC00019462820FFF746FA102324A203214020AA
:102CD0000094FFF793FCBDF808000096C2B20123F0
:102CE00003214820FFF736FA102320A203215420A5
:102CF0000094FFF783FC10231DA2052104200094FB
:102D0000FFF77CFC00960323052128206A68FFF763
:102D100021FA102318A2052146200094FFF76EFC2B
:102D20005046FEF733F872E700000020B80000209C
:102D3000496E697469616C697A696E672E2E2E001E
:102D400000000240253032642531640025303364B0
:102D50000000000074656D703A0000002E00000055
:102D6000A1E6000068756D693A0000002552480030
:102D7000434F323A0000000050504D0002460120FF
:102D800000E05043491EC9B2FBD270474FF040707B
:102D9000E1EE100A70470000000000000000000093
:102DA000000000000000000000F80000000000002B
:102DB00000333000000000100C06100C060000006C
:102DC00000000000000040C07840C0784000043F90
:102DD00004043F040400007088FC08300000001860
:102DE00020FF211E0000F008F000E0180000002184
:102DF0001C031E211E0000F00888700000001E2128
:102E000023241927211010160E00000000000000D6
:102E1000000000000000000000E0180402000000B4
:102E200000071820400000020418E00000000040E5
:102E3000201807000000404080F08040400002025F
:102E4000010F01020200000000F00000000001017B
:102E5000011F01010100000000000000000080B01F
:102E600070000000000000000000000000000001F1
:102E7000010101010101000000000000000000301C
:102E800030000000000000000000806018040060B6
:102E900018060100000000E010080810E000000F14
:102EA000102020100F00001010F80000000000207B
:102EB000203F2020000000700808088870000030C3
:102EC000282422213000003008888848300000186B
:102ED000202020110E000000C02010F80000000784
:102EE0000424243F240000F80888880808000019FA
:102EF000212020110E0000E0108888180000000F2B
:102F0000112020110E0000380808C8380800000001
:102F1000003F000000000070880808887000001C56
:102F2000222121221C0000E010080810E00000000F
:102F3000312222110F00000000C0C000000000007C
:102F400000303000000000000080000000000000A1
:102F50008060000000000000804020100800000198
:102F6000020408102000404040404040400004045B
:102F70000404040404000008102040800000002025
:102F8000100804020100007048080808F000000062
:102F9000003036010000C030C828E810E0000718F3
:102FA000272423140B000000C038E0000000203C60
:102FB00023020227382008F8888888700000203F04
:102FC000202020110E00C03008080808380007181B
:102FD00020202010080008F808080810E000203F12
:102FE000202020100F0008F88888E8081000203FF3
:102FF00020202320180008F88888E8081000203FC7
:10300000200003000000C03008080838000007183E
:103010002020221E020008F808000008F808203FBF
:10302000210101213F20000808F8080800000020C5
:10303000203F2020000000000808F8080800C08099
:1030400080807F00000008F888C028180800203F12
:1030500020012638200008F8080000000000203F6A
:1030600020202020300008F8F800F8F80800203F61
:10307000003F003F200008F830C00008F808203F5B
:10308000200007183F00E01008080810E0000F10AB
:10309000202020100F0008F808080808F000203F42
:1030A000210101010000E01008080810E0000F18DD
:1030B000242438504F0008F8888888887000203F02
:1030C0002000030C30200070880808083800003801
:1030D000202121221C00180808F808081800000008
:1030E000203F2000000008F808000008F808001F32
:1030F000202020201F000878880000C83808000021
:1031000007380E010000F80800F80008F800033C3A
:103110000700073C03000818688080681808203002
:103120002C03032C30200838C800C83808000000E1
:10313000203F2000000010080808C8380800203888
:10314000262120201800000000FE020202000000DC
:10315000007F40404000000C30C000000000000034
:1031600000010638C00000020202FE00000000401C
:1031700040407F0000000000040202020400000042
:10318000000000000000000000000000000080803F
:103190008080808080800002020400000000000027
:1031A0000000000000000000808080800000001906
:1031B000242222223F2008F8008080000000003FE7
:1031C000112020110E000000008080800000000E01
:1031D000112020201100000000808088F800000EDF
:1031E000112020103F200000808080800000001F00
:1031F000222222221300008080F088888818002074
:10320000203F202000000000808080808000006B34
:1032100094949493600008F8008080800000203F20
:10322000210000203F20008098980000000000202E
:10323000203F20200000000000809898000000C07F
:103240008080807F000008F8000080808000203FA0
:1032500024022D302000000808F8000000000020A3
:10326000203F202000008080808080808000203FE0
:1032700020003F20003F8080008080800000203FB1
:10328000210000203F200000808080800000001F7F
:10329000202020201F00808000808000000080FF10
:1032A000A12020110E000000008080808000000E10
:1032B000112020A0FF80808080008080800020205E
:1032C0003F212000010000008080808080000033CA
:1032D000242424241900008080E080800000000065
:1032E000001F202000008080000000808000001F60
:1032F000202020103F2080808000008080800001FE
:103300000E300806010080800080008080800F3031
:103310000C030C300F0000808000808080000020B3
:10332000312E0E31200080808000008080808081DE
:103330008E7018060100008080808080800000214F
:10334000302C2221300000000000807C02020000AE
:103350000000003F404000000000FF0000000000AF
:103360000000FF0000000002027C8000000000401E
:10337000403F0000000000060101020204040000BA
:10338000000000000000109453321E325210007EE4
:103390004242427E0000000000FF49494949494934
:1033A00049FF00000000D6C7404042424242C242AC
:1033B0004242424242404000002070282423202004
:1033C00020242830E0000000D4C6109453321E326E
:1033D0005210007E4242427E0000000000FF494938
:1033E0004949494949FF00000000D6C708CC4A496D
:1033F000484ACC18007F88888482E00000FF1212BF
:1034000052927F00007E88888482E000C4DC0484BD
:10341000E45C44C400F29292FE9292F20200020135
:103420007F10103F808F54245F4484878000D3B284
:10343000008060F80780601C1010FF101010000062
:10344000010000FF000202020202FF02020202006B
:10345000BCFE000000F8888C8A89888888F8000003
:103460000000000000FF44444444444444FF000082
:103470000000D7D400FE222222FE00001010FF1010
:1034800010F00000203F2121111F9040201847809C
:10349000403F0000D6FA80828282FE82828282824F
:1034A000FE8282828000008040300F000000000019
:1034B000FF0000000000BFAA0000181610D0B89747
:1034C00090909092941000000020108C83804146D0
:1034D0002810284443808000B7A200000202FE4268
:1034E000820242724E40C00000008040300C838057
:1034F00041462810284641808000BCB040404242EE
:103500004242C242424242424240400000207028B1
:103510002423202020242830E0000000D4C600000E
:10352000FE222222FE00FE828292A29E0000806085
:103530001F0242827F00FF402F102C438000B7FE05
:10354000000090884C57A42454548C840000000040
:1035500001018042221A07024282423E010101001B
:10356000CEF100020212620202FE020242320202A6
:10357000000001010101010101FF0101010101013F
:103580000100C6BD0040E050484443404040485020
:1035900060C00000000000FE42424242424242FE41
:1035A00000000000CCA8403C10FF101020108F78C5
:1035B00008F808F80000020602FF01010442211881
:1035C0004681403F0000CEEF02FE9292FE020010C4
:1035D0001116F01413100000101F0808FF04814199
:1035E000310D030D31418100C1AA00FE0222428249
:1035F00072022242827202FE000000FF10080601E1
:103600000E100806014E807F0000CDF88082828275
:10361000FE8282828282FE8282828000008040302E
:103620000F0000000000FF0000000000BFAA000023
:10363000181610D0B8979090909294100000002027
:10364000108C838041462810284443808000B7A214
:10365000202024242424BF64243428242220200071
:1036600010080402FF494949494949FF0000000088
:10367000D5DF080889EE980040404040FF404040B8
:103680004000020100FF0043404040407F40404076
:103690004000C9E700FE0202021222428242221AC0
:1036A00002020000007F4040484442414041424CF9
:1036B00040404000C7F80000F888888888FF888864
:1036C0008888F800000000001F080808087F888824
:1036D00088889F80F000B5E71010D0FF901000C9D7
:1036E0004E48F84C4B780000040300FF00412013C3
:1036F0000A06FF0212221E00CCDD080888C8380C1A
:103700000B0808E8080808080800020100FF40410B
:103710004141417F414141414000D4DA1090FF9046
:103720001000905234107F10345290000601FF00B8
:103730000182825A562322524E820200C2A5000004
:10374000FE222222222222222222FE00000000004B
:10375000FF424242424242424242FF000000C4BF96
:103760000808E8292E28E80808C80C0BE808080013
:103770000000FF0949897F00000F40807F000000A2
:10378000C7B004040484E43C2724242424E404046F
:10379000040004020100FF0909090949897F0000AA
:1037A0000000D3D0000000000000C03FC0000000B7
:1037B00000000000804020100C03000000030C10EB
:1037C00020408000C8CB060909E6F80C040202027A
:1037D0000202041E0000000000071F30204040408D
:1037E000404020100000A1E600061016000610164A
:1037F00000000000000000000102030406070809A1
:1038000000000000010203040400000800000000A2
:103810000000000200010000100000003C38000819
:103820000000002020000000C40100085C380008EF
:1038300020000020F8070000E00100080000000060
:103840000000000000000000000000000100000077
:0C38500010000000000000000024F40044
:040000050800018965
:00000001FF
