:020000040800F2
:10000000381D00209D01000871290008A302000886
:100010006D290008EF080008F13500080000000015
:10002000000000000000000000000000AF01000818
:10003000F308000800000000EF010008872E000808
:10004000B7010008B7010008B7010008B7010008B0
:10005000B7010008B7010008B7010008B7010008A0
:10006000B7010008B7010008B7010008B701000890
:10007000B7010008B7010008B7010008B701000880
:10008000B7010008B7010008B7010008B701000870
:10009000B7010008B7010008B7010008B701000860
:1000A000B7010008B7010008B7010008B701000850
:1000B000B7010008B7010008B7010008B701000840
:1000C000B7010008B7010008B7010008B701000830
:1000D000B7010008B7010008E1350008B7010008C2
:1000E000B7010008B7010008B7010008B701000810
:1000F000B7010008B7010008B7010008B701000800
:10010000B7010008B7010008B7010008B7010008EF
:10011000B7010008B7010008B7010008B7010008DF
:10012000B7010008B7010008B7010008B7010008CF
:10013000B7010008B7010008B7010008B7010008BF
:10014000B7010008B7010008B7010008B7010008AF
:10015000B7010008B7010008B7010008B70100089F
:10016000B7010008B7010008B7010008B70100088F
:10017000B7010008B7010008B7010008000000003F
:10018000B7010008B7010008DFF80CD000F098FBB9
:1001900000480047E5080008381D00200648804751
:1001A00006480047FEE7FEE7FEE7FEE7FEE7FEE75C
:1001B000FEE7FEE7FEE7FEE70D30000889010008D4
:1001C000EFF3108072B6704780F310887047434A8F
:1001D0001368012B04D04FF001031360404A1060F4
:1001E000404A116040484FF0805101607047EFF382
:1001F000108272B63948016851B34FF000010160B6
:100200003748016891B1EFF309811EF0100F08BF64
:1002100021ED108B21E9F00F4FF000041EF0100FBC
:1002200008BF012441F8044D006801602D490968A8
:10023000096808C9B1E8F00F002B18BFB1EC108BAA
:1002400081F309884EF0100E002B18BF2EF0100E0F
:1002500082F310884EF0040E704722490860EFF3D5
:10026000148222F0040282F314881D494FF000002A
:1002700008601A494FF0010008601C484FF47F01E4
:10028000D0F8002041EA0201016017484FF0805188
:10029000016017480068006880F3088861B662B69C
:1002A00070471EF0040F0CBFEFF30880EFF30980D6
:1002B00020E9F00F40F804ED40F804ED1EF0040FC3
:1002C0000CBF80F3088880F3098800B504F04AFB6E
:1002D0005DF804EB4EF0040E70470000BC000020F7
:1002E000B4000020B800002004ED00E020ED00E0A4
:1002F00008ED00E02DE9F05F0546002092469B46A0
:1003000088460646814640241BE02846414647462B
:10031000224600F0B7F953465A46C01A914110D30D
:1003200011461846224600F09EF92D1A67EB010887
:100330004F4622460120002100F095F917EB0009F5
:100340004E41201EA4F10104DFDC484631462A4616
:100350004346BDE8F09F40EA01039B0703D009E054
:1003600008C9121F08C0042AFAD203E011F8013BA1
:1003700000F8013B521EF9D27047D2B201E000F8FA
:10038000012B491EFBD270470022F6E710B5134639
:100390000A4604461946FFF7F0FF204610BD30B567
:1003A00005462A460B4612F8010B13F8014B08B11B
:1003B000A042F8D01CB1002802D06D1CF1E72846FD
:1003C00030BD421C10F8011B0029FBD1801A704778
:1003D000034611F8012B00F8012B002AF9D1184629
:1003E00070472DE9FE4F804681EA0300C00F0C469E
:1003F000009021F0004123F00045B8EB0200A94134
:1004000005D24046214690461C460B46024623F044
:100410000040104347D0270DC7F30A00C3F30A5129
:100420000290401A019040286BDAC3F3130040F4A5
:10043000801B0098924620B10023D2EB030A63EBA5
:100440000B0B01985946C0F14002504600F00BF9E1
:1004500006460D4650465946019A00F023F910EB26
:1004600008006141002487EA115284EAE7731A43C5
:1004700040D0009A62B3019A012A4FEA075215DC74
:10048000001B61EB02014FF0004202EA0752CDE986
:100490000042001C41F5801132462B4600F023F942
:1004A00003B0BDE8F08F40462146F9E7001B61EB41
:1004B0000201001C41F5801300185B412018A2F5D1
:1004C000001747EB030140EAD570B6196D4111E002
:1004D0006D084FEA360645EAC0754FEA0752001B21
:1004E00061EB0201001C41F5801149084FEA300020
:1004F0000019514132462B4603B0BDE8F04F00F0E1
:10050000E3B80098012240000023D0EB020263EB25
:10051000E073009821464FEAE074B8EB000061EB0D
:100520000401E9E783F000435BE781F0004158E70D
:100530002DE9FE4F81EA030404F0004421F000415C
:1005400000944FF0000B23F0004350EA01045ED00A
:1005500052EA03045BD0C3F30A54C1F30A552C4496
:10056000A4F2F3340194A0FB0254C1F3130141F44B
:100570008011C3F3130343F4801301FB024400FB17
:10058000034E840A970A44EA815447EA8357A4FB3E
:10059000076802958D0A05FB07854FEA932C04FB3B
:1005A0000C542705029D4FEA065847EA1637B5EB6B
:1005B00008056EEB070C870E920E47EA811742EA98
:1005C0008312A7FB0201B6EB0B0164EB00042B0DB9
:1005D00043EA0C335E1844EB1C50DA465146E7FB05
:1005E0000201C5F313044FEA0B3343EA14534FEAF5
:1005F0000432019C43EA0603A4F10C040294009C1B
:10060000CDE900B400F06FF803B0BDE8F08F002032
:100610000146F9E700F0004230F000400AD0C10D79
:1006200001F56071C0F3160042EA0151C2084007AB
:100630001143704700200146704730B50B46014614
:1006400000202022012409E021FA02F59D4205D371
:1006500003FA02F5491B04FA02F52844151EA2F11B
:100660000102F1DC30BD202A04DB203A00FA02F15D
:10067000002070479140C2F1200320FA03F3194390
:1006800090407047202A04DB203A21FA02F0002132
:10069000704721FA02F3D040C2F120029140084392
:1006A00019467047202A06DBCB17203A41FA02F0A0
:1006B00043EAE07306E041FA02F3D040C2F12002BF
:1006C000914008431946704710B5141E73F1000499
:1006D00008DA401C41F1000192185B411A4301D134
:1006E00020F0010010BD2DE9F04D92469B4611B15E
:1006F000B1FA81F202E0B0FA80F220329046FFF7C0
:10070000B2FF04460F4640EA0A0041EA0B01534695
:100710005A46084313D0114653EA010019D0C8F1D4
:1007200040025046FFF7AEFF05460E46504659467A
:100730004246FFF798FF084305D0012004E0204619
:100740003946BDE8F08D0020054346EAE0762C43AB
:1007500037430A986305E40AA0EB08000022FD0A6B
:1007600044EA47540A3002D500200146E9E7010572
:1007700010196941DDE9084500196941BDE8F04DEE
:10078000A2E72DE9F04D81EA030404F0004B21F0CB
:10079000004514464FF0000A23F0004150EA0502DC
:1007A00020D054EA01021DD0C5F30A570246C5F312
:1007B0001303C1F31300C1F30A5640F4801543F448
:1007C0008013A7EB0608101BD64608F2FD3873EB22
:1007D000050002D308F1010801E092185B41B8F16D
:1007E000000F03DA00200146BDE8F08D00204FF431
:1007F0008011064684460EE0171B73EB050705D3F0
:10080000121B63EB050306434CEA010C49084FEA4F
:10081000300092185B4150EA0107EDD152EA030023
:1008200012D082EA040083EA0501084305D0101BB8
:10083000AB4106D20122002306E000224FF0004324
:1008400002E06FF0010253101AEB06004CEB085166
:1008500010EB0A0041EB0B01BDE8F04DFFF734BF90
:10086000C1F30A52C1F3130140F2FF3341F4801186
:100870009A4202DA00200146704740F233439A421E
:10088000A2F2334202DC5242FFF7FCBEFFF7EBBE9E
:1008900030B5041E71F1000404DB4FF00044404207
:1008A00064EB0101141E73F1000405DB1C464FF0DC
:1008B0000043524263EB0403994208BF904230BDAB
:1008C000064C074D06E0E06840F0010394E807009D
:1008D00098471034AC42F6D3FFF75AFCCC6C0008B2
:1008E000EC6C000810B505F057FA002010BD00BFF1
:1008F000FEE7704770B504460D464FF480710B4813
:10090000FFF742FD00200A4908704FF6FF732A46A0
:100910002146084801F060FC4FF47A7004F0F5FDC0
:100920004FF4FA6004F0F1FD70BD00001C040020DB
:100930003A000020DC02002010B504464FF480711C
:100940000648FFF721FD002005490870204604F005
:10095000A1F921460348FFF73BFD10BD1C04002010
:100960003A0000201C03002010B505240FE04FF4CE
:1009700000710A48FFF708FD09A0FFF7DDFFC82254
:1009800008A1064800F045F908B1012010BD201E5D
:10099000A4F10101CCB2EAD100BFF7E71C040020AA
:1009A00041540A004F4B000070B505460E46052421
:1009B0000EE04FF400711D48FFF7E6FC1CA0FFF7A6
:1009C000BBFFC8221FA1194800F023F900B104E0C1
:1009D000201EA4F10101CCB2EBD100BF0CB9002064
:1009E00070BD02241BE04FF480711748FFF7CCFC68
:1009F0004FF400710D48FFF7C7FC33462A4613A198
:100A0000114802F00FFE1048FFF796FF4FF4FA521C
:100A100014A1064800F0FDF808B10120E0E7201E0F
:100A2000A4F10101CCB2DED100BFD9E71C04002043
:100A300041542B43574D4F44455F4355523D310A76
:100A4000000000004F4B00001C03002041542B43CA
:100A5000574A41505F4355523D222573222C22258F
:100A600073220A00434F4E4E454354454400000054
:100A7000F8B505460E46174600F066F84FF4FA70D2
:100A800004F043FD02241BE04FF480712048FFF77F
:100A90007BFC4FF400711F48FFF776FC33462A4673
:100AA0001DA11B48009702F0BDFD1948FFF744FF48
:100AB0004FF4FA521FA1174800F0ABF800B104E060
:100AC000201EA4F10101CCB2DED100BF0CB9002080
:100AD000F8BD00F077F808B90020F9E702240FE02C
:100AE0004FF400710B48FFF74FFC13A0FFF724FFF2
:100AF000C82214A1074800F08CF808B10120E7E7EC
:100B0000201EA4F10101CCB2EAD100BFE0E7000051
:100B10001C0300201C04002041542B434950535413
:100B20004152543D222573222C222573222C256408
:100B30000A0000004F4B000041542B4349505345DD
:100B40004E440A003E00000010B506A0FFF7F4FE78
:100B5000322004F0DAFC03A0FFF7EEFE322004F0AE
:100B6000D4FC10BD2B2B2B0D0000000010B54FF452
:100B700080711048FFF708FC4FF400710E48FFF732
:100B800003FCFFF7E1FF4FF4FA7004F0BEFC0BA08A
:100B9000FFF7D2FE4FF4487004F0B7FCFFF7E4FE15
:100BA00008B9002010BD4FF400710348FFF7ECFBBB
:100BB0000120F7E71C0300201C04002041542B52A5
:100BC00053540A0010B502240FE04FF400710A4894
:100BD000FFF7DAFB09A0FFF7AFFEC8220BA106481A
:100BE00000F017F808B1012010BD201EA4F101018A
:100BF000CCB2EAD100BFF7E71C04002041542B43DC
:100C000049504D4F44453D310A0000004F4B000014
:100C1000704770B505460E4614460A2094FBF0F066
:100C200084B2204604F071FC31462846FFF7B7FB3A
:100C300008B1012070BD0020FCE700002DE9F0475D
:100C400006460F46904699464FF0210A002572E06D
:100C500005EB05103A4901EB400090F8200098F8A8
:100C60000010884265D105EB0510354901EB4000C5
:100C700090F8210098F8011088425AD1B9F1000F7C
:100C800029D1F9B2F0B201F025FF00240AE005EB0A
:100C900005112B4A02EB4101085D012101F0DAFF49
:100CA000601CC4B2102CF2DB7A1CD1B2F0B201F09D
:100CB00011FF00240CE005EB0511214A02EB410273
:100CC00004F11001505C012101F0C4FF601CC4B2AA
:100CD000102CF0DB2CE0F9B2F0B201F0FBFE0024A6
:100CE0000CE005EB0511164A02EB4101095DC94311
:100CF000C8B2012101F0AEFF601CC4B2102CF0DBC1
:100D00007A1CD1B2F0B201F0E5FE00240EE005EB52
:100D100005110B4A02EB410204F11001515CC94379
:100D2000C8B2012101F096FF601CC4B2102CEEDBAA
:100D300000E000BF6D1C55458AD3BDE8F087000078
:100D400024660008014691F83500022803D080206F
:100D5000486501207047052081F835000868006863
:100D600020F001000A6810600020F3E7F8B50246A1
:100D70000B460025002400200021DCE0012606FAB5
:100D800001F51E6806EA0504AC4273D15E68012EC7
:100D900008D05E68022E05D05E68112E02D05E6813
:100DA000122E13D190684F000326BE40B0434F006F
:100DB000DE68BE4030439060506801268E40B043EC
:100DC0001E79C6F300168E4030435060D0684F0045
:100DD0000326BE40B0434F009E68BE403043D06003
:100DE0005E68022E02D05E68122E13D1CF0802F187
:100DF000200656F827004E07F70E0F26BE40B043D8
:100E00004F07FF0E1E69BE403043CF0802F1200697
:100E100046F8270010684F000326BE40B0431E79F5
:100E200006F003064F00BE40304310605E6806F0D7
:100E30008056B6F1805F7DD100BF00260096404EFF
:100E4000366846F480463E4F3E603E46366806F4BD
:100E50008046009600BF00BF3A4E8F0856F8270024
:100E60008E07370F0F26BE40B043374EB24202D135
:100E7000002624E05EE0354EB24201D101261EE09C
:100E8000334EB24201D1022619E0324EB24201D1B4
:100E9000032614E0304EB24201D104260FE02F4E5B
:100EA000B24201D105260AE02D4EB24201D10626FA
:100EB00005E02C4EB24201D1072600E008268F073C
:100EC0003F0FBE4030431F4E8F0846F82700264E86
:100ED0003068A0435E6806F48036B6F5803F00D1E6
:100EE0002043214E3060361D3068A0435E6806F412
:100EF0000036B6F5003F00D120431B4E361D306052
:100F0000361D3068A0435E6806F48016B6F5801F73
:100F100000D12043144E08363060361D3068A0439F
:100F20005E6806F40016B6F5001F00D120430E4E91
:100F30000C363060491C1029FFF420AFF8BD0000CA
:100F400044380240083801400000024000040240DA
:100F500000080240000C0240001002400014024051
:100F600000180240001C0240003C01400AB18161AF
:100F700001E00B048361704701480068704700007E
:100F80002800002070B504460CB9012070BD94F80B
:100F90003D0028B9002084F83C00204600F0DAF833
:100FA000242084F83D002068006820F001002168BA
:100FB00008602068006840F40040216808602068EC
:100FC000006820F400402168086000F0D9FA054666
:100FD0005C496068884206D85B48854201D201209E
:100FE00007E0002005E05948854201D2012000E0D9
:100FF0000020012800D1C9E75548B5FBF0F620686C
:10100000406820F03F003043216848604D496068E7
:10101000884201D8701C07E04FF4967070434FF47B
:101020007A71B0FBF1F0401C2168096A21F03F01A0
:1010300008432168086243496068884214D8681EE2
:1010400061684900B0FBF1F0401CC0F30B000428BC
:1010500001D204203DE0681E61684900B0FBF1F058
:10106000401CC0F30B0034E0A06838B9681E61680A
:1010700001EB4101B0FBF1F0401C0AE0681E616821
:1010800001EBC10202EB0111B0FBF1F0401C40F496
:101090008040C0F30B0008B901201AE0A06848B9ED
:1010A000681E616801EB4101B0FBF1F0401CC0F328
:1010B0000B000CE0681E616801EBC10202EB01113C
:1010C000B0FBF1F0401CC0F30B0040F4804040F452
:1010D00000402168C9694CF6FF72914308432168BA
:1010E000C861D4E9070108432168096821F0C001FB
:1010F000084321680860D4E903100843216889681F
:1011000048F2FF329143084321688860D4E9050121
:1011100008432168C96821F0FF0108432168C860BD
:101120002068006840F00100216808600020206409
:10113000202084F83D000020206384F83E0000BF9A
:1011400024E70000A086010080841E0000093D0005
:1011500040420F0010B586B00446142101A8FFF7E5
:1011600013F93849206888426AD1C02001900120D3
:1011700002900320049001A93348FFF7F7FD0122F4
:1011800006213148FFF7F2FE012207212E48FFF722
:10119000EDFE4FF400402D490968086000202B49FE
:1011A00009680860C020019012200290012003907D
:1011B000032004900420059001A92348FFF7D6FDE1
:1011C00000BF002000902248006840F40010204931
:1011D00008600846006800F40010009000BF00BFDF
:1011E00000BF002000901A481038006840F002004C
:1011F0001749103908600846006800F002000090A6
:1012000000BF00BFC0200190122002900120039077
:10121000032004900420059001A90B48FFF7A6FDC8
:1012200000BF002000900A48006840F40010084900
:1012300008600846006800F40010009000BF00BF7E
:1012400006B010BD0054004000040240F001002030
:101250004038024010B50D48006840F400700B495A
:1012600008600846006840F480600860084600682E
:1012700040F480700860032000F0A6F8002000F021
:1012800007F800F02BF8002010BD0000003C0240E1
:1012900070B504460E4800784FF47A71B1FBF0F057
:1012A0000C490968B1FBF0F5284600F0A0FD08B133
:1012B000012070BD102C07D200222146501E00F0E4
:1012C00045F80548046001E00120F2E70020F0E75E
:1012D00030000020340000202C00002008B500BFA2
:1012E000002000901048006840F480400E490860DB
:1012F0000846006800F48040009000BF00BF00BFB7
:1013000000200090081F006840F08050091F08600E
:101310000846006800F08050009000BF00BF052024
:1013200000F052F808BD000044380240014608466B
:10133000002809DB00F01F0301229A4043099B00AB
:1013400003F1E023C3F8002100BF70472DE9F05FEF
:1013500080460D461646002702F078F907463946C2
:101360002A46334601F00700C0F1070ABAF1040F1C
:1013700002D94FF0040A01E0C0F1070AD14600F19A
:10138000040ABAF1070F02D24FF0000A01E0A0F1FF
:10139000030AD4464FF0010A0AFA09FAAAF1010A2F
:1013A0000AEA020A0AFA0CFA4FF0010B0BFA0CFBDC
:1013B000ABF1010B0BEA030B4AEA0B042146404652
:1013C00002F04CF9BDE8F09F00BF00F00702064BA9
:1013D00019684FF6FF031940044B0B4343EA0221FF
:1013E000014B196000BF70470CED00E00000FA05EA
:1013F00070B504460D460CB9012070BD5848006810
:1014000000F00F00A84209D255490D700846006847
:1014100000F00F00A84201D00120EEE7207800F094
:10142000020002281DD1207800F00400042805D114
:101430004C48006840F4E0504A490860207800F0C9
:101440000800082805D14748006840F46040454935
:1014500008604448006820F0F000A1680843414952
:101460000860207800F00100A8B36068012807D167
:101470003C4808380068C0F34040B8B90120BCE7D8
:101480006068022802D06068032807D13548083810
:101490000068C0F3406048B90120AEE73148083821
:1014A0000068C0F3400008B90120A6E72D48006895
:1014B00020F00300616808432A490860FFF75CFDDB
:1014C000064609E0FFF758FD801B41F2883188424B
:1014D00002D9032091E707E02248006800F00C00E1
:1014E0006168B0EB810FEDD11D48006800F00F007E
:1014F000A84209D91A490D700846006800F00F008B
:10150000A84201D0012078E7207800F004000428E8
:1015100007D11448006820F4E050E16808431149FD
:101520000860207800F00800082808D10D480068FD
:1015300020F46040216940EAC1000A49086000F0D7
:101540003FF808490968C1F30311074A515CC840D4
:101550000649086006480068FFF79AFE00204CE73D
:10156000003C024008380240E85D000834000020DA
:101570002C00002001480068704700003400002063
:1015800000B5FFF7F7FF04490968C1F38221034A58
:10159000515CC84000BD000008380240F85D0008FA
:1015A00000B5FFF7E7FF04490968C1F34231034A78
:1015B000515CC84000BD000008380240F85D0008DA
:1015C0002DE9F047002400250026A14625480068A3
:1015D00000F00C0020B1042805D008283AD105E01D
:1015E000DFF8849039E0DFF8849036E01D48001F72
:1015F000006800F03F041B48001F006800F48000F2
:1016000078B11A481749091F0968C1F38811A0FB6E
:1016100001700146224600233846FEF76BFE054660
:101620000EE011480F49091F0968C1F38811A0FB9A
:1016300001700146224600233846FEF75BFE054650
:101640000848001F0068C0F30140401C4600B5FB7D
:10165000F6F902E0DFF8109000BF00BF4846BDE891
:10166000F0870000083802400024F40000127A00DD
:10167000F8B504460CB90120F8BD207800F001004F
:10168000002874D0F948006800F00C0004280DD040
:10169000F648006800F00C00082813D1F348001F3A
:1016A000006800F48000B0F5800F0BD1EF480838D7
:1016B0000068C0F34040002859D06068002856D127
:1016C0000120D9E700BF6068B0F5803F08D1E74846
:1016D0000838006840F48030E449083908601EE0AA
:1016E0006068B0F5A02F0DD1E0480838006840F4DC
:1016F0008020DE49083908600846006840F48030E0
:1017000008600CE0D9480838006820F48030D749D8
:10171000083908600846006820F48020086000BF8F
:10172000606890B1FFF728FC054606E0FFF724FC4F
:10173000401B642801D903209EE7CC480838006884
:10174000C0F340400028F1D011E0FFF715FC05463A
:1017500006E0FFF711FC401B642801D903208BE74A
:10176000C24808380068C0F340400028F1D1207812
:1017700000F0020002285FD1BC48006800F00C00B5
:1017800058B1BA48006800F00C0008281CD1B748CE
:10179000001F006800F48000B0B9B4480838006841
:1017A000C0F3400020B1E068012801D0012063E7C8
:1017B000AE480838006820F0F800216940EAC1000E
:1017C000AA490839086037E0E06800B30120A84959
:1017D0000860FFF7D1FB054606E0FFF7CDFB401B95
:1017E000022801D9032047E7A04808380068C0F361
:1017F00040000028F1D09D480838006820F0F8002B
:10180000216940EAC10099490839086014E00020C4
:1018100097490860FFF7B0FB054606E0FFF7ACFB11
:10182000401B022801D9032026E7904808380068A9
:10183000C0F340000028F1D1207800F0080008280B
:101840002CD16069A8B101208A490860FFF794FB98
:10185000054606E0FFF790FB401B022801D9032054
:101860000AE782486C300068C0F340000028F1D0DD
:1018700014E000207F490860FFF77EFB054606E084
:10188000FFF77AFB401B022801D90320F4E67748D2
:101890006C300068C0F340000028F1D1207800F0DF
:1018A0000400042870D1002770483830006800F028
:1018B000805090B900BF002000906C48383000681C
:1018C00040F080506949383108600846006800F0EF
:1018D0008050009000BF00BF01276748006800F4F7
:1018E0008070B0B96448006840F480706249086054
:1018F000FFF742FB054606E0FFF73EFB401B0228D0
:1019000001D90320B8E65C48006800F48070002824
:10191000F2D000BFA068012808D1544868300068A0
:1019200040F001005149683108601DE0A0680528B9
:101930000DD14E486830006840F004004B496831D2
:1019400008600846006840F0010008600CE0474865
:101950006830006820F0010044496831086008469A
:10196000006820F00400086000BFA068A8B1FFF77D
:1019700003FB054609E0FFF7FFFA401B41F28831FF
:10198000884202D9032077E626E0384868300068AC
:10199000C0F340000028EED013E0FFF7EDFA054653
:1019A00008E0FFF7E9FA401B41F28831884201D98B
:1019B000032061E62D4868300068C0F3400000282D
:1019C000EFD1012F07D129483830006820F080502E
:1019D00026493831086000BFA069002845D0234857
:1019E000006800F00C0008285DD0A069022845D1ED
:1019F00000201F490866FFF7BFFA054606E0FFF71B
:101A0000BBFA401B022801D9032035E617480838E5
:101A10000068C0F340600028F1D1D4E90701084311
:101A2000616A40EA81110122A06AC2EB500041EADA
:101A300000412C20005D41EA00600C49091F08604C
:101A400001200B490866FFF797FA054606E0FFF705
:101A500093FA401B022801D903200DE603480838F9
:101A60000068C0F340600028F1D03FE00838024031
:101A700000004742800E47420070004000201C4991
:101A80000866FFF779FA054606E0FFF775FA401B8E
:101A9000022801D90320EFE516480068C0F3406032
:101AA0000028F2D122E0A069012800D1E4E5114824
:101AB0000830066806F48001E069814214D106F01E
:101AC0003F01206A81420FD147F6C0703040616A01
:101AD000884209D106F44031A06A814204D106F05F
:101AE0007061E06A814201D00120C5E50020C3E5B4
:101AF000000047420038024010B504460CB90120EE
:101B000010BD606A00B900BF0021A16294F85100C5
:101B100028B9002084F85000204600F033F8022055
:101B200084F851002068006820F0400021680860B7
:101B3000D4E901010843E168084321690843616968
:101B40000843218B01F400710843E1690843216ACD
:101B50000843A16A0843216808600421A06901EADA
:101B60001040616A0843216848602068C06920F419
:101B700000602168C86100206065012084F8510080
:101B80000020BDE710B586B00446142101A8FEF779
:101B9000FBFB2A49206888424DD100BF00200090FD
:101BA0002748006840F480402549086008460068DE
:101BB00000F48040009000BF00BF00BF00200090F4
:101BC0001F481038006840F004001D4910390860B3
:101BD0000846006800F00400009000BF00BF00BF8E
:101BE000002000900846006840F0020008600846A7
:101BF000006800F00200009000BF00BF0C200190C0
:101C000002200290002003900320049005200590FC
:101C100001A90C48FFF7AAF84FF480600190022058
:101C2000029000200390032004900520059001A954
:101C30000548FFF79BF806B010BD000000380040D3
:101C40004038024000080240000402402DE9F84FED
:101C50000446884616461D464FF0000A00BF94F819
:101C60005000012802D10220BDE8F88F012084F83D
:101C7000500000BFFFF780F90746B14694F85100C5
:101C8000012802D04FF0020AA7E0B8F1000F00D0FF
:101C900016B94FF0010AA0E0032084F8510000209B
:101CA0006065C4F83080A686E686A063A087E087DA
:101CB00060642064A068B0F5004F05D1206800681A
:101CC00040F48040216808602068006800F040000F
:101CD000402805D02068006840F040002168086076
:101CE000E068B0F5006F2FD1606810B1B9F1010F55
:101CF00009D1206B00882168C860206B801C20639C
:101D0000E08E401EE0861BE02068806800F0020044
:101D100002280AD1206B00882168C860206B801CD3
:101D20002063E08E401EE0860AE0FFF725F9C01B25
:101D3000A84201D3681C00B915B94FF0030A4CE062
:101D4000E08E0028E0D12EE0606810B1B9F1010FFB
:101D500009D1206B007821680873206B401C206338
:101D6000E08E401EE0861BE02068806800F00200E4
:101D700002280AD1206B007821680873206B401C70
:101D80002063E08E401EE0860AE0FFF7F5F8C01BF6
:101D9000A84201D3681C00B915B94FF0030A1CE032
:101DA000E08E0028E0D13A462946204600F078FF30
:101DB00008B120206065A06850B900BF00200090E5
:101DC0002068C068009020688068009000BF00BF55
:101DD000606D08B14FF0010A00BF012084F8510086
:101DE00000BF002084F8500000BF50463CE770B5AB
:101DF00004462546681EB0F1807F01D301200FE024
:101E0000681E4FF0E02148610F214FF0FF3001F0D4
:101E100025FC00204FF0E0218861072008610020A8
:101E200070BD70472DE9F0470446206805682068BA
:101E3000C668206847694FF00008C14605F00F08E2
:101E4000B8F1000F0AD105F0200038B106F02000EB
:101E500020B1204601F012F9BDE8F087B8F1000F7B
:101E600072D007F0010018B906F4907000286BD00A
:101E700005F0010030B106F4807018B1E06B40F05D
:101E80000100E06305F0040030B107F0010018B173
:101E9000E06B40F00200E06305F0020030B107F0B3
:101EA000010018B1E06B40F00400E06305F00800A9
:101EB00048B106F0200010B907F0010018B1E06B3E
:101EC00040F00800E063E06B70B305F0200028B13B
:101ED00006F0200010B1204601F0D0F820684069DB
:101EE000C0F38019E06B00F0080010B9B9F1000FE1
:101EF00023D0204601F0A2F82068406900F040009D
:101F0000402816D12068406920F0400021684861CF
:101F1000606B50B11748616B0865606BFEF712FF8C
:101F200010B1606B016D88470CE02046FFF779FF28
:101F300008E02046FFF775FF04E02046FFF771FF39
:101F40000020E06388E7FFE705F0800030B106F08D
:101F5000800018B1204601F0D9FA7DE705F0400075
:101F600030B106F0400018B1204601F077F873E771
:101F700000BF71E72930000810B504460CB90120F4
:101F800010BDA06900B100E000BF94F8390028B985
:101F9000002084F83800204600F028F8242084F837
:101FA00039002068C06820F400502168C8602046CD
:101FB00001F0B8F82068006920F4904021680861B9
:101FC0002068406920F02A00216848612068C068C4
:101FD00040F400502168C8600020E063202084F8AD
:101FE000390084F83A000020CAE7000010B586B036
:101FF0000446142101A8FEF7C7F93B49206888422E
:1020000031D100BF002000903848006840F0100037
:10201000364908600846006800F01000009000BFD4
:1020200000BF00BF0020009030481438006840F026
:1020300001002E49143908600846006800F00100CC
:10204000009000BF00BF4FF4C060019002200290DA
:1020500000200390032004900720059001A9244844
:10206000FEF784FE3DE023492068884239D100BF55
:10207000002000901D48001F006840F400301B49FC
:10208000091F08600846006800F40030009000BF97
:1020900000BF00BF0020009014481438006840F0D2
:1020A00001001249143908600846006800F0010078
:1020B000009000BF00BF0C20019002200290002081
:1020C0000390032004900720059001A90848FEF71B
:1020D0004DFE022211462620FFF738F92620FFF791
:1020E00025F906B010BD0000001001404438024040
:1020F000000002400044004010B5034693F83A0047
:1021000020282FD101B10AB9012010BD00BF93F8DA
:102110003800012801D10220F7E7012083F83800B8
:1021200000BF99629A85DA850020D863222083F85F
:102130003A0000BF002083F8380000BF1868C0686C
:1021400040F480701C68E0601868406940F001004D
:102150001C6860611868C06840F020001C68E0607E
:102160000020D2E70220D0E710B5044616480078D8
:10217000B0F5FF7F08DD0020134908704FF40071AF
:102180001248FEF701F919E0114801780E4802786B
:102190000078401C0C4B18700C488154184600788D
:1021A000401E0A49085C0A2808D118460078801E9B
:1021B000085C0D2802D1002019460870012204494C
:1021C0000448FFF799FF10BD3A0000201C040020CE
:1021D00008000020DC0200202DE9F84304460D46EB
:1021E00016461F464FF0000994F8390020285DD1AB
:1021F00005B116B90120BDE8F88300BF94F8380096
:10220000012801D10220F6E7012084F8380000BF40
:102210000020E063212084F83900FEF7ADFE8146FE
:10222000A684E68400BF002084F8380000BF2BE0BD
:10223000E08C401EE084A068B0F5805F16D14B466C
:10224000002280212046009701F094F908B1032074
:10225000D1E7A846B8F80000C0F30800216848603C
:10226000206908B9AD1C0FE06D1C0DE04B46002243
:1022700080212046009701F07DF908B10320BAE7DC
:1022800015F8010B21684860E08C0028D0D14B463E
:10229000002240212046009701F06CF908B103208C
:1022A000A9E7202084F839000020A4E70220A2E753
:1022B000704700002DE9FE4306460F46154630469E
:1022C000FEF77FF802903846FEF77BF8019028462B
:1022D000FEF777F8009000208049088002980C30C3
:1022E0000199891C01440098801C0C1810227B491C
:1022F0000888411C794B198079490A5400BF20464F
:10230000E21704EB5262D211A4EBC212D1B2E2176F
:1023100004EB5262D411002C01DD41F080016F4AC0
:102320001088421C6D4B1A806D4A1154002CE6DC5B
:10233000002219460888411C198069490A54042260
:1023400019460888411C198065490A544D221946CE
:102350000888411C198062490A545122194608888C
:10236000411C19805E490A54542219460888411CB0
:1023700019805B490A5419460888411C198058493C
:102380000A54042219460888411C198054490A54E9
:10239000C22219460888411C198051490A5400225A
:1023A00019460888411C19804D490A543C22194697
:1023B0000888411C19804A490A549DF80920194689
:1023C0000888411C198046490A549DF8082019467E
:1023D0000888411C198042490A541A4612888818F4
:1023E0003146029AFDF7B7FF3C480088029908443D
:1023F0003A490880019800281CDD9DF805200888CE
:10240000411C364B198036490A549DF80420194660
:102410000888411C198032490A541A4612888818C3
:102420003946019AFDF797FF2C4800880199084426
:102430002A490880009800281DDD9DF801202749C1
:102440000888411C254B198025490A549DF8002015
:1024500019460888411C198021490A541A461288D5
:1024600088182946009AFDF776FF1C4800880099D5
:1024700008441A4908804FF0020825E04FF4007123
:102480001848FDF781FF15480188154800F0BAF893
:102490004FF01E0911E0134800781349097888426B
:1024A00008D11048407810494978884202D101206B
:1024B000BDE8FE83642003F028F8B9F10000A9F11B
:1024C000010101F0FF09E6D1B8F10000A8F1010116
:1024D00001F0FF08D2D100BFEAE700003C00002075
:1024E0001C0300201C040020005E00082DE9F843B6
:1024F0000746884616463846FDF763FF009040467B
:10250000FDF75FFF054600203B4908801EB100989B
:10251000001D441902E00098801C441930223649FD
:102520000888411C344B198034490A5400BF2046A6
:10253000E21704EB5262D211A4EBC212D1B2E2173D
:1025400004EB5262D411002C01DD41F080012A4AD3
:102550001088421C284B1A80284A1154002CE6DCB3
:102560009DF8012019460888411C198023490A5406
:102570009DF8002019460888411C19801F490A54FB
:102580001A46128888183946009AFDF7E4FE1A4860
:1025900000880099084418490880AEB118494A7863
:1025A00015490888411C144B198014490A541449D0
:1025B0000A7819460888411C198010490A541048A5
:1025C0000088401C0E4908800C490B4A1288881864
:1025D0002A464146FDF7BFFE0748008828440649C1
:1025E000088008460188054800F00CF80248008879
:1025F000C0B2BDE8F88300003C0000201C030020AE
:102600003E00002070B504460D4629462046FEF7E0
:1026100071F970BD2DE9F84307468846154600203C
:102620004E4908803846FDF7CCFE00900098001D0A
:102630000DB1012100E00021441845B18222474933
:102640000888411C454B198045490A5407E0A222DD
:1026500042490888411C414B198041490A5400BF36
:102660002046E21704EB5262D211A4EBC212D1B29F
:10267000E21704EB5262D411002C01DD41F080011D
:10268000364A1088421C354B1A80354A1154002CAA
:10269000E6DC002219460888411C198030490A549A
:1026A000012219460888411C19802D490A549DF8B9
:1026B000012019460888411C198029490A549DF8AF
:1026C000002019460888411C198025490A541A46D9
:1026D000128888183946009AFDF73DFE1F48008889
:1026E000009908441D49088035B10888411C1B4ADF
:1026F00011801B4901F80080022625E04FF400718B
:102700001848FDF741FE154801881548FFF77AFF84
:102710004FF01E0911E013480078134909788842E8
:1027200008D11048407810494978884202D10120E8
:10273000BDE8F883642002F0E8FEB9F10000A9F1D9
:10274000010101F0FF09E6D1301EA6F10101CEB270
:10275000D4D10EB10120EBE70020E9E73C000020D6
:102760001C0300201C0400200A5E000800B587B08E
:10277000142102A8FDF708FE00BF002001903C488C
:10278000006840F010003A4908600846006800F010
:102790001000019000BF00BF00BF0020019008465C
:1027A000006840F0800008600846006800F0800083
:1027B000019000BF00BF00BF0020019008460068E4
:1027C00040F0040008600846006800F00400019032
:1027D00000BF00BF00BF002001900846006840F025
:1027E000010008600846006800F00100019000BF89
:1027F00000BF00BF002001900846006840F00200C2
:1028000008600846006800F00200019000BF00BFA9
:10281000002248F210111748FEF7A8FB0122C02140
:102820001448FEF7A3FB182002900020039001201B
:10283000049002A91048FEF799FA4FF4E87002904C
:102840000120039000200490059002A90948FEF79A
:102850008DFA4FF400400290012003900020049074
:102860000220059002A90348FEF780FA07B000BDD8
:1028700030380240000002400010024010B50B4802
:102880000B4908600B484860002109488160C1601D
:102890004FF480410161002141618161C1610162A8
:1028A000FEF770FB08B1FEF7B3F910BD005400400D
:1028B000F0010020A086010010B50E480E49086006
:1028C0004FF48270486000210B488160C160016153
:1028D00041614FF4007181610021C1610162416277
:1028E00081620A21C162FFF707F908B1FEF790F98A
:1028F00010BD0000003800404402002010B50B4815
:102900000B4908604FF4E1304860002108488160BD
:10291000C16001610C21416100218161C161FFF74A
:102920002BFB08B1FEF774F910BD00000010014048
:102930009C02002010B50B480B4908604FF4E130B1
:102940004860002108488160C16001610C2141613B
:1029500000218161C161FFF70FFB08B1FEF758F953
:1029600010BD000000440040DC02002000BFFEE774
:10297000704770B5002419E004F1B001C8B200211D
:1029800000F068F90021084600F064F900211020E9
:1029900000F060F9002505E00121002000F05AF95F
:1029A000681CC5B2802DF7DB601CC4B2082CE3DBC9
:1029B00070BD000010B5012211024548FEF7D6FA9D
:1029C000322001F0A7FB00224FF480714048FEF74F
:1029D000CDFA322001F09EFB012211023C48FEF7A5
:1029E000C5FA0021AE2000F035F90021084600F0BC
:1029F00031F90021102000F02DF90021402000F0D5
:102A000029F90021812000F025F90021CF2000F0D4
:102A100021F90021A12000F01DF90021C82000F0BB
:102A200019F90021A62000F015F90021A82000F0D6
:102A300011F900213F2000F00DF90021D32000F012
:102A400009F90021084600F005F90021D52000F021
:102A500001F90021802000F0FDF80021D92000F0CC
:102A6000F9F80021F12000F0F5F80021DA2000F05B
:102A7000F1F80021122000F0EDF80021DB2000F039
:102A8000E9F80021402000F0E5F80021202000F0C6
:102A9000E1F80021022000F0DDF800218D2000F097
:102AA000D9F80021142000F0D5F80021A42000F06E
:102AB000D1F80021A62000F0CDF80021AF2000F0D1
:102AC000C9F8FFF756FF0021084600F003F810BDD3
:102AD0000000024070B504460D4605F1B001C8B2D1
:102AE000002100F0B7F8102141EA1410002100F095
:102AF000B1F804F00F0141F00100002100F0AAF844
:102B000070BD00002DE9F04707460E4690469946F5
:102B100000250024A8F12000C5B27F2F02DD002788
:102B2000B01CC6B2B9F1000F28D031463846FFF7C5
:102B3000D1FF00240AE004EB0511234A515CC9438C
:102B4000C8B2012100F086F8601CC4B2082CF2DB88
:102B5000701CC1B23846FFF7BDFF00240BE004EB48
:102B600005110831184A515CC943C8B2012100F06F
:102B700071F8601CC4B2082CF1DB23E03146384602
:102B8000FFF7A8FF002408E004EB05110E4A505C93
:102B9000012100F05FF8601CC4B2082CF4DB701C4B
:102BA000C1B23846FFF796FF002409E004EB051197
:102BB0000831054A505C012100F04CF8601CC4B299
:102BC000082CF3DBBDE8F087346000082DE9FF5FD7
:102BD000074691461D460E9E4FF0000A002435E040
:102BE000281B401EC1B20A2001F089FCB9FBF0F09D
:102BF0000A21B0FBF1F201FB1208BAF1000F14D167
:102C0000681EA04211DDB8F1000F0CD1B34606EBEF
:102C1000DB71491001FB0471C8B200232022019925
:102C2000FFF770FF10E04FF0010AB34606EBDB71CF
:102C3000491001FB0471C8B208F13001CAB2002387
:102C40000199FFF75FFF00BF601CC4B2AC42C7DB55
:102C5000BDE8FF9F13B50C46002210210E48FEF779
:102C600085F92CB10122D1030B48FEF77FF905E06D
:102C700000224FF400410848FEF778F94FF47A73C8
:102C8000012269460548FEF7E1FF012210210248B2
:102C9000FEF76CF91CBD0000000002404402002059
:102CA0007CB504460D461646164800681821B0FB50
:102CB000F1F01549B0FBF1F04FF47A7148430190FF
:102CC0006068B0F5827F0DD12B460022802120461E
:102CD000009600F01BF898B1606D40F02000606530
:102CE00003207CBD00BF019800B908E00198401E98
:102CF000019020688068C0F3C0100028F3D100BFA5
:102D00000020EEE73400002040420F002DE9F041A2
:102D100004460E4617461D46DDF818803EE0681C46
:102D2000D8B3FEF729F9A0EB0800A84200D2A5BB52
:102D30002068406820F0E000216848606068B0F5D5
:102D4000827F0DD1A068B0F5004F03D0A068B0F528
:102D5000806F05D12068006820F04000216808607D
:102D6000A06AB0F5005F0DD100BF2068006820F4B4
:102D70000050216808602068006840F40050216815
:102D8000086000BF012084F8510000BF002084F8D3
:102D9000500000BF0320BDE8F081FFE72068806895
:102DA0003040B04201D1012000E00020B842B6D14D
:102DB0000020F0E710B5044622460549054800F01A
:102DC00031FC0022034904A0FFF790FB10BD000076
:102DD000006C0008C40000202F7379732F613152FA
:102DE000584A72474A7249422F746573742F746847
:102DF000696E672F6576656E742F70726F7065727D
:102E000074792F706F7374002DE9F04705460F46F3
:102E100014461E46DDF82080A9464FF0000A2DE03A
:102E2000BAF1000F1DD1802D01D9BDE8F0872078BF
:102E3000802802DD4FF0010A20E020780D2803D120
:102E400037444D46641C0AE02278F9B2E8B24346A2
:102E5000FFF758FE304606EBD07105EB6105641CA8
:102E60000CE0802D00D9E0E74FF0000A43462246EF
:102E700039462846FDF7E2FEA41C35442078002898
:102E8000CED100BFD1E710B501F0A6FE02F0B6FC2E
:102E900001F0B2FE10BD000000B593B0302107A8CC
:102EA000FDF772FA142102A8FDF76EFA00BF0020A8
:102EB00001902448006840F080502249086008468C
:102EC000006800F08050019000BF00BF00BF0020EC
:102ED00001901D48006840F480401B490860084686
:102EE000006800F48040019000BF00BF01200790FF
:102EF0000004089002200D9041050E9104210F91CD
:102F0000A8211091022111910421129107A8FEF726
:102F1000AFFB08B1FDF77CFE0F200290022003906A
:102F2000002004904FF4A05005904FF4805006907C
:102F3000052102A8FEF75CFA08B1FDF769FE13B09F
:102F400000BD0000403802400070004070B5002015
:102F50000022022300240221274D2D6805F00C00D9
:102F600020B1042806D0082834D107E0234D244E90
:102F7000356033E0234D224E35602FE01E4D2D1F6E
:102F80002D68C5F380541C4D2D1F2D6805F03F01A1
:102F900054B11C4DB5FBF1F5174E361F3668C6F31C
:102FA000881605FB06F209E0144DB5FBF1F5124E4B
:102FB000361F3668C6F3881605FB06F20E4D2D1F28
:102FC0002D68C5F301456D1C6B00B2FBF3F50C4E8B
:102FD000356003E0094D0A4E356000BF00BF064D65
:102FE0002D68C5F30315084E705D054D2D68C5406D
:102FF000034E356070BD0000083802400024F40024
:103000003400002040787D01E85D00080548006834
:1030100040F47000034908604FF0006001498039B6
:103020000860704788ED00E070B50546AC6B002085
:10303000E085E0842046FEF7F4FE70BD0168C968B3
:1030400021F490710268D1600168496921F00101A1
:1030500002685161202180F83A10704710B504468B
:103060002068C06820F040002168C860202084F8F3
:1030700039002046FFF71CF9002010BD70B504464A
:1030800094F83A0022284AD1A068B0F5805F13D1A5
:10309000A56A206940B920684068C0F3080028800C
:1030A000A06A801CA06219E020684068C0B2288035
:1030B000A06A401CA06211E0206938B9206840680D
:1030C000C1B2A26A501CA062117007E0206840687B
:1030D00000F07F01A26A501CA0621170E08D401EBA
:1030E00080B2E085C8B92068C06820F0200021685F
:1030F000C8602068C06820F480702168C8602068BB
:10310000406920F0010021684861202084F83A00DD
:103110002046FFF729F8002070BD0020FCE70220C0
:10312000FAE700002DE9F84F04462068006920F412
:103130004050E1680843216808612169A06808439C
:1031400061690843E169084300902068C06849F25A
:103150000C618843009908432168C8602068406971
:1031600020F44070A169084321684861E069B0F526
:10317000004F75D1E3492068884203D0E2492068B6
:1031800088426FD1FEF70CFA814602206168A0FBED
:1031900001510B461920A9FB00712A463846FDF75C
:1031A000A9F86421B0FBF1F04FEA001A022061682F
:1031B000A0FB01510B461920A9FB00712A46384695
:1031C000FDF798F8074602206168A0FB01510B4605
:1031D0001920A9FB00B12A465846FDF78BF8642157
:1031E000B0FBF1F000EBC00101EB0010A7EB800099
:1031F000322101EBC0006421B0FBF1F000F0F800D7
:103200000AEB400A02206168A0FB01510B4619201D
:10321000A9FB00712A463846FDF76CF807460220E4
:103220006168A0FB01510B461920A9FB00B12A4699
:103230005846FDF75FF86421B0FBF1F000EBC001E8
:1032400001EB0010A7EB8000322101EBC0006421EC
:10325000B0FBF1F000F007005044216888604FE1B6
:103260006EE0FFE7FEF78CF9814602206168A0FB63
:1032700001510B461920A9FB00712A463846FDF77B
:1032800039F86421B0FBF1F04FEA001A02206168BE
:10329000A0FB01510B461920A9FB00712A463846B4
:1032A000FDF728F8074602206168A0FB01510B4694
:1032B0001920A9FB00B12A465846FDF71BF86421E6
:1032C000B0FBF1F000EBC00101EB0010A7EB8000B8
:1032D000322101EBC0006421B0FBF1F000F0F800F6
:1032E0000AEB400A02206168A0FB01510B4619203D
:1032F000A9FB00712A463846FCF7FCFF074602206E
:103300006168A0FB015003461920A9FB00B12A46C1
:103310005846FCF7EFFF6421B0FBF1F000EBC00171
:1033200001EB0010A7EB8000322101EBC00064210B
:10333000B0FBF1F000F00700504421688860DFE046
:1033400070492068884203D06F49206888426BD159
:10335000FEF726F9814604206168A0FB01510B4667
:103360001920A9FB00712A463846FCF7C3FF8246A4
:1033700004206168A0FB01510B461920A9FB0071D4
:103380002A463846FCF7B6FF6421B0FBF1F000EBAB
:10339000C00101EB0010AAEB8000322101EB00100C
:1033A0006421B0FBF1F000F0F00A04206168A0FB9A
:1033B000015003461920A9FB00712A463846FCF744
:1033C00099FF6421B0FBF1F00AEB001A0420616858
:1033D000A0FB01510B461920A9FB00712A46384673
:1033E000FCF788FF074604206168A0FB01500346F4
:1033F0001920A9FB00B12A465846FCF77BFF64213F
:10340000B0FBF1F000EBC00101EB0010A7EB800076
:10341000322101EB00106421B0FBF1F000F00F004D
:103420005044216888606BE0FEF7AAF881460420CA
:103430006168A0FB015003461920A9FB00712A46D0
:103440003846FCF757FF824604206168A0FB015014
:1034500003461920A9FB00712A463846FCF74AFFAB
:103460006421B0FBF1F000EBC00101EB0010AAEB0E
:103470008000322101EB00106421B0FBF1F000F07C
:10348000F00A04206168A0FB015003461920A9FB43
:1034900000712A463846FCF72DFF6421B0FBF1F09D
:1034A0000AEB001A04206168A0FB01700346192092
:1034B000A9FB005001463A462846FCF71BFF074689
:1034C00004206168A0FB015003461920A9FB00B14C
:1034D0002A465846FCF70EFF6421B0FBF1F000EBE2
:1034E000C00101EB0010A7EB8000322101EB0010BE
:1034F0006421B0FBF1F000F00F00504421688860B7
:10350000BDE8F88F0010014000140140014691F819
:10351000390021282CD18868B0F5805F0FD10A6A64
:103520001088C0F308000B685860086918B9086A69
:10353000801C086209E0086A401C086205E00B6A0A
:10354000581C086218780B685860C88C401E80B2FE
:10355000C88458B90868C06820F080000B68D8603B
:103560000868C06840F040000B68D86000207047D1
:103570000220FCE72DE9F04104460D461746984627
:10358000069E21E0701CF8B12EB1FDF7F5FCA0EB12
:103590000800B04218D92068C06820F4D0702168B3
:1035A000C8602068406920F001002168486120203F
:1035B00084F8390084F83A0000BF002084F838000D
:1035C00000BF0320BDE8F081206800682840A842C1
:1035D00001D1012000E00020B842D3D00020F1E763
:1035E00010B50248FEF71EFC10BD0000DC020020F2
:1035F00000BFFEE70146481EB0F1807F01D30120E5
:103600007047481E4FF0E0225061FF20044A1070BE
:1036100000204FF0E0229061072010610020EFE7CA
:1036200023ED00E00FB4084B10B504A902AA0398DB
:1036300000F02AF9044602A9002000F037FD2046D8
:1036400010BC5DF814FB0000AD40000802480068A3
:10365000C0F30220704700000CED00E010B5002818
:1036600004DB0A07130E054A135406E00A07140E7A
:10367000034A00F00F031B1FD45410BD00E400E008
:1036800018ED00E0014609B900207047C8B220B12A
:10369000C8B20E4A105C401CF7E701F47F4028B125
:1036A0000A48C1F30722805C0930EEE701F47F008D
:1036B00028B10648C1F30742805C1130E5E70348B2
:1036C00000EB116000781930DFE70000866A00081F
:1036D00002E008C8121F08C1002AFAD170477047DB
:1036E000002001E001C1121F002AFBD17047000039
:1036F0002DE9FF5F82B00021DDE90430020DDDF825
:1037000040B0034318D044F61050A2F2FF324243B7
:103710001514119801281FD0A5EB0B00401C5FEA7F
:10372000000A4FF000064E4FDFF83891B046504681
:1037300015D5CAF1000413E0119801244AA3012809
:1037400001D16FEA0B010298119AC0E90031C0E97A
:10375000024206B0BDE8F09FCBF10000DFE704466F
:103760000021404A491842EB0450CDE9001012E014
:10377000E00707D032463B4640464946FCF7D8FEB4
:103780008046894632463B4610461946FCF7D0FE35
:1037900006460F466410002CEAD1DDE90401DDE99C
:1037A0000023BAF1000F06DAFCF7C2FE42464B4690
:1037B000FCF7BEFE05E0FCF7E4FF42464B46FCF793
:1037C000E0FF04460E460022284BFDF761F803D8BF
:1037D0004FF0FF30014607E00022254B20463146DE
:1037E000FCF7FFFDFDF73CF8102409E0002C0ADB94
:1037F0000A220023FCF77EFD039B30321A55641E1B
:1038000050EA0102F2D1641C039AC4F1110314447A
:10381000119A012A03D0012208430DD10AE008437E
:1038200004D000204FF0110B119072E7A3EB0B05B1
:103830006D1E0DE05B4504DD4FF0000205F1010552
:1038400004E003DA4FF00002A5F10105002AECD0F4
:1038500002981199C0E90231C0E9004579E70000FA
:10386000000014400000F03F300000000000F04372
:103870000000E03F03490868884201D001207047FA
:103880000020FCE7A00000202DE9FF4F95B09B46EB
:103890008946064600250FE2252877D100242746D1
:1038A000F84A0121059400E0044316F8013F203B4B
:1038B00001FA03F01042F7D130782A2811D06FF0C6
:1038C0002F033078A0F13002092A16D8059A44F067
:1038D000020402EB820203EB42021044761C0590C4
:1038E000EFE759F8042B0592002A03DA504244F41A
:1038F0000054059044F00204761C30782E2816D12E
:1039000016F8010F44F004042A280DD06FF02F029E
:103910003078A0F13003092B09D807EB870302EBBD
:103920004303C718761CF3E759F8047B761C3078FC
:103930006C280FD006DC4C2817D068280DD06A28D8
:1039400014D104E0742810D07A280FD10DE044F48B
:1039500000140AE044F4801401E044F44014727846
:10396000824202D104F58014761C761C30786628D9
:103970000BD013DC582877D009DC002875D04528F7
:10398000F6D04628F4D047281AD19DE118E06328E4
:1039900035D0642879D0652812D195E1702873D08C
:1039A00008DC6728F1D069286FD06E280DD06F2809
:1039B00006D1B5E073282CD0752875D0782874D03E
:1039C0005A46179990476D1C75E1C4F302500228BE
:1039D00009D003280DD0D9F8001004280DD00D60AF
:1039E00009F1040967E1D9F80010EA17C1E90052AA
:1039F000F6E7D9F800100D80F2E70D70F0E719F83E
:103A0000041B8DF8001000208DF80100EA4601200B
:103A100003E059F804AB4FF0FF3061074FF00001AD
:103A200002D40DE008F101018846B9420FDA804561
:103A3000F8DB1AF808100029F4D108E008F10101B8
:103A400088468142FADB1AF808100029F6D1059859
:103A50005B46A0EB080721463846179A00F094FA17
:103A6000284400EB080507E04DE029E10DE01AF8D5
:103A7000010B5A4617999047B8F10108F7D25B46F7
:103A800021463846179A13E142E00A220092C4F315
:103A900002524FF0000A022A08D059F804CB032A38
:103AA0004FEAEC710AD00DE029E02AE009F10701A4
:103AB00021F00702F2E802C1914609E00FFA8CFCFE
:103AC0004FEAEC71042A03D14FFA8CFC4FEAEC71F7
:103AD000002907DA0A460021DCF1000C61EB020143
:103AE0002D2202E0220504D52B228DF8042001228C
:103AF00003E0E20701D02022F7E7904659E00A21CF
:103B000002E010220DE010214FF0000A00910BE0BE
:103B100010224FF0000A44F004040827009203E04A
:103B200008224FF0000A0092C4F30252022A05D084
:103B300059F804CB0021032A08D009E009F1070154
:103B400021F00702F2E802C1914605E01FFA8CFC61
:103B5000042A01D10CF0FF0C4FF00008220728D5F1
:103B6000702806D0009B83F0100353EA0A0305D0A7
:103B70000EE040228DF80420012208E05CEA0102F8
:103B800006D030228DF804208DF8050002229046E0
:103B9000009B83F0080353EA0A030AD15CEA01029E
:103BA00001D1620705D530228DF804204FF00108BD
:103BB0007F1E582804D034A003900EA802900DE078
:103BC00036A0F9E753466046009AFCF793FB84461B
:103BD0000398825C0298401E029002705CEA010029
:103BE000F0D1029806A9081A00F1200A600702D550
:103BF00024F4803400E00127574502DDA7EB0A00DA
:103C000000E0002000EB0A01009005984144401AB2
:103C10000590E00306D45B462146179A059800F00C
:103C2000B3F90544002706E001A85A46C05D17997C
:103C300090476D1C7F1C4745F6DBE0030CD55B46C7
:103C40002146179A059800F09FF9054404E03020BA
:103C50005A46179990476D1C0099481E00900029FC
:103C6000F5DC08E0029802995A460078491C029156
:103C7000179990476D1CBAF10001AAF1010AF1DC15
:103C800065E1000009280100303132333435363720
:103C90003839616263646566000000003031323398
:103CA0003435363738394142434445460000000038
:103CB00000F058F90544761C307800287FF4ECAD0C
:103CC00019B02846BDE8F08F620700D4062709F135
:103CD000070222F0070CFCE80223E14603F000484B
:103CE0005FEA080C02D00FF2702C0DE05FEA045C72
:103CF00002D50FF2682C07E05FEAC47C02D00FF215
:103D0000602C01E0AFF2700C4FF0FF3823F000435D
:103D1000CDF850C065280CD006DC452809D04628CF
:103D20001DD047283DD13DE0662818D067287ED1B8
:103D300038E00021112F01DB112000E0781CCDE9D3
:103D4000000106A90EA8FFF7D3FCDDE90F010E9ACA
:103D500003910021009207F1010A04914DE04FF018
:103D600000400097CDE9011006A90EA8FFF7C0FC9E
:103D7000DDE90F0203920E9B11990022DDF80CA0E1
:103D80000093049211B9791C00EB010AB7EB0A0009
:103D900004D4C0F1FF3007F1010A0490AAEB070038
:103DA000019044E0012F00DA01270021112F01DDED
:103DB000112000E03846CDE9000106A90EA8FFF762
:103DC00097FCDDE90F010E9A039100210491009206
:103DD000BA4621070CD40399514500DA8A46BAF154
:103DE000010F05DD009AAAF10101515C302908D0CC
:103DF000B84202DA10F1040F06DA0121CDE9011010
:103E000015E0AAF10101E9E7002805DC0499014465
:103E10000491AAEB000102E0411C514500DD8A46F5
:103E20000499401A401C01904FF000400290200776
:103E300004D40198504501DBCDF8048000208DF8B2
:103E40004F0002980DF14F07B0F1004F25D02B2005
:103E50000E9002984FF0020800280CDA40420290BF
:103E60002D200E9007E00A210298FCF7E6FB303186
:103E7000029007F8011DB8F10001A8F10108F2DC79
:103E800002980028EFD1791E0E980870307800F063
:103E9000200040F0450007F8020D12A8C01B00F1F9
:103EA00007081498007800B1012000EB0A0101987E
:103EB00001EBE07105984144401A401E0590E00373
:103EC00006D45B462146179A059800F05DF8054434
:103ED0001498007818B15A46179990476D1CE00362
:103EE00024D55B462146179A059800F04DF8054405
:103EF0001CE00498002807DBDDE90301884203DDAC
:103F00000098405C179901E0179930205A46904775
:103F1000049805F10105401C04900198401E019091
:103F200004D12E205A46179990476D1CBAF1000112
:103F3000AAF1010ADDDC05E017F8010B5A461799D2
:103F400090476D1CB8F10001A8F10108F4DC5B4654
:103F50002146179A0598ABE62D0000002B000000C3
:103F6000200000002DE9F041044600251E461746BA
:103F7000880404D405E039462020B0476D1C641E37
:103F8000F9D52846BDE8F0812DE9F0410446002529
:103F90001E469046C80301D5302700E0202788043C
:103FA00004D505E041463846B0476D1C641EF9D57E
:103FB0002846BDE8F08100002DE9FC5F04468B46F1
:103FC00015461E46DDE90C9ADDE90E7804F1140071
:103FD0004060006000BF1C346560A660C4F80C90AF
:103FE000C4F810A02321D4E9030200F065FFD4E94E
:103FF000033C63441A1F0F4BD4E9010100F0C4FDD8
:104000002060A77667760020E061C4F82080C4F8BD
:104010002480606120766065A0651C3C009023468A
:10402000054A2146019004F1440001F069FC00209A
:10403000BDE8FC9F195500086D5700082DE9F047B1
:1040400004460E4617469846DDF8209084F80990FD
:10405000607A20F001006072E66127620020A062B1
:10406000C4F82480002506E004F1140101EBC5002A
:1040700000F02BFE6D1C012DF6DBBDE8F08710B5BE
:104080000246002001460EE002F1140303EBC100DA
:10409000D0E900436360D0E90034236040600060F1
:1040A00000BF481C01460129EEDB10BD0A68531C05
:1040B0000B6010707047000070B504460D46C822B2
:1040C0000FA11148FCF7A5FD30B1002240210F4897
:1040D000FCF74CFF012070BDC8220DA10A48FCF777
:1040E00098FD30B1012240210848FCF73FFF022033
:1040F000F1E74FF400710448FCF746F90020EAE7C5
:10410000626567696E0000001C0400200000024028
:10411000656E640007E04FF4E16100BF0A1EA1F183
:104120000101FBD1401E0028F5D170472DED028B17
:1041300082B0FDF78FF8FEF7AFFEFEF717FBFEF734
:10414000DDFBFEF7F7FBFEF7B7FBFEF797FB01225F
:1041500091499248FDF7D0FFFEF72CFC00BFFCF719
:1041600005FD0028FBD000BF8DA190A0FCF71CFC32
:104170000028F9D000BF40F25B728EA19AA0FCF734
:1041800077FC0028F7D000BF98A2A3A1A7A0FEF754
:1041900091F80028F8D000BF01220021ADA0FEF761
:1041A00039FA0028F8D0F6E000228021B648FCF762
:1041B000DDFE4FF47A7001F0A8F9012400250026F5
:1041C00000274FF000089FEDB10A10EE109A002F63
:1041D0002BD12046FEF7EEFD3246AD49AD48FFF744
:1041E00021FA0022AB49ACA0FEF780F90020102391
:1041F000B5A202210090FEF707FE102001232246FF
:10420000022100903820FEF7E1FC00201023B1A22B
:1042100005210090FEF7F8FD10200123324605210C
:1042200000903820FEF7D2FC7F1CAD48007828B102
:10423000AB480178AB48FFF73FFF0546022D7DD123
:10424000A7E02046FEF7B6FD9FEDA70A10EE109AF4
:104250004846FCF7DFF941EC180B53EC182BA34947
:104260008C48FFF7DFF900228A498BA0FEF73EF960
:104270004FF47A7001F049F9761C3246844985483A
:10428000FFF7D0F90022834983A0FEF72FF9002021
:1042900010238DA202210090FEF7B6FD102001230D
:1042A0002246022100903820FEF790FC00201023C7
:1042B00088A205210090FEF7A7FD102001233246B9
:1042C000052100903820FEF781FC6D1C032D60D184
:1042D000012425E0002010237BA202210090FEF79C
:1042E00093FD102001232246022100903820FEF782
:1042F0006DFC0020102377A205210090FEF784FDBD
:10430000102001233246052100903820FEF75EFC84
:104310002046FEF74FFD4FF47A7001F0F6F8641C6A
:10432000092CD7DD641E4FF47A7001F0EEF8761E8A
:104330000020102367A20521009000E02AE0FEF78C
:1043400063FD102001233246052100903820FEF73E
:104350003DFC32464E494F48FFF764F900224D4973
:104360004DA0FEF7C3F813E008F101082046FEF760
:1043700021FD4FF47A7001F0C8F8052098FBF0F1A8
:1043800000FB118020B9012280213F48FCF7EEFD9F
:10439000EAE756E700BF07E708000020DC0200203C
:1043A0003132333435363738000000004F50504F2B
:1043B00041330000613152584A72474A7249422ED5
:1043C000696F742D61732D6D7174742E636E2D730E
:1043D00068616E676861692E616C6979756E637377
:1043E0002E636F6D00000000544350004234343996
:1043F0003331353831353937364233384143434527
:10440000323843463632353437323730384639342D
:1044100043343344000000007465737426613152E4
:10442000584A72474A724942000000003132333420
:104430007C7365637572656D6F64653D332C73695C
:10444000676E6D6574686F643D686D616373686104
:10445000317C00002F7379732F613152584A7247B3
:104460004A7249422F746573742F7468696E672F9E
:10447000736572766963652F70726F706572747997
:104480002F7365740000000000000240000000006F
:10449000A86B0008C40000202F7379732F6131527C
:1044A000584A72474A7249422F746573742F746870
:1044B000696E672F6576656E742F70726F706572A6
:1044C00074792F706F737400B5E7CCDDD4DA2020D7
:1044D00020C2A500C4BFC7B0D3D0202020C8CB00C5
:1044E0003A0000201C040020666612425C6C000842
:1044F00010B5044600F03CF9FFF718FE10BD10B5EA
:104500000246012000E050430B1EA1F10104E1B27C
:10451000F9D110BD30B51A4C436824681919884286
:1045200015D04B889BB9174B1B6899420FD0164B7F
:104530001B688B4201D1144B18604B684360104BD1
:104540001B68C31A0E4D4C682D682C44A3600C4C9C
:10455000836824681A19824211D053887BB90A4BA8
:104560001B68834201D1084B1A6043685360044BB7
:104570001B68D31A024D44682D682C44A36030BDDB
:10458000480000204C000020500000202DE9F04F92
:1045900086B00D469C46DDE9106401960F9B04F041
:1045A0004008B8F1000F02D0DFF8708101E0DFF8B9
:1045B0007081CDF8008004F01008B8F1000F01D030
:1045C00024F0010404F00108B8F1000F02D04FF00C
:1045D000300801E04FF02008C246002704F002082E
:1045E000B8F1000F11D0002A02DA2D2752420CE058
:1045F00004F00408B8F1000F01D02B2705E004F007
:104600000808B8F1000F00D02027002142B94FF070
:10461000300B8846491C0DF1080909F808B01DE067
:104620001AE0E146B9F10A0F08D14FF00A0BB2FBCC
:10463000FBFE0BFB1E28B2FBFBF202E002F00F08B0
:10464000120900BFDDF8009019F808B08846491C2F
:104650000DF1080909F808B0002AE2D1B14200DDE5
:104660000E469B1B04F01108B8F1000F10D117B1D2
:10467000002B00DD5B1E06E0A84203D24FF02008AD
:1046800080F80080401CB3F10008A3F10103F3DCC3
:1046900027B1A84200D207705B1E401C04F010082E
:1046A000B8F1000F0AD104E0A84201D280F800A0BE
:1046B000401CB3F10008A3F10103F5DC06E0A842B9
:1046C00003D24FF0300880F80080401CB046761EC0
:1046D0008845F4DC08E0A84205D20DF1080818F876
:1046E000018080F80080401CB1F10008A1F10101B7
:1046F00004DDDDF80480B8F1000FECD106E0A8423B
:1047000003D24FF0200880F80080401CB3F100086D
:10471000A3F10103F3DC06B0BDE8F08F976B00084E
:10472000866B00081CB514200A214FF48063002218
:10473000CDE90010044905A000F0BFFE0446204664
:1047400000F0DCFF1CBD0000F14400086D61696EE3
:104750000000000010B5044C02E020688047241DD2
:1047600002488442F9D310BDC06C0008C46C000834
:1047700010B5044C02E020688047241D02488442A2
:10478000F9D310BDC46C0008C86C000810B5FBF765
:1047900017FD044604480088401C00B20249088006
:1047A0002046FBF711FD10BD9000002010B5FBF76F
:1047B00007FD04460C480088401E00B20A490880E4
:1047C0000846B0F9000000280ADC002008802046D6
:1047D000FBF7FAFC0548006828B100F025FC02E070
:1047E0002046FBF7F1FC10BD900000209400002053
:1047F00070B5054605B970BD1D480068854203D3F4
:104800001C480068854200D3F5E7A5F10C044FF081
:10481000FF31194800F0D2FC608818B12088B0F54B
:10482000F55F08D015A000F035FA2388628821468C
:1048300019A000F02FFA002060804FF4F55020807E
:1048400021480068844201D21F480460084960681A
:104850000968611A401A1D490968081A1B4908604D
:104860002046FFF757FE044800F085FC00BFC2E772
:10487000480000204C00002014180020746F2066AF
:1048800072656520612062616420646174612062E8
:104890006C6F636B3A0A00006D656D3A20307825C5
:1048A0003038782C207573656420666C61673A2017
:1048B00025642C206D6167696320636F64653A200D
:1048C0003078253034780A0050000020580000204D
:1048D000004870471C060020004870471C16002046
:1048E00070B5FEF733FB0A4800684FF47A71B0FBED
:1048F000F1F42046FEF77EFEFFF72CFFFFF7ECFFFA
:104900000446FFF7E5FF0546214600F00DFD70BDAA
:1049100034000020F8B50546002400260D20009044
:1049200000BF00200E4981F8380000BF284600F083
:10493000D7FC064600BF0FE0285D0A2805D10123F9
:104940001A4669460648FDF747FC291901231A460D
:104950000348FDF741FC641CB442EDD3F8BD0000F0
:10496000DC0200202DE9F041054605F128062C1D4A
:104970003148006840B130462F49096888470746EA
:104980000FB9BDE8F08100BF2CA0216C00F082F9C6
:104990002EA0616A00F07EF930A0A16A00F07AF9D9
:1049A00032A0E16A00F076F934A0216B00F072F9D0
:1049B00036A0616800F06EF938A0A16800F06AF9CD
:1049C0003AA0E16800F066F93CA0216900F062F9C4
:1049D0003EA0616900F05EF940A0A16900F05AF9BB
:1049E00042A0E16900F056F944A0216A00F052F9B2
:1049F00046A0616B00F04EF948A0A16B00F04AF9A7
:104A00004AA0E16B00F046F9287800F0040038B1C4
:104A100000F04CFE0746394648A000F03BF902E0A2
:104A20004EA000F037F9287800F0100010B952A01D
:104A300000F030F900BFFEE7C00000207073723A4A
:104A4000203078253038780A000000007230303A83
:104A5000203078253038780A000000007230313A72
:104A6000203078253038780A000000007230323A61
:104A7000203078253038780A000000007230333A50
:104A8000203078253038780A000000007230343A3F
:104A9000203078253038780A000000007230353A2E
:104AA000203078253038780A000000007230363A1D
:104AB000203078253038780A000000007230373A0C
:104AC000203078253038780A000000007230383AFB
:104AD000203078253038780A000000007230393AEA
:104AE000203078253038780A000000007231303AE2
:104AF000203078253038780A000000007231313AD1
:104B0000203078253038780A000000007231323ABF
:104B1000203078253038780A00000000206C723A86
:104B2000203078253038780A000000002070633A81
:104B3000203078253038780A0000000068617264FF
:104B4000206661756C74206F6E2074687265616494
:104B50003A2025730D0A0D0A000000006861726496
:104B6000206661756C74206F6E2068616E646C6580
:104B7000720D0A0D0A0000004650552061637469E9
:104B80007665210D0A000000F0B504460D46164674
:104B9000301D20F0070044380146002203E00D4F8D
:104BA00041F82270521C112AF9D34D624FF0000CCB
:104BB000C1F828C0C1F82CC0C1F830C0C1F834C059
:104BC0008B63CC634FF0807CC1F840C000270F603E
:104BD000F0BD0000EFBEADDE10B5FBF7F1FA044604
:104BE00004480078401C034908702046FBF7ECFAA3
:104BF00010BD00004400002010B5FBF7E1FA0446A8
:104C000004480078401E034908702046FBF7DCFA90
:104C100010BD0000440000202DE9F04105460C467F
:104C20009046204600F080FDB8F1000F03D0B8F1A7
:104C3000010F23D105E004F11401284600F05DF8CE
:104C40001CE02E680FE0A6F1140794F8350097F8E1
:104C50003510884206DA04F1140107F1140000F05F
:104C60004CF802E03668AE42EDD100BFAE4204D14E
:104C700004F11401284600F040F800BF00BF0020F6
:104C8000BDE8F081014601F114004060006000BF02
:104C9000002070470FB438B505A800907F21084860
:104CA000009B049A00F0D8FE04467F2C00D97F2494
:104CB0000348FFF72FFE0020009038BC5DF814FB7E
:104CC00094170020406000607047406000607047AB
:104CD0000268516002680A600160486070470268BB
:104CE000516002680A600160486070470268516064
:104CF00002680A600160486070474268116042685B
:104D00004A6041600860704701460868884201D1E6
:104D1000012070470020FCE701460868884201D165
:104D2000012070470020FCE7D0E900215160D0E964
:104D300000121160406000607047D0E900215160AE
:104D4000D0E9001211604060006070472DE9F04129
:104D5000054615B90020BDE8F081E81C20F00305E8
:104D60004E480068854201D90020F4E70C2D00D29E
:104D70000C254FF0FF314A4800F020FA49480068FE
:104D800049490968461A7EE04748006884196088E6
:104D9000002874D106F10C006168081AA8426ED38D
:104DA00006F10C006168091A05F11800814230D340
:104DB00006F10C0000EB05083B48006800EB080713
:104DC0004FF4F55038800020788060687860BE60CD
:104DD000C4F80480012060803048796800680C3095
:104DE000814205D03049786809680844C0F80880D5
:104DF0002E48016805F10C0008442C4908602C4835
:104E000000680968884219D2284800682849086063
:104E100014E001206080244960680968611A401A22
:104E20002249096808442149086021480068096846
:104E3000884203D21D4800681D4908604FF4F550B0
:104E4000208018480068844212D107E015480068A5
:104E5000406815490968084412490860114800680B
:104E6000408828B10F480068124909688842EDD18E
:104E70000B4800F080F904F10C006CE7FFE70A48EA
:104E800000683044466805480068401BB0423FF661
:104E90007BAF034800F06FF900205CE7540000206E
:104EA0001418002050000020480000205800002066
:104EB0005C0000204C000020F0B50C460546E6B230
:104EC000042A15D300F0030797B9014646EA0623E2
:104ED00043EA034304E008C108C108C108C1103A0D
:104EE000102AF8D201E008C1121F042AFBD20D4695
:104EF00001E005F8016B171EA2F10102F9D1F0BD26
:104F00002DE9F04106460F46304600F045F80546CB
:104F1000E868FFF71BFF044614B90020BDE8F081E4
:104F200000212046EA68FFF7C7FF26720020607262
:104F300008223946204600F0DCF9FBF741F98046AB
:104F400004F10C01281DFFF7C3FE4046FBF73CF9B6
:104F50002046E3E770B5044600202072FBF730F9E5
:104F6000054604F10C00FFF7DFFE2846FBF72CF99D
:104F70002046FFF73DFC70BD70B50446002020724E
:104F8000FBF71EF9054604F10C00FFF7CDFE28469D
:104F9000FBF71AF970BD0000024600210AE007483D
:104FA00000EB01100078904203D1044800EB01109F
:104FB0007047491C0329F2DB0020F9E7600000205C
:104FC0002DE9F04704460D46904600262846FFF797
:104FD000E3FF0746FFF7DAFB7E6802E0A6F10C006C
:104FE0003668381D8642F9D1FFF7E0FB45F08000B6
:104FF000207208224146204600F07BF9FBF7E0F8DA
:10500000814604F10C01381DFFF762FE4846FBF7AC
:10501000DBF8BDE8F0870146087A00F0800008B1AF
:10502000012070470020FCE72DE9F041FBF7C8F8AC
:1050300007461848008838BB17480068FEF722FB6F
:10504000461E164850F83600A0F1140414480068B3
:10505000844218D013490E70114805680460124844
:10506000007850B904F11C0105F11C00FBF7AFF802
:105070003846FBF7A9F8BDE8F08104F11C0105F101
:105080001C00FBF7A4F800BF3846FBF79DF800BFF3
:10509000F1E70000900000209C0000203418002060
:1050A00094000020980000204400002070B50446C1
:1050B000FBF786F8054614F8340F20F00F0040F097
:1050C000010020706278343C0A4B03EBC20004F10B
:1050D00014014268116042684A604160086000BF84
:1050E0000549A06B09680843034908602846FBF797
:1050F0006BF870BD341800209C00002070B5044689
:10510000FBF75EF8054604F11400D0E90021516078
:10511000D0E9001211604060006000BF94F83510C3
:10512000094A02EBC1000168814201D1012100E07E
:10513000002129B10548A16B006888430349086034
:105140002846FBF741F870BD341800209C00002071
:105150002DE9F04104460D4616461F462A46022117
:105160002046FFF72DFF2046FFF78CFDA6836772D0
:105170000020BDE8F0812DE9F04104460025FBF751
:105180001FF8074604F11400FFF7BEFD48B900BF41
:105190006069A0F11406304600F06AFA00BF0125EC
:1051A00002E0A08B401CA0833846FBF70DF8012DD0
:1051B00001D1FFF739FF0020BDE8F08173B5054646
:1051C000FAF7FEFF0646A88B002806DDA88B401ED6
:1051D000A8833046FAF7F8FF28E0019828B930464E
:1051E000FAF7F2FF6FF001007CBD00F05FFA0446B1
:1051F000002020636A7A214605F11400FFF70CFDB8
:105200000198002809DD01AA002104F1440000F002
:105210004BFB04F1440000F08BFB3046FAF7D4FF5F
:10522000FFF702FF206B08B1206BDDE70020DBE712
:1052300008B509A0FFF72EFD0AA0FFF72BFD12A06D
:10524000032301221946009012A0FFF723FD19A0A5
:10525000FFF720FD08BD00000A205C207C202F0AFB
:10526000000000002D205254202D2020202020540A
:105270006872656164204F7065726174696E672041
:1052800053797374656D0A00417072203131203298
:1052900030323100202F207C205C2020202020254F
:1052A000642E25642E2564206275696C6420257344
:1052B0000A0000002032303036202D2032303139C3
:1052C00020436F7079726967687420627920727404
:1052D0002D746872656164207465616D0A00000058
:1052E00001460A4600E0521C10780028FBD1501AF3
:1052F000704770B50346A2B118460C4600BF14F8BB
:10530000016B00F8016B3EB902E0002500F8015B7B
:10531000551E2A1EF9D102E0551E2A1EEFD100BFEC
:1053200000BF184670BD00002DE9F04105460E464D
:10533000E81C20F0030726F00308B8F1180F09D97C
:10534000A8F11800B84205D3A8EB070018381E4989
:10535000086006E0324629461CA0FFF79BFCBDE82A
:10536000F0812948076004684FF4F5502080164802
:1053700000680C3060600020A06060802249606896
:1053800009680844214908604FF4F550096808800D
:1053900001201E49096848800B4800680C301B49F1
:1053A00009684860084800680C3018490968886036
:1053B0000023012216A11848FFF7CAFE1248006810
:1053C0001649086000BFCAE7540000206D656D20D3
:1053D000696E69742C206572726F722062656769EC
:1053E0006E206164647265737320307825782C2098
:1053F000616E6420656E64206164647265737320FD
:10540000307825780A000000480000204C00002079
:105410006865617000000000141800205000002032
:1054200010B500200B490880002405E00A4901EB73
:10543000C400FFF747FC641C202CF7DB1F20074942
:105440000870002006490860064908600648FFF712
:1054500039FC10BD90000020341800209800002076
:10546000940000209C000020A000002070B5084897
:105470000068FEF707F9451E064850F83500A0F110
:1054800014040548046004F11C00FAF7E6FE70BD40
:105490009C000020341800209400002010B5002447
:1054A00005E0044901EBC400FFF70FFC641C002C6D
:1054B000F7D010BDA800002070472DE9FF5F064619
:1054C0000F4690461D46DDE90EAB31460120FFF741
:1054D00017FD8146B9F1000F03D1002004B0BDE8EB
:1054E000F09F2846FFF732FC044624B94846FFF7F0
:1054F00031FD0020F2E743463A46314648468DE802
:10550000300CFEF759FD4846E8E710B50446204642
:1055100000F0D2F810BD000070B512480468FAF728
:105520004FFE05462046FFF7E9FD042084F83400CD
:1055300004F1440000F0D4F92046FFF76CFD012887
:1055400005D1206F18B92046FFF716FD04E004F1DD
:1055500014010548FFF7C3FB2846FAF735FEFFF7AD
:1055600063FD70BD94000020A000002001E000F069
:1055700001F8FCE770B53AE0FAF722FE0546FEF7BF
:1055800079F930B31D480068A0F1140404F1140047
:10559000D0E900215160D0E9001211604060006044
:1055A00000BFFFF7F3F8206F10B12046216F884746
:1055B0002046FFF730FD012808D12046FFF7DCFC2C
:1055C000FFF7F4F82846FAF7FFFD70BDFFF7EEF895
:1055D00003E02846FAF7F8FDF7E72846FAF7F4FD66
:1055E000A06AFFF705F92046FFF7B4FC00BFFEF7FD
:1055F00041F90028C0D100BFE7E70000A00000206B
:105600001FB520201F21C200074BCDE90032CDE994
:1056100002100023054A06A1074800F00FF80648CB
:1056200000F06CF81FBD0000941600206D550008B6
:105630007469646C650000001C1600202DE9FF5F92
:1056400005460C4616461F46DDE910ABDDE90E891E
:10565000224601212846FFF7B3FC3B46324621464D
:1056600028468DE8000FFEF7A7FC04B0BDE8F09FC8
:1056700070B5044694F8340000F00F00022802D000
:105680004FF0FF3070BDFAF79BFD054604F11400A2
:10569000FFF753FB04F1440000F0C6F92846FAF77F
:1056A00093FD2046FFF702FD0020EBE7014800686C
:1056B000704700009400002031B5FAF781FD0546DF
:1056C0000D480468204600F02FF86A46002104F1D6
:1056D000440000F0E9F804F1440000F029F92846FC
:1056E000FAF772FDFFF7A0FC206B801C08B90020C0
:1056F0002063002038BD00009400002010B504464F
:105700003434A078607061780120884060600220A5
:1057100004F834092046FFF7ABFFFFF7C7FF08B1D5
:10572000FFF782FC002010BD70B5044694F83400E9
:1057300000F00F00012802D04FF0FF3070BDFAF7E3
:105740003FFD054694F8340020F00F0040F00200C1
:1057500084F834002046FFF7D1FC04F1440000F047
:1057600063F92846FAF730FD0020E7E770B50446F4
:1057700025466FF00100286305F11400FFF7DDFAFC
:105780002846FFF793FCFFF74FFC70BD70B5FAF7A2
:1057900017FD05461448046894F8340000F00F0023
:1057A00001281CD1D4E90510814218D004F114005D
:1057B000FFF7C3FA94F835200C4B03EBC20004F159
:1057C00014014268116042684A604160086000BF8D
:1057D0002846FAF7F9FCFFF727FC002070BD2846A1
:1057E000FAF7F2FC0020F9E79400002034180020BA
:1057F00001480068704700004000002010B50A48CA
:105800000068401C08490860FFF750FF0446206C00
:10581000401E2064206C18B9E06B2064FFF7B6FFCF
:1058200000F004F810BD00004000002070B5FFF744
:10583000DFFF0546FAF7C4FC064628E01948006871
:10584000A0F11404A06A281A6FF0004188421DD20A
:105850002046FEF714FCD4E907108847FFF7C8FF7D
:105860000546607A00F0020058B1607A00F001004D
:1058700038B1607A20F001006072204600F058F8DC
:1058800005E0607A20F00100607200E004E0054865
:10589000FFF742FA0028D1D000BF3046FAF794FC57
:1058A00070BD0000A8000020034649B1012904D0C2
:1058B000022908D0032910D10AE0586A10600CE0D0
:1058C0001068586209E0587A20F00200587204E02B
:1058D000587A40F00200587200BF00BF00207047A5
:1058E00070B50446FAF76CFC05462046FEF7C7FB88
:1058F0002846FAF769FC2046FFF73EFB002070BD02
:105900002DE9F84307460C4615461E46DDE9088991
:1059100022460A213846FFF753FB434632462946C2
:105920003846CDF80090FEF789FBBDE8F88300000B
:105930002DE9F8430546FAF743FC80462846FEF772
:105940009EFB687A20F0010068724046FAF73CFC42
:10595000FFF74EFF696A0844A862FAF731FC8046F7
:105960002F4F009700242AE019E05DF824201168E9
:10597000142202EBC402881A826AAB6AD21A00D1DE
:1059800008E0826AAB6AD21A6FF000439A4200D2F2
:105990000CE000BF5DF8240000684DF824005DF8BD
:1059A000240007EBC40149688842DED100BF2CB156
:1059B0005DF824000830611C4DF82100641C002CA7
:1059C000D2D018480068401C16490860084606688E
:1059D00005F114010098FFF789F9022412E006F09E
:1059E000030060B9C4F1010305F1140202EBC30125
:1059F000C4F101025DF82200FFF778F900E003E04E
:105A0000B608641C012CEAD900BF687A40F0010096
:105A100068724046FAF7D8FB0020BDE8F883000022
:105A2000A8000020B000002070B50446607A00F0A5
:105A3000010010B94FF0FF3070BDFAF7C1FB054609
:105A40002046FEF71CFB2846FAF7BEFB607A20F0E2
:105A5000010060720020EFE72DE9FF4F89B080461A
:105A600044460A9808EB0006464504D24FF0FF363C
:105A7000A6EB08000A906FE10B980078252806D065
:105A8000B44202D20B9800782070641C61E10025BA
:105A900026E00B98401C0B900B9800782D2802D123
:105AA00045F010051CE00B9800782B2802D145F03A
:105AB000040515E00B980078202802D145F0080570
:105AC0000EE00B980078232802D145F0200507E06E
:105AD0000B980078302802D145F0010500E000E085
