:020000040800F2
:10000000E82100209D010008333600085B29000824
:1000100031360008610A0008916F000800000000F6
:10002000000000000000000000000000373600085B
:100030004D0B000800000000353600083936000876
:10004000B7010008B7010008B7010008B7010008B0
:10005000B7010008B70100084F0B0008B7010008FE
:10006000B7010008550B00085B0B0008B70100083A
:10007000B7010008B7010008B7010008650A0008C9
:10008000B7010008B70100082D090008B7010008F2
:10009000B7010008B7010008B7010008B701000860
:1000A000B7010008B7010008B7010008B701000850
:1000B000C1690008B7010008B7010008B7010008CE
:1000C000B7010008B7010008B7010008B701000830
:1000D000B7010008796F0008856F0008B7010008B4
:1000E000B7010008B7010008B7010008B701000810
:1000F000B7010008B7010008B7010008B701000800
:10010000B7010008B7010008B7010008B7010008EF
:10011000B7010008B7010008B7010008B7010008DF
:10012000710A0008B7010008B7010008B70100080C
:10013000B7010008B7010008B7010008B7010008BF
:10014000B7010008B7010008B7010008B7010008AF
:10015000B7010008B7010008B7010008B70100089F
:10016000B7010008B7010008B7010008B70100088F
:10017000B7010008B7010008B7010008000000003F
:10018000B7010008B7010008DFF80CD000F074FBDD
:1001900000480047A5850008E82100200648804760
:1001A00006480047FEE7FEE7FEE7FEE7FEE7FEE75C
:1001B000FEE7FEE7FEE7FEE7D1360008890100080A
:1001C0002DE9F05F0546002092469B46884606468C
:1001D000814640241BE0284641464746224600F01F
:1001E0007CFA53465A46C01A914110D3114618461C
:1001F000224600F063FA2D1A67EB01084F462246AB
:100200000120002100F05AFA17EB00094E41201E90
:10021000A4F10104DFDC484631462A464346BDE8E6
:10022000F09FD2B201E000F8012B491EFBD27047CB
:100230000022F6E710B513460A4604461946FFF7B2
:10024000F0FF204610BD2DE9FE4F804681EA0300F5
:10025000C00F0C46009021F0004123F00045B8EBA0
:100260000200A94105D24046214690461C460B4655
:10027000024623F00040104347D0270DC7F30A0081
:10028000C3F30A510290401A019040286BDAC3F37D
:10029000130040F4801B0098924620B10023D2EB5B
:1002A000030A63EB0B0B01985946C0F1400250461C
:1002B00000F004FA06460D4650465946019A00F0F1
:1002C0001CFA10EB08006141002487EA115284EA0D
:1002D000E7731A4340D0009A62B3019A012A4FEAA9
:1002E000075215DC001B61EB02014FF0004202EAED
:1002F0000752CDE90042001C41F5801132462B46E1
:1003000000F053FA03B0BDE8F08F40462146F9E70C
:10031000001B61EB0201001C41F5801300185B41DA
:100320002018A2F5001747EB030140EAD570B61973
:100330006D4111E06D084FEA360645EAC0754FEA97
:100340000752001B61EB0201001C41F580114908B6
:100350004FEA30000019514132462B4603B0BDE848
:10036000F04F00F013BA0098012240000023D0EBB8
:10037000020263EBE073009821464FEAE074B8EBA9
:10038000000061EB0401E9E783F000435BE781F0E3
:10039000004158E72DE9FE4F81EA030404F00044D0
:1003A00021F0004100944FF0000B23F0004350EA8D
:1003B00001045ED052EA03045BD0C3F30A54C1F3D4
:1003C0000A552C44A4F2F3340194A0FB0254C1F367
:1003D000130141F48011C3F3130343F4801301FBB1
:1003E000024400FB034E840A970A44EA815447EA18
:1003F0008357A4FB076802958D0A05FB07854FEA22
:10040000932C04FB0C542705029D4FEA065847EA3B
:100410001637B5EB08056EEB070C870E920E47EA10
:10042000811742EA8312A7FB0201B6EB0B0164EBD2
:1004300000042B0D43EA0C335E1844EB1C50DA46E3
:100440005146E7FB0201C5F313044FEA0B3343EABD
:1004500014534FEA0432019C43EA0603A4F10C044E
:100460000294009CCDE900B400F09FF903B0BDE810
:10047000F08F00200146F9E72DE9F04D81EA0304F1
:1004800004F0004B21F0004514464FF0000A23F021
:10049000004150EA050220D054EA01021DD0C5F304
:1004A0000A570246C5F31303C1F31300C1F30A56FA
:1004B00040F4801543F48013A7EB0608101BD646C2
:1004C00008F2FD3873EB050002D308F1010801E0E2
:1004D00092185B41B8F1000F03DA00200146BDE835
:1004E000F08D00204FF48011064684460EE0171B65
:1004F00073EB050705D3121B63EB050306434CEAB8
:10050000010C49084FEA300092185B4150EA01079C
:10051000EDD152EA030012D082EA040083EA050119
:10052000084305D0101BAB4106D20122002306E090
:1005300000224FF0004302E06FF0010253101AEB6B
:1005400006004CEB085110EB0A0041EB0B01BDE833
:10055000F04D00F01BB90EB5C10F80EAE070084401
:10056000CA07002140F233438DE80E000A460B46CD
:1005700000F01BF903B000BD0EB540F2334102910B
:100580000021CDE900110A460B4600F00EF903B038
:1005900000BD70B5C1F30A5201F000450024C1F35B
:1005A000130140F2FF3341F480119A4201DA002036
:1005B00070BD40F233439A42A2F2334203DC52420E
:1005C00000F08BF800E090402C43F1D0404270BD29
:1005D00000F0004230F000400AD0C10D01F560711A
:1005E000C0F3160042EA0151C208400711437047A8
:1005F000002001467047000030B5041E71F1000470
:1006000004DB4FF00044404264EB0101141E73F11F
:10061000000405DB1C464FF00043524263EB040329
:100620008B4208BF824230BD30B5041E71F1000418
:1006300004DB4FF00044404264EB0101141E73F1EF
:10064000000405DB1C464FF00043524263EB0403F9
:10065000994208BF904230BD01F0004330B421F010
:10066000004150EA010206D00A0DA2F56072C1F302
:100670001301002A02DC30BC00207047440F44EA1A
:10068000C104C100E01830BC00EBC25000F047B814
:1006900030B50B46014600202022012409E021FA52
:1006A00002F59D4205D303FA02F5491B04FA02F54F
:1006B0002844151EA2F10102F1DC30BD202A04DB22
:1006C000203A00FA02F1002070479140C2F1200365
:1006D00020FA03F3194390407047202A04DB203AA4
:1006E00021FA02F00021704721FA02F3D040C2F152
:1006F00020029140084319467047202A06DBCB1799
:10070000203A41FA02F043EAE07306E041FA02F3CC
:10071000D040C2F120029140084319467047002999
:10072000A8BF7047401C490008BF20F00100704777
:1007300010B4B0FA80FC00FA0CF050EA010404BFD7
:1007400010BC704749B1CCF1200421FA04F411FA2D
:100750000CF118BF012121430843A3EB0C01CB1D71
:100760004FEA00614FEA102042BF002010BC7047E2
:1007700000EBC35010440029A4BF10BC7047401CBC
:10078000490008BF20F0010010BC704710B5141ECE
:1007900073F1000408DA401C41F1000192185B413A
:1007A0001A4301D120F0010010BD2DE9F04D924611
:1007B0009B4611B1B1FA81F202E0B0FA80F2203228
:1007C0009046FFF77BFF04460F4640EA0A0041EAE5
:1007D0000B0153465A46084313D0114653EA010011
:1007E00019D0C8F140025046FFF777FF05460E4684
:1007F000504659464246FFF761FF084305D00120A5
:1008000004E020463946BDE8F08D0020054346EA65
:10081000E0762C4337430A986305E40AA0EB08000E
:100820000022FD0A44EA47540A3002D5002001465E
:10083000E9E7010510196941DDE908450019694139
:10084000BDE8F04DA2E7C1F30A52C1F3130140F233
:10085000FF3341F480119A4202DA002001467047CA
:1008600040F233439A42A2F2334202DC5242FFF793
:1008700034BFFFF723BF0000064C074D06E0E068D9
:1008800040F0010394E8070098471034AC42F6D3D7
:10089000FFF77EFCF0A0000810A1000810B501468B
:1008A000806B026C12F0500F05D0026CD20626D578
:1008B00000F0D0FA10BD016C41F4007101640168D0
:1008C0008A6812F0405F17D1027EAAB9CA6A12F490
:1008D000700F02D08A6852050ED44A6822F02002B6
:1008E0004A60016C21F480710164016CC90403D475
:1008F000016C41F00101016400F0AAFA10BD806BA7
:10090000C26CBDE810400846104710B5806B40210E
:100910000164416C41F00401416400F09BFA10BD98
:1009200010B5806B00F095FA10BD0000014800F092
:1009300092BA0000401B0020464910B54A6822F4D4
:1009400040324A604A6843681A434A6001684A680C
:1009500022F480724A6001684A68036942EA03220D
:100960004A6001684A6822F040724A6001684A6839
:1009700083681A434A6001688A6822F400628A60C8
:1009800001688A68C3681A438A60816A6FF070627E
:10099000D14201688A6822F070628A6001688A68C0
:1009A0000CD0836A1A438A6001688A6822F0405238
:1009B0008A6001688A68C36A1A4301E022F04052E3
:1009C0008A6001688A6822F002028A6001688A6887
:1009D000037E42EA43028A6090F8201000290168F1
:1009E0004A680FD042F400624A6001684A6822F403
:1009F00060424A6001684A68174C436A04EB43331B
:100A00001A4301E022F400624A600168CA6A22F4D3
:100A10007002CA620168CA6A838B104C04EB0353EC
:100A20001A43CA6201688A6822F400728A60016807
:100A30008A6890F8303042EA43228A6001688A6806
:100A400022F480628A6001688A68406942EA8020F4
:100A5000886010BD0023014000E0FFFF0000F0FFB0
:100A6000FEE70000014800F0C3BB0000081D0020A5
:100A70000A4810B5006801280BD1094800F0B4FB02
:100A800038B1084801F060FB06F026FF054801F088
:100A900049FBBDE81040024800F0AABB2800002036
:100AA000881B0020481C002001681823CAB2103A95
:100AB000B2FBF3F2054B6FF30901032A9B5CC3659C
:100AC00000D9091D8165084670470000D0A00008C4
:100AD00010B5014600208B698A6A4FF0C07453B18B
:100AE000B3F5005F15D072B1012A0CD0022A0AD0EA
:100AF000032A09D104E01AB1012A06D0022A03D13F
:100B0000C96AC90100D5012010BDC96AA142FAD045
:100B100010BD002AF7D0012AF2D0022AF3D0032A0E
:100B2000F3D010BD30B50468256825F48025256014
:100B3000046863608368402B036803D09960006891
:100B4000C26030BD9A600068C16030BD704701204E
:100B500000F0C0BD082000F0BDBD102000F0BABDFF
:100B600072B6FEE770B5B3F5804F05D06FF07041F7
:100B700040F82210002070BD50F82240084B8E89AA
:100B80001C40D1E9003543EA05138D6889692D02BF
:100B900045EA06452B430B43234340F82230E9E75F
:100BA0000000F0CFF0B50C6850F82430114A134023
:100BB000D1E90125D1E903672A433E4332434E6917
:100BC00032438E693243CE6932430E6A32434E6AF3
:100BD00032438E6A3243CE6A3243CE6B096B324364
:100BE0000A431A43082D01D142F0400240F8242064
:100BF0000020F0BD8000F0FF30B500EB82025068AD
:100C00008D8900F04043D1E9000440EA04108C686B
:100C1000240244EA054420430C8A074D05EB0454A2
:100C200020430C7D6D0105EB046489692043084372
:100C300018435060002030BD0000F0FF70B50288FE
:100C4000012411465FEA842530F81430934200D91C
:100C50001A468B4200D21946641CAC42F4D3501A97
:100C600000EE100AB8EE400A10EE100AFFF7B0FCD2
:100C70009FED051B53EC112BFFF78CFBFFF7ECFCF2
:100C800000EE100A70BD00006666666666664A3F42
:100C90007047000010B590F83C20012A2AD00122AC
:100CA00080F83C200A7C012A0268536824D023F093
:100CB0004003536002685368114C2340536002683C
:100CC00053680C682343536003684A685A62036898
:100CD0008A689A620268536823F01F0353600268AF
:100CE0005368898989B20B435360002180F83C1016
:100CF000084610BD022010BD43F04003D9E70000B4
:100D0000FFFD3FFF78B50024009490F83C20012AB5
:100D100019D0012280F83C200A6807230568092AB7
:100D200013D9EE680A3A02EB420293409E43EE600A
:100D30000B788A680A3B03EB43039A400368DD683B
:100D40002A43DA6010E0022078BD2E6902EB4202ED
:100D500093409E432E610B788A6803EB43039A40CD
:100D600003681D692A431A614A681F23072A13D2A0
:100D700005686E6B521E02EB820293409E436E63C7
:100D80000B790A885B1E92B203EB83039A400368D7
:100D90005D6B2A435A6327E005680D2A12D22E6B39
:100DA000D21F02EB820293409E432E630B790A8886
:100DB000DB1F92B203EB83039A4003681D6B2A4347
:100DC0001A6311E0EE6A0D3A02EB820293409E43F1
:100DD000EE620B790A880D3B92B203EB83039A40D3
:100DE0000368DD6A2A43DA62164B0568144A9D429D
:100DF00006D10D68122D03D1556845F48005556064
:100E000005689D4218D10B68102B01D0112B13D10E
:100E1000536843F400035360096810290CD10A4950
:100E20000A4A0968B1FBF2F101EB8101490000E0D7
:100E3000491E00910029FBD180F83C40002078BD7C
:100E40000023014000200140CC00002040420F0060
:100E500070477047704770B5044600680168426883
:100E6000C1F34001C2F3401251B34AB3216CC90629
:100E700003D4216C41F400712164816811F0405F5A
:100E800017D1217EA9B9C16A11F4700F02D081680F
:100E900049050ED4416821F020014160206C20F406
:100EA00080702064206CC00403D4206C40F00100EA
:100EB00020642046FFF7CCFF21686FF01200086025
:100EC000206801684268C1F38001C2F3C01289B38F
:100ED00082B3216CC90603D4216C41F40051216412
:100EE000816811F4401F1ED1816B11F4401F02D0A4
:100EF0008168490517D44168490514D4816811F007
:100F0000405F10D1217E71B9416821F080014160BC
:100F1000206C20F480502064206CC00503D4206C29
:100F200040F0010020642046FFF7B2FE21686FF018
:100F30000C00086020680168426811F0010FC2F3DC
:100F400080120ED06AB10068C0070AD0206C40F44D
:100F500080302064204600F046F821686FF00100E0
:100F60000860206801684268C1F34011C2F38062E2
:100F700000290DD0002A0BD0616C41F002016164A0
:100F80006FF0200505602046FFF764FF20680560CC
:100F900070BD70B504004FF0000503D0206C002632
:100FA00010B107E0012070BD204600F01DF8666416
:100FB00084F83C60206CC00610D4206C20F488506B
:100FC00040F0020020642046FFF7B6FC6664206C07
:100FD00020F0020040F00100206400E0012584F8C8
:100FE0003C60284670BD704770B586B00646142137
:100FF0006846FFF71DF92249306888423ED12148F2
:101000000025016841F480710160006800F480707F
:1010100005901C481438016841F001010160006826
:10102000694600F001000590022000900320CDE900
:101030000105154800F05AFB154C1448C4E9000599
:101040000015A560C4E90350400060618000A06104
:101050004011E0614FF44030C4E90805204600F03B
:1010600097F908B1FFF77CFDB4630022012112203B
:10107000A66300F08DFC122000F07CFC06B070BD71
:101080000020014044380240000002401064024049
:10109000881B0020F8B50E4600210446009190F808
:1010A0003C00012807D0012084F83C0020688368B8
:1010B000DB0702D011E00220F8BD836843F0010392
:1010C00083603748374B0068B0FBF3F000EB40001B
:1010D00000E0401E00900028FBD120688368DB07F9
:1010E0005CD0236C40F20165AB4343F4807323640E
:1010F0004068400505D5206C20F4005040F4805035
:101100002064206CC00404D5606C20F0060060648C
:1011100000E0616484F83C10A16B2448224DC86350
:10112000A16B23480864A16B2248C86421686FF052
:10113000220008602068416841F0806141602068B9
:10114000816841F4807181602168134632464C31D8
:10115000A06B00F087F968681749C006206806D0C0
:1011600088421BD1816811F0405F13D016E088429D
:10117000F8D0124A904203D1D1F80423D206F1D01C
:101180000F4A90420AD1D1F8041301F01F0110292F
:10119000E8D303E0816841F0804181600020F8BD20
:1011A000CC00002040420F00002301409D080008B1
:1011B000210900080B09000800200140002101401E
:1011C0000022014090F83510022903D080214165AA
:1011D00001207047052180F835100068016821F072
:1011E000010101600020704790F835007047000051
:1011F0002DE9F84304464FF00009CDF8009063480C
:101200004FF41651A56D0068B0FBF1F72E6894F805
:101210005C10082000FA01F131420FD021680A6801
:1012200052070BD50A6822F004020A6094F85C1099
:101230008840A860606D40F00100606594F85C1023
:101240004FF0010808FA01F0304208D021684969DE
:10125000090604D5A860606D40F00200606594F84E
:101260005C1004208840304208D021680968890752
:1012700004D5A860606D40F00400606594F85C10CF
:1012800010208840304218D021680968090714D519
:10129000A86020680168490304D50068000308D5E8
:1012A000A16C07E00168C90503D4016821F00801B9
:1012B0000160216C09B12046884794F85C10202019
:1012C0008840304231D021680968C9062DD5A86010
:1012D00094F8350005282068016806D0490347D5F1
:1012E000006800031DD4616C1CE021F01601016050
:1012F0002068416921F080014161206C08B9A06C2F
:1013000020B12068016821F00801016094F85C10A8
:101310003F208840A86084F8349084F83580216D9F
:101320001FE0E16B09B120468847606D00282BD093
:10133000606DC00714D0052084F83500206801686E
:1013400021F0010101600098401C0090B84203D8D0
:1013500020680068C007F6D184F8349084F835809E
:10136000E16C002910D001B02046BDE8F0430847E9
:101370000168C905D5D4016821F01001016084F825
:10138000349084F83580CCE7BDE8F883CC000020A9
:101390002DE9F041044600F08BFA06465CB10025C9
:1013A00084F83450022084F835002068016821F068
:1013B000010101600DE00120BDE8F08100F078FA44
:1013C000801B052805D920206065032084F835009E
:1013D000F2E720680068C007F0D122681168204851
:1013E0000140D4E901031843D4E9033633431843D9
:1013F00063691843A3691843E3691843236A1843D0
:101400000843616A042903D1D4E90B131943084343
:10141000106020684069666A20F0070130460E437C
:10142000012704280CD1A06A0643E06A40B1204697
:10143000FFF74EFB20B14020606584F83570BAE7B5
:10144000206846612046FFF72FFB94F85C203F217F
:1014500091408160656584F835700020ACE700003C
:101460003F8010F02DE9F0410446866D90F834007D
:10147000002501280DD0012084F8340094F835703F
:101480000020012F07D084F8340002252846BDE84B
:10149000F0810220FBE7022784F835706065204662
:1014A000FFF740FB94F85C103F208840B060206854
:1014B000016841F016010160206C20B120680168CC
:1014C00041F0080101602068016841F001010160FC
:1014D000DCE7000070B5044600F0EAF90546601C40
:1014E00002D004480078044400F0E2F9401BA04216
:1014F000FAD370BDC0000020F0B587B01421684653
:10150000FEF796FE15484168002924D1012141606B
:1015100013480024016841F00101016000680225C0
:1015200000F0010005904FF68070CDE9000502AA99
:1015300003260C2782E8D00069460A4800F0D6F856
:101540004EF2B370CDE9000502AA694682E8D000E8
:10155000054800F0CBF807B0F0BD0000A400002063
:101560003838024000100240000C02402DE9F843D8
:1015700006240025554E01280FD0554F08286FD05E
:1015800010286ED10A2006F0E9FF306890FBF4F1D4
:1015900004FB1100002871D094E00A2006F0DEFF61
:1015A0003068B146401C90FBF4F104FB110130603F
:1015B0004FF4FC664FF4A07740F2271801291DD0A4
:1015C00090FBF4F104FB1101022923D090FBF4F10C
:1015D00004FB110103292AD090FBF4F104FB110153
:1015E000042930D090FBF4F104FB1101052939D016
:1015F00090FBF4F104FB110088B34EE0EE231922B6
:1016000019460020009501F063FA1E233A46194658
:1016100000960AE01E233A4619464046009501F01E
:1016200057FA46233A4619460096404633E0462389
:101630003A4619464046009501F04AFA6E233A466A
:1016400019460096F1E76E233A4619464046009542
:1016500001F03EFA96233A4619460096E5E70EE079
:1016600021E01EE096233A4619464046009501F0D7
:101670002FFABE233A4619460096D6E721E0BE234C
:101680003A4619464046009501F022FAEE23192207
:1016900019460020009601F01BFAC9F80450C9F859
:1016A0000850BDE8F8830A2006F058FF306890FB28
:1016B000F4F104FB110000B93D60B068401CB0605B
:1016C000EFE73D607068401C7060EAE7B4000020FE
:1016D00020000020044910B50A68024202D00860C8
:1016E000FFF744FF10BD0000143C01402DE9F84F06
:1016F00000224FF0010803254FF00F0E0B6808FA87
:1017000002F42340A3426ED14E68012E05D0022E72
:1017100003D0112E01D0122E12D186684FEA420C4E
:1017200005FA0CF7BE43CF6807FA0CF7374387601A
:101730004668A6430C79C4F30014944034434460D3
:10174000C668570005FA07FC8C6826EA0C06BC4000
:101750003443C4604C68022C01D0122C13D1D4083D
:1017600000EB8404A346D4F8209054074FEAD46ACF
:101770000EFA0AF629EA06090E6906FA0AF646EA98
:101780000906CBF8206006680C7926EA0C0604F0FE
:101790000304BC40344304604C68E40065D5364C17
:1017A000266846F480462660246822F0030604F486
:1017B00080440094314C3444A446D4F80848960739
:1017C000370F0EFA07F6B4432D4EB04201D1002672
:1017D00024E02C4EB04201D101261FE02A4EB04237
:1017E00002D102261AE040E0284EB04201D1032681
:1017F00014E0274EB04201D104260FE0254EB0423E
:1018000001D105260AE0244EB04201D1062605E0AA
:10181000224EB04201D1072600E00826BE402643F2
:10182000CCF808681E4E34684F689C43FF0300D50F
:101830001C4334601A4C241D26684F689E43BF0326
:1018400000D51E432660164E083634684F689C4308
:10185000FF0200D51C433460114E0C3634684F68CB
:101860009C43BF0200D51C433460521C102AFFF475
:1018700045AFBDE8F88F0000443802400030014019
:10188000000002400004024000080240000C024038
:10189000001002400014024000180240001C0240E8
:1018A000003C01400AB1816170470904FBE7000078
:1018B0000148806870470000C0000020024881682D
:1018C0000278114481607047C00000200B4810B5B9
:1018D000016841F400710160016841F480610160B8
:1018E000016841F480710160032000F071F800206C
:1018F00000F006F800F024F8002010BD003C024083
:1019000070B50D4D04464FF47A712878B1FBF0F0B4
:101910000A490968B1FBF0F000F031FB48B9102C1E
:1019200007D200222146501E00F032F800206C60E1
:1019300070BD012070BD0000C0000020CC00002060
:101940000B4882B0016841F480410160006800F4F6
:10195000804000900648001F016841F080510160FE
:10196000006800F080500090052002B000F030B810
:1019700044380240002809DB00F01F020121914099
:101980004009800000F1E020C0F80011704700001D
:10199000F0B40E4B1B680C46C3F30223C3F10705DA
:1019A000042D00D90425191D072901D2002300E0C8
:1019B000DB1E012606FA05F1491E214099409E4092
:1019C000761E16403143F0BC05F008BB0CED00E07C
:1019D000064900F0070208684FF6FF03184040EA86
:1019E0000220034A10430860704700000CED00E03D
:1019F0000000FA052DE9F0470E46050065D0DFF836
:101A00001481D8F80000F7B200F00F00B04207D2FE
:101A100088F80070D8F8000000F00F00B04254D1F0
:101A200028683D4C810712D5400703D5206840F453
:101A3000E05020602878000703D5206840F460401B
:101A400020602068A96820F0F00008432060287812
:101A5000C0072DD0304968680839012812D0022803
:101A600013D0032811D00968890700292DDA2168CD
:101A700021F0030101432160FFF71AFF814641F283
:101A8000883A0EE009688903EFE709688901ECE705
:101A9000FFF70EFFA0EB0901514502D90320BDE875
:101AA000F0872068696800F00C00B0EB810FEFD17F
:101AB000D8F80010404601F00F01B14207D9077075
:101AC000006800F00F00B04201D00120E7E728785D
:101AD000400705D52068E96820F4E05008432060FD
:101AE0002878000706D52068296920F4604040EA7C
:101AF000C100206000F038F82168084AC1F30311E2
:101B0000515CC8400649086006480068FFF7F8FEC7
:101B10000020C4E7003C024008380240D8A000087A
:101B2000CC000020C4000020044805490068096872
:101B3000044AC1F38221515CC8407047CC000020A8
:101B400008380240E8A00008044805490068096810
:101B5000044AC1F34231515CC8407047CC000020B8
:101B600008380240E8A00008154810B5006810F0D9
:101B70000C02144813D04110042A0FD0082A0ED1A9
:101B80000F4C241F2268236802F03F025B0207D536
:101B90002068C0F38810A0FB010106E0084610BDD4
:101BA0002168C1F38811A1FB00010023FEF708FBA7
:101BB0002168C1F30141491C4900B0FBF1F010BD9F
:101BC000083802400024F4002DE9F84F040076D0D4
:101BD0002078DFF838A3CE4DC00749D0DAF80010DE
:101BE0005046C1F38101012908D00068C0F381008B
:101BF00002280AD1281D0068400206D52868800303
:101C000036D560680028E2D032E06068B0F5803FE9
:101C100010D0B0F5A02F286810D020F480302860B4
:101C2000286820F4802028606068A0B1FFF740FE9B
:101C300006460CE0286840F48030F4E740F4802049
:101C40002860F7E7FFF734FE801B642873D8286804
:101C50008003F7D50CE0FFF72BFE064605E000BF3A
:101C6000FFF726FE801B6428F0D828688003F7D48D
:101C70002078DFF8A08280074FF000093ED5DAF81F
:101C80000010504611F00C0F09D00068C0F381001D
:101C900002280BD19D48001F0068400206D4286826
:101CA000800715D5E068012809D111E0E068B8B1D6
:101CB0000120C8F80000FFF7FBFD064605E020E123
:101CC000FFF7F6FD801B0228C0D828688007F7D5EB
:101CD0002868216920F0F80040EAC10028600DE082
:101CE000C8F80090FFF7E4FD064604E0FFF7E0FDCA
:101CF000801B02281FD828688007F7D420780007A7
:101D000022D5824E844861696C3671B1012101602F
:101D1000FFF7CEFD074604E0FFF7CAFDC01B02280F
:101D200009D830688007F7D50EE0C0F80090FFF7BB
:101D3000BFFD074605E082E0FFF7BAFDC01B0228A1
:101D40007DD830688007F7D42078400768D5DFF861
:101D5000BCB100270BF1380BDBF80000C0000BD43E
:101D6000DBF8001041F08051CBF80010DBF80000E8
:101D7000012700F080500090684E3068C00510D4F4
:101D8000306840F480703060FFF792FD009005E00D
:101D9000FFF78EFD0099401A022850D83068C00520
:101DA000F6D55A4EA068683601280FD0052830684D
:101DB00010D020F001003060306820F00400306066
:101DC000A068B8B1FFF774FD00900FE0306840F0F4
:101DD0000100F4E740F004003060F7E7FFF768FD2A
:101DE0000099411A41F28830814266D830688007F4
:101DF000F4D50EE0FFF75CFD009007E0FFF758FD1B
:101E00000099411A41F28830814256D830688007E3
:101E1000F4D42FB1DBF8001021F08051CBF8001082
:101E2000A069D0B3DAF800205146C2F38102022A39
:101E30004AD00228484607D0C8F8600000E03CE0DD
:101E4000FFF736FD04463BE04746C8F86000FFF761
:101E50002FFD064605E000BFFFF72AFD801B022884
:101E60002BD828688001F7D4D4E907010843A16A78
:101E70002B4A490802EB0141626A41EA8211084398
:101E800094F82C1040EA01612048001F01600120F5
:101E90003866FFF70DFD044605E034E0FFF708FD66
:101EA000001B022809D828688001F7D52BE000BF65
:101EB000FFF7FEFC001B022802D90320BDE8F88FC3
:101EC00028688001F4D41EE00128F7D00868E26990
:101ED00000F48001914214D1226A00F03F01914246
:101EE0000FD147F6C071626A0140914209D1A26ADE
:101EF00000F44031914204D1E16A00F07060884200
:101F000001D00120DAE70020D8E7000008380240BD
:101F10000038024000004742800E474200700040F7
:101F20000000FFFF70B515460E46040003D094F87C
:101F3000490010B107E0012070BD002084F848007E
:101F4000204600F01AF804F108012068FEF72AFE86
:101F50003146A2682068FEF74FFED4E90102294607
:101F6000236BFEF7FFFDA168206850F8212042F0A6
:101F7000010240F82120002070BDFFF7BDBA10B566
:101F8000401EB0F1807F01D3012010BD4FF0E0244E
:101F900060610F21601705F021F80020A061072083
:101FA0002061002010BD70477047000070B590F8A8
:101FB0003C20012A32D0012480F83C40022280F8E3
:101FC0003D2003685A689D6822F070060A68324313
:101FD0005A60134B02689A4214D0B2F1804F11D06C
:101FE000104B9A420ED0104B9A420BD00F4B9A4294
:101FF00008D00F4B9A4205D00E4B9A4202D00E4B9E
:102000009A4204D1496825F080031943916080F811
:102010003D40002180F83C10084670BD022070BD94
:10202000000001400004004000080040000C004097
:1020300000040140004001400018004010B50400B9
:1020400003D094F83D0010B107E0012010BD00203E
:1020500084F83C00204600F00DF8022084F83D0092
:10206000211D206804F0B2FC012084F83D0000200E
:1020700010BD000038B50546026800202449B2F1C1
:10208000804F27D0234B9A4236D10A6842F0020291
:102090000A600968214C01F0020100911E4921608B
:1020A0004FF0206161604021C4E902100901216103
:1020B000490061618900A1614911C4E907106062AA
:1020C0002046FFF765F908B1FEF74AFD6C62AC6384
:1020D000A56338BD086840F0010008600868002268
:1020E00000F00100009001211C20FFF751FCBDE829
:1020F00038401C20FFF73EBC09488242E9D10868FD
:1021000040F010000860086800F01000009038BD32
:10211000403802400004004070600240081D00206A
:1021200000100040022180F83D1001688A6802F02A
:102130000702062A03D00A6842F001020A60012160
:1021400080F83D1000207047022180F83D100168A2
:102150000A6A41F211131A4207D10A6A9B101A4205
:1021600003D10A6822F001020A60012180F83D10C3
:102170000020704770B5044690F83C00012817D045
:10218000012584F83C50022084F83D0020688268D4
:1021900022F0770222F47F4282600868502830D013
:1021A0000DDC20284DD005DC98B310283BD148E049
:1021B000022070BD302844D0402834D139E0602856
:1021C00028D0702806D0B0F5805F2CD0B0F5005F25
:1021D00029D10AE0CB68D1E90121206804F0ADFCE7
:1021E0002068816841F0770109E0CB68D1E90121DD
:1021F000206804F0A2FC2068816841F4804181607D
:1022000011E0CA684968206804F06CFD502120681C
:1022100007E016E0CA684968206804F074FD602190
:10222000206804F094FC84F83D50002084F83C00C1
:1022300070BDCA684968206804F054FD40212068D8
:10224000EFE7226801461046EBE77047704770B52C
:102250000446006801694FF00005C943890715D499
:10226000C168C943890711D4E91E016101202077A3
:10227000206880698007204602D0FFF7E7FF04E06E
:1022800000F0C0F8204600F0D3F9257720680169F6
:10229000C943490717D4C168C943490713D46FF02C
:1022A00004010161022020772068806910F4407FDA
:1022B000204602D0FFF7CAFF04E000F0A3F8204652
:1022C00000F0B6F9257720680169C943090716D4DB
:1022D000C168C943090712D46FF0080101610420E5
:1022E00020772068C0698007204602D0FFF7AEFF44
:1022F00004E000F087F8204600F09AF9257720687E
:102300000169C943C90617D4C168C943C90613D4B2
:102310006FF010010161082020772068C06910F477
:10232000407F204602D0FFF791FF04E000F06AF8FA
:10233000204600F07DF9257720680169C943C90767
:1023400008D1C168C943C90704D1891E016120466B
:1023500000F070F920680169C943090609D4C16811
:10236000C943090605D46FF0800101612046FFF7DB
:102370001AFE20680169C943490609D4C168C943E6
:10238000490605D46FF040010161204600F053F981
:1023900020680169C94389060BD4C168C94389060D
:1023A00007D46FF0200101612046BDE87040FFF7BF
:1023B000FBBD70BD10B586B0044614216846FDF71C
:1023C00037FF0D492068884214D10C48016841F05C
:1023D000040101600068012100F004000590402024
:1023E00000900220CDE90101039004906946044861
:1023F000FFF77CF906B010BD000400403038024001
:1024000000080240704700002DE9F041044690F8B2
:102410003D0017460D46022853D094F83D00012890
:1024200005D10FB9002B6ED1022084F83D00394848
:1024300039493A4E35B1042D16D0082D44D00C2D13
:1024400024D153E0626AD063606A0164606A3946ED
:10245000C6642268606A3432FFF704F898BB2068CB
:10246000C16841F4007110E0A26AD063A06A0164FF
:10247000A06A3946C6642268A06A3832FEF7F2FFC5
:1024800008BB2068C16841F48061C160012229460F
:10249000206804F0FFFA22492068884202D02149CE
:1024A000884203D1416C41F4004141642068816855
:1024B00001F00701062903D0016841F00101016024
:1024C0000020BDE8F0811EE0E26AD063E06A0164AA
:1024D000E06A3946C6642268E06A3C32FEF7C2FF11
:1024E00088B92068C16841F40061CEE7226BD063EF
:1024F000206B0164206B3946C6642268206B403231
:10250000FEF7B0FF08B10120DBE72068C16841F4A5
:102510008051BAE7AF6A0008ED6A00082B6B00082B
:10252000000001400004014070B5044690F83C00F2
:102530000D4601280DD0012684F83C60022084F865
:102540003D0042B1042A18D0082A2AD00C2A4DD1C5
:1025500039E0022070BD206804F002FB2068816928
:1025600041F0080181612068816921F004018161E5
:10257000206881692A69114311E0206804F020FB7A
:102580002068816941F4006181612068816921F4DA
:1025900080618161206881692A6941EA0221816143
:1025A00024E0206804F042FB2068C16941F0080182
:1025B000C1612068C16921F00401C1612068C1695D
:1025C0002A69114311E0206804F064FB2068C169A6
:1025D00041F40061C1612068C16921F48061C16179
:1025E0002068C1692A6941EA0221C16184F83D601D
:1025F000002084F83C0070BD10B5040003D094F8AE
:102600003D0010B107E0012010BD002084F83C001F
:10261000204600F00CF8022084F83D00211D2068BF
:1026200004F0D4F9012084F83D00002010BD70476B
:1026300070477047704770477047000070B5026878
:1026400004461068D168536910F00F0F52D003F0A0
:10265000010501F490762E435FD0C20705D0CA056C
:1026600003D5E26B42F00102E263420705D5DA07C7
:1026700003D0E26B42F00202E263820705D5DA077B
:1026800003D0E26B42F00402E263020707D501F0D7
:1026900020022A4303D0E26B42F00802E263E26BBD
:1026A000002A33D0800604D5880602D5204604F0DF
:1026B00052FB20684069E16BC0F38010090700D429
:1026C00028B3204604F039FB2068416949061AD531
:1026D000416921F040014161606BA0B11B49016576
:1026E000606BFEF76FFD002810D0606B016DBDE8D8
:1026F00070400847830610D58B060ED52046BDE8EE
:10270000704004F028BB2046FFF796FF70BD2046BE
:10271000FFF792FF0020E06370BD030606D50B06AD
:1027200004D52046BDE8704004F0F4BB4006F3D564
:102730004806F1D5D168204621F04001D160202122
:1027400084F8391000F008F970BD00002B6D000806
:1027500070B5040004D094F83900002510B106E0EB
:10276000012070BD84F83850204600F023F8242062
:1027700084F839002068C16821F40051C160204606
:1027800004F034FB2068016921F490410161206864
:10279000416921F02A0141612068C16841F400517A
:1027A000C160E563202084F8390084F83A000020F5
:1027B00070BD0000F0B587B0044614216846FDF7EF
:1027C00037FD334B226800243249022503260727B0
:1027D00031489A4221D12F4A1432136843F0100332
:1027E0001360126802F0100205920A6842F00102BA
:1027F0000A60096802AA01F0010105917102CDE9A0
:10280000001582E8D0006946FEF770FF0022012122
:102810002520FFF7BDF8252035E0204B9A4234D122
:102820001C4A1032136843F400331360126802F438
:10283000003205920A6842F001020A600A6802F05A
:10284000010205920A6842F008020A60096802AAB9
:1028500001F0080105910421CDE9001582E8D000BE
:102860006946FEF743FF4020CDE9000502AA69460C
:1028700082E8D0000A48FEF739FF00220121262015
:10288000FFF786F82620FFF775F807B0F0BD0000C7
:102890000010014030380240000002400044004077
:1028A000000C024090F83A30202B22D1F9B1F2B15D
:1028B00090F83830012B1CD081628285C2850021BE
:1028C000C163222280F83A2080F838100168CA6873
:1028D00042F48072CA6001684A6942F001024A61AA
:1028E0000068C16841F02001C160002070470120EC
:1028F000704702207047000070B500681149884297
:102900001ED1114C114B611E22788878104D1A543B
:10291000401C8870302A04D1012240212846FEF74D
:10292000C1FF2078312804D1002240212846FEF73B
:10293000B9FFBDE87040012203490648FFF7B2BF66
:1029400070BD000000100140010000203E01002089
:1029500000000240681D00207047FEE72DE9F043AB
:10296000174C81460025208866884643A088A0F53C
:10297000D041043902D1A079012807D000210846AE
:1029800000F06EFA00F01AFC0E4814E00020A0716E
:102990002A2767814FF02B08A4F80C80014600F02D
:1029A0005FFA0120A071A4F80A80A781EAE700BFBE
:1029B000A0F800906D1CB542FAD3BDE8F08300008A
:1029C000E81B0020000008602DE9F04F3F492C254E
:1029D0002A2689882B2745F2105A4FF4305B4FF492
:1029E000285E4FF0F00C49F241394FF4A07245F2E5
:1029F000103346F6040478B134484FF001084945D5
:102A000080F806800280A0F802C001D0994233D13C
:102A10000581468187814BE02C484FF000084945ED
:102A200080F80680A0F800C0428003D0A14201D007
:102A300099420AD1058146818781A14201D09942FC
:102A40003ED102804FF4F0710DE051450DD1A0F858
:102A500008B0A0F80AE04FF42C5181814FF4F071D6
:102A600001804FF4487141802AE022210181202118
:102A700041812121818123E0A14203D10581478148
:102A8000868115E051450DD1A0F808B0A0F80AE004
:102A90004FF42C5585814FF4487505804FF4F0753F
:102AA000458005E022250581212545812025858158
:102AB000A14201D0994203D14FF4F07101804280CC
:102AC000BDE8F04F002000F0D5B80000E81B002062
:102AD0002DE9FE4F161ACDE900104FF000085D1ADF
:102AE00047464FF0FF30002E02DD4FF0010102E0BB
:102AF00003D14FF000018B4602E08346C6F1000689
:102B0000002D02DD4FF0010002E003D14FF0000084
:102B1000824602E08246C5F10005AE4201DD344640
:102B200000E02C46601C4FF00009029019E000986C
:102B30000C9A81B2019880B200F018F8B0442F448A
:102B4000A04504DD0198A8EB040858440190A74271
:102B500003DD00983F1B5044009009F101001FFA6B
:102B600080F902998945E2DDBDE8FE8F2DE9F0414B
:102B7000334C90460246A08823460D460F0A160A9B
:102B80005B89A0F51341413914D0A0F5A641103955
:102B900010D0A0F5AA41103911D02646A0F5D04C8E
:102BA000B1793688B61A761EBCF1040C21D0012901
:102BB00035D035E0184600F0F5FA304620E01846EA
:102BC00000F0F0FA304600F0E1FA6089401C80B273
:102BD00000F0E8FAD0B200F0D9FAA08900F0E2FAE9
:102BE000384600F0D3FAA089401C80B200F0DAFA2F
:102BF00011E0012900D1B2B2184600F0D3FA100A50
:102C000000F0C4FAD0B200F0C1FAA08900F0CAFA0C
:102C1000384600F0BBFAE8B200F0B8FA08E0B2B209
:102C20001146184600F0D4FAA089294600F0D0FADF
:102C3000044920890880891CA1F80080BDE8F08142
:102C4000E81B0020FEFF0760034808B50088ADF8C8
:102C50000000BDF8000008BD0000086001B5BDF827
:102C6000000000F09FFA052005F078FCBDE8084060
:102C7000FFF7EABFF0B5794D00242946AB79898882
:102C800046F60402012B18D1914216D0082814D21E
:102C9000DFE800F00406080A0C0E101206200CE013
:102CA00007200AE0042008E0052006E0012004E0F7
:102CB000002002E0032000E00220A1F5134745F2C6
:102CC000103345F21056413F05D0914203D099424E
:102CD00001D0B14277D1082812D2DFE800F0110408
:102CE00006080A0C0E1080240AE0402408E0C024E4
:102CF00006E0202404E0602402E0A02400E0E024B8
:102D0000B14202D14FF4585000E03620994203D02E
:102D1000B14201D044F00804914201D144F00204D0
:102D2000214600F055FAA0064ED4A87901284BD0D0
:102D300028886988884201D929806880A888B0429B
:102D4000688946D100F02EFA002000F01FFA688949
:102D5000401C80B200F026FA002000F017FA6889C3
:102D6000801C80B200F01EFA2888401EC0F30F209D
:102D700000F00CFA6889C01C80B200F013FA2878C1
:102D8000401EC0B200F002FAA88900F00BFA002041
:102D900000F0FCF9A889401C80B200F003FA002082
:102DA00000F0F4F9A889801C80B200F0FBF9688873
:102DB000401EC0F30F2000F0E9F9A889C01C80B2C2
:102DC00000F0F0F927E02DE0288869888842B3D325
:102DD000B4E700F0E7F9002000F0D8F9002000F097
:102DE000D5F92888401EC0F30F2000F0CFF92878CD
:102DF000401EC0B200F0CAF9A88900F0D3F9002043
:102E000000F0C4F9002000F0C1F96888401EC0F34A
:102E10000F2000F0BBF9A878BDE8F040401EC0B21A
:102E200000F0B4B9082812D2DFE800F00406081157
:102E30000A0C0E1030240AE0102408E0202406E0DA
:102E4000382404E0282402E0182400E0082444F494
:102E50008051BDE8F040032000F0BAB9E81B002023
:102E60002DE9F043DFF8D0800C4602464FEA1129E5
:102E7000B8F804004146150A4B89A0F51346413EB7
:102E800013D0A0F5A64110390FD04646A0F5D04783
:102E9000B1793688B61A761E043F0BD0A0F5AA4742
:102EA000103F1BD001293AD03AE0184600F07AF9D9
:102EB000284606E0012900D1B2B2184600F072F9A6
:102EC000100A00F063F9D0B200F060F9B8F80C0015
:102ED00000F068F9484600F059F91BE0184600F088
:102EE00061F9284600F052F9B8F80A00401C80B297
:102EF00000F058F9D0B200F049F9B8F80C0000F031
:102F000051F9484600F042F9B8F80C00401C80B274
:102F100000F048F9E0B2BDE8F04300F037B9B2B2D2
:102F20001146184600F054F9B8F80C002146BDE8E7
:102F3000F04300F04DB90000E81B00202DE9FF4FE1
:102F400080461D460C468B46580700D0012000EBFA
:102F5000D500690810FB01F0203A00F0FF0AD0B25A
:102F60000026029045E00C2D12D0102D15D0182D02
:102F700041D10298214900EBC00000BF01EB800065
:102F80004FF00009875D38060CD51D4802880DE01A
:102F900002981C4900EB4000F0E71B49029801EB46
:102FA0000010EDE70D9828B91548428821464046A3
:102FB000FFF7DCFD7806070E1448641CA4B20188F4
:102FC000414518D9A4EB0B00A84209D108F1010032
:102FD0001FFA80F80D485C46018841450BD906E090
:102FE00009F1010000F0FF09B9F1080FCBD3761CFD
:102FF000F6B25645B7D3BDE8FF8F000074930008C2
:10300000A400002010890008848D0008E81B00201F
:103010002DE9FF4F80461D460C468B46580700D0D1
:10302000012000EBD500690810FB01F0203A00F008
:10303000FF0AD0B20026029044E00C2D11D0102DD2
:1030400014D0182D40D10298204900EBC00000BFD9
:1030500001EB80004FF00009875D38060BD50E9A12
:103060000DE002981A4900EB4000F1E71949029877
:1030700001EB0010EEE70D9828B917484288214669
:103080004046FFF773FD7806070E1448641CA4B28F
:103090000188414518D9A4EB0B00A84209D108F1D9
:1030A00001001FFA80F80D485C46018841450BD9A4
:1030B00006E009F1010000F0FF09B9F1080FCCD3D7
:1030C000761CF6B25645B8D3BDE8FF8F749300085E
:1030D00010890008848D0008A4000020E81B00204F
:1030E0002DE9F84F044600F0FF0910190D46DDE9FF
:1030F0000AB61FFA80F8581987B24FF0000A12E09A
:10310000444503D305EB0B004C4685B2BD420FD2BC
:103110005B4629462046CDF800A0FFF70FFF04EBE1
:103120005B0084B2761C3278A2F120005E28E7D9D9
:10313000BDE8F88F2DE9FC4F044600F0FF09101997
:103140000D46DDE90BB61FFA80F8581987B24FF02B
:10315000000A13E0444503D305EB0B004C4685B24F
:10316000BD4210D20D985B46CDE900A0294620460D
:10317000FFF74EFF04EB5B0084B2761C3278A2F1BD
:1031800020005E28E6D9BDE8FC8F000001B5BDF83F
:103190000000ADF80000BDF800000149088008BD3E
:1031A0000000086001B5BDF80000ADF80000BDF8F2
:1031B00000000149088008BDFEFF0760024803497E
:1031C0000089088070470000E81B0020FEFF0760B0
:1031D00003B5BDF80000024A1080901C01800CBDB0
:1031E000FEFF0760F8B5002445F24C364FF49077A7
:1031F0000025324629462046FFF7B8FC2D1DADB20A
:10320000F02DF6D32034A4B2BC42F1D9002500241D
:10321000324629462046FFF7A9FC241DA4B2BC4231
:10322000F6D31E35ADB2F02DF1D94BF640447823DC
:103230003A46194600200094FFF74AFCA022F023EA
:10324000002110460094FFF743FCF8BD30B58BB069
:1032500018216846FCF7ECFF00241F4806940794E9
:1032600008941C49099401604FF48031C0E90114AD
:103270000461047680F820400903C1620125C5611C
:103280004FF0C061C460816280F830504561FDF745
:1032900080FE08B1FDF764FC1048009001A940F6DB
:1032A000FF7081E831008DF8105069460A48FDF73B
:1032B000F1FC08B1FDF754FC0695CDE9075406A9C9
:1032C0000548FDF71FFD002801D0FDF749FC0BB0B4
:1032D00030BD000000200140401B002000028000A3
:1032E000114808B5016841F400110160016801F45A
:1032F00000110091016841F4800101600068002222
:1033000000F48000009011460F20FEF741FB0F20D3
:10331000FEF730FB002201213820FEF739FBBDE823
:1033200008403820FEF726BB3038024000B587B091
:103330001C216846FCF77CFF15484FF02041102205
:1033400001601449416000218160C160C0E904123C
:103350008161C16113020162C0E90913C1620163A5
:103360004163816341640F20FF230090CDE9010395
:10337000CDE903021120CDE9050100226946044888
:10338000FEF7D0FD002801D0FDF7EAFB07B000BD35
:10339000F81B0020040100A0F0B587B01421684696
:1033A000FCF746FF31480025016841F0100101603B
:1033B000016801F010010591016841F08001016090
:1033C000016801F080010591016841F0010101608F
:1033D000016801F001010591016841F008010160F7
:1033E000016801F008010591016841F004010160E4
:1033F00000681F4F00F0040005900022C0213846ED
:10340000FEF750FA1B4E1820CDE90006012469464C
:1034100002941948FEF76AF902200094CDE9016090
:1034200069463846FEF762F9C0208DE831006946EA
:1034300038460395FEF75AF9002211460620FEF79A
:10344000A7FA0620FEF796FA002211460920FEF799
:103450009FFA0920FEF78EFA002211460A20FEF795
:1034600097FA0A20FEF786FA07B0F0BD303802401E
:1034700000000240000011100010024010B586B09C
:1034800000241648009401940294039404944FF08D
:103490008041059401602921C0E901141F21C0E980
:1034A00003148461FEF7CAFD08B1FDF759FB4FF420
:1034B0008050009069460948FEF75CFE08B1FDF7B0
:1034C0004FFB2020CDE9040404A90448FEF76EFD5B
:1034D000002801D0FDF744FB06B010BD481C0020B9
:1034E00010B58EB000240794089409940A940B94A4
:1034F0001C2168460C94FCF79BFE1F481D49016087
:103500005321C0E9011440F2E731C0E9031484619A
:10351000FEF794FD08B1FDF723FB4FF480500790B0
:1035200007A91548FEF726FE08B1FDF719FB12485A
:10353000FFF762F808B1FDF713FB0B940BA90E48D7
:103540000C94FEF733FD08B1FDF70AFB60200090F4
:103550006420CDE901040022694607480494FEF77F
:10356000E3FF08B1FDF7FCFA0348FEF723FF0EB0B6
:1035700010BD000000040040881C00201CB5002481
:103580000E4800940C4901940160A721C0E9011480
:103590004FF6FF718461C160FEF750FD08B1FDF781
:1035A000DFFA0094694605480194FEF7FFFC002805
:1035B00001D0FDF7D5FA1CBD00100040C81C00204A
:1035C0000C4810B50A4901604FF4E1314160002117
:1035D00081600C22C160C0E904128161C161FFF702
:1035E000B7F8002803D0BDE81040FDF7B9BA10BD08
:1035F00000100140681D00200C4810B50A49016008
:103600004FF4E1314160002181600C22C160C0E9CA
:1036100004128161C161FFF79BF8002803D0BDE867
:103620001040FDF79DBA10BD00440040A81D0020C9
:10363000FEE7FEE770477047FEF740B930B593B03C
:1036400030216846FCF7F4FD14210CA8FCF7F0FDCE
:103650001D480025016841F080510160006800F0BC
:10366000805011901948016841F480410160006860
:10367000022400F480401190012000900004019089
:103680008001CDE9064008AA0420A82182E81300A1
:103690000B906846FEF798FA08B172B6FEE70CA9DF
:1036A0000F2081E831004FF4A0500F904FF480506C
:1036B000109005210CA8FEF79DF9002801D072B6E4
:1036C000FEE713B030BD00004038024000700040FB
:1036D0000548016841F47001016003494FF0006042
:1036E000803908607047000088ED00E02DE9F84F50
:1036F000002001210090FFF76BFD3220FDF7EAFE6C
:103700000020FFF7ABFAFE4F49F2413546F60408B8
:10371000B88045F210394FF6FF7445F21056FF2875
:1037200004D3A04202D0B0F5134F5ED1D320FFF7EF
:1037300039FDFFF789FAB880FFF786FAB880FFF7FE
:1037400083FA04EA0020B880FFF77EFAB9880843BC
:10375000B880A84249D0BF20FFF724FDFFF774FAD4
:10376000B880FFF771FAB880FFF76EFAB880FFF7FC
:103770006BFA04EA0020B880FFF766FAB9880843BC
:10378000B880404531D0D420FFF70CFDFFF75CFA3C
:10379000B880FFF759FAB880FFF756FA04EA00201C
:1037A000B880FFF751FAB9880843B88048451CD063
:1037B0004FF45A40FFF7F6FCFFF746FAB8804FF493
:1037C0005B40FFF7EFFCFFF73FFA04EA0020B88008
:1037D0004FF45C40FFF7E6FCFFF736FAB988084380
:1037E000B880B0F5004F00D1BE80B988C5A003F005
:1037F000D1FBB888A8427CD1CF20FFF7D3FC0020B2
:10380000FFF7C4FC0098401C0090C120FFF7BEFCED
:103810003020FFF7BBFCED20FFF7C4FC6420FFF76E
:10382000B5FC0320FFF7B2FC1220FFF7AFFC8120AC
:10383000FFF7ACFCE820FFF7B5FC8520FFF7A6FCFE
:103840001020FFF7A3FC7A20FFF7A0FCCB20FFF7A6
:10385000A9FC3920FFF79AFC2C20FFF797FC0020E9
:10386000FFF794FC3420FFF791FC0220FFF78EFC59
:10387000F720FFF797FC2020FFF788FCEA20FFF7EE
:1038800091FC0020FFF782FC0020FFF77FFCC020A6
:10389000FFF788FC1B20FFF779FCC120FFF782FCB3
:1038A0000120FFF773FCC520FFF77CFC3020FFF7F9
:1038B0006DFC3020FFF76AFCC720FFF773FCB720D0
:1038C000FFF764FC3620FFF76DFC4820FFF75EFC35
:1038D0003A20FFF767FC5520FFF758FCB120FFF7AF
:1038E00061FC0020FFF752FC1A20FFF74FFCB620C6
:1038F00000E095E0FFF756FC0A20FFF747FCA22006
:10390000FFF744FCF220FFF74DFC0020FFF73EFCE0
:103910002620FFF747FC0120FFF738FCE020FFF7E7
:1039200041FC0F20FFF732FC2A20FFF72FFC282054
:10393000FFF72CFC0820FFF729FC0E20FFF726FCE0
:103940000820FFF723FC5420FFF720FCA920FFF7F5
:103950001DFC4320FFF71AFC0A20FFF717FC0F207D
:10396000FFF714FC0020FFF711FC0020FFF70EFC0E
:103970000020FFF70BFC0020FFF708FCE120FFF719
:1039800011FC0020FFF702FC1520FFF7FFFB1720BA
:10399000FFF7FCFB0720FFF7F9FB1120FFF7F6FB11
:1039A0000620FFF7F3FB2B20FFF7F0FB5620FFF775
:1039B000EDFB3C20FFF7EAFB0520FFF7E7FB1020BB
:1039C000FFF7E4FB0F20FFF7E1FB3F20FFF7DEFBF3
:1039D0003F20FFF7DBFB0F20FFF7D8FB2B20FFF783
:1039E000E1FB0020FFF7D2FB0020FFF7CFFB012017
:1039F000FFF7CCFB3F20FFF7C9FB2A20FFF7D2FBE4
:103A00000020FFF7C3FB0020FFF7C0FB0020FFF7FB
:103A1000BDFBEF20FFF7BAFB1120FFF7C3FBADE0C2
:103A2000404575D11120FFF7BDFB1420FDF752FD75
:103A3000D020FFF7B7FB0720FFF7A8FB4220FFF7D6
:103A4000A5FB1D20FFF7A2FBD120FFF7ABFB002059
:103A5000FFF79CFB1A20FFF799FB0920FFF796FB65
:103A6000D220FFF79FFB0120FFF790FB2220FFF7FA
:103A70008DFBC020FFF796FB1020FFF787FB3B2054
:103A8000FFF784FB0020FFF781FB0220FFF77EFB9E
:103A90001120FFF77BFBC520FFF784FB0320FFF716
:103AA00075FBC820FFF77EFB0020FFF76FFB25208A
:103AB000FFF76CFB2120FFF769FB0520FFF766FB92
:103AC0000020FFF763FB0A20FFF760FB6520FFF78C
:103AD0005DFB2520FFF75AFB7720FFF757FB5020AF
:103AE000FFF754FB0F20FFF751FB0020FFF74EFBC1
:103AF000F820FFF757FB0120FFF748FBFE2008E006
:103B0000E81B00204C43442049443A25780D0A0024
:103B10003AE0FFF747FB0020FFF738FB0220FFF7F2
:103B200035FB2020FFF73EFB3620FFF73BFB08204C
:103B3000FFF72CFB3A20FFF735FB5520FFF726FB5C
:103B40002B20FFF72FFB0020FFF720FB0020FFF7C3
:103B50001DFB0120FFF71AFB3F20FFF717FB2A2070
:103B6000FFF720FB0020FFF711FB0020FFF70EFB03
:103B70000120FFF70BFBDF20FFF708FB7820FDF7A4
:103B8000A9FC292001F0FCBE48457CD1ED20FFF7BF
:103B900009FB0120FFF7FAFAFE20FFF7F7FAEE2003
:103BA000FFF700FBDE20FFF7F1FA2120FFF7EEFA26
:103BB000F120FFF7F7FA0120FFF7E8FADF20FFF71F
:103BC000F1FA1020FFF7E2FAC420FFF7EBFA8F209A
:103BD000FFF7DCFAC620FFF7E5FA0020FFF7D6FA78
:103BE000E220FFF7D3FAE220FFF7D0FAE220FFF756
:103BF000CDFABF20FFF7D6FAAA20FFF7C7FAB02008
:103C0000FFF7D0FA0D20FFF7C1FA0020FFF7BEFA48
:103C10000D20FFF7BBFA0020FFF7B8FA1120FFF7DD
:103C2000B5FA0020FFF7B2FA1920FFF7AFFA00202B
:103C3000FFF7ACFA2120FFF7A9FA0020FFF7A6FA58
:103C40002D20FFF7A3FA0020FFF7A0FA3D20FFF791
:103C50009DFA0020FFF79AFA5D20FFF797FA0020FF
:103C6000FFF794FA5D20FFF791FA0020FFF78EFA34
:103C7000B120FFF797FA8020FFF788FA0020FFF7BE
:103C800085FA8B2000E0FCE3FFF780FA0020FFF7C5
:103C90007DFA9620FFF77AFA0020FFF777FAB22034
:103CA000FFF780FA0020FFF771FA0020FFF76EFAA5
:103CB0000220FFF76BFA0020FFF768FA0320FFF7F6
:103CC00065FA0020FFF762FAB320FFF76BFA0020D5
:103CD000FFF75CFA0020FFF759FA0020FFF756FAC9
:103CE0000020FFF753FA0020FFF750FA0020FFF7FB
:103CF0004DFA0020FFF74AFA0020FFF747FA0020AC
:103D0000FFF744FA0020FFF741FA0020FFF73EFAE0
:103D10000020FFF73BFA0020FFF738FA0020FFF7FA
:103D200035FA0020FFF732FA0020FFF72FFA0020C3
:103D3000FFF72CFA0020FFF729FA0020FFF726FAF8
:103D40000020FFF723FA0020FFF720FA0020FFF7FA
:103D50001DFA0020FFF71AFA0020FFF717FAB42027
:103D6000FFF720FA8B20FFF711FA0020FFF70EFA79
:103D70009620FFF70BFA0020FFF708FAA120FFF7C3
:103D800005FA0020FFF702FAB520FFF70BFA022030
:103D9000FFF7FCF90020FFF7F9F90320FFF7F6F928
:103DA0000020FFF7F3F90420FFF7F0F90020FFF7F8
:103DB000EDF9B620FFF7F6F90020FFF7E7F900204C
:103DC000FFF7E4F9B720FFF7EDF90020FFF7DEF980
:103DD0000020FFF7DBF93F20FFF7D8F90020FFF7BD
:103DE000D5F95E20FFF7D2F90020FFF7CFF9642064
:103DF000FFF7CCF90020FFF7C9F98C20FFF7C6F9CF
:103E00000020FFF7C3F9AC20FFF7C0F90020FFF74F
:103E1000BDF9DC20FFF7BAF90020FFF7B7F97020F1
:103E2000FFF7B4F90020FFF7B1F99020FFF7AEF9E2
:103E30000020FFF7ABF9EB20FFF7A8F90020FFF710
:103E4000A5F9DC20FFF7A2F90020FFF79FF9B820C1
:103E5000FFF7A8F90020FFF799F90020FFF796F97E
:103E60000020FFF793F90020FFF790F90020FFF7FB
:103E70008DF90020FFF78AF90020FFF787F900206D
:103E8000FFF784F9BA20FFF78DF92420FFF77EF9B8
:103E90000020FFF77BF90020FFF778F90020FFF7FB
:103EA00075F9C120FFF77EF92020FFF76FF9002098
:103EB000FFF76CF95420FFF769F90020FFF766F966
:103EC000FF20FFF763F90020FFF760F9C220FFF73A
:103ED00069F90A20FFF75AF90020FFF757F9042083
:103EE000FFF754F90020FFF751F9C320FFF75AF903
:103EF0003C20FFF74BF90020FFF748F93A20FFF785
:103F000045F90020FFF742F93920FFF73FF900207B
:103F1000FFF73CF93720FFF739F90020FFF736F9B2
:103F20003C20FFF733F90020FFF730F93620FFF788
:103F30002DF90020FFF72AF93220FFF727F900209A
:103F4000FFF724F92F20FFF721F90020FFF71EF9D2
:103F50002C20FFF71BF90020FFF718F92920FFF7A5
:103F600015F90020FFF712F92620FFF70FF90020BE
:103F7000FFF70CF92420FFF709F90020FFF706F9F5
:103F80002420FFF703F90020FFF700F92320FFF7B3
:103F9000FDF80020FFF7FAF83C20FFF7F7F80020C3
:103FA000FFF7F4F83620FFF7F1F80020FFF7EEF8FE
:103FB0003220FFF7EBF80020FFF7E8F82F20FFF79B
:103FC000E5F80020FFF7E2F82C20FFF7DFF80020EB
:103FD000FFF7DCF82920FFF7D9F80020FFF7D6F823
:103FE0002620FFF7D3F80020FFF7D0F82420FFF7B2
:103FF000CDF80020FFF7CAF82420FFF7C7F800200B
:10400000FFF7C4F82320FFF7C1F80020FFF7BEF840
:10401000C420FFF7C7F86220FFF7B8F80020FFF7C9
:10402000B5F80520FFF7B2F80020FFF7AFF88420BD
:10403000FFF7ACF80020FFF7A9F8F020FFF7A6F88B
:104040000020FFF7A3F81820FFF7A0F80020FFF7E3
:104050009DF8A420FFF79AF80020FFF797F81820A2
:10406000FFF794F80020FFF791F85020FFF78EF843
:104070000020FFF78BF80C20FFF788F80020FFF7EF
:1040800085F81720FFF782F80020FFF77FF89520CA
:10409000FFF77CF80020FFF779F8F320FFF776F8B8
:1040A0000020FFF773F8E620FFF770F80020FFF715
:1040B0006DF8C520FFF776F83220FFF767F800208B
:1040C000FFF764F84420FFF761F80020FFF75EF87F
:1040D0006520FFF75BF80020FFF758F87620FFF720
:1040E00055F80020FFF752F88820FFF74FF800201E
:1040F000FFF74CF8C620FFF755F82020FFF746F8E9
:104100000020FFF743F81720FFF740F80020FFF7E3
:104110003DF80120FFF73AF80020FFF737F8C720F5
:10412000FFF740F80020FFF731F80020FFF72EF8E6
:104130000020FFF72BF80020FFF728F8C820FFF732
:1041400031F80020FFF722F80020FFF71FF80020C9
:10415000FFF71CF80020FFF719F8C920FFF722F835
:104160000020FFF713F80020FFF710F80020FFF7FA
:104170000DF80020FFF70AF80020FFF707F80020ED
:10418000FFF704F80020FFF701F80020FEF7FEFF1C
:104190000020FEF7FBFF0020FEF7F8FF0020FEF7EF
:1041A000F5FF0020FEF7F2FF0020FEF7EFFF0020F2
:1041B000FEF7ECFF0020FEF7E9FF0020FEF7E6FF28
:1041C000E020FEF7EFFF1620FEF7E0FF0020FEF7ED
:1041D000DDFF1C20FEF7DAFF0020FEF7D7FF2120CD
:1041E000FEF7D4FF0020FEF7D1FF3620FEF7CEFF0A
:1041F0000020FEF7CBFF4620FEF7C8FF0020FEF7A9
:10420000C5FF5220FEF7C2FF0020FEF7BFFF64206B
:10421000FEF7BCFF0020FEF7B9FF7A20FEF7B6FFDD
:104220000020FEF7B3FF8B20FEF7B0FF0020FEF763
:10423000ADFF9920FEF7AAFF0020FEF7A7FFA820F8
:10424000FEF7A4FF0020FEF7A1FFB920FEF79EFFB6
:104250000020FEF79BFFC420FEF798FF0020FEF72A
:1042600095FFCA20FEF792FF0020FEF78FFFD220B5
:10427000FEF78CFF0020FEF789FFD920FEF786FFAE
:104280000020FEF783FFE020FEF780FF0020FEF70E
:104290007DFFF320FEF77AFF0020FEF777FFE12095
:1042A000FEF780FF1620FEF771FF0020FEF76EFF7D
:1042B0001C20FEF76BFF0020FEF768FF2220FEF7B0
:1042C00065FF0020FEF762FF3620FEF75FFF00204B
:1042D000FEF75CFF4520FEF759FF0020FEF756FF72
:1042E0005220FEF753FF0020FEF750FF6420FEF738
:1042F0004DFF0020FEF74AFF7A20FEF747FF00201F
:10430000FEF744FF8B20FEF741FF0020FEF73EFF43
:104310009920FEF73BFF0020FEF738FFA820FEF7AC
:1043200035FF0020FEF732FFB920FEF72FFF0020F7
:10433000FEF72CFFC420FEF729FF0020FEF726FF22
:10434000CA20FEF723FF0020FEF720FFD220FEF751
:104350001DFF0020FEF71AFFD820FEF717FF0020F0
:10436000FEF714FFE020FEF711FF0020FEF70EFF1E
:10437000F320FEF70BFF0020FEF708FFE220FEF718
:1043800011FF0520FEF702FF0020FEF7FFFE0B20C5
:10439000FEF7FCFE0020FEF7F9FE1B20FEF7F6FEFE
:1043A0000020FEF7F3FE3420FEF7F0FE0020FEF7BB
:1043B000EDFE4420FEF7EAFE0020FEF7E7FE4F2068
:1043C000FEF7E4FE0020FEF7E1FE6120FEF7DEFED0
:1043D0000020FEF7DBFE7920FEF7D8FE0020FEF776
:1043E000D5FE8820FEF7D2FE0020FEF7CFFE9720F4
:1043F000FEF7CCFE0020FEF7C9FEA620FEF7C6FEA3
:104400000020FEF7C3FEB720FEF7C0FE0020FEF737
:10441000BDFEC220FEF7BAFE0020FEF7B7FEC720A1
:10442000FEF7B4FE0020FEF7B1FED120FEF7AEFE8F
:104430000020FEF7ABFED620FEF7A8FE0020FEF718
:10444000A5FEDD20FEF7A2FE0020FEF79FFEF32072
:10445000FEF79CFE0020FEF799FEE320FEF7A2FE89
:104460000520FEF793FE0020FEF790FE0A20FEF7DF
:104470008DFE0020FEF78AFE1C20FEF787FE00203E
:1044800000E0FDE2FEF782FE3320FEF77FFE002013
:10449000FEF77CFE4420FEF779FE0020FEF776FE54
:1044A0005020FEF773FE0020FEF770FE6220FEF73C
:1044B0006DFE0020FEF76AFE7820FEF767FE002002
:1044C000FEF764FE8820FEF761FE0020FEF75EFE28
:1044D0009720FEF75BFE0020FEF758FEA620FEF7B1
:1044E00055FE0020FEF752FEB720FEF74FFE0020DB
:1044F000FEF74CFEC220FEF749FE0020FEF746FE06
:10450000C720FEF743FE0020FEF740FED120FEF755
:104510003DFE0020FEF73AFED520FEF737FE0020D4
:10452000FEF734FEDD20FEF731FE0020FEF72EFE02
:10453000F320FEF72BFE0020FEF728FEE420FEF716
:1045400031FE0120FEF722FE0020FEF71FFE0120B3
:10455000FEF71CFE0020FEF719FE0220FEF716FEF5
:104560000020FEF713FE2A20FEF710FE0020FEF7C3
:104570000DFE3C20FEF70AFE0020FEF707FE4B2052
:10458000FEF704FE0020FEF701FE5D20FEF7FEFDB3
:104590000020FEF7FBFD7420FEF7F8FD0020FEF77B
:1045A000F5FD8420FEF7F2FD0020FEF7EFFD9320DD
:1045B000FEF7ECFD0020FEF7E9FDA220FEF7E6FD88
:1045C0000020FEF7E3FDB320FEF7E0FD0020FEF73C
:1045D000DDFDBE20FEF7DAFD0020FEF7D7FDC4208A
:1045E000FEF7D4FD0020FEF7D1FDCD20FEF7CEFD75
:1045F0000020FEF7CBFDD320FEF7C8FD0020FEF71C
:10460000C5FDDD20FEF7C2FD0020FEF7BFFDF32053
:10461000FEF7BCFD0020FEF7B9FDE520FEF7C2FD68
:104620000020FEF7B3FD0020FEF7B0FD0020FEF7EE
:10463000ADFD0020FEF7AAFD0220FEF7A7FD002039
:10464000FEF7A4FD2920FEF7A1FD0020FEF79EFD48
:104650003C20FEF79BFD0020FEF798FD4B20FEF767
:1046600095FD0020FEF792FD5D20FEF78FFD0020F6
:10467000FEF78CFD7420FEF789FD0020FEF786FD15
:104680008420FEF783FD0020FEF780FD9320FEF7D7
:104690007DFD0020FEF77AFDA220FEF777FD0020C9
:1046A000FEF774FDB320FEF771FD0020FEF76EFDEE
:1046B000BE20FEF76BFD0020FEF768FDC420FEF76C
:1046C00065FD0020FEF762FDCD20FEF75FFD0020B6
:1046D000FEF75CFDD320FEF759FD0020FEF756FDE6
:1046E000DC20FEF753FD0020FEF750FDF320FEF71F
:1046F0004DFD0020FEF74AFDE620FEF753FD112098
:10470000FEF744FD0020FEF741FD3420FEF73EFD9C
:104710000020FEF73BFD5620FEF738FD0020FEF797
:1047200035FD7620FEF732FD0020FEF72FFD7720C5
:10473000FEF72CFD0020FEF729FD6620FEF726FD82
:104740000020FEF723FD8820FEF720FD0020FEF765
:104750001DFD9920FEF71AFD0020FEF717FDBB2076
:10476000FEF714FD0020FEF711FD9920FEF70EFD67
:104770000020FEF70BFD6620FEF708FD0020FEF787
:1047800005FD5520FEF702FD0020FEF7FFFC552039
:10479000FEF7FCFC0020FEF7F9FC4520FEF7F6FCD6
:1047A0000020FEF7F3FC4320FEF7F0FC0020FEF7AC
:1047B000EDFC4420FEF7EAFC0020FEF7E7FCE720D2
:1047C000FEF7F0FC3220FEF7E1FC0020FEF7DEFCF5
:1047D0005520FEF7DBFC0020FEF7D8FC7620FEF724
:1047E000D5FC0020FEF7D2FC6620FEF7CFFC0020AF
:1047F000FEF7CCFC6720FEF7C9FC0020FEF7C6FCE4
:104800006720FEF7C3FC0020FEF7C0FC8720FEF700
:10481000BDFC0020FEF7BAFC9920FEF7B7FC002093
:10482000FEF7B4FCBB20FEF7B1FC0020FEF7AEFCA7
:104830009920FEF7ABFC0020FEF7A8FC7720FEF7DE
:10484000A5FC0020FEF7A2FC4420FEF79FFC002000
:10485000FEF79CFC5620FEF799FC0020FEF796FC24
:104860002320FEF793FC0020FEF790FC3320FEF798
:104870008DFC0020FEF78AFC4520FEF787FC002017
:10488000FEF784FCE820FEF78DFC0020FEF77EFC9E
:104890000020FEF77BFC9920FEF778FC0020FEF755
:1048A00075FC8720FEF772FC0020FEF76FFC882065
:1048B000FEF76CFC0020FEF769FC7720FEF766FC33
:1048C0000020FEF763FC6620FEF760FC0020FEF788
:1048D0005DFC8820FEF75AFC0020FEF757FCAA205A
:1048E000FEF754FC0020FEF751FCBB20FEF74EFC07
:1048F0000020FEF74BFC9920FEF748FC0020FEF755
:1049000045FC6620FEF742FC0020FEF73FFC5520E8
:10491000FEF73CFC0020FEF739FC5520FEF736FC84
:104920000020FEF733FC4420FEF730FC0020FEF7A9
:104930002DFC4420FEF72AFC0020FEF727FC552022
:10494000FEF724FC0020FEF721FCE920FEF72AFCFC
:10495000AA20FEF71BFC0020FEF718FC0020FEF743
:1049600015FC0020FEF712FC0020FEF71BFCAA201D
:10497000FEF70CFCCF20FEF715FC0020FEF706FC2E
:104980000020FEF703FC0020FEF700FC0020FEF7ED
:10499000FDFB0020FEF7FAFB0020FEF7F7FB0020EE
:1049A000FEF7F4FB0020FEF7F1FB0020FEF7EEFB24
:1049B0000020FEF7EBFB0020FEF7E8FB0020FEF7EF
:1049C000E5FB0020FEF7E2FB0020FEF7DFFB002006
:1049D000FEF7DCFB0020FEF7D9FB0020FEF7D6FB3C
:1049E000F020FEF7DFFB0020FEF7D0FB5020FEF7A3
:1049F000CDFB0020FEF7CAFB0020FEF7C7FB00201E
:104A0000FEF7C4FBF320FEF7CDFB0020FEF7BEFB54
:104A1000F920FEF7C7FB0620FEF7B8FB1020FEF7D3
:104A2000B5FB2920FEF7B2FB0020FEF7AFFB3A20D2
:104A3000FEF7B8FB5520FEF7A9FB1120FEF7B2FBED
:104A40006420FCF747FD2920FEF7ACFB3520FEF77C
:104A5000A9FB0020FEF79AFB5120FEF7A3FBFF20E5
:104A6000FEF794FB5320FEF79DFB2C20FEF78EFBF8
:104A70005520FEF797FB8220FEF788FB2C20FCE3F5
:104A8000B0427DD14FF4704555212846FEF7A0FB7A
:104A90006E1CAA213046FEF79BFBAF1C5221384604
:104AA000FEF796FB4FF2030808214046FEF790FB05
:104AB0004FF2040901214846FEF78AFB0D214FF40D
:104AC0003040FEF785FB0D214BF20100FEF780FB25
:104AD0000D214BF20200FEF77BFB4FF4364A3421E6
:104AE0005046FEF775FB34214BF20160FEF770FB78
:104AF00034214BF20260FEF76BFB4FF4314B0D217A
:104B00005846FEF765FB0D214BF20110FEF760FBE6
:104B10000D214BF20210FEF75BFB34214FF43740BE
:104B2000FEF756FB34214BF20170FEF751FB3421A6
:104B30004BF20270FEF74CFB00214FF43240FEF7BF
:104B400047FB00214BF20120FEF742FB00214BF214
:104B50000220FEF73DFB24214FF43840FEF738FBDE
:104B600024214BF60100FEF733FB24214BF6020013
:104B7000FEF72EFB01214FF43F40FEF729FB00E03A
:104B8000FEE30F214FF43340FEF722FB0F214BF2DF
:104B90000130FEF71DFB0F214BF20230FEF718FB30
:104BA00034214FF43940FEF713FB34214BF601104A
:104BB000FEF70EFB34214BF60210FEF709FB08212D
:104BC0004FF43540FEF704FB08214BF20150FEF78D
:104BD000FFFA08214BF20250FEF7FAFA03214FF4D4
:104BE0004240FEF7F5FA24214FF43A40FEF7F0FA7E
:104BF00024214BF60120FEF7EBFA24214BF602208C
:104C0000FEF7E6FA00214FF43C40FEF7E1FA782186
:104C10004BF60140FEF7DCFA00214BF60240FEF7AE
:104C2000D7FA00214FF43D40FEF7D2FA78214BF637
:104C30000150FEF7CDFA00214BF60250FEF7C8FAFC
:104C400000214FF43E40FEF7C3FA64214BF60160A9
:104C5000FEF7BEFA00214FF45140FEF7B9FA3321B6
:104C60004DF20110FEF7B4FA00214DF20210FEF7EA
:104C7000AFFA34214DF20310FEF7AAFA00214DF2EB
:104C80000410FEF7A5FA3A214DF20510FEF7A0FA3E
:104C900000214DF20610FEF79BFA4A214DF2071053
:104CA000FEF796FA00214DF20810FEF791FA5C210A
:104CB0004DF20910FEF78CFA00214DF20A10FEF7B2
:104CC00087FA81214DF20B10FEF782FA00214DF296
:104CD0000C10FEF77DFAA6214DF20D10FEF778FAC2
:104CE00000214DF20E10FEF773FAE5214DF20F1080
:104CF000FEF76EFA01214DF21010FEF769FA13214A
:104D00004DF21110FEF764FA01214DF21210FEF778
:104D10005FFA54214DF21310FEF75AFA01214DF2B9
:104D20001410FEF755FA82214DF21510FEF750FAD5
:104D300001214DF21610FEF74BFACA214DF2171061
:104D4000FEF746FA02214DF21810FEF741FA002153
:104D50004DF21910FEF73CFA02214DF21A10FEF73F
:104D600037FA01214DF21B10FEF732FA02214DF203
:104D70001C10FEF72DFA34214DF21D10FEF728FA13
:104D800002214DF21E10FEF723FA67214DF21F108B
:104D9000FEF71EFA02214DF22010FEF719FA8421C7
:104DA0004DF22110FEF714FA02214DF22210FEF707
:104DB0000FFAA4214DF22310FEF70AFA02214DF258
:104DC0002410FEF705FAB7214DF22510FEF700FA80
:104DD00002214DF22610FEF7FBF9CF214DF22710EC
:104DE000FEF7F6F902214DF22810FEF7F1F9DE2167
:104DF0004DF22910FEF7ECF902214DF22A10FEF7D0
:104E0000E7F9F2214DF22B10FEF7E2F902214DF203
:104E10002C10FEF7DDF9FE214DF22D10FEF7D8F92A
:104E200003214DF22E10FEF7D3F910214DF22F1071
:104E3000FEF7CEF903214DF23010FEF7C9F9332108
:104E40004DF23110FEF7C4F903214DF23210FEF796
:104E5000BFF96D214DF23310FEF7BAF900214FF47E
:104E60005240FEF7B5F933214DF20120FEF7B0F9BB
:104E700000214DF20220FEF7ABF934214DF2032060
:104E8000FEF7A6F900214DF20420FEF7A1F93A2120
:104E90004DF20520FEF79CF900214DF20620FEF7A9
:104EA00097F94A214DF20720FEF792F900214DF2C1
:104EB0000820FEF78DF95C214DF20920FEF788F9F4
:104EC00000214DF20A20FEF783F981214DF20B20DB
:104ED000FEF77EF900214DF20C20FEF779F9A621AC
:104EE0004DF20D20FEF774F900214DF20E20FEF771
:104EF0006FF9E5214DF20F20FEF76AF901214DF21D
:104F00001020FEF765F913214DF21120FEF760F92C
:104F100001214DF21220FEF75BF954214DF21320CE
:104F2000FEF756F901214DF21420FEF751F98221C6
:104F30004DF21520FEF74CF901214DF21620FEF737
:104F400047F9CA214DF21720FEF742F902214DF22E
:104F50001820FEF73DF900214DF21920FEF738F92F
:104F600002214DF21A20FEF733F901214DF21B20E8
:104F7000FEF72EF902214DF21C20FEF729F934210B
:104F80004DF21D20FEF724F902214DF21E20FEF7FE
:104F90001FF967214DF21F20FEF71AF902214DF289
:104FA0002020FEF715F984214DF22120FEF710F99B
:104FB00002214DF22220FEF70BF9A4214DF223200D
:104FC000FEF706F902214DF22420FEF701F9B72180
:104FD0004DF22520FEF7FCF802214DF22620FEF7C7
:104FE000F7F8CF214DF22720FEF7F2F802214DF21B
:104FF0002820FEF7EDF8DE214DF22920FEF7E8F833
:1050000002214DF22A20FEF7E3F8F2214DF22B2087
:10501000FEF7DEF802214DF22C20FEF7D9F8FE2132
:105020004DF22D20FEF7D4F803214DF22E20FEF78D
:10503000CFF810214DF22F20FEF7CAF803214DF2D0
:105040003020FEF7C5F833214DF23120FEF7C0F8CD
:1050500003214DF23220FEF7BBF86D214DF23320D3
:10506000FEF7B6F800214FF45340FEF7B1F83321B4
:105070004DF20130FEF7ACF800214DF20230FEF7A0
:10508000A7F834214DF20330FEF7A2F800214DF2CB
:105090000430FEF79DF83A214DF20530FEF798F8FE
:1050A00000214DF20630FEF793F84A214DF2073009
:1050B000FEF78EF800214DF20830FEF789F85C21EA
:1050C0004DF20930FEF784F800214DF20A30FEF768
:1050D0007FF881214DF20B30FEF77AF800214DF276
:1050E0000C30FEF775F8A6214DF20D30FEF770F882
:1050F00000214DF20E30FEF76BF8E5214DF20F3036
:10510000FEF766F801214DF21030FEF761F8132129
:105110004DF21130FEF75CF801214DF21230FEF72E
:1051200057F854214DF21330FEF752F801214DF299
:105130001430FEF74DF882214DF21530FEF748F895
:1051400001214DF21630FEF743F8CA214DF2173017
:10515000FEF73EF802214DF21830FEF739F8002133
:105160004DF21930FEF734F802214DF21A30FEF7F5
:105170002FF801214DF21B30FEF72AF802214DF2E3
:105180001C30FEF725F834214DF21D30FEF720F8D3
:1051900002214DF21E30FEF71BF867214DF21F3041
:1051A000FEF716F802214DF22030FEF711F88421A7
:1051B0004DF22130FEF70CF802214DF22230FEF7BD
:1051C00007F8A4214DF22330FEF702F802214DF238
:1051D0002430FDF7FDFFB7214DF22530FDF7F8FF34
:1051E00002214DF22630FDF7F3FFCF214DF227309B
:1051F000FDF7EEFF02214DF22830FDF7E9FFDE2139
:105200004DF22930FDF7E4FF02214DF22A30FDF77F
:10521000DFFFF2214DF22B30FDF7DAFF02214DF2D4
:105220002C30FDF7D5FFFE214DF22D30FDF7D0FFDC
:1052300003214DF22E30FDF7CBFF10214DF22F3020
:10524000FDF7C6FF03214DF23030FDF7C1FF3321DA
:105250004DF23130FDF7BCFF03214DF23230FDF746
:10526000B7FF6D214DF23330FDF7B2FF00214FF44F
:105270005440FDF7ADFF332100E081E34DF20140E2
:10528000FDF7A6FF00214DF20240FDF7A1FF3421FA
:105290004DF20340FDF79CFF00214DF20440FDF765
:1052A00097FF3A214DF20540FDF792FF00214DF2A4
:1052B0000640FDF78DFF4A214DF20740FDF788FFBC
:1052C00000214DF20840FDF783FF5C214DF20940BB
:1052D000FDF77EFF00214DF20A40FDF779FF8121A5
:1052E0004DF20B40FDF774FF00214DF20C40FDF72D
:1052F0006FFFA6214DF20D40FDF76AFF00214DF230
:105300000E40FDF765FFE5214DF20F40FDF760FF10
:1053100001214DF21040FDF75BFF13214DF21140CA
:10532000FDF756FF01214DF21240FDF751FF5421C8
:105330004DF21340FDF74CFF01214DF21440FDF7F3
:1053400047FF82214DF21540FDF742FF01214DF24A
:105350001640FDF73DFFCA214DF21740FDF738FF1B
:1053600002214DF21840FDF733FF00214DF21940A4
:10537000FDF72EFF02214DF21A40FDF729FF00E054
:1053800001E301214DF21B40FDF722FF02214DF206
:105390001C40FDF71DFF34214DF21D40FDF718FFA5
:1053A00002214DF21E40FDF713FF67214DF21F4011
:1053B000FDF70EFF02214DF22040FDF709FF842189
:1053C0004DF22140FDF704FF02214DF22240FDF78E
:1053D000FFFEA4214DF22340FDF7FAFE02214DF21B
:1053E0002440FDF7F5FEB7214DF22540FDF7F0FE14
:1053F00002214DF22640FDF7EBFECF214DF2274072
:10540000FDF7E6FE02214DF22840FDF7E1FEDE2128
:105410004DF22940FDF7DCFE02214DF22A40FDF756
:10542000D7FEF2214DF22B40FDF7D2FE02214DF2C4
:105430002C40FDF7CDFEFE214DF22D40FDF7C8FEBC
:1054400003214DF22E40FDF7C3FE10214DF22F40F7
:10545000FDF7BEFE03214DF23040FDF7B9FE3321CA
:105460004DF23140FDF7B4FE03214DF23240FDF71D
:10547000AFFE6D214DF23340FDF7AAFE00214FF43F
:105480005540FDF7A5FE33214DF20150FDF7A0FE7A
:1054900000214DF20250FDF79BFE34214DF20350E6
:1054A000FDF796FE00214DF20450FDF791FE3A21E2
:1054B0004DF20550FDF78CFE00214DF20650FDF730
:1054C00087FE4A214DF20750FDF782FE00214DF282
:1054D0000850FDF77DFE5C214DF20950FDF778FE86
:1054E00000214DF20A50FDF773FE81214DF20B5061
:1054F000FDF76EFE00214DF20C50FDF769FEA6216E
:105500004DF20D50FDF764FE00214DF20E50FDF7F7
:105510005FFEE5214DF20F50FDF75AFE01214DF2DD
:105520001050FDF755FE13214DF21150FDF750FEBE
:1055300001214DF21250FDF74BFE54214DF2135054
:10554000FDF746FE01214DF21450FDF741FE822188
:105550004DF21550FDF73CFE01214DF21650FDF7BE
:1055600037FECA214DF21750FDF732FE02214DF2EF
:105570001850FDF72DFE00214DF21950FDF728FEC1
:1055800002214DF21A50FDF723FE01214DF21B506E
:10559000FDF71EFE02214DF21C50FDF719FE3421CD
:1055A0004DF21D50FDF714FE02214DF21E50FDF785
:1055B0000FFE67214DF21F50FDF70AFE02214DF24A
:1055C0002050FDF705FE84214DF22150FDF700FE2D
:1055D00002214DF22250FDF7FBFDA4214DF2235094
:1055E000FDF7F6FD02214DF22450FDF7F1FDB72144
:1055F0004DF22550FDF7ECFD02214DF22650FDF74E
:10560000E7FDCF214DF22750FDF7E2FD02214DF2DB
:105610002850FDF7DDFDDE214DF22950FDF7D8FDC4
:1056200002214DF22A50FDF7D3FDF2214DF22B500D
:10563000FDF7CEFD02214DF22C50FDF7C9FDFE21F4
:105640004DF22D50FDF7C4FD03214DF22E50FDF714
:10565000BFFD10214DF22F50FDF7BAFD03214DF291
:105660003050FDF7B5FD33214DF23150FDF7B0FD5F
:1056700003214DF23250FDF7ABFD6D214DF2335059
:10568000FDF7A6FD00214FF45640FDF7A1FD3321A3
:105690004DF20160FDF79CFD00214DF20260FDF727
:1056A00097FD34214DF20360FDF792FD00214DF28C
:1056B0000460FDF78DFD3A214DF20560FDF788FD90
:1056C00000214DF20660FDF783FD4A214DF207608F
:1056D000FDF77EFD00214DF20860FDF779FD5C21AC
:1056E0004DF20960FDF774FD00214DF20A60FDF7EF
:1056F0006FFD81214DF20B60FDF76AFD00214DF237
:105700000C60FDF765FDA6214DF20D60FDF760FD13
:1057100000214DF20E60FDF75BFDE5214DF20F60BB
:10572000FDF756FD01214DF21060FDF751FD1321EB
:105730004DF21160FDF74CFD01214DF21260FDF7B5
:1057400047FD54214DF21360FDF742FD01214DF25A
:105750001460FDF73DFD82214DF21560FDF738FD27
:1057600001214DF21660FDF733FDCA214DF217609D
:10577000FDF72EFD02214DF21860FDF729FD0021F5
:105780004DF21960FDF724FD02214DF21A60FDF77C
:105790001FFD01214DF21B60FDF71AFD02214DF2A4
:1057A0001C60FDF715FD34214DF21D60FDF710FD65
:1057B00002214DF21E60FDF70BFD67214DF21F60C7
:1057C000FDF706FD02214DF22060FDF701FD842169
:1057D0004DF22160FDF7FCFC02214DF22260FDF745
:1057E000F7FCA4214DF22360FDF7F2FC02214DF2FB
:1057F0002460FDF7EDFCB7214DF22560FDF7E8FCD4
:1058000002214DF22660FDF7E3FCCF214DF2276027
:10581000FDF7DEFC02214DF22860FDF7D9FCDE2108
:105820004DF22960FDF7D4FC02214DF22A60FDF70C
:10583000CFFCF2214DF22B60FDF7CAFC02214DF2A4
:105840002C60FDF7C5FCFE214DF22D60FDF7C0FC7C
:1058500003214DF22E60FDF7BBFC10214DF22F60AD
:10586000FDF7B6FC03214DF23060FDF7B1FC3321AA
:105870004DF23160FDF7ACFC03214DF23260FDF7D3
:10588000A7FC6D214DF23360FDF7A2FC552128469F
:10589000FDF79EFCAA213046FDF79AFC52213846BE
:1058A000FDF796FC08214046FDF792FC0021484692
:1058B000FDF78EFCCC215846FDF78AFC00214BF207
:1058C0000110FDF785FC05215046FDF781FC702194
:1058D0004FF43740FDF77CFC70214BF20170FDF76F
:1058E00077FC01214FF43840FDF772FC03214BF6A1
:1058F0000100FDF76DFC03214BF60200FDF768FC8B
:1059000003214BF60300FDF763FC02214FF43C40FA
:10591000FDF75EFC00214BF60140FDF759FC00212C
:105920004BF60240FDF754FCD0214FF44940FDF7FF
:105930004FFC02214CF60110FDF74AFC50214CF6B9
:105940000210FDF745FC50214CF60310FDF740FC1A
:1059500050214CF60410FDF73BFC00214FF454504D
:10596000FDF736FC55214FF46850FDF731FC4FF43C
:105970008850FDF717FC782002F0F0FD4FF424501A
:10598000FDF710FCFEE3A0F513414FF480754FF4D2
:10599000E06740F2022840F23F194FF4274A2539C8
:1059A0002BD0FE1DA0F5134128397DD0A0F5134161
:1059B0004FF4887B4FF41C5A203976D0A0F5134160
:1059C000313973D0A0F5A841083970D0A0F5A8519D
:1059D0004FF4407B05396BD0A0F53541053968D0CF
:1059E000A0F5454105397DD0A0F58A4131397AD0FD
:1059F000A0F58A41353977D0C4E747F6F001E520B4
:105A0000FDF7E6FB29460120FDF7E2FB39460220BF
:105A1000FDF7DEFB41F230010320FDF7D9FB002149
:105A20000420FDF7D5FB41460820FDF7D1FB0021FE
:105A30000920FDF7CDFB00210A20FDF7C9FB00215D
:105A40000C20FDF7C5FB00210D20FDF7C1FB002157
:105A50000F20FDF7BDFB00211020FDF7B9FB07214A
:105A60001120FDF7B5FB00211220FDF7B1FB00214D
:105A70001320FDF7ADFB00210720FDF7A9FB41F244
:105A800090611020FDF7A4FB40F227211120FDF7C3
:105A90009FFB9D211220FDF79BFB4FF4C851132063
:105AA000FDF796FB252105E07DE034E1D7E1ABE28F
:105AB00045E3FDE32920FDF78BFB0D212B20FDF7AE
:105AC00087FB07213020FDF783FB40F203313120B3
:105AD000FDF77EFB03213220FDF77AFB40F2062121
