:020000040800F2
:100000002005002045010008632100086D1F00083D
:1000100061210008F9060008912600080000000090
:100020000000000000000000000000006721000840
:10003000FB06000800000000652100086921000897
:100040005F0100085F0100085F0100085F01000810
:100050005F0100085F0100085F0100085F01000800
:100060005F0100085F0100085F0100085F010008F0
:100070005F0100085F0100085F0100085F010008E0
:100080005F0100085F0100085F0100085F010008D0
:100090005F0100085F0100085F0100085F010008C0
:1000A0005F0100085F0100085F0100085F010008B0
:1000B000CD2100085F0100085F0100085F01000812
:1000C0005F0100085F0100085F0100085F01000890
:1000D0005F010008852600085F0100085F01000835
:1000E0005F0100085F0100085F0100085F01000870
:1000F0005F0100085F0100085F0100085F01000860
:100100005F0100085F0100085F0100085F0100084F
:100110005F0100085F0100085F0100085F0100083F
:100120005F0100085F0100085F0100085F0100082F
:10013000DFF80CD000F0CEFA004800476128000834
:10014000200500200648804706480047FEE7FEE7F6
:10015000FEE7FEE7FEE7FEE7FEE7FEE7FEE7FEE777
:10016000CB21000831010008202A04DB203A21FAC3
:1001700002F00021704721FA02F3D040C2F12002C0
:100180009140084319467047D2B201E000F8012BB4
:10019000491EFBD270470022F6E710B513460A4607
:1001A00004461946FFF7F0FF204610BD80EA010221
:1001B00010B502F00043400022D04A001FD0010ECB
:1001C00001EB1261C0F35600C2F3560240F4000086
:1001D00042F40002A0FB022000047F39140400D086
:1001E000401C50EA124001D44000491EC2B20C0625
:1001F00004EBD010401C4008802A02D003E000200D
:1002000010BD20F00100002900DA0020184310BDC5
:1002100030B480EA010202F0004530F0004221F0E3
:10022000004013D090B1C30DD40DC2F31601C0F33A
:100230001600E41A41F4000140F400027D349142BA
:1002400001D3641C00E04900002C02DA30BC00201D
:1002500070474FF400000023914201D3891A0343F1
:1002600040084FEA4101F7D151B1914202D14FF01C
:10027000004105E002D24FF0010101E06FF0010101
:1002800003EBC450284430BC00F08FB92DE9FE4F79
:10029000804681EA0300C00F0C46009021F0004127
:1002A00023F00045B8EB0200A94105D240462146A3
:1002B00090461C460B46024623F00040104347D0B0
:1002C000270DC7F30A00C3F30A510290401A0190A8
:1002D00040286BDAC3F3130040F4801B0098924669
:1002E00020B10023D2EB030A63EB0B0B01985946B4
:1002F000C0F14002504600F037F906460D46504620
:100300005946019A00F03FF910EB080061410024C2
:1003100087EA115284EAE7731A4340D0009A62B325
:10032000019A012A4FEA075215DC001B61EB02011A
:100330004FF0004202EA0752CDE90042001C41F5AD
:10034000801132462B4600F076F903B0BDE8F08FFD
:1003500040462146F9E7001B61EB0201001C41F514
:10036000801300185B412018A2F5001747EB03012A
:1003700040EAD570B6196D4111E06D084FEA3606B6
:1003800045EAC0754FEA0752001B61EB0201001CF1
:1003900041F5801149084FEA3000001951413246B9
:1003A0002B4603B0BDE8F04F00F036B900980122AB
:1003B00040000023D0EB020263EBE073009821467B
:1003C0004FEAE074B8EB000061EB0401E9E783F069
:1003D00000435BE781F0004158E72DE9FE4F81EAD9
:1003E000030404F0004421F0004100944FF0000B9E
:1003F00023F0004350EA01045ED052EA03045BD0CC
:10040000C3F30A54C1F30A552C44A4F2F334019403
:10041000A0FB0254C1F3130141F48011C3F3130391
:1004200043F4801301FB024400FB034E840A970A45
:1004300044EA815447EA8357A4FB076802958D0A72
:1004400005FB07854FEA932C04FB0C542705029DFE
:100450004FEA065847EA1637B5EB08056EEB070C6E
:10046000870E920E47EA811742EA8312A7FB020128
:10047000B6EB0B0164EB00042B0D43EA0C335E1862
:1004800044EB1C50DA465146E7FB0201C5F3130466
:100490004FEA0B3343EA14534FEA0432019C43EA18
:1004A0000603A4F10C040294009CCDE900B400F012
:1004B000C2F803B0BDE8F08F00200146F9E79623AB
:1004C0000022114600F07AB80EB540F23341029195
:1004D0000021CDE900110A460B4600F0ACF803B04C
:1004E00000BD20F00040C10DC0F3160040F4000034
:1004F0007F2901DA00207047962903DCC1F19601BB
:10050000C8407047963988407047C1F30A5210B509
:10051000C1F3130140F2FF3341F480119A4201DA32
:10052000002010BD40F233439A42A2F2334203DC72
:100530005242FFF719FE10BD904010BD30B50B467A
:10054000014600202022012409E021FA02F59D4203
:1005500005D303FA02F5491B04FA02F52844151ED7
:10056000A2F10102F1DC30BD202A04DB203A00FABE
:1005700002F1002070479140C2F1200320FA03F3FA
:10058000194390407047202A06DBCB17203A41FAE6
:1005900002F043EAE07306E041FA02F3D040C2F110
:1005A000200291400843194670470029A8BF7047B0
:1005B000401C490008BF20F00100704710B4B0FA99
:1005C00080FC00FA0CF050EA010404BF10BC704734
:1005D00049B1CCF1200421FA04F411FA0CF118BF4E
:1005E000012121430843A3EB0C01CB1D4FEA00611D
:1005F0004FEA102042BF002010BC704700EBC350F0
:1006000010440029A4BF10BC7047401C490008BF1B
:1006100020F0010010BC704710B5141E73F10004E7
:1006200008DA401C41F1000192185B411A4301D1E4
:1006300020F0010010BD2DE9F04D92469B4611B10E
:10064000B1FA81F202E0B0FA80F220329046FFF770
:100650008BFF04460F4640EA0A0041EA0B0153466D
:100660005A46084313D0114653EA010019D0C8F185
:1006700040025046FFF778FD05460E465046594663
:100680004246FFF771FF084305D0012004E02046F1
:100690003946BDE8F08D0020054346EAE0762C435C
:1006A00037430A986305E40AA0EB08000022FD0A1C
:1006B00044EA47540A3002D500200146E9E7010523
:1006C00010196941DDE9084500196941BDE8F04D9F
:1006D000A2E70000064C074D06E0E06840F0010389
:1006E00094E8070098471034AC42F6D3FFF724FD96
:1006F0000429000824290008FEE7704772B6FEE7C7
:100700002DE9F05F90F821100024022903D0042184
:100710008163012485E001680A6822F00E020A6004
:1007200001680A6822F001020A603F4E3E4FB2158E
:10073000DFF8F4C0DFF8F090DFF8ECA0DFF8E8B005
:10074000DFF8E4E00168783F13011502ACF1640CB6
:10075000A9F15009AAF13C0AABF1280BAEF1140E35
:100760004FF48018B14227D9B9420ED0614512D05A
:1007700049451DD0514518D0594518D0714501D172
:10078000424615E0294EB14201D1012210E0274E28
:100790001436B14201D110220AE0244E2836B1426B
:1007A00006D0224A3C32914201D11A4600E02A4644
:1007B0001E49091F0A602BE0B94213D0614517D0CA
:1007C000494522D051451DD059451DD0714501D113
:1007D00042461AE0B14202D14FF0807215E0134E4A
:1007E000B14201D1012210E0104E1436B14201D1C4
:1007F00010220AE00D4E2836B14206D00B4A3C3298
:10080000914201D11A4600E02A46074980394A60E0
:10081000012180F82110002180F82010416B01B1E6
:1008200088472046BDE8F09F80000240080402404F
:100830002DE9F84FDFF8C891002409F1040A0AF104
:10084000040B23460F270BF1040ED1E00125A54030
:1008500006EA0502AA4276D1DFF8A8C14E68A6EBE7
:100860000C0866452BD00DDC032E34D005DC36B3E6
:10087000012E19D0022E2FD11BE0112E16D0122ED0
:100880002AD119E0B8F5881F19D006DCB8F5803FE9
:1008900015D0B8F5801F1FD111E0B8F5001F0ED09C
:1008A000B8F5041F18D10AE0CB6815E0CB681B1D12
:1008B00012E0CB6808330FE0CB680C330CE08B6898
:1008C0002BB1012B4FF0080303D0456104E0042352
:1008D00002E0056100E00023FF2A01D8064601E09E
:1008E00000F104064FEA840501D9A5F12005D6F8E8
:1008F000008007FA05FC28EA0C0803FA05F548EA27
:100900000508C6F800804D68ED0070D53E4DAE6913
:1009100046F00106AE61AD6924F0030605F001055D
:1009200000953A4D06EB050CDCF80850A607360F8B
:1009300007FA06F825EA0805DFF8D480404503D118
:100940004FF0000825E052E0DFF8C880404502D1B2
:100950004FF001081DE0DFF8C080404502D14FF0A4
:10096000020816E0DFF8B480404502D14FF00308DA
:100970000FE0DFF8AC80404502D14FF0040808E0FA
:10098000DFF8A080404502D14FF0050801E04FF0AC
:10099000060808FA06F848EA0508CCF808804D6809
:1009A000D9F80060ED034D4601D5164300E09643AB
:1009B0002E604D68DAF80060AD03554601D5164348
:1009C00000E096432E604D68DBF80060ED025D4666
:1009D00001D5164300E096432E604D68DEF80060B6
:1009E000AD02754601D5164300E096432E60641CA7
:1009F0000A681646E2407FF429AFBDE8F88F000090
:100A000000040140000011100010024000000140ED
:100A100000080140000C014000100140001401409A
:100A200000180140001C01400AB10161704709042F
:100A3000FBE7000001488068704700003C00002090
:100A40000248816802781144816070473C000020B0
:100A5000074810B5016841F010010160032000F063
:100A600079F8002000F006F800F024F8002010BD0E
:100A70000020024070B50D4D04464FF47A7128787D
:100A8000B1FBF0F00A490968B1FBF0F000F0F0FAB0
:100A900048B9102C07D200222146501E00F03AF827
:100AA00000206C6070BD012070BD00003C00002083
:100AB000480000200E4808B5816941F001018161BC
:100AC000816901F001010091C16941F08051C1616A
:100AD000C06900F080500090052000F03BF8054808
:100AE000416821F0E06141F00071416008BD000003
:100AF0000010024000000140002809DB00F01F0246
:100B0000012191404009800000F1E020C0F800116F
:100B100070470000F0B40E4B1B680C46C3F3022371
:100B2000C3F10705042D00D90425191D072901D299
:100B3000002300E0DB1E012606FA05F1491E2140D4
:100B400099409E40761E16403143F0BC01F0B2BD84
:100B50000CED00E0064900F0070208684FF6FF03BD
:100B6000184040EA0220034A104308607047000022
:100B70000CED00E00000FA052DE9F0470F460500F6
:100B800061D0434E306800F00700B84209D23068A7
:100B900020F0070038433060306800F00700B842AA
:100BA00051D128683B4C810712D5400703D56068B6
:100BB00040F4E06060602878000703D5606840F486
:100BC000605060606068A96820F0F00008436060D1
:100BD0002878C00728D06868012810D0216802282A
:100BE00010D0890700292EDA616821F00301014342
:100BF0006160FFF71FFF804641F288390DE02168F0
:100C00008903EFE78901EDE7FFF714FFA0EB080187
:100C1000494502D90320BDE8F0876068696800F0A3
:100C20000C00B0EB810FEFD1306800F00700B84244
:100C30000BD9306820F0070038433060306800F08E
:100C40000700B84201D00120E5E72878400705D524
:100C50006068E96820F4E060084360602878000775
:100C600006D56068296920F4605040EAC1006060E0
:100C700000F038F86168084AC1F30311515CC840BC
:100C80000649086006480068FFF7F4FE0020C2E746
:100C90000020024000100240EC280008480000201C
:100CA000400000200448054900684968044AC1F32F
:100CB0000221515CC84070474800002000100240EB
:100CC000FC2800080448054900684968044AC1F343
:100CD000C221515CC840704748000020001002400B
:100CE000FC28000812A185B00FC98DE80F0014A0E0
:100CF000144A006804905168134801F00C03042B57
:100D000010D0082B0ED1C1F38343C9031DF8030093
:100D10000AD5516804AAC1F34041515C0A4A5043C4
:100D2000B0FBF1F005B0704708494843FAE700000E
:100D300002030405060708090A0B0C0D0E0F10101C
:100D4000010200000010024000127A0000093D007C
:100D50002DE9F84F040070D02078C04DC00749D06D
:100D60006868C0F38100012807D06868C0F381007B
:100D7000022809D16868C00306D52868800339D5E0
:100D800060680028E7D035E06068B0F5803F0BD0A0
:100D900010B1B0F5A02F11D0286820F48030286061
:100DA000286820F4802002E0286840F48030286021
:100DB000606890B1FFF73EFE06460AE0286840F4FE
:100DC00080202860F0E700BFFFF734FE801B642816
:100DD00073D828688003F7D50CE0FFF72BFE064692
:100DE00005E000BFFFF726FE801B6428F0D82868C6
:100DF0008003F7D420789A4E80074FF001094FF016
:100E0000000839D5686810F00C0F07D06868C0F387
:100E10008100022809D16868C00306D428688007C9
:100E200014D52069012808D110E02069B0B1C6F8B6
:100E30000090FFF7FFFD074605E00AE1FFF7FAFD26
:100E4000C01B0228C4D828688007F7D528686169C4
:100E500020F0F80040EAC10028600DE0C6F80080EC
:100E6000FFF7E8FD074604E0FFF7E4FDC01B02289A
:100E700023D828688007F7D4207800072CD5794834
:100E8000A169D9B1C0F80090FFF7D4FD074604E08E
:100E9000FFF7D0FDC01B02280FD8686A8007F7D57E
:100EA00071484FF4FA510068B0FBF1F0009000BFB8
:100EB0000098411E0091FAD20EE080E0C0F8008058
:100EC000FFF7B8FD074604E0FFF7B4FDC01B02289A
:100ED00075D8686A8007F7D42078400760D5E8693C
:100EE0000027C00008D4E86940F08050E861E86954
:100EF000012700F0805000905C480168C90513D4B8
:100F00000168834641F480710160FFF793FD8246DA
:100F100006E000BFFFF78EFDA0EB0A0064284ED864
:100F2000DBF80000C005F5D5E06801280AD008B15B
:100F3000052813D0286A20F001002862286A20F0D2
:100F4000040002E0286A40F001002862E06841F2F3
:100F5000883B98B1FFF76EFD82460BE0286A40F0AF
:100F600004002862EEE700BFFFF764FDA0EB0A0172
:100F700059455AD8286A8007F6D50CE0FFF75AFD84
:100F8000824605E0FFF756FDA0EB0A0159454CD813
:100F9000286A8007F6D41FB1E86920F08050E86124
:100FA000E06988B36968C1F38101022944D002284D
:100FB000C6F8608004D0FFF73DFD044638E034E019
:100FC000FFF738FD074604E0FFF734FDC01B022899
:100FD0002BD828688001F7D4206AB0F5803F05D16E
:100FE0006868A16820F4003008436860D4E908010B
:100FF0000843696821F4741108436860C6F860907A
:10100000FFF718FD044606E025E000BFFFF712FDDC
:10101000001B022809D828688001F7D51BE000BF13
:10102000FFF708FD001B022802D90320BDE8F88F56
:1010300028688001F4D40EE00128F7D06868226A9D
:1010400000F48031914204D1616A00F4701088424A
:1010500001D00120EAE70020E8E70000001002408C
:1010600000004242800442424800002000700040DC
:1010700010B5401EB0F1807F01D3012010BD4FF0AC
:10108000E02460610F21601701F014FB0020A061D3
:1010900007202061002010BD7047704770B590F8A0
:1010A0003C20012A2CD0012480F83C40022280F808
:1010B0003D2003685A689D6822F070060A68324332
:1010C0005A60104B02689A420ED00F4B9A420BD0D6
:1010D000B2F1804F08D00D4B9A4205D00C4B9A428A
:1010E00002D00C4B9A4204D1496825F08003194381
:1010F000916080F83D40002180F83C10084670BDAA
:10110000022070BD002C014000340140000400406A
:1011100000080040000C004010B5040003D094F813
:101120003D0010B107E0012010BD002084F83C0014
:10113000204600F01FF8022084F83D00211D2068A1
:1011400001F04AF8012084F8460084F83E0084F853
:101150003F0084F8400084F8410084F8420084F89D
:10116000430084F8440084F8450084F83D000020E2
:1011700010BD000000B585B00021009101910291E1
:1011800003910068B0F1804F1ED11048C16941F051
:101190000101C161C16901F001010491816941F05E
:1011A000040181618069694600F0040004900F2009
:1011B00000900748FFF73CFB002211461C20FFF778
:1011C000A9FC1C20FFF798FC05B000BD00100240F0
:1011D0000008014070B5044690F83C00012817D083
:1011E000012584F83C50022084F83D002068826884
:1011F00022F0770222F47F4282600868502830D0C3
:101200000DDC20284DD005DC98B310283BD148E0F8
:10121000022070BD302844D0402834D139E0602805
:1012200028D0702806D0B0F5805F2CD0B0F5005FD4
:1012300029D10AE0CB68D1E90121206801F01FF82B
:101240002068816841F0770109E0CB68D1E901218C
:10125000206801F014F82068816841F480418160C1
:1012600011E0CA684968206801F0DEF85021206862
:1012700007E016E0CA684968206801F01DF960219E
:10128000206801F006F884F83D50002084F83C0006
:1012900070BDCA684968206801F0C6F8402120681E
:1012A000EFE7226801461046EBE700002DE9F04722
:1012B000007F0127F34DDFF8D083DFF8D0930026BD
:1012C000F34C012834D002286DD004286CD00828B3
:1012D0002CD1E078002868D0012827D10C2128469D
:1012E00000F00BFD60862868016A21F4005101625C
:1012F0002868016A01620C21284600F0A7FA608E76
:10130000218E401A6082608B78B1FFF7D8F80546CD
:10131000608AFFF7D4F82946FEF77AFF4146FEF7C8
:1013200045FFFFF7DEF8C0B26084E670BDE8F087E5
:101330002078B8B30128F9D10021D24800F0DDFCB3
:10134000E0842868016A21F00A0101622868016AC4
:1013500001620021CB4800F079FAE08CA18C401AA0
:10136000A081A08AE0B1FFF7AAF80546A089FFF79F
:10137000A6F82946FEF74CFF4146FEF717FFFFF798
:10138000B0F8C0B2A083FFF79FF84A46C14BFFF701
:1013900024F8C14AC14BFFF71AF8FFF7B6F8A08648
:1013A0002670C3E702E01FE002E14CE10021B548EE
:1013B00000F0A3FCA0842868016A21F00A01016200
:1013C0002868016A41F0020101620021AD4800F085
:1013D0003DFA2770A08828B1A18C081AA082A08CA1
:1013E000A080A3E7A682FAE7607800285ED00128F3
:1013F0009CD10421A34800F080FC60852868016A24
:1014000021F0A00101622868016A016204219D485F
:1014100000F01CFA608D218D401AE081E08A0028DE
:101420007ED0FFF74CF80546E089FFF748F82946DB
:10143000FEF7EEFE4146FEF7B9FEFFF752F800F068
:10144000FF08A4F81E804046FFF73EF84A46944B3A
:10145000FEF7C3FF934A944BFEF7B9FFFFF755F829
:10146000924F934DE086B8F14A0F3DD24FF0010202
:101470004FF008013846FFF7D7FA0022102138460E
:10148000FFF7D2FA012220213846FFF7CDFA0022D9
:1014900040213846FFF7C8FAE08E2968A0F2E7300D
:1014A000404288632968486382A06EE00421754841
:1014B00000F023FC20852868016A21F0A001016268
:1014C0002868016A41F02001016204216D4800F0A2
:1014D000BDF96770E08828B1218D081AE082208D5F
:1014E000E08023E7E682FAE71DD14FF001024FF0DA
:1014F00008013846FFF798FA012210213846FFF715
:1015000093FA012220213846FFF78EFA012240216A
:101510003846FFF789FA286886632868466300E042
:1015200044E066A031E0002208213846FFF77CFA4B
:10153000012210213846FFF777FA00222021384691
:10154000FFF772FA012240213846FFF76DFAA08BAF
:101550004A280FD2E08E2968A0F2E730C0F10000DF
:101560008863A18E2A68A1F2E730C0F100005063C1
:1015700054A019E00CD1E08E2968A0F2E730C0F148
:10158000000088632968486350A001F083F80DE0EB
:101590002968A08E8863E18E2A68A1F2E73149426A
:1015A0005163C0F57A714BA001F074F86670BDE626
:1015B000A07850B3012894D10821324800F09DFB57
:1015C000E0852868016A21F4007101622868016AD7
:1015D000016208212B4800F039F9E08DA18D401AF5
:1015E0002082208B78B1FEF76AFF0546208AFEF73D
:1015F00066FF2946FEF70CFE4146FEF7D7FDFEF7D3
:1016000070FFC0B22084A67090E608211D4800F04B
:1016100074FBA0852868016A21F4007101622868C2
:10162000016A41F4007101620821164800F00EF9C8
:10163000A770208928B1A18D081A2083A08D208150
:1016400074E62683FAE70C210E4800F056FB20864C
:101650002868016A21F4005101622868016A41F496
:10166000005101620C21074800F0F0F8E770608932
:1016700028B1218E081A6083208E608156E6668329
:10168000FAE700004C00002000007A447B14AE47CB
:1016900000000020E1FA33405C8FC2F528988E40AC
:1016A000E1FA4340AE47E17A141AA7400014014022
:1016B00094000020BAF3CDCB00000000CDA3D6B932
:1016C00000000000D7F3D7AA20256400C7B0BDF8FA
:1016D00000000000D3D2D7AA2025640D0A00000024
:1016E0002DE9F041054690F83C000C46012836D023
:1016F000012085F83C008AB3042A42D02868082AD1
:1017000051D0D4E90023E168066A26F480560662C7
:10171000C669076A26F4407646EA03234FF6FF7649
:1017200006EA013123F4704319434FF4005627F4BD
:10173000005306EA02321A43C16102622868C16995
:1017400021F44061C1612868C169A26841EA0221AF
:10175000C161002085F83C00BDE8F08101E0022075
:10176000FAE7D4E90012E368286800F06FFE286801
:10177000816921F00C01816128688169A2681143A7
:101780000FE0D4E90012E368286800F0A7FE28689B
:10179000816921F44061816128688169A26841EA18
:1017A00002218161D5E7D4E90027267B016A21F473
:1017B00080710162C169036A21F00301394321F09C
:1017C000F00731074FF4007647EA116123F4007304
:1017D00006EA02221A43C16102622868C16921F047
:1017E0000C01C1612868C169A2681143B0E710B556
:1017F000040003D094F83D0010B107E0012010BDB3
:10180000002084F83C00204600F01EF8022084F8F6
:101810003D00211D206800F0DFFC012084F8460017
:1018200084F83E0084F83F0084F8400084F84100CA
:1018300084F8420084F8430084F8440084F84500AA
:1018400084F83D00002010BD7047000010B504462C
:1018500051B104290DD0082910D094F8410094F812
:101860004520012811D10EE094F83E0094F8422062
:10187000F7E794F83F0094F84320F2E794F840002B
:1018800094F84420EDE7012A01D0012010BD022088
:1018900051B1042911D0082918D084F8410084F8E6
:1018A00045000C291BD13CE084F83E0084F842003E
:1018B0002068C26842F0020210E084F83F0084F819
:1018C00043002068C26842F0040207E084F8400048
:1018D00084F844002068C26842F00802C260012215
:1018E000206800F0BFFC1149206888420ED01049E2
:1018F00088420BD0B0F1804F08D00E49884205D005
:101900000D49884202D00D49884204D1816801F016
:101910000701062903D0016841F0010101600020A0
:1019200010BD2068C26842F01002D7E7002C0140C9
:10193000003401400004004000080040000C00405A
:1019400070B50446006801694FF00005C943890776
:1019500015D4C168C943890711D4E91E016101206A
:101960002077206880698007204602D0FFF79EFC20
:1019700004E000F0BFF8204600F062F92577206807
:101980000169C943490717D4C168C943490713D43A
:101990006FF004010161022020772068806910F453
:1019A000407F204602D0FFF781FC04E000F0A2F85F
:1019B000204600F045F9257720680169C9430907E9
:1019C00016D4C168C943090712D46FF00801016138
:1019D000042020772068C0698007204602D0FFF7E6
:1019E00065FC04E000F086F8204600F029F9257730
:1019F00020680169C943C90617D4C168C943C9062B
:101A000013D46FF010010161082020772068C069AD
:101A100010F4407F204602D0FFF748FC04E000F0BD
:101A200069F8204600F00CF9257720680169C94360
:101A3000C90708D1C168C943C90704D1891E01611A
:101A4000204600F059F920680169C943090609D404
:101A5000C168C943090605D46FF0800101612046C1
:101A6000FFF71AFB20680169C943490609D4C16818
:101A7000C943490605D46FF040010161204600F0DA
:101A800051F920680169C94389060BD4C168C9436B
:101A9000890607D46FF0200101612046BDE870403F
:101AA000FFF7FBBA70BD000000B585B000210091C2
:101AB00001910291039100680B49884211D10B48B2
:101AC000816941F0040181618069694600F0040088
:101AD0000490C02000900220019003900448FEF77B
:101AE000A7FE05B000BD0000000400400010024049
:101AF00000080140704770B5044690F83C000D4660
:101B000001280AD0012084F83C0042B1042A18D0F0
:101B1000082A2AD00C2A4DD139E0022070BD206855
:101B200000F0C0FB2068816941F0080181612068F4
:101B3000816921F004018161206881692A6911436A
:101B400011E0206800F0DEFB2068816941F400614B
:101B500081612068816921F48061816120688169E7
:101B60002A6941EA0221816124E0206800F000FC3A
:101B70002068C16941F00801C1612068C16921F094
:101B80000401C1612068C1692A69114311E020681C
:101B900000F022FC2068C16941F40061C161206845
:101BA000C16921F48061C1612068C1692A6941EA83
:101BB0000221C161002084F83C0070BD10B5040012
:101BC00003D094F83D0010B107E0012010BD0020C3
:101BD00084F83C00204600F01FF8022084F83D0005
:101BE000211D206800F0F8FA012084F8460084F8EE
:101BF0003E0084F83F0084F8400084F8410084F8F7
:101C0000420084F8430084F8440084F8450084F8D6
:101C10003D00002010BD000008B50068064988425C
:101C200008D10648C16941F00201C161C06900F0F4
:101C30000200009008BD00000004004000100240B7
:101C40007047000010B50446022249B104290ED0A5
:101C5000082913D094F84100012816D0012010BDA6
:101C600094F83E000128F9D184F83E200FE094F862
:101C70003F000128F2D184F83F2008E094F84000AA
:101C80000128EBD184F8402001E084F841200122B2
:101C9000206800F0E7FA13492068134A884201D00F
:101CA000904203D1436C43F400434364206888426C
:101CB0000DD090420BD0B0F1804F08D00B49884234
:101CC00005D00B49884202D00A49884204D1816874
:101CD00001F00701062903D0016841F0010101600C
:101CE000002010BD002C01400034014000040040E1
:101CF00000080040000C004070470246002041B13F
:101D0000042909D008290AD00C2901D11068006CD7
:101D100070471068406B70471068806B70471068A0
:101D2000C06B70477047704770B502680446106812
:101D3000D168536910F00F0F52D003F0010501F480
:101D400090762E435FD0C20705D0CA0503D5E26B5B
:101D500042F00102E263420705D5DA0703D0E26BE5
:101D600042F00202E263820705D5DA0703D0E26B94
:101D700042F00402E263020707D501F020022A4381
:101D800003D0E26B42F00802E263E26B002A33D038
:101D9000800604D5880602D5204600F0D0FB2068D6
:101DA0004069E16BC0F38010090700D428B32046D6
:101DB00000F0B7FB2068416949061AD5416921F056
:101DC00040014161606BA0B12D494163606BFEF73A
:101DD00097FC002810D0606B416BBDE8704008474D
:101DE000830610D58B060ED52046BDE8704000F066
:101DF000A6BB2046FFF797FF70BD2046FFF793FF75
:101E00000020E06370BD03062BD50B0629D594F89E
:101E100039002128F6D1A068B0F5805F01D1206992
:101E2000B0B1206A411C2162216800784860E08CD2
:101E3000401E0004000CE084E4D12068C16821F059
:101E40008001C1602068C16841F04001C16070BD7F
:101E5000206A0088C0F308005060206A801C20625D
:101E6000E5E74006F3D54806F1D5D168204621F0D4
:101E70004001D160202184F8391000F076F870BD5F
:101E80001325000870B5040004D094F8390000252B
:101E900010B106E0012070BD84F83850204600F0F3
:101EA00023F8242084F839002068C16821F4005107
:101EB000C160204600F08AFB2068016921F490414E
:101EC00001612068416921F02A0141612068C168EF
:101ED00041F40051C160E563202084F8390084F8A2
:101EE0003A00002070BD000030B585B00024009499
:101EF0000194029403940068184988422CD1184830
:101F0000816941F480418161816901F480410491DA
:101F1000816941F0040181618069124D00F0040083
:101F200004904FF400700090022001900320039071
:101F300069462846FEF77CFC2815CDE90004694671
:101F400028460294FEF774FC002211462520FEF775
:101F5000E1FD2520FEF7D0FD05B030BD0038014081
:101F6000001002400008014070477047FEE7000083
:101F700030B585B00024184800940194029403946D
:101F8000816941F010018161816901F010010491C2
:101F9000816941F004018161816901F004010491CA
:101FA000816941F02001816180690C4D00F02000C1
:101FB0000490002278212846FEF736FD7820009014
:101FC0000120CDE901040220039069462846FEF76E
:101FD0002FFC05B030BD000000100240001401408D
:101FE00010B58AB000242E480494059406940794F2
:101FF000089409940094019402944FF08041039452
:1020000001604721C0E901144FF6FF71C0E90314D4
:102010008461FFF781F808B1FEF770FB4FF4805040
:10202000049004A91E48FFF7D5F808B1FEF766FB37
:102030001B48FFF7DCFB08B1FEF760FB089408A91A
:1020400017480994FFF72AF808B1FEF757FB01205B
:10205000CDE9004002940022694611480394FFF73D
:102060003FFB08B1FEF74AFB042269460C48FFF724
:1020700037FB08B1FEF742FB082269460848FFF724
:102080002FFB08B1FEF73AFB0C2269460448FFF724
:1020900027FB002801D0FEF731FB0AB010BD00007D
:1020A0004C00002010B58AB0002407941C2168461B
:1020B0000894FEF770F81B48194901604721C0E9F0
:1020C000011440F2E731C0E903148461FFF776FDA3
:1020D00008B1FEF713FB079407A912480894FEF70E
:1020E000DDFF08B1FEF70AFB6020CDE90004022005
:1020F00002900022694604940A48FFF7FCFC08B1EC
:10210000FEF7FCFA042269460648FFF7F4FC08B122
:10211000FEF7F4FA0348FFF7C7FC0AB010BD000051
:1021200000040040940000200C4810B50A490160EA
:102130004FF4E1314160002181600C22C160C0E9AF
:1021400004128161C161FFF79DFE002803D0BDE844
:102150001040FEF7D3BA10BD00380140DC0000206B
:10216000FEE7FEE770477047FEF76ABC30B58FB0F8
:1021700028216846FEF70FF814210AA8FEF70BF88D
:1021800001210804CDE900100024029402250491E5
:10219000CDE907504FF4E01009906846FEF7D8FDEE
:1021A00008B172B6FEE70F20CDE90A054FF4806052
:1021B000CDE90C4002210AA80E94FEF7DDFC0028B0
:1021C00001D072B6FEE70FB030BD70470148FFF78F
:1021D000B7BB00004C000020F0B502681C4B1D4D41
:1021E0001D4E1E4F1E4C4FF0804C984209D0A0420D
:1021F00007D0604505D0A84203D0B04201D0B84214
:1022000004D122F0700E4A6842EA0E02984209D0C8
:10221000A04207D0604505D0A84203D0B04201D00B
:10222000B84203D122F44075CA682A434D6922F0AE
:1022300080022A4302608A68C2620A688262984207
:1022400001D0A04201D10969016301214161F0BDC2
:10225000002C01400004004000080040000C004039
:102260000034014010B501F01F030121046A9940B8
:102270008C430462016A9A401143016210BD10B59B
:10228000846842EA032224F47F440A4322438260A2
:1022900010BD826822F070020A4342F0070181609B
:1022A00070470000F0B5026A22F001020262036A80
:1022B00042688469124E24F073050C682C4323F0A5
:1022C00002058B682B430D4DA84201D0B04205D1C9
:1022D00023F00807CB683B4323F00403A84201D056
:1022E000B04205D14D6922F4407215438A692A43F0
:1022F00042608461496841630362F0BD002C014083
:1023000000340140F0B5026A22F010020262026A53
:10231000436884690D6824F4E64444EA05248D6822
:1023200022F0200242EA05120F4D104EA84201D0C1
:10233000B04206D1CF6822F0800242EA071222F0B2
:102340004002A84201D0B04207D14D6923F4406356
:1023500043EA85038D6943EA8503436084614968E4
:1023600081630262F0BD0000002C01400034014096
:10237000F0B5026A22F480720262026A4368C4699C
:1023800022F4007224F073050C68124E2C438D6801
:1023900042EA05220E4DA84201D0B04206D1CF68D4
:1023A00022F4006242EA072222F48062A84201D0AD
:1023B000B04207D14D6923F4405343EA05138D69B8
:1023C00043EA05134360C4614968C1630262F0BD1A
:1023D000002C01400034014030B5026A22F48052E2
:1023E0000262046A4268C3690D6823F4E64343EA63
:1023F00005238D6824F4005444EA0534084DA842AE
:1024000002D0084DA84204D14D6922F4804242EA2C
:1024100085124260C36149680164046230BD0000F6
:10242000002C01400034014010B5036A046A24F016
:1024300001040462846924F0F00444EA021423F0E5
:102440000A020A438461026210BD000070B5046A8A
:1024500024F0010404628469056A124EB0420ED071
:10246000114EB0420BD0B0F1804F08D00F4EB042A9
:1024700005D00F4EB04202D00E4EB04203D124F030
:102480000304144301E044F001041A0724F0F004AB
:1024900044EA126225F00A0301F00A01194382613D
:1024A000016270BD002C0140003401400004004076
:1024B00000080040000C004010B5036A23F0100330
:1024C00003628369046A23F4704343EA023224F00E
:1024D000A00343EA01118261016210BD30B5046AB4
:1024E00024F0100404628469056A24F4407444EA08
:1024F000022222F470444FF6FF7202EA03322243B2
:10250000A02425F0A00304EA0111194382610162AD
:1025100030BD10B5406A0021C185C184FFF703FCBE
:1025200010BD0168CA6822F49072CA6001684A69E5
:1025300022F001024A61202180F83A10704710B55C
:1025400090F83A10222901D0022010BD82684FF481
:1025500080539A4201D1016921B1816A9A421BD00C
:102560004AB10AE00268816A5268C2F308020A802E
:10257000816A891C08E0026972B10268526802F03F
:102580007F020A70816A491C8162C18D491E09045B
:10259000090CC18503D016E002685268F1E70168B2
:1025A000CA6822F02002CA600168CA6822F48072F8
:1025B000CA6001684A6922F001024A61202180F85C
:1025C0003A10FFF7D1FC002010BD000070B50446A2
:1025D00000680169E26821F44051114301612169F9
:1025E000A0680843616908432168CA6841F20C6326
:1025F0009A430243CA6020684169A26921F440718C
:10260000114341611E492068884202D1FEF75AFBFE
:1026100001E0FEF747FB00EBC00101EB0012606830
:1026200064218000B2FBF0F3B3FBF1F36FF0180606
:102630007343B2FBF0F5B2FBF0F605EB83053223F2
:1026400003EB0515B5FBF1F5B6FBF1F605F0F0056A
:1026500005EB0615B2FBF0F6B2FBF0F0B0FBF1F0C3
:102660006FF01802504306EB800003EB0010B0FB44
:10267000F1F0216800F00F002844886070BD000070
:10268000003801400148FFF74FBB0000DC0000208C
:10269000FEE700000FB4054B10B503A9044A0298E9
:1026A00000F028F810BC5DF814FB00004928000871
:1026B000380000200907090E002804DB00F1E020A3
:1026C00080F80014704700F00F0000F1E02080F85F
:1026D000141D704702E008C8121F08C1002AFAD171
:1026E00070477047002001E001C1121F002AFBD192
:1026F000704700002DE9FF4F89B09B460446002536
:1027000006E025280BD05A460B999047641C6D1C97
:1027100020780028F5D10DB02846BDE8F08F0027BD
:10272000B8460122474900E0074314F8013F203B27
:1027300002FA03F00842F7D120782E2819D114F8B4
:10274000010F47F004072A280ED06FF02F022078DF
:10275000A0F1300109290CD808EB880102EB4101F6
:1027600000EB0108641CF2E70A98641C50F8048B23
:102770000A9020780028CED0642808D0692806D096
:1027800075281ED05A460B9990476D1C58E00A993F
:102790004FF00A0901C90A91002802DA40422D21AE
:1027A00002E0390504D52B218DF82010012103E02A
:1027B000F90704D02021F7E78A4608AE0DE0002192
:1027C000FAE70A994FF00A0901C90A91F7E7494661
:1027D000FDF7B4FE303106F8011D0028F7D1ADEB4E
:1027E000060000F12009780701D44FF00108C84520
:1027F00002DDA8EB090000E000208046002706E08B
:1028000008A85A46C05D0B9990476D1C7F1C574520
:10281000F6DB04E030205A460B9990476D1CB8F166
:102820000001A8F10108F5DC05E016F8010B5A4695
:102830000B9990476D1CB9F10001A9F10109F4DC75
:10284000641C65E70928010004490A685206FCD5A2
:10285000024AC1B2121D11607047000000380140E9
:10286000FEF7F6F8FFF782FCFFF782FBFFF75CFC50
:10287000FFF7B6FBFFF716FC00211948FEF7E6FF4D
:1028800004211748FEF7E2FF08211548FEF7DEFF96
:102890000C211348FEF7DAFF11480068C16841F0C7
:1028A0000101C16004210F48FFF7CCF900210D4858
:1028B000FFF7C8F90C4C012208212046FEF7B4F8B6
:1028C000012210212046FEF7AFF8012220212046E8
:1028D000FEF7AAF8012240212046FEF7A5F8FEE700
:1028E0004C00002094000020001401400000000073
:1028F00000000000010203040607080900000000B0
:102900000102030424290008000000204C000000FC
:10291000D4260008702900084C000020D4040000D0
:10292000E426000800000000000000000000000095
:102930000000000000000000000000000000000097
:102940000000000000000000000000000000000087
:102950000000000000000000000000000000000077
:102960000100000010000000000000000024F4003E
:0400000508000131BD
:00000001FF
