:020000040800F2
:10000000784B00205D020008FF3B0008C52F000868
:10001000FD3B0008950B0008214700080000000088
:100020000000000000000000000000009D0100082A
:10003000970B000800000000F90100083940000893
:1000400077020008770200087702000877020008AC
:10005000770200087702000877020008770200089C
:10006000770200087702000877020008770200088C
:10007000770200087702000877020008770200087C
:10008000770200087702000877020008770200086C
:10009000770200087702000877020008770200085C
:1000A000770200087702000877020008770200084C
:1000B000154100087702000877020008770200085F
:1000C000770200087702000877020008770200082C
:1000D00077020008FD460008094700081547000898
:1000E000770200087702000877020008770200080C
:1000F00077020008770200087702000877020008FC
:1001000077020008770200087702000877020008EB
:1001100077020008770200087702000821410008F2
:1001200077020008770200087702000877020008CB
:1001300077020008770200087702000877020008BB
:1001400077020008770200087702000877020008AB
:10015000770200087702000877020008770200089B
:10016000770200087702000877020008770200088B
:1001700077020008770200087702000800000000FC
:100180007702000877020008DFF80CD000F0E0FBEF
:1001900000480047255C0008784B00202C4B19686C
:1001A0000868B0E8F04F80F30988BFF36F8F4FF015
:1001B000000080F3118870470000000008480068C4
:1001C000006880F308884FF0000080F3148862B65E
:1001D00061B6BFF34F8FBFF36F8F00DF00BF00BF6B
:1001E00008ED00E0DFF80C00016841F470010160E7
:1001F000704700BF88ED00E0EFF30980BFF36F8F19
:10020000134B1A681EF0100F08BF20ED108A20E96A
:10021000F04F106009B44FF0500080F31188BFF325
:100220004F8FBFF36F8F06F037FD4FF0000080F364
:10023000118809BC19680868B0E8F04F1EF0100F6B
:1002400008BFB0EC108A80F30988BFF36F8F704746
:1002500034010020EFF30580704700000648804716
:1002600006480047FEE7FEE7FEE7FEE7FEE7FEE79B
:10027000FEE7FEE7FEE7FEE7F94000088901000817
:100280002DE9F05F0546002092469B4688460646CB
:10029000814640241BE0284641464746224600F05E
:1002A00070FA53465A46C01A914110D31146184667
:1002B000224600F057FA2D1A67EB01084F462246F6
:1002C0000120002100F04EFA17EB00094E41201EDC
:1002D000A4F10104DFDC484631462A464346BDE826
:1002E000F09F40EA01039B0703D009E008C9121FF1
:1002F00008C0042AFAD203E011F8013B00F8013BE0
:10030000521EF9D27047D2B201E000F8012B491E0B
:10031000FBD270470022F6E710B513460A460446A2
:100320001946FFF7F0FF204610BD30B505462A46B6
:100330000B4612F8010B13F8014B08B1A042F8D09C
:100340001CB1002802D06D1CF1E7284630BD421CCC
:1003500010F8011B0029FBD1801A70472DE9FE4FD0
:10036000804681EA0300C00F0C46009021F0004156
:1003700023F00045B8EB0200A94105D240462146D2
:1003800090461C460B46024623F00040104347D0DF
:10039000270DC7F30A00C3F30A510290401A0190D7
:1003A00040286BDAC3F3130040F4801B0098924698
:1003B00020B10023D2EB030A63EB0B0B01985946E3
:1003C000C0F14002504600F0CDF906460D465046B9
:1003D0005946019A00F0E5F910EB0800614100244C
:1003E00087EA115284EAE7731A4340D0009A62B355
:1003F000019A012A4FEA075215DC001B61EB02014A
:100400004FF0004202EA0752CDE90042001C41F5DC
:10041000801132462B4600F01CFA03B0BDE8F08F85
:1004200040462146F9E7001B61EB0201001C41F543
:10043000801300185B412018A2F5001747EB030159
:1004400040EAD570B6196D4111E06D084FEA3606E5
:1004500045EAC0754FEA0752001B61EB0201001C20
:1004600041F5801149084FEA3000001951413246E8
:100470002B4603B0BDE8F04F00F0DCB90098012234
:1004800040000023D0EB020263EBE07300982146AA
:100490004FEAE074B8EB000061EB0401E9E783F098
:1004A00000435BE781F0004158E72DE9FE4F81EA08
:1004B000030404F0004421F0004100944FF0000BCD
:1004C00023F0004350EA01045ED052EA03045BD0FB
:1004D000C3F30A54C1F30A552C44A4F2F334019433
:1004E000A0FB0254C1F3130141F48011C3F31303C1
:1004F00043F4801301FB024400FB034E840A970A75
:1005000044EA815447EA8357A4FB076802958D0AA1
:1005100005FB07854FEA932C04FB0C542705029D2D
:100520004FEA065847EA1637B5EB08056EEB070C9D
:10053000870E920E47EA811742EA8312A7FB020157
:10054000B6EB0B0164EB00042B0D43EA0C335E1891
:1005500044EB1C50DA465146E7FB0201C5F3130495
:100560004FEA0B3343EA14534FEA0432019C43EA47
:100570000603A4F10C040294009CCDE900B400F041
:1005800068F903B0BDE8F08F00200146F9E72DE9D6
:10059000F04D81EA030404F0004B21F000451446BD
:1005A0004FF0000A23F0004150EA050220D054EA3F
:1005B00001021DD0C5F30A570246C5F31303C1F368
:1005C0001300C1F30A5640F4801543F48013A7EBDF
:1005D0000608101BD64608F2FD3873EB050002D35F
:1005E00008F1010801E092185B41B8F1000F03DA4D
:1005F00000200146BDE8F08D00204FF48011064632
:1006000084460EE0171B73EB050705D3121B63EB43
:10061000050306434CEA010C49084FEA30009218E2
:100620005B4150EA0107EDD152EA030012D082EAA1
:10063000040083EA0501084305D0101BAB4106D234
:100640000122002306E000224FF0004302E06FF099
:10065000010253101AEB06004CEB085110EB0A0094
:1006600041EB0B01BDE8F04D00F0E4B80EB5C10F51
:1006700080EAE0700844CA07002140F233438DE865
:100680000E000A460B4600F0E4F803B000BD0EB5BC
:1006900040F2334102910021CDE900110A460B4698
:1006A00000F0D7F803B000BDC1F30A5210B5C1F392
:1006B000130140F2FF3341F480119A4201DA002025
:1006C00010BD40F233439A42A2F2334203DC52425D
:1006D00000F057F810BD904010BD00F0004230F01F
:1006E00000400AD0C10D01F56071C0F3160042EA66
:1006F0000151C2084007114370470020014670476E
:1007000001F0004330B421F0004150EA010206D06C
:100710000A0DA2F56072C1F31301002A02DC30BC9D
:1007200000207047440F44EAC104C100E01830BC07
:1007300000EBC25000F047B830B50B460146002030
:100740002022012409E021FA02F59D4205D303FA93
:1007500002F5491B04FA02F52844151EA2F1010214
:10076000F1DC30BD202A04DB203A00FA02F100203F
:1007700070479140C2F1200320FA03F319439040DF
:100780007047202A04DB203A21FA02F0002170474A
:1007900021FA02F3D040C2F12002914008431946E9
:1007A0007047202A06DBCB17203A41FA02F043EAD1
:1007B000E07306E041FA02F3D040C2F1200291401A
:1007C0000843194670470029A8BF7047401C4900DC
:1007D00008BF20F00100704710B4B0FA80FC00FAA6
:1007E0000CF050EA010404BF10BC704749B1CCF1D1
:1007F000200421FA04F411FA0CF118BF012121435D
:100800000843A3EB0C01CB1D4FEA00614FEA102017
:1008100042BF002010BC704700EBC35010440029B9
:10082000A4BF10BC7047401C490008BF20F0010065
:1008300010BC704710B5141E73F1000408DA401C98
:1008400041F1000192185B411A4301D120F00100EF
:1008500010BD2DE9F04D92469B4611B1B1FA81F2DF
:1008600002E0B0FA80F220329046FFF77BFF0446A8
:100870000F4640EA0A0041EA0B0153465A46084334
:1008800013D0114653EA010019D0C8F14002504676
:10089000FFF777FF05460E46504659464246FFF79A
:1008A00061FF084305D0012004E020463946BDE839
:1008B000F08D0020054346EAE0762C4337430A9842
:1008C0006305E40AA0EB08000022FD0A44EA47544D
:1008D0000A3002D500200146E9E7010510196941F7
:1008E000DDE9084500196941BDE8F04DA2E7C1F313
:1008F0000A52C1F3130140F2FF3341F480119A42CE
:1009000002DA00200146704740F233439A42A2F2D5
:10091000334202DC5242FFF734BFFFF723BF00002F
:1009200030B5041E71F1000404DB4FF00044404276
:1009300064EB0101141E73F1000405DB1C464FF04B
:100940000043524263EB0403994208BF904230BD1A
:10095000064C074D06E0E06840F0010394E807000C
:1009600098471034AC42F6D3FFF712FC787F0008AA
:10097000987F00082DE9F04D00231A461B1A8A4182
:1009800003DB00200146BDE8F08DC1F30A52C1F33C
:10099000130141F480154FF0000BD10702D100186C
:1009A0006D41521E0027044640F2FF11384601EB0C
:1009B000620A3E468046024600204FF48011FFF74F
:1009C000E0FEC2197141BB1846EB0100B4EB030C09
:1009D00075EB000C04D3E41A65EB000517460E46D0
:1009E000241908F101006D4180463428E3DDF9192E
:1009F00046EB0600091BA84103D24FF0FF32134615
:100A000001E0002213461BEB070046EB0A51BDE84C
:100A1000F04DFFF70FBF70B58C1810F8015B15F0A3
:100A2000070301D110F8013B2A1106D110F8012B60
:100A300003E010F8016B01F8016B5B1EF9D12B0785
:100A400005D40023521E0DD401F8013BFAE710F83B
:100A5000013BCB1A921C03E013F8015B01F8015B28
:100A6000521EF9D5A142D8D3002070BD464910B519
:100A70004A6822F440324A604A6843681A434A602E
:100A800001684A6822F480724A6001684A68036912
:100A900042EA03224A6001684A6822F040724A60D2
:100AA00001684A6883681A434A6001688A6822F4C8
:100AB00000628A6001688A68C3681A438A60816A32
:100AC0006FF07062D14201688A6822F070628A60B9
:100AD00001688A680CD0836A1A438A6001688A6850
:100AE00022F040528A6001688A68C36A1A4301E0B2
:100AF00022F040528A6001688A6822F002028A600D
:100B000001688A68037E42EA43028A6090F82010F6
:100B1000002901684A680FD042F400624A60016807
:100B20004A6822F460424A6001684A68174C436A86
:100B300004EB43331A4301E022F400624A60016887
:100B4000CA6A22F47002CA620168CA6A838B104CB6
:100B500004EB03531A43CA6201688A6822F40072E4
:100B60008A6001688A6890F8303042EA43228A60DD
:100B700001688A6822F480628A6001688A68406934
:100B800042EA8020886010BD0023014000E0FFFFA2
:100B90000000F0FFFEE7704770B50C4605464FF4C5
:100BA00080710748FFF7B6FB06490020224608700F
:100BB0002946BDE870404FF6FF73034802F048B97C
:100BC000880800202D010020B806002010B504463A
:100BD0004FF480710948FFF79DFB09490020087018
:100BE000084806E0026851600168641C0A68520601
:100BF000FCD521780029F5D110BD0000880800201F
:100C00002D010020B806002070B505244FF40075B2
:100C10000EE029460948FFF77DFB09A0FFF7D6FF44
:100C2000C82209A1054800F043F908B1012070BDB0
:100C30002046641EE4B2ECD270BD0000880800209B
:100C400041540D0A000000004F4B00002DE9F04711
:100C50008846814605244FF400750CE029461A4861
:100C6000FFF758FB19A0FFF7B1FFC8221CA11648D7
:100C700000F01EF910B9641EE4B2EFD2ECB1012409
:100C800026024FF4FA5731461648FFF743FB294630
:100C90000D48FFF73FFB43464A4613A1114803F0B6
:100CA00051FD1048FFF792FF3A460DA1064800F0AB
:100CB000FFF820B10120BDE8F0870020FBE72046C7
:100CC000641EE4B2DFD2F6E78808002041542B43CB
:100CD000574D4F44455F4355523D310D0A000000CA
:100CE0004F4B00008807002041542B43574A415086
:100CF0005F4355523D222573222C222573220D0A73
:100D0000000000002DE9F84F16468946824600F0A3
:100D10007DF84FF4FA7000F06BFB02242502E70126
:100D20004FF4FA5817E039462348FFF7F3FA2946FB
:100D30002248FFF7EFFA4B46524621A11E48009683
:100D400003F000FD1C48FFF741FF424623A11B486A
:100D500000F0AEF810B9641EE4B2E4D27CB1012414
:100D600029461648FFF7D6FA1EA0FFF72FFFC82224
:100D700020A1124800F09CF820B1012407E00020D7
:100D8000BDE8F88F2046641EE4B2E9D2F8E72946B0
:100D90000A48FFF7BFFA18A0FFF718FFC8221AA1E8
:100DA000064800F085F808B10120E9E72046641EF6
:100DB000E4B2ECD2E4E700008807002088080020B5
:100DC00041542B43495053544152543D22257322E0
:100DD0002C222573222C25640D0A0000434F4E4E11
:100DE0004543540041542B4349504D4F44453D31F8
:100DF0000D0A00004F4B000041542B43495053450E
:100E00004E440D0A000000003E00000010B507A08F
:100E1000FFF7DCFE322000F0EBFA04A0FFF7D6FE6D
:100E2000BDE81040322000F0E3BA00002B2B2B006D
:100E300070B54FF480711548FFF76CFA4FF40075E8
:100E400029461348FFF766FAFFF7E0FF4FF4FA74FC
:100E5000204600F0CDFA0FA0FFF7B8FE4FF448701F
:100E600000F0C6FAFFF7D0FE00280ED02946084849
:100E7000FFF750FA0AA0FFF7A9FE22460AA104488C
:100E800000F016F8002800D0012070BD880700206F
:100E90008808002041542B5253540D0A00000000D2
:100EA000415445300D0A00004F4B000072B6FEE77A
:100EB00070B506460A20B2FBF0F40D4602E00A20A7
:100EC00000F096FA29463046FFF72FFA10B9641E53
:100ED000A4B2F4D20CB1012070BD002070BD00009E
:100EE0002DE9FF5FDFF8BC9017468A464FF02108D6
:100EF000002601F1010B00BF06EB061109EB4104CE
:100F0000397894F8200088422AD194F82100797821
:100F1000884225D103980AF0FF0100280098C0B24A
:100F200023D002F01DFF00250121605DC043C0B247
:100F300002F0B4FF6D1CEDB2102DF5D300980BF04C
:100F4000FF01C0B202F00CFF002560190121007CF6
:100F5000C043C0B202F0A2FF6D1CEDB2102DF4D35D
:100F6000761C4645C8D3BDE8FF9F02F0F9FE002578
:100F70000121605D02F092FF6D1CEDB2102DF7D3E0
:100F800000980BF0FF01C0B202F0EAFE00256019E4
:100F90000121007C02F082FF6D1CEDB2102DF6D312
:100FA000DEE70000D478000810B501F0AFFF034978
:100FB0006422086090FBF2F0486010BD1C01002024
:100FC00010B501F0A3FF642290FBF2F00849DFEDB9
:100FD000090A08604A68801A00EE100AB8EEC00AD2
:100FE00080EE201ABCEEC10A10EE100A886010BD17
:100FF0001C0100203333EB4078B50024009490F8B6
:101000003C20012A19D0012280F83C200A680723DD
:101010000568092A13D9EE680A3A02EB42029340A6
:101020009E43EE600B788A680A3B03EB43039A40C9
:101030000368DD682A43DA6010E0022078BD2E697B
:1010400002EB420293409E432E610B788A6803EBC9
:1010500043039A4003681D692A431A614A681F23A3
:10106000072A13D205686E6B521E02EB8202934070
:101070009E436E630B790A885B1E92B203EB830377
:101080009A4003685D6B2A435A6327E005680D2A7E
:1010900012D22E6BD21F02EB820293409E432E632C
:1010A0000B790A88DB1F92B203EB83039A40036833
:1010B0001D6B2A431A6311E0EE6A0D3A02EB8202BD
:1010C00093409E43EE620B790A880D3B92B203EB8C
:1010D00083039A400368DD6A2A43DA62164B056887
:1010E000144A9D4206D10D68122D03D1556845F46E
:1010F0008005556005689D4218D10B68102B01D002
:10110000112B13D1536843F400035360096810296D
:101110000CD10A490A4A0968B1FBF2F101EB8101DD
:10112000490000E0491E00910029FBD180F83C40B5
:10113000002078BD0023014000200140E000002095
:1011400040420F000068C06C704770B504004FF05B
:10115000000503D0206C002610B107E0012070BD0F
:10116000204600F01DF8666484F83C60206CC006E0
:1011700010D4206C20F4885040F0020020642046F7
:10118000FFF774FC6664206C20F0020040F0010060
:10119000206400E0012584F83C60284670BD000012
:1011A00010B586B0044614216846FFF7B3F811491C
:1011B000206888421BD110480021026842F48072E6
:1011C0000260006800F4807005900B4814380268D3
:1011D00042F001020260006800F001000590032067
:1011E0000090CDE901016946044800F013F906B00A
:1011F00010BD0000002001404438024000000240C1
:101200002DE9F041044600680D4681684FF0000763
:1012100049050BD58068C00508D5206C40F020003A
:10122000206484F83C700120BDE8F08100F0D8F91A
:1012300006460FE0681C0DD025B100F0D1F9801BE7
:10124000A84207D9206C40F00400206484F83C7068
:101250000320E9E7206800688007EBD521686FF07C
:1012600012000860206C40F40070206420688168DF
:1012700011F0405F13D1217E89B9C16A11F4700F5A
:1012800002D0806840050AD4206C20F4807020646D
:10129000206CC00403D4206C40F0010020640020C6
:1012A000C2E7000018B50021009190F83C20012A07
:1012B00007D0012280F83C2002689368DB0702D047
:1012C00011E0022018BD936843F0010393602A4A9D
:1012D0002A4B1268B2FBF3F202EB420200E0521E0C
:1012E0000092002AFBD102689368DB0741D0036CAF
:1012F00040F20164A34343F48073036453685B05C5
:1013000005D5036C23F4005343F480530364036C4A
:10131000DB0404D5436C23F00603436400E041641E
:1013200080F83C1016496FF022031360496800688A
:10133000CA06144906D088421BD1816811F0405F6B
:1013400013D016E08842F8D00F4A904203D1D1F86A
:101350000423D206F1D00D4A90420AD1D1F80413E9
:1013600001F01F011029E8D303E0816841F08041BA
:101370008160002018BD0000E000002040420F0006
:1013800000230140002001400021014000220140D3
:1013900090F83C1001290CD0012180F83C10016824
:1013A0008A6822F001028A6001688968C90702D050
:1013B00007E002207047016C21F4885141F00101DF
:1013C0000164002180F83C100846704790F8351001
:1013D000022903D08021416501207047052180F852
:1013E00035100068016821F001010160002070479C
:1013F00070B5044600F0F4F80546601C02D00448BD
:101400000078044400F0ECF8401BA042FAD370BD11
:10141000D40000202DE9F84F00224FF001080325E9
:101420004FF00F0E0B6808FA02F42340A3426ED16E
:101430004E68012E05D0022E03D0112E01D0122E9F
:1014400012D186684FEA420C05FA0CF7BE43CF680A
:1014500007FA0CF7374387604668A6430C79C4F354
:101460000014944034434460C668570005FA07FCF2
:101470008C6826EA0C06BC403443C4604C68022CDD
:1014800001D0122C13D1D40800EB8404A346D4F865
:10149000209054074FEAD46A0EFA0AF629EA0609A0
:1014A0000E6906FA0AF646EA0906CBF820600668D5
:1014B0000C7926EA0C0604F00304BC4034430460B3
:1014C0004C68E40065D5364C266846F480462660B4
:1014D000246822F0030604F480440094314C344420
:1014E000A446D4F808489607370F0EFA07F6B44317
:1014F0002D4EB04201D1002624E02C4EB04201D145
:1015000001261FE02A4EB04202D102261AE040E036
:10151000284EB04201D1032614E0274EB04201D13B
:1015200004260FE0254EB04201D105260AE0244EE4
:10153000B04201D1062605E0224EB04201D1072675
:1015400000E00826BE402643CCF808681E4E3468EA
:101550004F689C43FF0300D51C4334601A4C241D84
:1015600026684F689E43BF0300D51E432660164E73
:10157000083634684F689C43FF0200D51C43346032
:10158000114E0C3634684F689C43BF0200D51C4393
:101590003460521C102AFFF445AFBDE8F88F0000FC
:1015A0004438024000300140000002400004024084
:1015B00000080240000C02400010024000140240EB
:1015C00000180240001C0240003C01400069084035
:1015D00000D0012070470AB1816170470904FBE720
:1015E0000148806870470000D400002002488168EC
:1015F0000278114481607047D40000200B4810B578
:10160000016841F400710160016841F4806101608A
:10161000016841F480710160032000F08DF8002022
:1016200000F006F800F03EF8002010BD003C02403B
:1016300010B5014688B00022372000F05DF8372051
:1016400000F04CF813480024016841F020010160CB
:10165000006805A900F020000690684600F018F91F
:1016600000F036F90C494000B0FBF1F10C480B4A90
:10167000491E026040F2E732C0E90324C0E90114C8
:1016800000F0A4FC10B1012008B010BD044800F027
:10169000DFFCF9E74038024040420F0000140040F0
:1016A000380700200C4882B0016841F48041016095
:1016B000006800F4804000900748001F016841F076
:1016C000805101600068002200F0805000900F21DE
:1016D000901E02B000F010B844380240002809DB28
:1016E00000F01F02012191404009800000F1E0203C
:1016F000C0F8001170470000F0B40E4B1B680C4698
:10170000C3F30223C3F10705042D00D90425191DD5
:10171000072901D2002300E0DB1E012606FA05F1AD
:10172000491E214099409E40761E16403143F0BC30
:1017300003F034B80CED00E0064900F00702086839
:101740004FF6FF03184040EA0220034A10430860A6
:10175000704700000CED00E00000FA052DE9F047AD
:101760000E46050065D0DFF81481D8F80000F7B206
:1017700000F00F00B04207D288F80070D8F80000DF
:1017800000F00F00B04254D128683D4C810712D5BB
:10179000400703D5206840F4E05020602878000717
:1017A00003D5206840F4604020602068A96820F0DC
:1017B000F000084320602878C0072DD030496868C1
:1017C0000839012812D0022813D0032811D0096843
:1017D000890700292DDA216821F0030101432160E6
:1017E000FFF7FEFE814641F2883A0EE00968890360
:1017F000EFE709688901ECE7FFF7F2FEA0EB0901CA
:10180000514502D90320BDE8F0872068696800F0DF
:101810000C00B0EB810FEFD1D8F80010404601F07A
:101820000F01B14207D90770006800F00F00B04205
:1018300001D00120E7E72878400705D52068E9684E
:1018400020F4E050084320602878000706D520687F
:10185000296920F4604040EAC100206000F058F897
:101860002168084AC1F30311515CC8400649086069
:1018700006480068FFF7DCFE0020C4E7003C024099
:10188000083802407C720008E0000020D8000020E8
:101890000F2202600C4A136803F0030343601368CD
:1018A00003F0F0038360136803F4E053C36012682D
:1018B0004FF4E05303EAD20202610448006800F0EA
:1018C0000F0008607047000008380240003C0240EA
:1018D0000448054900680968044AC1F38221515C43
:1018E000C8407047E0000020083802408C720008B1
:1018F0000448054900680968044AC1F34231515C53
:10190000C8407047E0000020083802408C72000890
:10191000154810B5006810F00C02144813D041109F
:10192000042A0FD0082A0ED10F4C241F22682368E6
:1019300002F03F025B0207D52068C0F38810A0FBCD
:10194000010106E0084610BD2168C1F38811A1FB22
:1019500000010023FEF794FC2168C1F30141491CFA
:101960004900B0FBF1F010BD083802400024F4003B
:101970002DE9F84F040076D02078DFF838A3CE4D5B
:10198000C00749D0DAF800105046C1F3810101299F
:1019900008D00068C0F3810002280AD1281D006821
:1019A000400206D52868800336D560680028E2D05A
:1019B00032E06068B0F5803F10D0B0F5A02F286805
:1019C00010D020F480302860286820F4802028601F
:1019D0006068A0B1FFF704FE06460CE0286840F4FA
:1019E0008030F4E740F480202860F7E7FFF7F8FD47
:1019F000801B642873D828688003F7D50CE0FFF7B4
:101A0000EFFD064605E000BFFFF7EAFD801B6428F6
:101A1000F0D828688003F7D42078DFF8A082800708
:101A20004FF000093ED5DAF80010504611F00C0FC7
:101A300009D00068C0F3810002280BD19D48001F27
:101A40000068400206D42868800715D5E0680128A0
:101A500009D111E0E068B8B10120C8F80000FFF733
:101A6000BFFD064605E020E1FFF7BAFD801B022816
:101A7000C0D828688007F7D52868216920F0F800C9
:101A800040EAC10028600DE0C8F80090FFF7A8FD0B
:101A9000064604E0FFF7A4FD801B02281FD8286833
:101AA0008007F7D42078000722D5824E84486169E8
:101AB0006C3671B101210160FFF792FD074604E029
:101AC000FFF78EFDC01B022809D830688007F7D5C4
:101AD0000EE0C0F80090FFF783FD074605E082E0C6
:101AE000FFF77EFDC01B02287DD830688007F7D441
:101AF0002078400768D5DFF8BCB100270BF1380B20
:101B0000DBF80000C0000BD4DBF8001041F080517E
:101B1000CBF80010DBF80000012700F080500090A7
:101B2000684E3068C00510D4306840F48070306072
:101B3000FFF756FD009005E0FFF752FD0099401AAF
:101B4000022850D83068C005F6D55A4EA0686836CD
:101B500001280FD00528306810D020F00100306037
:101B6000306820F004003060A068B8B1FFF738FD9D
:101B700000900FE0306840F00100F4E740F004000E
:101B80003060F7E7FFF72CFD0099411A41F28830E9
:101B9000814266D830688007F4D50EE0FFF720FD5B
:101BA000009007E0FFF71CFD0099411A41F28830D0
:101BB000814256D830688007F4D42FB1DBF800108A
:101BC00021F08051CBF80010A069D0B3DAF80020E2
:101BD0005146C2F38102022A4AD00228484607D061
:101BE000C8F8600000E03CE0FFF7FAFC04463BE088
:101BF0004746C8F86000FFF7F3FC064605E000BF63
:101C0000FFF7EEFC801B02282BD828688001F7D450
:101C1000D4E907010843A16A2B4A490802EB0141B4
:101C2000626A41EA8211084394F82C1040EA01618B
:101C30002048001F016001203866FFF7D1FC0446F0
:101C400005E034E0FFF7CCFC001B022809D8286827
:101C50008001F7D52BE000BFFFF7C2FC001B022874
:101C600002D90320BDE8F88F28688001F4D41EE073
:101C70000128F7D00868E26900F48001914214D18C
:101C8000226A00F03F0191420FD147F6C071626AAB
:101C90000140914209D1A26A00F44031914204D13D
:101CA000E16A00F07060884201D00120DAE700208C
:101CB000D8E70000083802400038024000004742E0
:101CC000800E4742007000400000FFFF70B5040026
:101CD00005D00025A56294F8510010B106E001205E
:101CE00070BD84F85050204600F030F8022084F88F
:101CF00051002068016821F040010160D4E9010130
:101D00000843D4E903121143084361690843218B56
:101D100001F400710843E1690843216A0843A16A9C
:101D2000084321680860A069042101EA1040616A43
:101D30000843216848602068C16921F40061C161DD
:101D40006565012084F85100002070BDF0B587B0B2
:101D5000044614216846FEF7DDFA1C4920688842D3
:101D600032D11B480024016841F4804101600068C1
:101D700000F48040059016481038016841F00401D5
:101D80000160016801F004010591016841F0020160
:101D900001600068022500F0020005900C20CDE9EA
:101DA000000502AA0326052782E8D00069460948F3
:101DB000FFF730FB2803CDE9000502AA694682E857
:101DC000D0000548FFF726FB07B0F0BD0038004003
:101DD0004038024000080240000402402DE9F84F5C
:101DE000044690F8500000271D46164689460128F3
:101DF0000DD04FF0010B84F850B0FFF7F1FB804697
:101E000094F85100BA46012804D002278EE002203F
:101E1000BDE8F88FB9F1000F7DD0002E7BD00320F4
:101E200084F85100C4F854A0C4F83090A686E68621
:101E3000C4F838A0A4F83CA0A4F83EA0C4F844A07C
:101E4000C4F840A0A068B0F5004F04D12068016834
:101E500041F48041016020680168490603D40168AB
:101E600041F040010160E068B0F5006F606803D0A8
:101E700030B3012E24D040E008B1012E1CD1206BDC
:101E800021680088C86006E020688168890709D554
:101E9000216B0988C160206B801C2063E08E401E8E
:101EA000E08609E0FFF79CFBA0EB0800A84202D304
:101EB000681C01D031E07DB3E08E0028E4D11FE042
:101EC000206B21680078087306E020688168890724
:101ED00009D5216B09780173206B401C2063E08ECB
:101EE000401EE08609E0FFF77BFBA0EB0800A8425C
:101EF00002D3681C01D010E075B1E08E0028E4D157
:101F000042462946204601F0EBFF08B120206065DB
:101F1000A06820B107E008E0FFE7032706E020689B
:101F2000C16880680090606D00B1012784F851B0ED
:101F300084F850A038466BE77047704770B590F84A
:101F40003C20012A32D0012480F83C40022280F853
:101F50003D2003685A689D6822F070060A68324383
:101F60005A60134B02689A4214D0B2F1804F11D0DC
:101F7000104B9A420ED0104B9A420BD00F4B9A4204
:101F800008D00F4B9A4205D00E4B9A4202D00E4B0E
:101F90009A4204D1496825F080031943916080F882
:101FA0003D40002180F83C10084670BD022070BD05
:101FB000000001400004004000080040000C004008
:101FC00000040140004001400018004010B504002A
:101FD00003D094F83D0010B107E0012010BD0020AF
:101FE00084F83C00204600F00DF8022084F83D0003
:101FF000211D206802F09AF8012084F83D0000209D
:1020000010BD000008B500680649884208D106489E
:10201000016841F010010160006800F010000090BC
:1020200008BD00000010004040380240022180F846
:102030003D1001688A6802F00702062A03D00A6888
:1020400042F001020A60012180F83D100020704733
:102050000168CA6842F00102CA600068816801F044
:102060000701062903D0016841F001010160002049
:102070007047022180F83D1001680A6A41F211138D
:102080001A4207D10A6A9B101A4203D10A6822F049
:1020900001020A60012180F83D1000207047000015
:1020A0002DE9F0412DED028B0127007FFD4D9FEDC5
:1020B000FE8A0026FD4C01283DD002287DD0042850
:1020C0007CD0082833D1E078002878D001282ED1A0
:1020D0000C21284600F014FDA0662868016A21F44E
:1020E000204101622868016A01620C21284600F043
:1020F0003BFBD4E919108842A0EB010001D200F5A6
:102100008030A062A06B88B194ED0A0AF8EE400A14
:1021100000EE100AB8EE401A80EE810A20EE080A9E
:10212000BCEEC00A10EE100AC0B2A064E670BDECAE
:10213000028BBDE8F0812078F0B30128F7D10021AF
:10214000D84800F0DDFC20652868016A21F00A010A
:1021500001622868016A01620021D24800F004FB94
:10216000D4E913018142A1EB000001D200F58030D7
:10217000E061E06A38B394ED070AF8EE400A00EE39
:10218000100AB8EE401A80EE810A20EE080ABCEE72
:10219000C00A10EE100AC0B2E063FEF778FA9FEDB5
:1021A000C41B53EC112BFEF780F99FEDC31B53ECBE
:1021B000112BFEF774F903E007E029E025E1B6E111
:1021C000FEF772FAE0662670B1E70021B54800F02C
:1021D00097FCE0642868016A21F00A01016228681E
:1021E000016A41F0020101620021AE4800F0BCFA30
:1021F0002770A06850B1E16C8142A1EB000001D8CA
:1022000000F58030E062E06CA06090E7E662FAE7FB
:10221000607800286CD0012889D10421A14800F001
:102220006FFCA0652868016A21F0A001016228689E
:10223000016A016204219B4800F096FAD4E9151066
:102240008842A0EB010001D200F580302062206BB3
:1022500000286ED094ED080AF8EE400A00EE100A4D
:10226000B8EE401A80EE810A20EE080ABCEEC00AE1
:1022700010EE100AC1B292A0216402F053FA206C51
:102280000546FEF704FA9FED8F1B53EC112BFEF76A
:102290000CF99FED8E1B53EC112BFEF700F9FEF7A6
:1022A00003FA206728468B4F8B4D4A2844D24FF0C3
:1022B00001024FF008013846FFF78DF90022102186
:1022C0003846FFF788F9012220213846FFF783F9C5
:1022D000002240213846FFF77EF9206F2968A0F2DE
:1022E000E73040428863296848637CA0216C88E01D
:1022F00004216C4800F004FC60652868016A21F044
:10230000A00101622868016A41F0200101620421F4
:10231000644800F029FA6770E06858B1616D814245
:10232000A1EB000001D800F580302063606DE06013
:10233000FDE668E02663F9E71BD101220821384653
:10234000FFF749F9012210213846FFF744F901222D
:1023500020213846FFF73FF9012240213846FFF798
:102360003AF928688663286846635FA002F0DAF9C4
:1023700049E0002208213846FFF72DF901221021FB
:102380003846FFF728F9002220213846FFF723F9C5
:10239000012240213846FFF71EF9E06B4A280FD290
:1023A000206F2968A0F2E730C0F100008863E16E79
:1023B0002A68A1F2E730C0F1000050634CA020E091
:1023C00013D1206F2968A0F2E730C0F100008863C4
:1023D00029684863A069FEF780F941EC100B47A01B
:1023E00053EC102B02F09EF90DE02968E06E886333
:1023F000216F2A68A1F2E73149425163C0F57A7131
:1024000041A002F08FF9667091E6A07888B30128A8
:102410008ED10821234800F073FB20662868016AEA
:1024200021F4206101622868016A016208211D48C7
:1024300000F09AF9D4E917108842A0EB010001D20C
:1024400000F580306062606B88B194ED090AF8EEA7
:10245000400A00EE100AB8EE401A80EE810A20EE23
:10246000080ABCEEC00A10EE100AC0B26064A67082
:102470005DE6FFE708210B4800F042FBE0652868B5
:10248000016A21F4206101622868016A41F4007147
:1024900001620821034800F067F9A7702069C8B3FA
:1024A000E16D38E0B805002000007A44000000200B
:1024B0007B14AE47E1FA33405C8FC2F528988E401A
:1024C000256400007B14AE47E1FA4340AE47E17A51
:1024D000141AA740000C0240F8050020256420BA19
:1024E000F3CDCB0D0A000000CDA3D6B90D0A000034
:1024F000D7F3D7AA2025640D0A000000C7B0BDF8A5
:1025000020252E32660D0A00D3D2D7AA2025640DCD
:102510000A00000009E08142A1EB000001D800F5AB
:1025200080306063E06D206101E66663FAE70C21AC
:10253000104800F0E5FA60662868016A21F420413D
:1025400001622868016A41F4005101620C210948C6
:1025500000F00AF9E770606950B1616E8142A1EB49
:10256000000001D800F58030A063606E6061DEE598
:10257000A663FAE7B80500202DE9F041044690F87B
:102580003C000D4601283DD0012684F83C60022025
:1025900084F83D00AAB3042A46D02068082A55D002
:1025A000D5E90027E968036A23F480530362D0F871
:1025B0001CC0036A2CF4407C4CEA07274FF6FF7CD2
:1025C00027F470470CEA013139434FF4204723F4D4
:1025D000204307EA02321A43C16102622068C169DE
:1025E00021F44061C1612068C169AA6841EA022101
:1025F000C0F81C1084F83D60002084F83C00BDE861
:10260000F08101E00220FAE7D5E90012EB682068CA
:1026100001F0C0FE2068816921F00C018161206811
:102620008169AA6811430FE0D5E90012EB682068C0
:1026300001F0F0FE2068816921F440618161206829
:102640008169AA6841EA02218161D3E7D5E9002CBA
:102650002F7B016A21F480710162C169036A21F054
:10266000030141EA0C0121F0F00C39074FF4206717
:102670004CEA116123F4206307EA02221A43C16184
:1026800002622068C16921F00C01C1612068C16942
:10269000AA681143ACE710B5040003D094F83D00DC
:1026A00010B107E0012010BD002084F83C00204656
:1026B00000F00CF8022084F83D00211D206801F094
:1026C00035FD012084F83D00002010BD70B586B0B6
:1026D000044614216846FDF71DFE2068B0F1804FC6
:1026E0003AD11E480024016841F0010101600068F0
:1026F00000F00100059019481038016841F001010F
:102700000160016801F001010591016841F00201D9
:1027100001600068022500F0020005902020009072
:10272000CDE901540126CDE9034669460C48FEF780
:1027300071FE40F608400090CDE90154CDE9034612
:1027400069460848FEF766FE002205211C20FEF7B8
:10275000D3FF1C20FEF7C2FF06B070BD4038024018
:10276000000002400004024010B50268044631B186
:10277000042908D008291AD00C2908D11BE0D068F8
:1027800040F0020002E0D06840F00400D060012276
:10279000206801F02FFD2068816801F007010629FB
:1027A00003D0016841F001010160002010BDD06834
:1027B00040F00800EAE7D06840F01000E6E770B5A6
:1027C0000446006801694FF00005C943890715D424
:1027D000C168C943890711D4E91E0161012020772E
:1027E000206880698007204602D0FFF759FC04E08A
:1027F00000F0C0F8204600F055F9257720680169FF
:10280000C943490717D4C168C943490713D46FF0B6
:1028100004010161022020772068806910F4407F64
:10282000204602D0FFF73CFC04E000F0A3F820466D
:1028300000F038F9257720680169C943090716D4E3
:10284000C168C943090712D46FF00801016104206F
:1028500020772068C0698007204602D0FFF720FC5F
:1028600004E000F087F8204600F01CF92577206886
:102870000169C943C90617D4C168C943C90613D43D
:102880006FF010010161082020772068C06910F402
:10289000407F204602D0FFF703FC04E000F06AF816
:1028A000204600F0FFF8257720680169C943C90771
:1028B00008D1C168C943C90704D1891E01612046F6
:1028C00000F014F920680169C943090609D4C168F8
:1028D000C943090605D46FF0800101612046FFF766
:1028E0002BFB20680169C943490609D4C168C94363
:1028F000490605D46FF040010161204600F015F94A
:1029000020680169C94389060BD4C168C943890697
:1029100007D46FF0200101612046BDE87040FFF749
:102920000CBB70BD10B586B0044614216846FDF797
:10293000F1FC0D492068884214D10C48002102683E
:1029400042F001020260006800F001000590C02022
:1029500000900220CDE90101CDE903106946044849
:10296000FEF758FD06B010BD0004004030380240AC
:1029700000000240704770B5044690F83C000D46D8
:1029800001280DD0012684F83C60022084F83D0027
:1029900042B1042A18D0082A2AD00C2A4DD139E095
:1029A000022070BD206801F033FC2068816941F08D
:1029B000080181612068816921F00401816120683A
:1029C00081692A69114311E0206801F051FC2068F7
:1029D000816941F4006181612068816921F480612D
:1029E0008161206881692A6941EA0221816124E0CC
:1029F000206801F073FC2068C16941F00801C161E1
:102A00002068C16921F00401C1612068C1692A6997
:102A1000114311E0206801F095FC2068C16941F480
:102A20000061C1612068C16921F48061C1612068D1
:102A3000C1692A6941EA0221C16184F83D60002030
:102A400084F83C0070BD10B5040003D094F83D003C
:102A500010B107E0012010BD002084F83C002046A2
:102A600000F00CF8022084F83D00211D206801F0E0
:102A70005DFB012084F83D00002010BD08B5006812
:102A80000649884208D10648016841F00201016008
:102A9000006800F00200009008BD00000004004043
:102AA000403802407047000010B50446006801221B
:102AB00001F0A0FB0B492068884202D00A498842F5
:102AC00003D1416C41F4004141642068816801F008
:102AD0000701062903D0016841F0010101600020CF
:102AE00010BD0000000001400004014000680349DF
:102AF000884201D1FEF77ABD704700000014004003
:102B00000246002041B1042909D008290AD00C2925
:102B100001D11068006C70471068406B70471068F6
:102B2000806B70471068C06B70477047704700003B
:102B300070B5026804461068D168536910F00F0F31
:102B400052D003F0010501F490762E435FD0C20706
:102B500005D0CA0503D5E26B42F00102E2634207E9
:102B600005D5DA0703D0E26B42F00202E263820786
:102B700005D5DA0703D0E26B42F00402E2630207F4
:102B800007D501F020022A4303D0E26B42F008028D
:102B9000E263E26B002A33D0800604D5880602D5B2
:102BA000204601F068FC20684069E16BC0F38010AA
:102BB000090700D428B3204601F04FFC2068416982
:102BC00049061AD5416921F040014161606BA0B10D
:102BD0001B490165606BFEF7F9FB002810D0606BA4
:102BE000016DBDE870400847830610D58B060ED5F1
:102BF0002046BDE8704001F03EBC2046FFF796FF3E
:102C000070BD2046FFF792FF0020E06370BD030611
:102C100006D50B0604D52046BDE8704001F00ABD7C
:102C20004006F3D54806F1D5D168204621F0400191
:102C3000D160202184F8391000F067F970BD0000E0
:102C40004B44000870B5040004D094F83900002506
:102C500010B106E0012070BD84F83850204600F025
:102C600023F8242084F839002068C16821F4005139
:102C7000C160204601F04AFC2068016921F49041BE
:102C800001612068416921F02A0141612068C16821
:102C900041F40051C160E563202084F8390084F8D4
:102CA0003A00002070BD0000F0B587B00446142142
:102CB0006846FDF72FFB3D4B276800223C49022464
:102CC000032507263B489F4221D1394B14331F6807
:102CD00047F010071F601B6803F0100305930B6893
:102CE00043F001030B60096802AB01F0010105919B
:102CF0006902CDE9001483E864006946FEF78AFBA7
:102D0000002205212520FEF7F7FC252024E0284B92
:102D1000DFF8A4C01033674522D11F6847F400379D
:102D20001F601B6803F4003305930B6843F0010335
:102D30000B60096802AF01F0010105910C21CDE99A
:102D4000001487E864006946FEF764FB0022052151
:102D50002620FEF7D1FC2620FEF7C0FC07B0F0BD10
:102D600016488742FAD1186840F480201860186825
:102D700000F480200590086840F0080008600868AA
:102D800002AF00F0080005904FF44070CDE9000458
:102D900087E8640069460A48FEF73CFB00220521EB
:102DA0002720FEF7A9FC2720D6E7000000100140ED
:102DB000303802400000024000440040004800401B
:102DC000000C024090F83A30202B22D1F9B1F2B138
:102DD00090F83830012B1CD081628285C285002199
:102DE000C163222280F83A2080F838100168CA684E
:102DF00042F48072CA6001684A6942F001024A6185
:102E00000068C16841F02001C160002070470120C6
:102E100070470220704700000068084988420CD1C2
:102E200007480949074B027808781A54401C087073
:102E3000012203490548FFF7C5BF70470044004021
:102E40002C010020880800202D010020B806002059
:102E50002DE9F843044690F839001F4616460D4602
:102E6000202850D1B5B1AEB194F8380001284AD02D
:102E7000012084F838004FF00008C4F83C8021207D
:102E800084F83900FEF7ACFBA6848146E68484F81A
:102E9000388026E00120BDE8F883E08C401EE08405
:102EA000A0684B46B0F5805F4FF000024FF0800104
:102EB0002046009703D001F0EEFBE8B90DE001F0E9
:102EC000EAFBC8B928882168C0F308004860206977
:102ED00008B16D1C05E0AD1C03E0216815F8010B7D
:102EE0004860E08C0028D8D14B4600224021204683
:102EF000009701F0D0FB08B10320CCE7202084F834
:102F000039000020C7E70220C5E770472DE9F047E8
:102F100001222A4DD70239462846FEF75CFB0120E4
:102F200002F090FD4FF48058002241462846FEF7FB
:102F300052FB012002F086FD214C0020E060394662
:102F40002846FEF743FB0028F9D1B946002647463C
:102F5000012239462846FEF73EFB012002F072FDB1
:102F6000E06800224000E06039462846FEF733FB67
:102F7000012002F067FD49462846FEF727FB10B105
:102F8000E068401CE060761CF6B2182EE0D3012207
:102F900039462846FEF71FFBE06880F40000E06039
:102FA000012002F04FFD002239462846FEF713FBB0
:102FB000012002F047FDE068BDE8F0870000024014
:102FC0001C010020FEE7000070B50D4C0025C4F880
:102FD000A0520C48016821F440210160016841F4CD
:102FE00080210160C4F8A452022004F5287402F084
:102FF00029FD01202060022002F024FD256070BD23
:10300000008040420004024070B50D4C0025C4F819
:10301000A0520C48016821F440210160016841F48C
:10302000802101600126C4F8A462022004F52874FE
:1030300002F008FD2660022002F004FD256070BD4C
:1030400000804042000402402DE9F04781461648C6
:103050000024016821F44021016001680160134EE1
:10306000254627464FF00108C6F8A072022002F05C
:10307000E9FCC6F8A0826006040ED6F8240208B166
:10308000641CE4B2012002F0DDFC6D1CEDB2082DE1
:10309000EAD3B9F1000F04D0FFF796FF2046BDE850
:1030A000F087FFF7B1FFF9E70004024000804042DB
:1030B0002DE9F04106461448016821F440210160E1
:1030C000016841F480210160104C0027C4F8A0720F
:1030D0003D464FF00108F009C4F8A4027006060E40
:1030E000022002F0AFFCC4F8A082022002F0AAFC89
:1030F000C4F8A072022002F0A5FC6D1CEDB2082DF0
:10310000E9D3BDE8F08100000004024000804042A5
:1031100070B50D48016821F440210160016841F457
:1031200080210160094C0120C4F8A402C4F8A00267
:10313000042004F5287402F085FC00256560042055
:1031400002F080FC256070BD000402400080404217
:103150000E4810B5016821F440210160016841F476
:10316000802101600A4C0020C4F8A002C4F8A40227
:10317000042004F5287402F065FC012020606060E2
:10318000BDE81040042002F05DBC000000040240D5
:103190000080404270B512480024016821F44021AB
:1031A0000160016801600F4D0126C5F8A462304638
:1031B00002F048FCC5F8A062012002F043FC07E0E1
:1031C000641CE4B2FA2C03D9FFF7C2FF012070BDE2
:1031D000D5F824020028F3D1C5F8A00270BD000084
:1031E00000040240008040427CB514460D4606466D
:1031F0006B4606223B21682000F05AF800280BD1CC
:10320000BDF8001049BA3180BDF8021049BA2980D2
:10321000BDF8041049BA21807CBD7CB514460D462A
:1032200006466B4606224321682000F041F800283C
:103230000BD1BDF8001049BA3180BDF8021049BA6F
:103240002980BDF8041049BA21807CBD08B56B46C1
:1032500002224121682000F02BF8BDF8000040BA9E
:1032600000B2FDF703FA9FED0D1B53EC112BFDF798
:103270008EF99FED0C1B53EC112BFDF76FF8FDF74A
:103280003FFA00EE100ADFED090A20EE200ABDEE3B
:10329000C00A10EE100A00B208BD000000000000D5
:1032A00000407540A4703D0AD74342400000C84228
:1032B0002DE9F0411D4614460F460646FFF728FF4C
:1032C0007006000EFFF7F4FEFFF764FF20B1FFF772
:1032D0003FFF0120BDE8F0813846FFF7E9FEFFF728
:1032E00059FFFFF715FF012000EB4600C0B2FFF7C2
:1032F000DFFEFFF74FFF09E0012C0DD05FF001006A
:10330000FFF7A2FE641E05F8010BE4B2002CF3D116
:10331000FFF71EFF0020DDE70020F1E72DE9F04177
:103320001E4615460F460446FFF7F2FE6006000EE5
:10333000FFF7BEFEFFF72EFF60B93846FFF7B8FE75
:10334000FFF728FF00240CE0305DFFF7B1FEFFF728
:1033500021FF20B1FFF7FCFE0120BDE8F081641CD5
:10336000E4B2AC42F0D3FFF7F3FE0020F5E7000033
:103370002DE9F74F92468346FCF7E9FF074601988F
:10338000FCF7E5FF06465046FCF7E1FF764C0022CD
:1033900005466280B819618828444FF0100C734BC1
:1033A00003EB0108491C618088F800C01030C11788
:1033B00000EB516121F07F0CA0EB0C0000F0FF0C42
:1033C000C811002802DD00BF4CF0800C618803EBBF
:1033D000010801F10101618088F800C0E7DC618823
:1033E000994618460B4401F1010161801A70618809
:1033F0004FF0040800EB010301F10101618083F843
:10340000008061884FF04D0300EB010C01F10101D8
:1034100061808CF8003061884FF0510300EB010CA3
:1034200001F1010161808CF8003061884FF0540394
:1034300000EB010C01F1010161808CF80030618822
:1034400000EB010C01F1010161808CF80030618812
:1034500000EB010301F10101618083F800806188C4
:103460004FF0C20300EB010C01F1010161808CF807
:103470000030618800EB010301F1010161801A70E5
:1034800061884FF03C0200EB010301F10101618012
:103490001A7061884FEA172200EB010301F1010164
:1034A00061801A70618800EB010201F10101618005
:1034B000177061883A4609EB01005946FCF711FF85
:1034C000608838446080002E15DD6088320A09EB80
:1034D0000003401C60801A70608809EB0002401CE9
:1034E000608016706088324648440199FCF7F9FE06
:1034F000608830446080002D15DD60882A0A09EB61
:103500000003401C60801A70608809EB0002401CB8
:103510006080157060882A4648445146FCF7E1FEF9
:10352000608828446080124F01264FF4007841469D
:103530000F48FCF7EFFE61880C4800F08FF81D255E
:103540003878202802D1787802280BD06420FDF743
:103550004FFF6D1EEDB2F3D23046761EF6B2E6D2C4
:10356000BDE8FE8F0120FBE72E0100208807002028
:10357000880800202DE9F04790468A468146FCF7EE
:10358000E6FE06465046FCF7E2FE324C07460020B7
:103590006080B8F1000F06EB070001D0001D00E0CD
:1035A000801C618830222C4D6B18491C61801A7078
:1035B000C11700EB516121F07F02801AC2B2C8111D
:1035C000002801DD42F08002618805EB010301F172
:1035D000010161801A70EBDC60884FEA162105EB6F
:1035E000000200F1010060801170608805EB0001AD
:1035F00000F1010060800E70608832462844494620
:10360000FCF76FFE608830446080B8F1000F0FD087
:10361000104960884A782B18401C60801A7009781D
:1036200060882A18401C608011702088401C20800F
:1036300060883A4628445146FCF753FE6088384477
:1036400060806188044800F009F86088C0B2BDE875
:10365000F08700002E01002088070020FDF79CBAAB
:103660002DE9F047474C4FF000081746894682463F
:10367000A4F80280FCF76BFE434D0646002F02D0F3
:103680004FF0010001E04FF00000304400F1040071
:1036900002D04FF0820201E04FF0A202618805EBF8
:1036A000010301F10101618083F800204FEAE0711C
:1036B00000EB516121F07F02A0EB0200C2B24FEAA1
:1036C000E110002802DD00BF42F08002618805EBB6
:1036D000010301F1010161801A70E7DC608805EBEC
:1036E000000100F10100608081F8008060884FF0E7
:1036F000010105EB000200F101006080117060889B
:103700004FEA162105EB000200F101006080117004
:10371000608805EB000100F1010060800E70608898
:10372000324628445146FCF7DCFD60883044608016
:103730002FB160882A18401C608082F80090134FD7
:1037400001254FF4007841461048FCF7E3FD6188FD
:103750000D48FFF783FF1D263878902802D178782E
:10376000032809D06420FDF743FE761EF6B2F3D29B
:103770006D1EEDB2E7D215B10120BDE8F087002043
:10378000FBE700002E0100208807002088080020A9
:103790007FB500241A4800940194029417490394B9
:1037A000016001254FF480310561C0E90114047600
:1037B00080F8205013494562C0E90A140226C66108
:1037C000C46080F830404561FDF7BFFC08B1FDF7EB
:1037D0006DFBCDE90045694609480294FDF70CFCF4
:1037E00008B1FDF763FBCDE9005669460448FDF7D3
:1037F00003FC002801D0FDF759FB7FBD00200140EC
:10380000180500200100000F30B5284DABB023ACE7
:1038100095E80F0084E80F00002123A802F046FE7F
:10382000234C1035606395E80F0027AD85E80F0045
:10383000002127A802F03AFE1C49A0631C22203177
:103840006846FCF74EFD0021684602F042FE17492B
:1038500020621C223C3107A8FCF743FD002107A889
:1038600002F037FE114960621C2258310EA8FCF7A5
:1038700038FD00210EA802F02CFE0C49A0621C228B
:10388000743115A8FCF72DFD002115A802F021FECA
:103890000649E0621C2290311CA8FCF722FD0021A1
:1038A0001CA802F016FE20632BB030BDD0710008BA
:1038B0008C0000202DE9F04186B014216846FCF709
:1038C00029FD38480024016841F080010160016849
:1038D00001F080010591016841F004010160016877
:1038E00001F004010591016841F0010101600168E6
:1038F00001F001010591016841F0020101600168D8
:1039000001F002010591016841F0080101600068C1
:10391000254E00F008000590002203213046FDF7F7
:103920005AFE224F002249F210113846FDF753FE8D
:10393000DFF87C80002278214046FDF74CFE032012
:1039400000900125CDE90154694630460394FDF706
:1039500061FD41F210100090CDE9015469463846EE
:103960000394FDF757FDE802CDE9000469463846A7
:103970000294FDF74FFDE803CDE900050220CDE9F3
:10398000024069463846FDF745FD78200090CDE9B4
:103990000154694640460394FDF73CFD06B0BDE87E
:1039A000F081000030380240000802400000024070
:1039B000000C02400F4810B50D4901604FF48271B0
:1039C000416000218160C1604FF400720161C0E973
:1039D0000512C1610162416281620A21C162FEF782
:1039E00075F9002803D0BDE81040FDF75FBA10BD9F
:1039F000003800406005002010B586B00024234840
:103A0000059404940094019402944FF0804103942F
:103A10000160A721C0E90114611EC0E9031484619B
:103A2000FEF739FE08B1FDF741FA049404A91748DE
:103A30000594FEF783FA08B1FDF738FA0120CDE9C5
:103A4000004002940022694610480394FEF794FD5A
:103A500008B1FDF72BFA042269460C48FEF78CFDED
:103A600008B1FDF723FA082269460848FEF784FDED
:103A700008B1FDF71BFA0C2269460448FEF77CFDED
:103A8000002801D0FDF712FA06B010BDB8050020DD
:103A900010B58AB0002407941C2168460894FCF7EE
:103AA00039FC1A4818490160A721C0E9011440F205
:103AB000E731C0E903148461FEF7C5FF08B1FDF7E3
:103AC000F5F9079407A911480894FEF737FA08B1E9
:103AD000FDF7ECF96020CDE900040294002269466C
:103AE0000A480494FEF747FF08B1FDF7DFF9042206
:103AF00069460648FEF73FFF08B1FDF7D7F90348CE
:103B0000FEF710FF0AB010BD00040040F8050020C9
:103B10001CB500240E4800940C4901940160A721B3
:103B2000C0E901144FF6FF718461C160FEF74EFADF
:103B300008B1FDF7BBF90094694605480194FEF70A
:103B4000FDF9002801D0FDF7B1F91CBD00100040BF
:103B5000380600200C4810B50A4901604FF4E131E5
:103B60004160002181600C22C160C0E904128161C2
:103B7000C161FFF767F8002803D0BDE81040FDF7EA
:103B800095B910BD00100140780600200C4810B512
:103B90000A4901604FF4E1314160002181600C224B
:103BA000C160C0E904128161C161FFF74BF80028D0
:103BB00003D0BDE81040FDF779B910BD00440040C6
:103BC000B80600200C4810B50A4901604FF4E131F5
:103BD0004160002181600C22C160C0E90412816152
:103BE000C161FFF72FF8002803D0BDE81040FDF7B2
:103BF0005DB910BD00480040F8060020FEE7FEE772
:103C000070B5002404F1B000C0B2002100F046F904
:103C10000021084600F042F90021102000F03EF992
:103C200000250121002000F039F96D1CEDB2802D36
:103C3000F7D3641CE4B2082CE4D370BD70B5012244
:103C4000464D140221462846FDF7C5FC3220FDF7FB
:103C5000CFFB002221462846FDF7BDFC3220FDF7B0
:103C6000C7FB012221462846FDF7B5FC0021AE2006
:103C700000F014F90021084600F010F9002110208E
:103C800000F00CF90021402000F008F9002181200B
:103C900000F004F90021CF2000F000F90021A1205C
:103CA00000F0FCF80021C82000F0F8F80021A62060
:103CB00000F0F4F80021A82000F0F0F800213F20E7
:103CC00000F0ECF80021D32000F0E8F800210846CD
:103CD00000F0E4F80021D52000F0E0F80021802079
:103CE00000F0DCF80021D92000F0D8F80021F12004
:103CF00000F0D4F80021DA2000F0D0F800211220E2
:103D000000F0CCF80021DB2000F0C8F800214020B2
:103D100000F0C4F80021202000F0C0F800210220AB
:103D200000F0BCF800218D2000F0B8F8002114202C
:103D300000F0B4F80021A42000F0B0F80021A62083
:103D400000F0ACF80021AF2000F0A8F8FFF758FF12
:103D5000BDE870400021084600F002B800000240B3
:103D600010B50446B031C8B2002100F097F8102019
:103D700040EA1410002100F091F804F00F00BDE8B3
:103D8000104040F00100002100F088B82DE9F0411A
:103D9000203A00240E468046D7B27F2803D900205F
:103DA0008E1C8046F6B2224D314613B3FFF7D8FF82
:103DB00004EB07100121285CC043C0B200F06EF88C
:103DC000641CE4B2082CF3D3761CF1B24046FFF732
:103DD000C7FF002404EB071028440121007AC043E8
:103DE000C0B200F05BF8641CE4B2082CF2D3BDE86A
:103DF000F081FFF7B5FF00BF04EB07100121285C3D
:103E000000F04CF8641CE4B2082CF5D3761CF1B237
:103E10004046FFF7A5FF002404EB071028440121CA
:103E2000007A00F03BF8641CE4B2082CF4D3DEE71F
:103E3000E47200082DE9F0478046002608981D46E8
:103E400091468A463446470823E0281B401EC1B2EB
:103E50000A2002F017FBB9FBF0F00A21B0FBF1F2E7
:103E600001FB120026B9691E8C4201DA38B1012625
:103E70003030C2B207FB0480C0B2002304E007FB6D
:103E800004800023C0B220225146FFF77FFF641C4C
:103E9000E4B2AC42D9D3BDE8F087000073B50E4D53
:103EA0000C46002210212846FDF795FB4FF40041F7
:103EB0000CB1012200E000222846FDF78CFB4FF4F4
:103EC0007A73012269460548FDF788FF0122102117
:103ED0002846FDF780FB7CBD000002406005002005
:103EE00038B504461248134B0068B0FBF3F04FF4AA
:103EF0007A73584300906068B0F5827F0DD10B460D
:103F0000009200228021204600F016F870B1606D0A
:103F100040F020006065032038BD009830B1401E9D
:103F2000009020688068C0430006F6D5002038BDA8
:103F3000E000002000366E012DE9F0411D461746D5
:103F40000E460446DDF8188008E0681C06D0FDF730
:103F500047FBA0EB0800A8420BD255B1206880684F
:103F600036EA000030D00020B842EED10020BDE893
:103F7000F0812068416821F0E00141606068B0F59F
:103F8000827F0BD1A068B0F5004F02D0B0F5806FF2
:103F900004D12068016821F040010160A06AB0F5F9
:103FA000005F09D12068016821F400510160206898
:103FB000016841F400510160012084F851000020A3
:103FC00084F850000320D2E70120CDE72DE9F04727
:103FD000044607461078DDF820901E4615468846B0
:103FE000002822D0802C20D8C2B2802A0BD9802C65
:103FF0001BD84B462A4641462046FCF771FF344405
:1040000015F8020FECE70D2A0BD008F0FF01E0B223
:104010004B46FFF7BBFE04EB560400BF15F8010F3B
:10402000DEE7B0443C466D1CF8E7BDE8F0870120B0
:1040300002F030FAFBE7000010B5502080F3118841
:10404000BFF34F8FBFF36F8F02F0C2FF18B1044967
:104050004FF080500860002080F3118810BD0000F0
:1040600004ED00E030B593B030216846FCF752F91A
:1040700014210CA8FCF74EF91D480025016841F0F9
:1040800080510160006800F080501190194801686B
:1040900041F4804101600068022400F480401190E6
:1040A00001200090000401908001CDE9064008AA9B
:1040B0000420A82182E813000B906846FDF758FC05
:1040C00008B172B6FEE70CA90F2081E831004FF469
:1040D000A0500F904FF48050109005210CA8FDF7D0
:1040E0003DFB002801D072B6FEE713B030BD0000E2
:1040F00040380240007000400548016841F47001FA
:10410000016003494FF0006080390860704700008B
:1041100088ED00E00148FEF752BB0000B805002022
:104120000148FEF74CBB000038070020F0B50268DC
:10413000254C264D264E274F274B4FF0804CA04252
:1041400009D0604507D0A84205D0B04203D0B8429C
:1041500001D0984204D122F0700E4A6842EA0E0261
:10416000A0421BD0604519D0A84217D0B04215D04C
:10417000B84213D0984211D0184DA8420ED0184D15
:10418000A8420BD0174DA84208D0174DA84205D021
:10419000164DA84202D0164DA84203D122F4407514
:1041A000CA682A434D6922F080022A4302608A6865
:1041B000C2620A688262A04201D0984201D10969B4
:1041C000016301214161F0BD000001400004004095
:1041D00000080040000C0040000401400040014085
:1041E000004401400048014000180040001C00400D
:1041F0000020004010B501F01F030121046A99401E
:104200008C430462016A9A401143016210BD0000B0
:10421000F0B5026A22F001020262036A4268846910
:10422000124E24F073050C682C4323F002058B68B2
:104230002B430D4DA84201D0B04205D123F0080711
:10424000CB683B4323F00403A84201D0B04205D120
:104250004D6922F4407215438A692A4342608461A1
:10426000496841630362F0BD000001400004014061
:10427000F0B5026A22F010020262026A43688469A1
:104280000D6824F4E64444EA05248D6822F02002F7
:1042900042EA05120F4D104EA84201D0B04206D19D
:1042A000CF6822F0800242EA071222F04002A842C0
:1042B00001D0B04207D14D6923F4406343EA85033E
:1042C0008D6943EA850343608461496881630262C2
:1042D000F0BD00000000014000040140F0B5026A9A
:1042E00022F480720262026A4368C46922F4007296
:1042F00024F073050C68124E2C438D6842EA0522A7
:104300000E4DA84201D0B04206D1CF6822F400621F
:1043100042EA072222F48062A84201D0B04207D1CB
:104320004D6923F4405343EA05138D6943EA0513AD
:104330004360C4614968C1630262F0BD000001408E
:104340000004014030B5026A22F480520262046A1D
:104350004268C3690D6823F4E64343EA05238D6888
:1043600024F4005444EA0534084DA84202D0084D14
:10437000A84204D14D6922F4804242EA851242608B
:10438000C36149680164046230BD0000000001405F
:104390000004014070B5046A24F0010404628469D9
:1043A000056A154EB04214D0B0F1804F11D0134EB3
:1043B000B0420ED0124EB0420BD0124EB04208D0D6
:1043C000114EB04205D0114EB04202D0104EB04254
:1043D00003D124F00304144301E044F001041A075C
:1043E00024F0F00444EA126225F00A0301F00A0105
:1043F00019438261016270BD000001400004004069
:1044000000080040000C0040000401400040014052
:104410000018004030B5046A24F010040462846976
:10442000056A24F4407444EA022222F470444FF6F0
:10443000FF7202EA03322243A02425F0A00304EA1B
:10444000011119438261016230BD10B5806B0021FA
:10445000C185C184FEF76AFB10BD0168CA6822F4F9
:104460009072CA6001684A6922F001024A61202103
:1044700080F83A10704710B590F83A10222901D010
:10448000022010BD8168B1F5805F11D0016900295B
:1044900001681FD0496801F07F03816A4A1C82626B
:1044A0000B70C18D491E0904090CC18518D02BE081
:1044B0000269816A002A0268526805D0D2B20A8075
:1044C000816A491C8162ECE7C2F308020A80816AB2
:1044D000891CF7E74A68816A4B1C83620A70E0E72F
:1044E0000168CA6822F02002CA600168CA6822F422
:1044F0008072CA6001684A6922F001024A61202183
:1045000080F83A10FEF788FC002010BD2DE9F0413C
:10451000044600680169E26821F4405111430161D9
:104520002169A068E2690843616911430843216871
:10453000CA6849F20C639A430243CA602068416921
:10454000A26921F4407111434161E0691927642592
:104550003226B0F5004F354A354920684FF0000843
:1045600006D0884201D0904236D1FDF7C1F935E03E
:10457000884201D0904202D1FDF7BAF901E0FDF77F
:10458000A7F961684A18A0FB070148EB0803FBF78D
:1045900077FE0146B0FBF5F00201B1FBF5F06FF0DC
:1045A0001803584301EB800006EBC000B0FBF5F0A8
:1045B00000F0F80002EB4002B1FBF5F0584301EBCC
:1045C000800006EBC000B0FBF5F000F007002168AA
:1045D00010448860BDE8F081FDF77AF961688B0FBF
:1045E0008A00A0FB0701FBF74BFE0146B0FBF5F08C
:1045F0006FF01802504301EB800006EB0010B0FB97
:10460000F5F000F0F002B1FBF5F002EB0012B1FBA7
:10461000F5F06FF01803584301EB800006EB001033
:10462000B0FBF5F000F00F00D1E7000000140140EE
:104630000010014090F83910212901D00220704764
:104640008168B1F5805F016A0BD04A1C0262026882
:1046500009785160C18C491E0904090CC1840ED02F
:1046600017E009880268C1F3080151600169002957
:10467000016A02D0491C0162ECE7891CFBE7016872
:10468000CA6822F08002CA600068C16841F0400137
:10469000C160002070472DE9F041984617460E464C
:1046A0000446069D1DE0681C1BD02DB1FCF798FF49
:1046B000A0EB0800A84214D92068C16821F4D07189
:1046C000C1602068416921F001014161202084F826
:1046D000390084F83A00002084F838000320BDE84F
:1046E000F0812068006836EA000004D00020B8425B
:1046F000D9D00020F3E70120F9E700000148FEF7D8
:1047000017BA0000780600200148FEF711BA000031
:10471000B80600200148FEF70BBA0000F80600209A
:10472000FEE700000FB4054B10B503A9044A029838
:1047300000F0E2FD10BC5DF814FB0000115C000805
:10474000D00000200FB4084B10B504A902AA0398AA
:1047500000F0D2FD044602A9002001F064F92046D1
:1047600010BC5DF814FB0000275A000803B4019840
:104770004100009850EAC12018BF04204A0D18BF1C
:1047800040F0010040F2FF72B2EB515F08BF40F011
:104790000200012808BF052002B070470907090E72
:1047A000002804DB00F1E02080F80014704700F0DE
:1047B0000F0000F1E02080F8141D70470000000099
:1047C00070B5C1482DED020B2DED0E8B82B0119D01
:1047D00025F000449FEDBEDB9FEDBFEB84423EDB46
:1047E000A4F140511098A1F17F6108430FD0BC485B
:1047F000844202DC28D1109830B39DED100B02B03A
:10480000BDEC0E8B02B0BDE8704000F069BC9DEDC0
:10481000100B53EC1D2B51EC100BFBF746FE9DEDDE
:10482000100B41EC180B53EC1E2B51EC100BFBF74B
:104830003CFE53EC182BFBF791FD41EC100B02B042
:10484000BDEC0E8B02B070BD012000F08DFC02B0FB
:10485000BDEC0E8B02B0BDE8704000F055BCA14825
:104860009FEDA18B844256DA9DED100BB4F1795F78
:104870000ADA51EC100BFFF779FF042808BF00F0AB
:1048800053FC9DED100BDAE753EC102B51EC100BA1
:10489000FBF70BFE41EC190B95480621B0EE490AD7
:1048A000F0EE690A784400F09FFB53EC192B51ECB1
:1048B000100BFBF7FAFD41EC1A0B8E48B0EE490ADB
:1048C000F0EE690A0421784400F08EFB53EC192BBA
:1048D00051EC100BFBF7E9FD53EC182BFBF73EFDF9
:1048E00041EC100B51EC1A0B53EC102BFBF74FFE65
:1048F000CDE900019DED000B53EC102B9DED100B4D
:1049000051EC100BFBF7D1FD9DED101B53EC112B5F
:10491000FBF724FDD2E09DED100B51EC100B01F0E4
:104920006BF953EC182BFBF7BDFD9FED730BCDE935
:10493000000153EC102B9DED000B51EC100BFBF71D
:10494000B4FD41EC190B6E480621B0EE490AF0EEB9
:10495000690A784400F048FB53EC192B51EC100B1A
:10496000FBF7A3FD41EC1B0B6648B0EE490AF0EEE5
:10497000690A0421784400F037FB53EC192B51EC01
:10498000100BFBF792FD53EC182BFBF7E7FC41EC07
:104990001C0B51EC190B01F0F5FF41EC180B5A48B8
:1049A0009FED5BABA04222DC53EC1C2B51EC1B0BAC
:1049B000FBF7EDFDCDE900019DED000B51EC180B6F
:1049C00053EC102BFBF771FD53EC182BFBF7C6FCD7
:1049D00053EC1A2BFBF769FD53EC1D2BFBF75FFD26
:1049E00053EC1E2BFBF75EFD41EC100B5FE08DEDF1
:1049F000008B002000909DED000B51EC180B53EC48
:104A0000102BFBF7ABFC9DED000B41EC1E0B53ECA8
:104A1000102B51EC100BFBF748FD53EC192BFBF757
:104A200041FD53EC1E2BFBF7B2FD41EC190B53EC8F
:104A30001C2B51EC1B0BFBF7AAFD41EC1B0B53ECA1
:104A40001A2B51EC190BFBF730FD53EC1D2BFBF728
:104A500029FD41EC190B53EC1A2B51EC180BFBF709
:104A600024FD53EC1B2BFBF720FD53EC192BFBF71C
:104A700016FD9DED000B41EC180B53EC1A2B51EC7D
:104A8000100BFBF712FD9FED249B53EC192BFBF74A
:104A900009FD41EC100B51EC180B53EC102BFBF7FC
:104AA000FEFC53EC192BFBF7FDFC41EC100B002D29
:104AB0003FF7C5AE51EC100B81F0004141EC100BFB
:104AC000BDE60000000000000000F03F0000000014
:104AD000075C143326A6913C182D4454FB21F93F62
:104AE0000000F07F0000E03F000000000000F03F09
:104AF000903400009E340000000000000000E03F01
:104B0000E2330000F03300003333EF3F00000000D9
:104B10000000000000000040182D4454FB21E93F34
:104B200070B59B482DED020B2DED068B079D25F0F2
:104B30000044A04218DC9748844202DC0AD106985F
:104B400040B19DED060BBDEC068B02B0BDE8704098
:104B500000F0C6BA002DCCBF9FED8F0B9FED900BE0
:104B6000BDEC068B02B070BD8F48A04215DD8F48AA
:104B7000A042D8BF4FF0FF3458DD9DED060B51EC3D
:104B8000100BFFF7F3FD042808BF00F0CDFA9DEDF0
:104B9000060BBDEC068B02B070BD9DED060B51EC13
:104BA000100B01F029F8CDE9060181489FED828BB9
:104BB000A0423CDD8248A0421FDD00249FED82AB75
:104BC0009DED060B53EC1A2B51EC100BFBF7C6FBBB
:104BD0009DED060B41EC190B53EC1A2B51EC100B0D
:104BE000FBF763FC53EC182BFBF759FC53EC192B28
:104BF000FBF7CDFCCDE9060149E09DED060B012454
:104C000053EC182B51EC100BFBF7A8FB9DED060B9A
:104C100041EC190B53EC182B51EC100BFBF73FFC3C
:104C200053EC192BFBF7B3FCCDE906012FE06848E4
:104C3000A0421FDD02249FED689B9DED060B53EC07
:104C4000192B51EC100BFBF730FC53EC182BFBF736
:104C500085FB9DED060B41EC180B53EC192B51EC29
:104C6000100BFBF71CFC53EC182BFBF790FCCDE969
:104C700006010CE09DED060B032453EC102B9FED79
:104C8000580B51EC100BFBF782FCCDE906019DEDB2
:104C9000060B53EC102B51EC100BFBF706FC41EC10
:104CA000180B53EC182BFBF700FC41EC190B4E488A
:104CB0000621B0EE490AF0EE690A784400F094F952
:104CC00053EC182B51EC100BFBF7EFFB41EC180BDE
:104CD0004648B0EE490AF0EE690A0521784400F032
:104CE00083F953EC192B51EC100BFBF7DEFB41EC75
:104CF000100B51EC180B53EC102B002C0EDAFBF7B9
:104D00002DFB9DED061B53EC112BFBF7CEFB9DED10
:104D1000061B53EC112BFBF7C5FB35E0FBF71EFB25
:104D20009DED061B53EC112BFBF7BFFB41EC100B69
:104D30002F48784400EBC40090ED001B51EC100BA1
:104D400053EC112BFBF7ABFB9DED061B53EC112B2A
:104D5000FBF7A5FB41EC100B2648784400EBC400A0
:104D600090ED001B51EC100B53EC112BFBF79AFB51
:104D700041EC100B002DA2BFBDEC068B02B070BD44
:104D800051EC100B81F0004141EC100B01E70000E9
:104D9000000010440000F07F182D4454FB21F93F1F
:104DA000182D4454FB21F9BF0000DC3F0000203ED9
:104DB0000000F33F00000000000000000000F03F92
:104DC0000000E63F0000000000000000000000407E
:104DD0000080034000000000000000000000F83FD9
:104DE000000000000000F0BF32310000E830000099
:104DF000723000002A30000070B56B4E2DED040BB0
:104E00002DED028B82B0DDF81CC0DDE905235C428C
:104E10002CF000411C4341EAD474049D22F0004070
:104E2000B44205D86C422C4340EAD474B4420BD946
:104E30009DED061B9DED040B02B0BDEC028B04B092
:104E4000BDE8704000F056B9ACF14054A4F17F6465
:104E50001C430BD0022404EAAC7444EAD274054328
:104E60009FED538B9FED542B07D015E09DED040B68
:104E700051EC100B00F0DCFD42E0002C11BF012CC6
:104E80009DED040B02B0BDEC028B04BF04B070BDFD
:104E9000022C38D0032C3BD00B439FED491B9FEDD8
:104EA0004A0B0AD0B14218D1B04209D121F0804159
:104EB00020F08040079105900FE0002A15DA10E0FD
:104EC000434B7B44002C08BF93ED000B0DD0012C0D
:104ED00010D0022C17D0032C1AD0B0421DD1002ABA
:104EE00003DAB0EE410AF0EE610A02B0BDEC028BCB
:104EF00004B070BD93ED000B51EC100B81F000413C
:104F000041EC100BF1E7B0EE480AF0EE680AECE76E
:104F1000B0EE420AF0EE620AE7E7401A00153C28BC
:104F2000C8BF8DED000B19DCBCF1000FBEBF10F146
:104F30003C0F9FED290B8DED000B0FDB9DED060B5C
:104F400053EC102B9DED040B51EC100BFBF71FFBEA
:104F500000F052FE00F06CFDCDE90001002C08BF0E
:104F60009DED000BC1D0012C10D0022C9FED1C0B2D
:104F700053EC102B9DED000B51EC100B0DD0FBF7FB
:104F80008EFA53EC182BFBF78AFAB9E7019880F0F8
:104F9000004001909DED000BA7E7FBF780FA53EC72
:104FA000182BFBF77FFAABE70000F07F0000000052
:104FB000182D4454FB210940182D4454FB2109C0ED
:104FC000182D4454FB21F9BF182D4454FB21F93FFF
:104FD0005A2F000000000000000000000000000048
:104FE000075C143326A6A13C70B504462DED028B58
:104FF0004D1E00EBC500B0EE408AF0EE608A90EDE9
:10500000000B35F0060017D053EC182B51EC100BA9
:10501000FBF74BFA41EC100B6D1E04EBC50090ED55
:10502000001B51EC100B53EC112BFBF797F941ECE3
:10503000100B35F00600E7D1022D36D0042D1CD020
:10504000062D1CBFBDEC028B70BD53EC182B51EC30
:10505000100BFBF72AFA94ED0A1B53EC112BFBF70C
:105060007DF953EC182BFBF720FA94ED081B53EC59
:10507000112BFBF773F941EC100B53EC182B51EC8F
:10508000100BFBF712FA94ED061B53EC112BFBF7F8
:1050900065F953EC182BFBF708FA94ED040B53EC6D
:1050A000102BFBF75BF941EC100B53EC182B51EC78
:1050B000100BFBF7FAF994ED021B53EC112BFBF7E5
:1050C0004DF953EC182BFBF7F0F994ED001B53EC62
:1050D000112BFBF743F9BDEC028B41EC100B70BDBB
:1050E00010B553EC102B51EC100BFBF737F941ECDA
:1050F000100B10BD10B553EC112B51EC100BFBF73E
:105100002DF941EC100B10BD9FED050B10B553ECC4
:10511000102B51EC100BFBF73AFA41EC100B10BDC1
:1051200000000000000000009FED050B10B553ECDF
:10513000102B51EC100BFBF7B8F941EC100B10BD24
:10514000000000000000001002E008C8121F08C1A3
:10515000002AFAD170477047002001E001C1121FF8
:10516000002AFBD170470000014908607047000029
:10517000940100202DE9FF5F82B00021DDE90430B9
:10518000020DDDF840B0034318D044F61050A2F2EF
:10519000FF3242431514119801281FD0A5EB0B00D4
:1051A000401C5FEA000A4FF000064E4FDFF83891CE
:1051B000B046504615D5CAF1000413E011980124F9
:1051C0004AA3012801D16FEA0B010298119AC0E9A4
:1051D0000031C0E9024206B0BDE8F09FCBF100000B
:1051E000DFE704460021404A491842EB0450CDE96C
:1051F000001012E0E00707D032463B4640464946E1
:10520000FBF753F98046894632463B46104619461D
:10521000FBF74BF906460F466410002CEAD1DDE996
:105220000401DDE90023BAF1000F06DAFBF73DF9CE
:1052300042464B46FBF739F905E0FBF7A8F9424631
:105240004B46FBF7A4F904460E460022284BFBF719
:1052500067FB03D84FF0FF30014607E00022254BE3
:1052600020463146FBF77AF8FBF741FB102409E0B2
:10527000002C0ADB0A220023FBF702F8039B3032E2
:105280001A55641E50EA0102F2D1641C039AC4F15B
:1052900011031444119A012A03D0012208430DD1AD
:1052A0000AE0084304D000204FF0110B119072E780
:1052B000A3EB0B056D1E0DE05B4504DD4FF0000216
:1052C00005F1010504E003DA4FF00002A5F1010544
:1052D000002AECD002981199C0E90231C0E90045DA
:1052E00079E70000000014400000F03F30000000AB
:1052F0000000F0430000E03F2DE9FF4F95B09B46D2
:105300008946064600250FE2252877D10024274646
:10531000F84A0121059400E0044316F8013F203BC0
:1053200001FA03F01042F7D130782A2811D06FF03B
:105330002F033078A0F13002092A16D8059A44F0DC
:10534000020402EB820203EB42021044761C059039
:10535000EFE759F8042B0592002A03DA504244F48F
:105360000054059044F00204761C30782E2816D1A3
:1053700016F8010F44F004042A280DD06FF02F0214
:105380003078A0F13003092B09D807EB870302EB33
:105390004303C718761CF3E759F8047B761C307872
:1053A0006C280FD006DC4C2817D068280DD06A284E
:1053B00014D104E0742810D07A280FD10DE044F401
:1053C00000140AE044F4801401E044F440147278BC
:1053D000824202D104F58014761C761C307866284F
:1053E0000BD013DC582877D009DC002875D045286D
:1053F000F6D04628F4D047281AD19DE118E063285A
:1054000035D0642879D0652812D195E1702873D001
:1054100008DC6728F1D069286FD06E280DD06F287E
:1054200006D1B5E073282CD0752875D0782874D0B3
:105430005A46179990476D1C75E1C4F30250022833
:1054400009D003280DD0D9F8001004280DD00D6024
:1054500009F1040967E1D9F80010EA17C1E900521F
:10546000F6E7D9F800100D80F2E70D70F0E719F8B3
:10547000041B8DF8001000208DF80100EA46012081
:1054800003E059F804AB4FF0FF3061074FF0000123
:1054900002D40DE008F101018846B9420FDA8045D7
:1054A000F8DB1AF808100029F4D108E008F101012E
:1054B00088468142FADB1AF808100029F6D10598CF
:1054C0005B46A0EB080721463846179A00F094FA8D
:1054D000284400EB080507E04DE029E10DE01AF84B
:1054E000010B5A4617999047B8F10108F7D25B466D
:1054F00021463846179A13E142E00A220092C4F38B
:1055000002524FF0000A022A08D059F804CB032AAD
:105510004FEAEC710AD00DE029E02AE009F1070119
:1055200021F00702F2E802C1914609E00FFA8CFC73
:105530004FEAEC71042A03D14FFA8CFC4FEAEC716C
:10554000002907DA0A460021DCF1000C61EB0201B8
:105550002D2202E0220504D52B228DF80420012201
:1055600003E0E20701D02022F7E7904659E00A2144
:1055700002E010220DE010214FF0000A00910BE034
:1055800010224FF0000A44F004040827009203E0C0
:1055900008224FF0000A0092C4F30252022A05D0FA
:1055A00059F804CB0021032A08D009E009F10701CA
:1055B00021F00702F2E802C1914605E01FFA8CFCD7
:1055C000042A01D10CF0FF0C4FF00008220728D567
:1055D000702806D0009B83F0100353EA0A0305D01D
:1055E0000EE040228DF80420012208E05CEA01026E
:1055F00006D030228DF804208DF805000222904656
:10560000009B83F0080353EA0A030AD15CEA010213
:1056100001D1620705D530228DF804204FF0010832
:105620007F1E582804D034A003900EA802900DE0ED
:1056300036A0F9E753466046009AFAF721FE844601
:105640000398825C0298401E029002705CEA01009E
:10565000F0D1029806A9081A00F1200A600702D5C5
:1056600024F4803400E00127574502DDA7EB0A004F
:1056700000E0002000EB0A01009005984144401A28
:105680000590E00306D45B462146179A059800F082
:10569000B3F90544002706E001A85A46C05D1799F2
:1056A00090476D1C7F1C4745F6DBE0030CD55B463D
:1056B0002146179A059800F09FF9054404E0302030
:1056C0005A46179990476D1C0099481E0090002972
:1056D000F5DC08E0029802995A460078491C0291CC
:1056E000179990476D1CBAF10001AAF1010AF1DC8B
:1056F00065E1000009280100303132333435363796
:10570000383961626364656600000000303132330D
:1057100034353637383941424344454600000000AD
:1057200000F058F90544761C307800287FF4ECAD81
:1057300019B02846BDE8F08F620700D4062709F1AA
:10574000070222F0070CFCE80223E14603F00048C0
:105750005FEA080C02D00FF2702C0DE05FEA045CE7
:1057600002D50FF2682C07E05FEAC47C02D00FF28A
:10577000602C01E0AFF2700C4FF0FF3823F00043D3
:10578000CDF850C065280CD006DC452809D0462845
:105790001DD047283DD13DE0662818D067287ED12E
:1057A00038E00021112F01DB112000E0781CCDE949
:1057B000000106A90EA8FFF7DDFCDDE90F010E9A36
:1057C00003910021009207F1010A04914DE04FF08E
:1057D00000400097CDE9011006A90EA8FFF7CAFC0A
:1057E000DDE90F0203920E9B11990022DDF80CA057
:1057F0000093049211B9791C00EB010AB7EB0A007F
:1058000004D4C0F1FF3007F1010A0490AAEB0700AD
:10581000019044E0012F00DA01270021112F01DD62
:10582000112000E03846CDE9000106A90EA8FFF7D7
:10583000A1FCDDE90F010E9A039100210491009271
:10584000BA4621070CD40399514500DA8A46BAF1C9
:10585000010F05DD009AAAF10101515C302908D041
:10586000B84202DA10F1040F06DA0121CDE9011085
:1058700015E0AAF10101E9E7002805DC04990144DB
:105880000491AAEB000102E0411C514500DD8A466B
:105890000499401A401C01904FF0004002902007EC
:1058A00004D40198504501DBCDF8048000208DF828
:1058B0004F0002980DF14F07B0F1004F25D02B207B
:1058C0000E9002984FF0020800280CDA4042029035
:1058D0002D200E9007E00A210298FAF72DFF3031B3
:1058E000029007F8011DB8F10001A8F10108F2DCEF
:1058F00002980028EFD1791E0E980870307800F0D9
:10590000200040F0450007F8020D12A8C01B00F16E
:1059100007081498007800B1012000EB0A010198F3
:1059200001EBE07105984144401A401E0590E003E8
:1059300006D45B462146179A059800F05DF80544A9
:105940001498007818B15A46179990476D1CE003D7
:1059500024D55B462146179A059800F04DF805447A
:105960001CE00498002807DBDDE90301884203DD21
:105970000098405C179901E0179930205A469047EB
:10598000049805F10105401C04900198401E019007
:1059900004D12E205A46179990476D1CBAF1000188
:1059A000AAF1010ADDDC05E017F8010B5A46179948
:1059B00090476D1CB8F10001A8F10108F4DC5B46CA
:1059C0002146179A0598ABE62D0000002B00000039
:1059D000200000002DE9F041044600251E46174630
:1059E000880404D405E039462020B0476D1C641EAD
:1059F000F9D52846BDE8F0812DE9F041044600259F
:105A00001E469046C80301D5302700E020278804B1
:105A100004D505E041463846B0476D1C641EF9D5F3
:105A20002846BDE8F0810A68531C0B60107070476F
:105A300010B541EC100BFFF773F851EC100B10BDD3
:105A40007047000070B54FF6FA710A4D081A84B21B
:105A5000286844622846FCF7E9FA4FF6F97128688D
:105A600001E0426A94B28C42FBD3BDE87040014829
:105A7000FCF7FFBA3806002008B50024094E1025AF
:105A8000102309A2022100200094FEF79FFA00953E
:105A9000042302214C207268FEF7CCF9642000F048
:105AA000F9FCEDE78C00002041746D3A20200000E5
:105AB0002DE9FF4F89B01746DDE9165200244D4EFF
:105AC000884681462C80A246B07B694600F0DAFA0F
:105AD0004FF0FF3B18B158460DB0BDE8F08F70890C
