:020000040800F2
:100000005024002099040008090300080B0300088D
:100010000D0300080F030008110300080000000092
:1000200000000000000000000000000013030008B2
:10003000150300080000000017030008190300085A
:10004000B3040008B3040008B3040008B3040008B4
:10005000B3040008B3040008B3040008B3040008A4
:10006000B3040008B3040008B3040008B304000894
:10007000B3040008B3040008B3040008B304000884
:10008000B3040008B3040008B3040008B304000874
:10009000B3040008B3040008B3040008B304000864
:1000A000B3040008112D0008B3040008B3040008CD
:1000B000B3040008B3040008B3040008B304000844
:1000C000B3040008B3040008B3040008B304000834
:1000D000B3040008B3040008B3040008B304000824
:1000E000B3040008B3040008B3040008B304000814
:1000F000B3040008B3040008B3040008B304000804
:10010000B3040008B3040008B3040008B3040008F3
:10011000B3040008B3040008B3040008B3040008E3
:10012000B3040008B3040008B3040008B3040008D3
:10013000B3040008B3040008B3040008B3040008C3
:10014000B3040008B3040008B3040008B3040008B3
:10015000B3040008B3040008B3040008B3040008A3
:10016000B3040008B3040008B3040008B304000893
:10017000B3040008B3040008B3040008B304000883
:10018000B3040008B304000800F002F800F060F8BF
:100190000AA090E8000C82448344AAF10107DA45E2
:1001A00001D100F055F8AFF2090EBAE80F0013F0D4
:1001B000010F18BFFB1A43F001031847E048000085
:1001C0000049000010F8013B0A4413F0030408BF83
:1001D00010F8014B1D1108BF10F8015B641E05D01B
:1001E00010F8016B641E01F8016BF9D1002D15D0D8
:1001F00010F8014B03F00C030C2BA1EB04040ABF15
:1002000010F8013BA4EB8314A4EB032405F10103D4
:1002100014F8016B5B1E01F8016BF9D5914238BFF0
:1002200010F8013BD1D3704700230024002500269D
:10023000103A28BF78C1FBD8520728BF30C148BF49
:100240000B6070471FB503F0F9FB1FBD10B510BD63
:1002500003F0E9F81146FFF7F5FF00F009F803F0A5
:1002600007F903B4FFF7F2FF03BC03F00FF9000036
:1002700042F21075284601F023FE02F0E9FF1E4C01
:100280000320207002F098FA2178012904D0022975
:100290000AD0032908D00CE01420208217486421DA
:1002A000B0FBF1F0606104E016489FED150A80EDA7
:1002B000000A284601F004FE02F0B8FA01F038FE08
:1002C00001F018FE284601F0FBFD01F0E1FC284694
:1002D00001F0F6FD02F075FE284601F0F1FD01F097
:1002E0007FFD284601F0ECFD02F091F902F0DBFB06
:1002F00002F0D3FAFAE7000000000020400D0300EE
:1003000000009643341300207047FEE7FEE7FEE747
:10031000FEE7704770477047704700000CB500203B
:100320005449019000900A6842F480320A604FF408
:10033000A0430A6802F400320092019A521C019212
:10034000009A12B9019A9A42F3D10A68920334D5FD
:100350000120009047484030026842F0805202601D
:100360004548026842F44042026042480830026850
:100370000260026842F400420260026842F4A05245
:100380000260031F3D4A1A600A6842F080720A60E8
:100390000A689201FCD53A4A40F205711160016881
:1003A00021F003010160016841F002010160016870
:1003B000C1F381010229FAD10CBD00900CBD314876
:1003C00010B5016841F4700101602A48016841F0EC
:1003D00001010160274A00210832116002682A4B9E
:1003E0001A400260031D294A1A60026822F4802222
:1003F000026020480C300160FFF790FF21494FF068
:1004000000608039086010BD70B51A4C083420684F
:100410001F4A10F00C011F4804D05510042903D0C6
:10042000082903D002601BE0056019E01149091D8D
:100430000B68C3F380560B6803F03F0316B1B5FB9E
:10044000F3F201E0B2FBF3F20B680968C3F388131F
:100450005A43C1F30141491C4900B2FBF1F101606B
:1004600021680C4AC1F30311121D515C0268CA4095
:10047000026070BD00380240007000400854400720
:10048000003C024088ED00E0FFFFF6FE1030002443
:100490000024F4004800002009488047094800472C
:1004A000FEE7FEE7FEE7FEE7FEE7FEE7FEE7FEE724
:1004B000FEE7FEE704480549054A064B7047000081
:1004C000BF03000889010008501E002050240020AE
:1004D0005020002050200020284908432849086067
:1004E000704730B50F22C47801780123FCB1244C49
:1004F000246801F1E02104F4E064C4F5E064C4F38D
:100500000724C4F10405E2404478AC4085781540E6
:1005100025432A0181F80024007800F01F018B4058
:100520004009800000F1E020C0F8003130BD01F04A
:100530001F0083404809800000F1E020C0F88031AE
:1005400030BD104A114001430D48001F0160704743
:100550000B4A121D0029116801D0014300E08143BC
:10056000116070474FF0E0210428086903D020F0A3
:1005700004000861704740F00400FAE70000FA0543
:100580000CED00E080FFFF1F10B501210C0220469A
:1005900000F013FE2046BDE81040002100F00DBE23
:1005A00030B54268C84B0C791A400B6842EA042205
:1005B000134343608268C54B4D791A40D1E9034328
:1005C00023438C6844EA4504234313438360C26A8F
:1005D000097D22F47002491EC9B242EA0151C1628A
:1005E00030BD00210160017141718160C160016114
:1005F000012101757047B64B10B5D3F80423B549F6
:100600000A40D0E900142143D0E9024004432143C9
:100610001143C3F8041310BD0021016041608160E3
:10062000C16070470029816802D041F0010101E0FA
:1006300021F00101816070474268A74B1A400A43CC
:1006400042607047416282627047426822F01F0236
:100650000A43426070479E490028D1F8040302D043
:1006600040F4000001E020F40000C1F804037047EA
:1006700097490028D1F8040302D040F4800001E03B
:1006800020F48000C1F80403704770B507240929DD
:100690000AD9C568A1F10A0606EB4606B440A5438F
:1006A000B3401D43C56007E0056901EB4106B44056
:1006B000A543B3401D4305611F23072A09D2446B9C
:1006C000521E02EB820293409C4391400C434463D0
:1006D00070BD0D2A09D2046BD21F02EB8202934037
:1006E0009C4391400C43046370BDC46A0D3A02EB15
:1006F000820293409C4391400C43C46270BD816868
:1007000041F08041816070470146002089684900BE
:1007100000D5012070470029816802D041F4806132
:1007200001E021F48061816070470029816802D076
:1007300041F0020101E021F002018160704742684E
:10074000491E22F4604242EA41314160704700296B
:10075000416802D041F4006101E021F40061416090
:100760007047C06C80B270475948D0F80803704792
:100770000029816802D041F4807101E021F4807188
:10078000816070470029816802D041F4007101E066
:1007900021F40071816070474D490028D1F80403AD
:1007A00002D040F4005001E020F40050C1F80403EE
:1007B000704770B5072409290AD9C568A1F10A064E
:1007C00006EB4606B440A543B3401D43C56007E0B1
:1007D000056901EB4106B440A543B3401D430561E3
:1007E000836BC3F30154121B921C02EB82041F2281
:1007F000A2409343A1400B43836370BD826B491EAB
:1008000022F4401242EA01518163704708B508445E
:100810000090026008BD826822F470220A43826060
:100820007047826822F440120A43826070478168F0
:1008300041F48001816070470146002089684902C7
:1008400000D5012070470029416802D041F4806141
:1008500001E021F48061416070470029416802D0C5
:1008600041F4805101E021F480514160704708B5A6
:10087000084428300090006880B208BD01238B40F6
:1008800041680AB1194300E099434160704702464C
:10089000002012680A4200D001207047C94301605D
:1008A000704730B50246002053680C0A01258D4080
:1008B00011682B40214202D0002B00D0012030BD16
:1008C0006FEA112101607047FFFEFFFCFDF7FFC0DA
:1008D00000200140E030FCFFFFFD3FFF2DE9F04329
:1008E000016821F001010160002101604160816027
:1008F000C160016121214161B849B84A3D251039E3
:10090000904202D18D60BDE8F083B44A4FF4746622
:100910001832904201D18E60F5E7B04A4FF4741757
:100920003032904201D18F60EDE7AC4A4FF0746CE9
:100930004832904202D1C1F808C0E4E7A74BA84A68
:100940006033984201D1CA60DDE7A44CA54B7834EE
:10095000A04201D1CB60D6E7DFF88082A24C08F13B
:100960009008404501D1CC60CDE7DFF870824FF0B0
:100970003D5908F1A808404502D1C1F80C90C2E7E2
:100980009A49DFF868820839404501D10D60BAE71D
:10099000964D1835A84201D10E60B4E7934D30351D
:1009A000A84201D10F60AEE7904D4835A84202D170
:1009B000C1F800C0A7E78D4D8C496035091FA842DA
:1009C00001D10A609FE7894A7832904201D10B60D9
:1009D00099E7864A9032904201D10C6093E7834AAE
:1009E000A83290428FD1C1F800908CE730B50368EF
:1009F0007F4ACC6813400A682243D1E905452C435D
:100A00002243CC6922430C6A22434C6A22438C6AFB
:100A100022434C6B22438C6B22431A43026042698F
:100A200022F00703D1E90B2422431A4342610A69E9
:100A300042604A6882608968C16030BD00210160FF
:100A400041608160C160016141618161C161016298
:100A500041628162C1620163416381637047002921
:100A6000016802D041F0010101E021F001010160C3
:100A700070470029016802D041F4004101E021F4EF
:100A80000041016070470029016802D041F0200157
:100A900001E021F02001016070474160704740682B
:100AA00080B27047002A026802D042F4002201E0BE
:100AB00022F400220260016170470029016802D01F
:100AC00041F4802101E021F48021016070470AB1E6
:100AD00001617047C1607047014600200968090341
:100AE00000D501207047014600200968C90700D0E1
:100AF00001207047406900F03800704702463B4BC8
:100B000000209A4202D2354A103A01E0374A103AA0
:100B10008B0001D5526800E01268364B1A400A4239
:100B200000D001207047314A904202D22B48103841
:100B300001E02E4810382F4A8B0001EA020101D54E
:100B4000C1607047816070470B0607D5436912B1D9
:100B500043F0800301E023F080034361802908D043
:100B6000002A026801F01E0101D00A4300E08A4316
:100B70000260704730B51D4A0024904202D2174BE4
:100B8000103B01E0194B103B1B4A114205D01E22BD
:100B900002EAD12502682A4002E0406900F08002A2
:100BA000880001D5586800E01868124B18400842C8
:100BB00001D002B10124204630BD0C4A904202D23D
:100BC0000648103801E0094810380A4A8B0001EA4B
:100BD000020101D5C160704781607047106002401A
:100BE0003D000020400F002000003D201064024026
:100BF0003F801CF07D0F7D0F3C0F3C0F824910B5EC
:100C0000884206D10121084600F0AFFA00210120F8
:100C10005BE07E49884206D10121022000F0A5FA5E
:100C20000021022051E07A49884206D101210420A6
:100C300000F09BFA0021042047E07649884206D163
:100C40000121082000F091FA002108203DE07249BE
:100C5000884206D10121102000F087FA00211020DF
:100C600033E06E49884206D10121202000F07DFA50
:100C70000021202029E06A49884206D10121402034
:100C800000F073FA002140201FE06649884206D137
:100C90000121802000F069FA0021802015E06249DE
:100CA000884202D1012184150AE06049884202D1BC
:100CB0000121441504E05E4988420AD1012104154E
:100CC000204600F052FA00212046BDE8104000F016
:100CD0004CBA10BDF0B50023012403270D6804FAB7
:100CE00003F21540954242D1D0F800C05E0007FAE9
:100CF00006F52CEA050CC0F800C091F804C0D0F845
:100D000000E00CFA06FC4CEA0E0CC0F800C091F8AA
:100D100004C0BCF1010F02D0BCF1020F1FD1D0F80A
:100D200008C02CEA050CC0F808C091F805C0D0F83E
:100D300008E00CFA06FC4CEA0E0CC0F808C0D0F82B
:100D400004C02CEA020CC0F804C0426891F806C046
:100D50000CFA03FC1FFA8CFC42EA0C024260C268E7
:100D6000AA43C260CA79C568B2402A43C2605B1C0C
:100D7000102BB3D3F0BD4FF6FF710160002101715C
:100D800041718171C171704708B541F480320092A0
:100D9000C261C1610099C161C169C069009008BDAB
:100DA0000246002012690A4200D001207047006903
:100DB00080B270470246002052690A4200D00120EA
:100DC0007047406980B27047018370474183704724
:100DD0000AB101837047418370474161704742699E
:100DE0004A40426170474B07DB0E9A40C90810B574
:100DF00000EB8100016A0F249C40A1430162016A5B
:100E00001143016210BD00000000024000040240D6
:100E100000080240000C0240001002400014024092
:100E200000180240001C0240002002400024024042
:100E300000280240F848016841F001010160F64ACB
:100E40000021083211600268F44B1A400260031D51
:100E5000F34A1A60F04BF34A84331A60F04A103AAE
:100E60001B1D1A60026822F480220260EA480C30DE
:100E70000160181D01607047E7490022891C0A7053
:100E80000870704702460020510901290CD0022940
:100E90000CD0E1497431096802F01F02012393402C
:100EA0000B4200D001207047DB49F4E7DA4970318A
:100EB000F1E718B500204FF4A04400903120FFF76F
:100EC000E1FF0099491C0091A14201D00028F5D012
:100ED0003120FFF7D7FF002800D0012018BDCE49F0
:100EE0000A6822F0F80242EAC00008607047CE4962
:100EF00008607047C849002270310A700A700128E2
:100F000002D0042801D1052008707047C749086045
:100F1000704741EA82115A0810B5C54B029C03EB99
:100F200002421143014341EA0460BB49091D0860C4
:100F300010BDBD4908667047800140EA0170B6499E
:100F4000843108607047B84988667047800140EA7C
:100F50000160B14940EA0270883108607047B249C7
:100F600008677047B049C8647047AB4A08321368D5
:100F7000084323F0EC63184310607047A64A083218
:100F80001368084323F07843184310607047A24A5F
:100F90000832116821F003010143116070479E4837
:100FA0000830006800F00C0070479B4A0832116856
:100FB00021F0F001014311607047974A083211682F
:100FC00021F4E051014311607047934908310A68E8
:100FD00022F4604242EAC0000860704770B58E4A51
:100FE00008321168934C11F00C0104D066100429EA
:100FF00003D0082903D004601BE0066019E086498D
:10100000091D0B68C3F380550B6803F03F0315B14E
:10101000B6FBF3F301E0B4FBF3F30C680968C4F327
:1010200088146343C1F30141491C4900B3FBF1F14A
:10103000016011680F2303EA11117F4B5C5C0168AA
:10104000E14041601468072505EA94241C5D21FAFB
:1010500004F48460126805EA52329A5CD140C1609F
:1010600070BDC0F30121032908D16B4A0832116811
:1010700021F4F81371490140194311606649703138
:101080000A68C0F30B0002430A607047674944399D
:101090000860704765494039086070476249C1F887
:1010A0005C0170475C4A8C321168401E21F01F01C0
:1010B00001431160704758498C310A686FF0FF0393
:1010C00022F4F85203EB0020104308607047524AA4
:1010D0008C32116821F440110143116070474E4A6F
:1010E0008C32116821F440010143116070474A4A73
:1010F0008C32116821F4403101431160704750492E
:10110000C1F8E0017047444A30320029116801D02B
:10111000014300E08143116070473F4A34320029A7
:10112000116801D0014300E08143116070473A4AE1
:1011300038320029116801D0014300E08143116079
:101140007047354A40320029116801D0014300E060
:10115000814311607047304A44320029116801D040
:10116000014300E08143116070472B4A103200298F
:10117000116801D0014300E0814311607047264AA5
:1011800014320029116801D0014300E0814311604D
:101190007047214A18320029116801D0014300E04C
:1011A0008143116070471C4A20320029116801D028
:1011B000014300E0814311607047174A243200293F
:1011C000116801D0014300E0814311607047124A69
:1011D00050320029116801D0014300E081431160C1
:1011E00070470D4A54320029116801D0014300E0D4
:1011F000814311607047084A58320029116801D0B4
:10120000014300E0814311607047034A60320029C6
:10121000116817D0014316E000380240FFFFF6EADC
:10122000103000240030002000004742800E47426A
:101230000000FFFF0024F4005C000020FFFCFF0F13
:1012400000104742814311607047194A0029116814
:1012500001D0014300E081431160704714490C3113
:101260000128086803D020F008000860704740F0AB
:101270000800FAE70E4A573A0029117801D00143D5
:1012800000E081431170704709481030016841F057
:101290008071016070470146054A0020583A126883
:1012A0000A4200D001207047014956390870704742
:1012B00064380240FE4910B5884206D10121084633
:1012C000FFF77BFF002101205BE0B0F1804F09D0E8
:1012D000F84988420DD101210220FFF764FF002167
:1012E000022070E001210846FFF75DFF0021012088
:1012F00069E0F149884206D101210420FFF753FF3C
:10130000002104205FE0ED49884206D10121082038
:10131000FFF749FF0021082055E0E949884206D13E
:1013200001211020FFF73FFF002110204BE0E5498D
:10133000884206D101212020FFF735FF002120201F
:1013400041E0E149884206D101210220FFF735FF43
:101350000021022015E0DD49884202D101210C0460
:101360000AE0DB49884202D101214C0404E0D9495A
:1013700088420AD101218C042046FFF71EFF00217C
:101380002046BDE81040FFF718BFD349884206D178
:1013900001214020FFF707FF0021402013E0CF4943
:1013A000884206D101218020FFF7FDFE0021802028
:1013B00009E0CB4988420AD1841501212046FFF774
:1013C000F2FE00212046BDE81040FFF7ECBE10BD44
:1013D00030B50288B64BBC4C98420DD0A0420BD021
:1013E000B0F1804F08D0B34DA84205D0B24DA8420D
:1013F00002D0B24DA84203D122F070054A882A4398
:10140000AF4DA84206D0AF4DA84203D022F440759C
:101410000A892A4302804A68C2620A880285984281
:1014200001D0A04201D1897A01860121818230BD9B
:101430004FF0FF31416000210180018141808172C4
:101440007047018582827047028822F070020A4349
:101450000280704741627047C1627047406A7047BE
:10146000008D70470029018802D041F0020101E09F
:1014700021F00201018070470029018802D041F06B
:10148000040101E021F00401018070470029018876
:1014900002D041F0800101E021F08001018070471D
:1014A000028822F00802028002880A430280704704
:1014B000028822F44072028002880A430280704748
:1014C0000029018802D041F0010101E021F0010171
:1014D0000180704730B5028C22F001020284028C38
:1014E0008388048B22F0020224F073050C882C43BD
:1014F0008D8915434A882A436D4DA84202D0724D0A
:10150000A8420DD122F00805CA8923F440732A436A
:1015100022F004058A882A430D8A1D434B8A2B43F7
:101520008380048389684163028430BD70B5028C76
:1015300022F010020284028C8488038B0D8823F42D
:10154000E6464FF6FF7303EA052535438E8922F000
:10155000200203EA061616434A8803EA02123243BF
:10156000534EB04202D0584EB04215D122F0800600
:10157000CA8924F4406403EA0212324322F040068E
:101580008A8803EA021232430E8A03EA8606264359
:101590004C8A03EA84043443848005838968816328
:1015A000028470BD70B5028C22F480720284028CB9
:1015B0008488838B0D8823F073031D4322F400730A
:1015C0008E894FF6FF7202EA06261E434B8802EA16
:1015D00003233343364EB04202D03B4EB04215D1C6
:1015E00023F40066CB8924F4405402EA03233343F6
:1015F00023F480668B8802EA032333430E8A02EACF
:10160000061626434C8A02EA0414344384808583F8
:101610008968C163038470BD70B5028C22F4805266
:101620000284048C8288838B0D8823F4E6464FF66F
:10163000FF7303EA0525354324F400568C8903EA39
:10164000043434434E8803EA06362643184CA0423D
:1016500002D01D4CA04205D122F480440A8A03EA3C
:10166000821222438280858389680164068470BD6A
:10167000002101804180818081608181C18101825E
:101680004182704730B50124058C00F118038C406D
:10169000A543058431B308292CD0091FC1F34E009E
:1016A0001844016848F6FF731940016001681AE0A8
:1016B000000001400004004000080040000C004011
:1016C00000100040001400400004014000400140B0
:1016D000004401400048014000180040001C004048
:1016E0000020004006E04FF6FF7303EA0222114398
:1016F000016030BD03EB510001684FF68F73194054
:1017000001600168F3E74163704781637047C1631B
:10171000704701647047028B22F070020A43028313
:101720007047028B4FF6FF7322F4E04203EA012177
:10173000114301837047828B22F070020A43828337
:101740007047828B4FF6FF7322F4E04203EA0121D7
:10175000114381837047028B22F008020A430283FF
:101760007047028B4FF6FF7322F4006203EA0121F7
:10177000114301837047828B22F008020A4382835F
:101780007047828B4FF6FF7322F4006203EA012157
:10179000114381837047028B22F004020A430283C3
:1017A0007047028B4FF6FF7322F4806203EA012137
:1017B000114301837047828B22F004020A43828323
:1017C0007047828B4FF6FF7322F4806203EA012197
:1017D000114381837047028B22F080020A43028307
:1017E0007047028B4FF6FF73C2F30E0203EA01212A
:1017F000114301837047828B22F080020A43828367
:101800007047828B4FF6FF73C2F30E0203EA012189
:10181000114381837047028C22F002020A43028442
:101820007047028C22F008020A4302847047028C3F
:101830004FF6FF7322F0200203EA011111430184E5
:101840007047028C4FF6FF7322F0800203EA011109
:10185000114301847047028C4FF6FF7322F400722B
:1018600003EA0121114301847047028C4FF6FF7394
:1018700022F4006203EA0121114301847047028CC3
:101880004FF6FF7322F4005203EA01311143018441
:10189000704710B50123048C8B409C430484038C57
:1018A0008A401343038410BD10B50423048C8B407D
:1018B0009C430484038C8A401343038410BD828BB1
:1018C00022F440628283828B4FF6FF7303EA012188
:1018D0000A4382837047828B22F00C028283828BC0
:1018E0000A4382837047028B22F440620283028B98
:1018F0004FF6FF7303EA01210A4302837047F0B5F4
:10190000048C24F010040484078B068C4FF6FF74BB
:1019100004EA011527F4734704EA0331394304EA62
:1019200002220A4326F0A001294341F0100102835C
:101930000184F0BD028B22F00C020283028B0A4369
:10194000028370472DE9F0410D460E884988AA8828
:101950002B8904460EB3042E26D0082E268C4FF673
:10196000FF7028D026F480562684A78B268C00EAA8
:10197000022200EA013127F473473A4300EA0330B8
:10198000104326F420420A4342F48051A08321846C
:10199000E9882046BDE8F04191E700F062F9E98866
:1019A0002046BDE8F041C5E7FFF7A9FFE9882046DA
:1019B000BDE8F04197E726F480762684A78B268C35
:1019C00000EA012100EA0310104327F0F30738432F
:1019D00026F420620A4342F48071A0832184E988BE
:1019E0002046BDE8F04176E70021018041800122D8
:1019F0008280C180018170472DE9F0410C460026AC
:101A000049880746012501B90226A288012A00D18A
:101A10000225208823890028384610D0FFF76FFF61
:101A2000E1883846FFF75FFF23892A46314638466A
:101A300000F017F9E1883846BDE8F0417AE700F098
:101A400010F9E1883846FFF775FF23892A463146A9
:101A50003846FFF754FFE1883846BDE8F04142E7D9
:101A6000406B7047806B7047C06B7047006C70476D
:101A700010B50A884B88CC881A438B8823431A43B5
:101A80000B891A434B8989891A430A43A0F84420D9
:101A900010BD0021018041808180C1800181418190
:101AA00081817047002930F8441F02D041F4004181
:101AB00001E0C1F30E01018070470029818802D046
:101AC00041F0040101E021F0040181807047002908
:101AD000818802D041F0010101E021F00101818003
:101AE0007047002A828901D00A4300E08A4382813C
:101AF00070478182704702460020128A0A4200D055
:101B000001207047C9430182704702460020138AB2
:101B100092890B4202EA010202D0002A00D0012081
:101B20007047C943018270471143A0F848107047BD
:101B3000002A828901D00A4300E08A4382817047EB
:101B40000029818802D041F0080101E021F008015C
:101B500081807047018921F0070101817047028966
:101B600022F070020A430281704700B50346FFF776
:101B7000F6FF188940F00700188100BD70B51646C1
:101B80000D46602904464FF0010231460AD000F0AC
:101B900068F829462046FFF7E2FF208940F0070059
:101BA000208170BDFFF7ABFEF3E730B504894FF637
:101BB000FF7505EA03231343E4B20B432343038178
:101BC00030BD10B50446FFF7F0FF208940F07700E4
:101BD000208110BD10B50446FFF7E7FF208940F4CF
:101BE0008040208110BD828822F07002828082882D
:101BF0000A4382807047028922F00702028102892B
:101C00000A4302817047028922F080020281028920
:101C10000A430281704770B50589048B068C25F054
:101C200007050D434FF6FC410C4040F201110C43F7
:101C30004FF6FF7101EA031126F0220611433143EA
:101C400005810483018470BD0029818802D041F0A0
:101C5000800101E021F0800181807047A0F85010E0
:101C6000704770B5048C24F001040484058B048C47
:101C70004FF6FF7606EA0313134325F0F3052B43D3
:101C800024F00A020A4342F001010383018470BD7B
:101C90002DE9F0419CB001217E48FFF734FA012183
:101CA0000F023846FFF757FA0325DFF8EC810826C4
:101CB0008DF8405000240F968DF843400FA9404600
:101CC000FFF708F840200F908DF840508DF8434002
:101CD0000FA94046FEF7FEFF1020DFF8C0810F90ED
:101CE0008DF840508DF843400FA94046FEF7F2FFB3
:101CF0008DF840500F968DF843400FA94046FEF7EF
:101D0000E9FF01268DF840500F968DF843400FA94A
:101D10006348FEF7DFFF634802A9CDE9004062484F
:101D2000052581E83100B002CDE90540400007906B
:101D30008000CDE908070AA9000181E851005B4F46
:101D40000D94694638460E94FEF750FE0121384640
:101D5000FEF785FE17941894199417A81A94FEF7A5
:101D60004AFC1194139415944E4C8DF848604C3CE9
:101D70008DF849608DF8585011A92046FEF710FCE7
:101D800001212046FEF7F4FC01231A4603212046D8
:101D9000FEF77BFC0123022206212046FEF775FC9C
:101DA000012303220E212046FEF76FFC01230422AB
:101DB0000D212046FEF769FC01230522082120465B
:101DC000FEF763FC01212046FEF7DCFC01212046E2
:101DD000FEF728FC2046FEF792FC1CB0BDE8F0811F
:101DE000F0B53348807800282AD10023314D2E4C9D
:101DF0001A461946184605F1800605F5807700BF9A
:101E0000B4F800C025F810C0B4F802C026F810C01D
:101E1000B4F804C027F810C035F810C0634436F891
:101E200010C0624437F810C0401CC0B26144402862
:101E3000E6D321489B0992098909C361C0E90821B9
:101E4000F0BD30B518490A881B48C369D41AC4606C
:101E50004A88036AD31A03618A88456A521B8260E2
:101E6000C98841611549C97805290BD001290CD0D1
:101E700003290AD002290AD0062908D0042903D14F
:101E8000D11800E09918416030BDA118FBE7E118B6
:101E9000F9E700000700400000000240000802408F
:101EA000000402404C200140221400201064024033
:101EB000000000202C14002018000020C413002073
:101EC00042F21071002805D0491E0904090CFBD10B
:101ED000401EFDD170471CB54FF4E070009000200B
:101EE0008DF8040002208DF8050069460E48FEF7C3
:101EF000F1FE1CBD1CB54FF4E070009000208DF881
:101F0000040002248DF8054069460748FEF7E2FE0A
:101F10001020009001208DF804008DF805406946DE
:101F20000248FEF7D7FE1CBD00040240000002403C
:101F300080480221804A80F82010B2FBF1F1490864
:101F4000C16170477D490A78824204D00870002838
:101F500000D0012070470220704778494A788242B9
:101F600004D04870002800D001207047022070473C
:101F700072498A78824204D08870002800D00120FB
:101F800070470220704770B56A4C4FF6FF702DED18
:101F9000028BE18C6A4D00EA4101E184218D00EA67
:101FA00041012185618D00EA41006085402128467C
:101FB000FEF7F6FEE18C0843E08480212846FEF718
:101FC000EFFE218D08432085A9152846FEF7E8FE7F
:101FD000618D01220843608594F826100025218632
:101FE000FF291ED000297DD1A4F8325094F8281082
:101FF0002186FF2917D0002974D1A586C0B220867A
:10200000FF2812D000286DD1A4F8365094F8320081
:10201000FFF798FF2087012809D0E8B3022849D0AC
:102020004BE06286E2E7A286E8E7E286EEE7A08D73
:1020300001F009FB9FED431B53EC112B01F016FB44
:1020400041EC180BE08D01F0FEFA9FED401B53ECC4
:10205000112B01F00BFB53EC182B01F01FFA01F0D0
:10206000C5FA86B2E685E069B0FBF6F080B260841E
:1020700001F0E9FA9FED371B53EC112B01F0F6FA52
:1020800041EC180BA08C01F0DEFA9FED341B53ECF1
:10209000112B01F0EBFA00E00AE053EC182B01F0F1
:1020A000FDF901F0A3FAA0840620B6FBF0F06087EA
:1020B000A58502E0A08D401CA08594F8340094F81A
:1020C0003610400000EB810094F832100844C0B292
:1020D000E0702179884202D0A28F521CA287A28F81
:1020E000638F00E023E09A4221D3A58788421CD069
:1020F000072817D2DFE800F016070D0A13041000B6
:1021000001F01FF811E001F031F80EE001F043F8A2
:102110000BE001F055F808E001F067F805E001F088
:1021200079F802E000F0C9FF6584E0782071BDEC29
:10213000028B70BDC413002000A60E006C000020AE
:1021400000040240BB270F0BB5A6C13F11363CBDB2
:102150005296EB3F88F4DBD78173CE3FDE02098ACB
:102160001F63E83F2DE9F047FA4C0546A614002905
:102170003146204602D0FEF727FE01E0FEF726FE9C
:102180004FF400673946A0462046FEF71FFEB146D1
:102190003E46F14F002431463846FEF717FE28062A
:1021A0004946384602D5FEF70FFE01E0FEF70EFE67
:1021B00031463846FEF708FE6806641C050EE4B298
:1021C000082CE8D3314644464046FEF7FDFD49461B
:1021D0002046BDE8F047FEF7F7BD2DE9F047DD4C9E
:1021E0000546A61400293146204602D0FEF7ECFD34
:1021F00001E0FEF7EBFD4FF400673946A0462046AC
:10220000FEF7E4FDB1463E46D34F00243146384642
:10221000FEF7DCFD28064946384602D5FEF7D6FD16
:1022200001E0FEF7D1FD31463846FEF7CDFD6806E8
:10223000641C050EE4B2082CE8D3314644464046FF
:10224000FEF7C2FD49462046BDE8F047FEF7BCBD9B
:1022500010B50446B031C8B20021FFF783FF10204B
:1022600040EA14100021FFF77DFF04F00F00BDE8E5
:10227000104040F00100002174E710B500218D20CE
:10228000FFF770FF00211420FFF76CFF0021BDE86D
:102290001040AF2066E710B500218D20FFF762FFE8
:1022A00000211020FFF75EFF0021BDE81040AE20A6
:1022B00058E770B55FF0000404F1B000C0B200212F
:1022C000FFF750FF00210846FFF74CFF00211020C8
:1022D000FFF748FF002501210020FFF743FF6D1C99
:1022E000EDB2802DF7D3641CE4B2082CE4D370BDAA
:1022F0002DE9F041203A00240D468046D7B27F28D0
:1023000003D900208D1C8046EDB22946FFF7A0FFBF
:10231000924E00BF04EB07100121305CFFF722FF53
:10232000641CE4B2082CF5D36D1CE9B24046FFF7FB
:102330008FFF002404EB071030440121007AFFF7DF
:1023400011FF641CE4B2082CF4D3BDE8F0812DE940
:10235000F041203A00240D468046D7B27F2803D9A9
:1023600000208D1C8046EDB22946FFF771FF7B4EA1
:1023700004EB07100121305CFFF72FFF641CE4B26F
:10238000082CF5D36D1CE9B24046FFF761FF00242D
:1023900004EB071030440121007AFFF71EFF641C94
:1023A000E4B2082CF4D3D0E710B5832818D83F291D
:1023B00016D80723A3EBD10301F00701C1F10704ED
:1023C0000121A140664CDBB204EB0010002A30F87A
:1023D0001320C9B201D00A4300E08A4320F8132039
:1023E00010BD0246012000E05043491EC9B2FBD295
:1023F00070472DE9F0478046002608981D46914613
:102400008A463446470821E0281B401EC1B20A20F4
:10241000FFF7E7FFB9FBF0F00A21B0FBF1F201FB97
:10242000120026B9691E8C4201DA30B10126303023
:10243000C2B207FB0480C0B203E007FB0480C0B255
:1024400020225146FFF754FF641CE4B2AC42DBD3B8
:10245000BDE8F0872DE9F041984617460E46044640
:10246000002512E0B8F1000F3146204602D0FFF7F8
:102470003FFF01E0FFF76BFF0834E4B2782C02D98C
:102480000024B61CF6B26D1CEDB27A5D002AE9D1CB
:102490005BE72DE9F04F203A9C460C468346884680
:1024A00002F0FF090025DDF824A02FE0BCF10C0F9D
:1024B00008D02C4901EB09100027465D300607D5EE
:1024C000524609E0284909EB490001EB8000F3E797
:1024D000BAF1000F12D0002221465846FFF764FFE0
:1024E0007006641C060EE4B2A4EB0800604507D138
:1024F0000BF10100444600F0FF0B05E00122EBE781
:102500007F1CFFB2082FD9D36D1CEDB26545CDD32A
:10251000BDE8F08FF8B516460D460446012714E0D5
:102520007E2C02D900241035EDB23A2D03D90024B7
:102530002546FFF7BEFE0097327810232946204635
:10254000FFF7A7FF0834E4B2761C30780028E7D103
:10255000F8BD00000000024000080240AA44000844
:10256000AC150020BA3E0008463A00082DE9F041BB
:102570001E4615460F468046FFF76AFE8B4800242C
:1025800000EB85154FF00101285D16B1FFF7EAFD5C
:1025900001E0FFF722FE641CE4B2102CF2D37F1C92
:1025A000F9B24046FFF754FE5FF0000405EB04006B
:1025B0004FF0010190F8200016B1FFF7D3FD01E0C4
:1025C000FFF70BFE641CE4B2102CEFD3BDE62DE93F
:1025D000F04798461746824600260C46DDF82090C4
:1025E00012E021465046FFF733FE554608E000BF93
:1025F00019F806000121761CFFF7B4FD6D1CEDB241
:10260000BD42F5D3641CE4B24445EAD320E72DE98A
:10261000FC41002401210420FEF775FD01258DF801
:10262000045000274FF4E0508DF80670604E009083
:102630008DF807504FF002088DF805806946304646
:10264000FEF748FB01210846FEF75DFD8DF80450BA
:102650008DF806708DF8075041F61000554D00902A
:102660008DF8058069462846FEF734FB4FF4C051CB
:102670002846FEF7A9FB2D1529463046FEF7A4FB98
:1026800040F6B8370020641C401CC828FCDBBC4264
:10269000F8DB002429463046FEF798FB0020641C36
:1026A000401CC828FCDBBC42F8DB29463046FEF75C
:1026B0008BFB0021AE20FFF755FD00210846FFF7F8
:1026C00051FD00211020FFF74DFD00214020FFF7B4
:1026D00049FD00218120FFF745FD0021CF20FFF7B4
:1026E00041FD0021A120FFF73DFD0021C820FFF79B
:1026F00039FD0021A620FFF735FD0021A820FFF7B6
:1027000031FD00213F20FFF72DFD0021D320FFF7F1
:1027100029FD00210846FFF725FD0021D520FFF700
:1027200021FD00218020FFF71DFD0021D920FFF7AA
:1027300019FD0021F120FFF715FD0021DA20FFF738
:1027400011FD00211220FFF70DFD0021DB20FFF716
:1027500009FD00214020FFF705FD00212020FFF7A3
:1027600001FD00210220FFF7FDFC00218D20FFF775
:10277000F9FC00211420FFF7F5FC0021A420FFF74D
:10278000F1FC0021A620FFF7EDFC0021AF20FFF7B0
:10279000E9FC0021AF20FFF7E5FCFFF78AFD0021EF
:1027A0000846FFF755FDBDE8FC8100006F000020E2
:1027B000000802400000024015489FED140ADFEDBA
:1027C000160A80ED030A9FED130A9FED141A80ED9F
:1027D0000C0A80ED0D0AC0ED080ADFED111A80ED3C
:1027E000091AC0ED001A0F48B0EE002A80ED032A46
:1027F0009FED0D2A80ED0C2A80ED0D0AC0ED080A30
:1028000080ED091AC0ED001A70470000CDCCCC3D18
:10281000341300200AD7233C00401C4600007A44B1
:10282000000000007C130020CDCC4C3E7CB5002580
:102830004FF400508DF80450012400908DF80740AB
:102840006946FE4E3046FEF745FA8DF80450009476
:102850008DF8074069463046FEF73CFAA003009029
:102860008DF804508DF8074069463046FEF732FA7D
:10287000E00300908DF804508DF80740694630461B
:10288000FEF728FA802000908DF804508DF807405C
:1028900069463046FEF71EFA7CBD2DE9F05FE74F32
:1028A0004FF400512DED028B3846FEF779FAE44DD6
:1028B000E44CE54E4FF0010A4FF06409D0B930887E
:1028C000C0B900F01CFC84F802A02078012804D0D4
:1028D000022809D0032807D00AE01420DB4920820F
:1028E000B1FBF9F0606103E09FEDD90A85ED000AC4
:1028F000A6F800900121BB463846FEF751FA0027A2
:102900004FF0C808F0BB3088E0BB67810021D14898
:10291000FEF7F9FE0021CF48FEF7F7FE0021CD4873
:10292000FEF7F1FE00F0C9FB27826761A77084F80B
:1029300008A0C948E781A7818783C8488785C785DC
:10294000478487849FEDC60AC64885ED020A85ED57
:10295000010A85ED0A0A85ED110A85ED070A85ED64
:10296000000A85ED0B0A85ED060A85ED050A85ED61
:10297000100A85ED040A85ED0F0A80ED020A80ED4C
:10298000010A00E015E080ED0A0A80ED110A80EDF1
:10299000070A80ED000A80ED0B0A80ED060A80ED43
:1029A000050A80ED100A80ED040A80ED0F0AA6F8F2
:1029B00000804FF480415846FEF7F2F9B2EE048AE7
:1029C00038BB308828BB2078022801D0032805D1E5
:1029D00095ED000A30EE080A85ED000A012809D1BC
:1029E000208A42F21071401C80B220824843B0FB22
:1029F000F9F06061208A322801D9322020829A4978
:102A00002868884203DD9FED990A85ED000AA6F843
:102A100000804FF400415846FEF7C2F938BB3088B9
:102A200028BB2078022801D0032805D195ED000AA3
:102A300030EE480A85ED000A012809D1208A42F2C9
:102A40001071401E80B220824843B0FBF9F06061F3
:102A5000208A0A2801D20A202082854928688842D3
:102A600003DA9FED840A85ED000AA6F80080802134
:102A70005846FEF795F90028308808D0002802D083
:102A800080B2401E3080BDEC028BBDE8F09F002874
:102A9000F6D1607908B1677101E084F805A040467D
:102AA000A6F80080ECE7F8B5664D102428780228D7
:102AB00001D0032859D101230C2202210020FFF765
:102AC00055FD01230D2202211020FFF74FFD0123A8
:102AD0000E2202212020FFF749FD01230F220221AF
:102AE0003020FFF743FD012363A202215020FFF7AE
:102AF000B1FC534E0094042396ED000A02215A20A3
:102B0000BCEEC00A10EE102AFFF773FC28780228EA
:102B100001D0032829D10123102204210020FFF72E
:102B200025FD0123112204211020FFF71FFD0123A1
:102B30000E2204212020FFF719FD01230F2204217A
:102B40003020FFF713FD009496ED010A0423194687
:102B5000BCEEC00A5A2010EE102AFFF74AFC0123EF
:102B600045A204215020FFF775FC2878012848D1A0
:102B70000123432203210020FFF7F8FC0123442214
:102B800003211020FFF7F2FC01234522032120201E
:102B9000FFF7ECFC00942A8A042303215A20FFF754
:102BA00028FC012334A203215020FFF753FC01230A
:102BB0003C2206210820FFF7D9FC01233D220621F3
:102BC0001820FFF7D3FC01233E2206212820FFF71F
:102BD000CDFC01233F2206213820FFF7C7FC01234B
:102BE000402206214820FFF7C1FC01234122062193
:102BF0005820FFF7BBFC0123422206216820FFF783
:102C0000B5FC287802284AD101233C22062108205D
:102C1000FFF7ACFC01233D2206211820FFF7A6FC9C
:102C200001233E2206212820FFF7A0FC01233F229A
:102C300006213820FFF79AFC01231FE0000802401C
:102C4000341300200000002030130020400D03004A
:102C5000000096430000014004140020C41300202B
:102C6000000000007C1300200040034500400345A5
:102C700000008C4300008C43200000004622062107
:102C80004820FFF773FC0123472206215820FFF755
:102C90006DFC0123482206216820FFF767FC287895
:102CA000032829D101233C2200210820FFF75EFCE4
:102CB00001233D2200211820FFF758FC01233E226A
:102CC00000212820FFF752FC01233F220021382059
:102CD000FFF74CFC0123492200214820FFF746FC66
:102CE0000123472200215820FFF740FC01234822FE
:102CF00000216820FFF73AFC01B00123BDE8F04055
:102D0000062102A20020FFF7A5BB0000575944008E
:102D100010B501218648FEF7F5FE864CA078012803
:102D20007ED1207A01287CD0022879D1FFF789F85A
:102D3000FFF729F92078032872D1A089401C80B2BE
:102D4000A081E189491C8BB2E38100229FED7A2AA0
:102D5000DFED7A2A7A49022860D97A48808C00EE21
:102D6000100AB8EE400A81ED010AD1ED000A30EEFA
:102D7000C00A81ED020AD1ED030A20EE801A81ED2E
:102D8000041A91ED050AD1ED0C0A00EE810A81EDDD
:102D9000050AD1ED080AB4EEE00AF1EE10FA01DD01
:102DA000B0EE600A81ED050AF0EE401A91ED090AD5
:102DB000F4EEC01AF1EE10FA01D2F0EE401AC1EDB5
:102DC000051A91ED0F3AD1ED0E3A71EE211A31EE5E
:102DD000433A23EE233A81ED063A71EE831AC1EDB0
:102DE0000A1AF4EEE01AF1EE10FA01DCF0EE610AD4
:102DF000C1ED0A0AF4EEC00AF1EE10FA01D3B0EE0A
:102E0000600A81ED0A0A81ED0F1AD1ED110A60EE18
:102E1000820A40EE220AC1ED110AA2814A4801E06D
:102E200076E076E0012B61D99FED480A484B80EDB2
:102E3000000AD3ED010AF8EEE00AC0ED010A30EE17
:102E4000600A80ED020AD0ED030A20EE801A80EDC0
:102E5000041A90ED050AD0ED0C0A00EE810A80ED0F
:102E6000050AD0ED081AB4EEE10AF1EE10FA01DD20
:102E7000B0EE610A80ED050AD0ED090AB4EEE00A71
:102E8000F1EE10FA01D2B0EE600A80ED050AB0EE64
:102E9000403A90ED0F0AD0ED0E3A31EE033A31EEA2
:102EA000400A20EE230A80ED060A33EE000A80ED88
:102EB0000A0AB4EEE10AF1EE10FA01DDB0EE610AA1
:102EC00080ED0A0AB4EEE00AF1EE10FA01D2B0EE9B
:102ED000600A80ED0A0A80ED0F1AD0ED110A60EE4B
:102EE000820A40EE220AC0ED110AE281D0ED110AF9
:102EF00091ED110AF4EEC00AF1EE10FA0EDDBCEE0F
:102F0000C00A10EE102A628191ED050A80ED050AD3
:102F100010BD00F044FA0220207207E7BCEEE00A80
:102F200010EE102A628190ED050A81ED050A10BDB0
:102F30000000014000000020BD8C6A3F179AAB3DA5
:102F400034130020C41300207C13002000B07B4504
:102F5000180000207CB501210320FEF7D4F80121E0
:102F60000846FEF7F8F84FF4E060022400908DF870
:102F700005408DF8044000208DF80600B04D8DF816
:102F8000070069462846FDF7A5FE012208212846CC
:102F9000FDF729FF012209212846FDF724FF012220
:102FA0000A212846FDF71FFF4FF4604000900120E2
:102FB0008DF804008DF805406946A248FDF78AFEA9
:102FC0007CBD70B58EB0FFF7C5FF002442F603103C
:102FD0009D4EADF824400A90ADF82C40ADF8264047
:102FE0008DF82E4009A93046FEF7F2F96020ADF8C1
:102FF000000004200125ADF80400ADF80C40ADF848
:103000001040ADF802500294ADF80E40ADF81240F9
:1030100069463046FEF75EFA69463046FEF786FAA4
:1030200069463046FEF7BEFA08213046FEF793FBAC
:1030300008213046FEF795FB08213046FEF79BFB42
:10304000E802ADF814004010ADF81600ADF81840D5
:103050006A20ADF81A00A803ADF81C40ADF82000B6
:10306000ADF81E4005A93046FEF702FD01213046AD
:10307000FEF748FD01213046FEF753FD01221146BF
:103080003046FEF72EFD01213046FEF719FA0121E8
:103090003046FEF707FD4FF4A060FDF71DFA19203A
:1030A0008DF830008DF831408DF832408DF8335076
:1030B0000CA8FDF716FA0EB070BD10B5624C0022D8
:1030C00011462046FEF7E5FB002211462046FEF79A
:1030D000EBFB002204212046FEF7DBFB002204214B
:1030E0002046FEF7E1FB002208212046FEF7D1FB37
:1030F00020460022BDE810400821FEF7D5BB10B5E0
:10310000514C012200212046FEF7C3FB042200217E
:103110002046FEF7C9FB012204212046FEF7B9FB39
:10312000042211462046FEF7BFFB0122082120465B
:10313000FEF7AFFB20460422BDE810400821FEF751
:10314000B3BB414810B500218163404A52894263B4
:10315000C1633C4C4FF420412046FDF737FE20462A
:10316000BDE810404FF48041FDF72EBE364810B543
:1031700000218163354A52894263C163314C4FF467
:10318000C0412046FDF722FE2046BDE810404FF426
:103190000041FDF719BE2C4810B5002141632B4AB0
:1031A00052898263C163274C4FF4C0412046FDF72A
:1031B0000DFE2046BDE810404FF40041FDF704BE6F
:1031C000214810B500214163204A52898263C163BE
:1031D0001C4C4FF440412046FDF7F8FD2046BDE869
:1031E00010404FF40051FDF7EFBD174810B5002116
:1031F0008163164A5289C2634163124C4FF44041C5
:103200002046FDF7E3FD2046BDE810404FF4005195
:10321000FDF7DABD0C4810B5002181630B4A5289D5
:10322000C2634163074C4FF420412046FDF7CEFDB9
:103230002046BDE810404FF48041FDF7C5BD0000B9
:103240000000024000040240000001400000002095
:1032500070B501210720FDF756FF1648642100686C
:10326000B0FBF1F0401EB0F1807F11D24FF0E024AE
:10327000606165170F21284600F00BF80020A0615F
:10328000072020612846BDE87040002100F001B809
:10329000FEE70907090E002806DA00F00F0000F12A
:1032A000E02080F8141D704700F1E02080F8001441
:1032B0007047000048000020C000401EFDD270474B
:1032C0004FF4FA514843401EFDD27047514810B5A3
:1032D000C08806281CD2DFE800F00F131703070B85
:1032E000BDE81040FFF72DBFBDE81040FFF73EBF1F
:1032F000BDE81040FFF74FBFBDE81040FFF760BFCB
:10330000BDE81040FFF771BFBDE81040FFF782BF76
:10331000FFF7D3FE40490020488410BD3D483F4997
:10332000808B012823D0022823D0032823D04FF4F8
:10333000C87204282ED005282CD006282AD00728A9
:103340001CD008281DD009281ED00A281FD04FF4F1
:10335000AF620B281ED00C281CD00D281AD00E28C6
:103360001AD00F2802D140F2DC5048817047642007
:10337000FBE7C820F9E74FF49670F6E74FF4FA70D0
:10338000F3E74FF42F70F0E74FF44870EDE74FF498
:103390007A70EAE74A81704740F2AA50E5E770B5D3
:1033A0001C4D40F2DC506880FFF70AFF4FF4967224
:1033B0001046FFF785FF19496888002448812A8054
:1033C0002B466C8340F67F0205E01046FFF774FF42
:1033D000588B401C5883588B19888842F5D388B283
:1033E0000F21B0FBF1F1401A401E1880988B401C51
:1033F0009883FFF793FF1888192809D3D888401CB1
:1034000080B2D880062800D1DC80FFF75FFFD7E7C5
:1034100070BD000004140020C41300200000002030
:10342000704770477047754600F02CF8AE460500AF
:103430006946534620F00700854618B020B5FDF7D1
:1034400039F8BDE820404FF000064FF000074FF07C
:1034500000084FF0000B21F00701AC46ACE8C009B2
:10346000ACE8C009ACE8C009ACE8C0098D467047BB
:1034700010B50446AFF300802046BDE81040FCF7CD
:10348000F0BE000000487047EC1D002001491820E4
:10349000ABBEFEE7260002007047000010B591EABF
:1034A000030F48BF83F0004300F1E681841A71EBFB
:1034B000030C05D2121943EB0C03001B61EB0C014A
:1034C000DFF824E14FEA1154A4EB135C1EEA430F2A
:1034D00018BF9EEA445F73D023EA0E03DCF1200E8E
:1034E00021EA045143F4801332D322FA0CFE10EB8C
:1034F0000E0023FA0CFE41EB0E01CCF1200E03FA74
:103500000EFE10EB0E0051F10001B1F5801FCCF161
:10351000200E32D201EB045112FA0EF2BDE8104037
:1035200058BF7047401C38BF5FEA420218BF70475F
:10353000002814BF20F0010041F100014FEA4103CF
:1035400013F5001F38BF7047A1F1C04100F086B9E4
:10355000012A43EB0302ACF1200CDCF11F0E32BF59
:103560004FF0000E23FA0CF310EB030041EB045173
:10357000B4EB115FD0D0A1EB045101F580114908E3
:103580005FEA300001EB04510ED350F1000038BF68
:1035900012FA0EFE08D1BDE81040C9E7401C38BF42
:1035A0005FEA4202CAD1C3E7BDE810404FEA4103D7
:1035B00013F5001F38BF7047A1F1C04100F04EB9AC
:1035C0009EEA445F08D011EA5E0FBDE8104004BFD8
:1035D00001F0004100207047BDE8104070B500F0D8
:1035E000EFF800BF64FBBE3E0000E0FF4FEA11535E
:1035F000A3F58063D3F11E03A8BFD3F1200C08DB31
:103600004FF0004242EAC12252EA505232FA03F02D
:10361000704709420BD4102BC4BF0020704703F53C
:10362000787CBCF1FF3F05D04FF0FF3070474FF082
:103630000000704770B500F0C3F800BF49922480C5
:1036400000207047F0E7B0FA80F310FA03F10AD0D7
:10365000C3F11D0303F580634FEA41504FEA035263
:1036600002EBD12170474FF000007047DFF848C1EE
:1036700070B51CEA111E1EBF1CEA13159EEA0C0F42
:1036800095EA0C0F00F06F8081EA030423EA4C13E3
:103690004EEAD47E21EA4C1141F4801143F48013A8
:1036A000AE44A1FB024CA0FB0365AEF17F7E361950
:1036B00055EB0C05A1FB034C4CF10003A0FB021CD5
:1036C00016EB0C06654153F10003094218BF46F0A2
:1036D000010613F4007F0BD14FEA03314FEA0530A6
:1036E000340341EA155140EA16506FF003020AE034
:1036F0004FEAC3214FEAC520F40241EA555140EA9E
:1037000056506FF0020202EB2E4201EB025585EAA1
:10371000CE710AD05FEA440C18BF24F0004450F187
:10372000000041F1000120EAD47040F2FE7C6245C5
:1037300000D270BDA84214BF4FF080444FF0404407
:10374000002E08BF0024BEF1806FA8BFA1F1C041C8
:10375000BDE8704080F282804FF0000001F1C0416E
:1037600001F0004170479EEA0C0F0CEA131518BFD8
:1037700095EA0C0F06D04FF0000081EA030E0EF020
:10378000004170BD00F01CF88900013E00F007B850
:1037900000F009B84FEA430C5FEA5C5C08D081EAAC
:1037A000030100F05BB84FEA410C5FEA5C5CF6D1C4
:1037B0004FF00000014970470000FF070000F87F4C
:1037C0000EF1020E2EF0030E5EF8046B364205D4A5
:1037D000012A43EB030515F5001F12D8012841EB20
:1037E000010C1CF5001F0CD80ED14FEAD17C15F549
:1037F000001F0CEB4C0C0CF1020C08BF4CEBD37C03
:1038000004E04FF0080C01E04FEAD37C0CEB4C05D0
:1038100026FA05F606F00706B6F1040C06D20EEB02
:10382000860CBDE870404CF0010C6047DFE80CF0FE
:10383000090B02024FF000414FF00000A1F50021FA
:1038400070BD19461046012851EB010418BFD4F58C
:10385000001484BF002001F0004170BD0808A0F5ED
:1038600000114FEA3101704710B591EA030F48BFCC
:1038700083F000433FF51AAE841A71EB030C07D2B4
:1038800012198CF0004C43EB0C03001B61EB0C0194
:10389000DFF8A4E14FEA1154A4EB135C1EEA430FD6
:1038A00018BF9EEA445F00F0B08023EA6E035242E4
:1038B00021EA0451C3EB6E0338BF5B1EDCF1200E1E
:1038C00025D322FA0CFE10EB0E0043FA0CFE41EB5E
:1038D0000E01CCF1200E03FA0EFE10EB0E0051F19A
:1038E0000001CCF1200E29D412FA0EF201EB0451A2
:1038F000BDE8104058BF7047401C1CBFB2F1004FDC
:10390000704700280CBF491C20F00100704712EBE3
:10391000020E43EB030218BF4FF0010E4EEA4202C3
:10392000ACF1200CDCF11E0E54D943FA0CFE10EB66
:103930000E0051F1FF31CCF11E0ED5D50EF1010E66
:1039400012FA0EFE404141EB010101EB445C5FEADB
:103950005C5C10D910EBDE7001EB045138BFBEF196
:10396000004FBDE8104018BF704700280CBF491C2D
:1039700020F00100704730D24FEAD42C11F500112D
:1039800024F400641BD0B1FA81F20B3AA41AA41EED
:10399000D2F12003914030FA03F31943904001EB38
:1039A000CC71002C01EB0451BDE81040A8BF70475A
:1039B00001F1C0414FF0000001F000417047B0FA42
:1039C00080F310FA03F100D110BDE41A173C48054A
:1039D000C90AE4E701EB045110BD491001EB0451A1
:1039E000BDE810404FEA300002E04FF000017047A0
:1039F0004A0008BF0042F8D0B2F5001F28BF704748
:103A000001F000414FF0000070479EEA445F07D08C
:103A100011EA5E0FBDE8104004BF0021002070478E
:103A2000BDE8104070B5FFF7CBFE00BF40DFF63EAB
:103A300083F00041104670470000E0FF4FF04070F7
:103A4000E1EE100A704700000000000000000000D6
:103A50000000000000003F400000000000000000E7
:103A60003000400030004000000009000BC03D0065
:103A70000BC03D00090018C024407FE02240318087
:103A80000000180024C01B000D803240018003801C
:103A90001C4027401C8007400040100060000000D0
:103AA0000000000000000000000000001F80204017
:103AB00040200000402020401F800000000009003E
:103AC00006001F80060009000000040004003F807B
:103AD000040004000000001000600000000000006E
:103AE00000000400040004000400040000000000C2
:103AF00000400000000000000000002001C006009F
:103B00003800400000001F802040204020401F80DF
:103B10000000000010403FC000400000000018C03E
:103B200021402240244018400000108020402440C2
:103B300024401B80000002000D0011003FC0014026
:103B400000003C80244024402440238000001F804B
:103B5000244024403440038000003000200027C06F
:103B60003800200000001B802440244024401B809B
:103B700000001C0022C0224022401F8000000000E4
:103B80000000084000000000000000000000046089
:103B9000000000000000000004000A001100208066
:103BA0004040090009000900090009000000000068
:103BB0004040208011000A0004001800200023402B
:103BC0002400180000001F802040274029401F408B
:103BD0000000004007C039000F0001C00040204035
:103BE0003FC0244024401B8000001F802040204014
:103BF00020403080000020403FC0204020401F80F7
:103C0000000020403FC024402E4030C00000204033
:103C10003FC024402E00300000000F0010802040E4
:103C200022403380020020403FC0040004003FC017
:103C30002040204020403FC0204020400000006045
:103C4000202020203FC02000200020403FC02440F2
:103C50000B0030C0204020403FC0204000400040CA
:103C600000C03FC03C0003C03C003FC000002040FB
:103C70003FC00C4023003FC020001F802040204058
:103C800020401F80000020403FC024402400180036
:103C900000001F802140214020E01FA000002040A4
:103CA0003FC02440260019C0004018C024402440D2
:103CB000224031800000300020403FC020403000D2
:103CC000000020003F80004000403F802000200096
:103CD0003E0001C0070038002000380007C03C004B
:103CE00007C038000000204039C0060039C020401D
:103CF00000002000384007C038402000000030405D
:103D000021C02640384020C00000000000007FE0B5
:103D1000402040200000000070000C0003800040A4
:103D200000000000402040207FE000000000000074
:103D300020004000200000000000001000100010D3
:103D40000010001000100000000040000000000003
:103D50000000000002800540054003C00040200034
:103D60003FC0044004400380000000000380044082
:103D700004400640000000000380044024403FC08F
:103D800000400000038005400540034000000000A3
:103D900004401FC0244024402000000002E00550E1
:103DA00005500650042020403FC00440040003C0DA
:103DB00000400000044027C0004000000000001048
:103DC0000010041027E00000000020403FC0014028
:103DD000070004C00440204020403FC00040004095
:103DE000000007C0040007C0040003C00000044036
:103DF00007C00440040003C00040000003800440EA
:103E0000044003800000041007F0045004400380C5
:103E10000000000003800440045007F0001004403C
:103E200007C00240040004000000000006400540F6
:103E3000054004C00000000004001F800440004052
:103E40000000040007800040044007C00040040058
:103E5000070004C0018006000400060001C007003E
:103E600001C006000000044006C0010006C0044076
:103E700000000410071004E00180060004000000A8
:103E8000044005C00640044000000000000004009B
:103E90007BE040200000000000000000FFF0000078
:103EA0000000000040207BE0040000000000400013
:103EB00080004000200020004000000000000000C2
:103EC00000000000000000000000000000000000F2
:103ED0001FCC000C000000000000000008003000B3
:103EE00060000800300060000000022003FC1E207B
:103EF000022003FC1E200220000000000E18110406
:103F00003FFF10840C78000000000F0010840F3871
:103F100000C0077818840078000000780F8410C46F
:103F200011240E9800E40084000808006800700066
:103F30000000000000000000000000000000000081
:103F400007E018182004400200000000400220048E
:103F5000181807E000000000000002400240018045
:103F60000FF00180024002400000008000800080CD
:103F70000FF800800080008000000001000D000E9E
:103F80000000000000000000000000000080008031
:103F9000008000800080008000800000000C000C89
:103FA00000000000000000000000000000060018F3
:103FB00000600180060018002000000007F00808DB
:103FC00010041004080807F00000000008040804AA
:103FD0001FFC000400040000000000000E0C101480
:103FE0001024104411840E0C000000000C18100462
:103FF0001104110412880C700000000000E003207E
:10400000042408241FFC0024000000001F981084D2
:1040100011041104108810700000000007F00888D7
:104020001104110418880070000000001C0010002A
:1040300010FC13001C001000000000000E3811449A
:104040001084108411440E38000000000700088C12
:1040500010441044088807F0000000000000000031
:10406000030C030C00000000000000000000000131
:104070000106000000000000000000000080014078
:104080000220041008081004000002200220022070
:104090000220022002200220000000001004080874
:1040A0000410022001400080000000000E001200F9
:1040B000100C106C10800F00000003E00C1813E4CB
:1040C000142417C4082807D000000004003C03C4CF
:1040D0001C40074000E4001C000410041FFC1104F5
:1040E000110411040E880070000003E00C18100485
:1040F0001004100410081C10000010041FFC100411
:1041000010041004080807F0000010041FFC11043C
:10411000110417C410040818000010041FFC110437
:10412000110017C010000800000003E00C18100474
:10413000100410441C780040000010041FFC108480
:104140000080008010841FFC100400001004100484
:104150001FFC100410040000000000030001100107
:1041600010011FFE10001000000010041FFC1104BD
:1041700003801464181C1004000010041FFC1004B9
:10418000000400040004000C000010041FFC1F00C9
:1041900000FC1F001FFC1004000010041FFC0C0496
:1041A000030000E010181FFC100007F008081004BE
:1041B00010041004080807F0000010041FFC10840D
:1041C0001080108010800F00000007F008181024E5
:1041D0001024101C080A07F2000010041FFC110430
:1041E000110011C011300E0C000400000E1C11044F
:1041F0001084108410441C380000180010001004B3
:104200001FFC100410001800000010001FF810041C
:104210000004000410041FF8100010001E0011E03C
:10422000001C007013801C0010001FC0103C00E038
:104230001F0000E0103C1FC000001004180C1634D2
:1042400001C001C01634180C100410001C00130427
:1042500000FC13041C00100000000804101C106473
:10426000108413041C04101800000000000000005B
:104270007FFE4002400240020000000030000C00BF
:1042800003800060001C00030000000040024002A8
:1042900040027FFE0000000000000000000020003F
:1042A000400040004000200000000001000100012B
:1042B0000001000100010001000100004000400079
:1042C0002000000000000000000000000098012411
:1042D00001440144014400FC000410001FFC00885C
:1042E00001040104008800700000000000700088D4
:1042F000010401040104008800000000007000882F
:104300000104010411081FFC0004000000F801442E
:1043100001440144014400C80000000001040104FC
:104320000FFC1104110411001800000000D601292F
:104330000129012901C90106000010041FFC0084A5
:1043400001000100010400FC000400000104190444
:1043500019FC00040004000000000000000300013C
:104360000101190119FE0000000010041FFC0024C7
:10437000004001B4010C010400000000100410040E
:104380001FFC0004000400000000010401FC010403
:10439000010001FC0104010000FC010401FC008497
:1043A00001000100010400FC0004000000F8010409
:1043B00001040104010400F80000010101FF00856F
:1043C00001040104008800700000000000700088F3
:1043D00001040104010501FF00010104010401FCC5
:1043E00000840104010001800000000000CC0124D1
:1043F00001240124012401980000000001000100B3
:1044000007F80104010400000000010001F80004A5
:1044100000040004010801FC000401000180017097
:10442000000C001001600180010001F0010C00305F
:1044300001C00030010C01F0010000000104018CFA
:1044400000740170018C01040000010101810171FF
:10445000000E001801600180010000000184010CC1
:10446000013401440184010C000000000000000040
:10447000000001003EFC400240020000000000007D
:104480000000FFFF000000000000000040024002AA
:104490003EFC010000000000000000006000800001
:1044A00080004000400020002000000000000000CC
:1044B00000000000000000000000000000F8000004
:1044C0000000000000333000000000100C06100C4B
:1044D0000600000000000000000040C07840C078E6
:1044E0004000043F04043F040400007088FC0830CE
:1044F0000000001820FF211E0000F008F000E01866
:10450000000000211C031E211E0000F0088870001E
:1045100000001E2123241927211010160E00000070
:1045200000000000000000000000000000E018048F
:104530000200000000071820400000020418E000FC
:1045400000000040201807000000404080F080403C
:1045500040000202010F01020200000000F0000012
:1045600000000101011F0101010000000000000026
:10457000000080B07000000000000000000000009B
:104580000000000101010101010100000000000024
:1045900000000030300000000000000000008060DB
:1045A0001804006018060100000000E01008081060
:1045B000E000000F102020100F00001010F8000085
:1045C00000000020203F202000000070080808881C
:1045D00070000030282422213000003008888848EC
:1045E00030000018202020110E000000C02010F81C
:1045F000000000070424243F240000F808888808ED
:1046000008000019212020110E0000E010888818F1
:104610000000000F112020110E0000380808C838D3
:1046200008000000003F00000000007088080888B3
:104630007000001C222121221C0000E0100808103C
:10464000E0000000312222110F00000000C0C00075
:10465000000000000030300000000000008000007A
:10466000000000008060000000000000804020107A
:104670000800000102040810200040404040404073
:1046800040000404040404040400000810204080D6
:10469000000000201008040201000070480808080B
:1046A000F0000000003036010000C030C828E810DB
:1046B000E0000718272423140B000000C038E00096
:1046C0000000203C23020227382008F888888870E0
:1046D0000000203F202020110E00C03008080808EC
:1046E0003800071820202010080008F808080810D3
:1046F000E000203F202020100F0008F88888E808FC
:104700001000203F20202320180008F88888E8089F
:104710001000203F200003000000C03008080838C7
:10472000000007182020221E020008F808000008D8
:10473000F808203F210101213F20000808F808085F
:1047400000000020203F2020000000000808F8089A
:104750000800C08080807F00000008F888C028180A
:104760000800203F20012638200008F8080000003B
:104770000000203F20202020300008F8F800F8F842
:104780000800203F003F003F200008F830C000082C
:10479000F808203F200007183F00E0100808081024
:1047A000E0000F10202020100F0008F8080808086B
:1047B000F000203F210101010000E010080808106E
:1047C000E0000F18242438504F0008F888888888A3
:1047D0007000203F2000030C30200070880808087B
:1047E00038000038202121221C00180808F8080889
:1047F00018000000203F2000000008F80800000812
:10480000F808001F202020201F000878880000C81A
:104810003808000007380E010000F80800F800080A
:10482000F800033C0700073C030008186880806814
:10483000180820302C03032C30200838C800C83852
:1048400008000000203F2000000010080808C838B9
:1048500008002038262120201800000000FE020257
:1048600002000000007F40404000000C30C000000B
:104870000000000000010638C00000020202FE0035
:104880000000004040407F000000000004020202DF
:104890000400000000000000000000000000000014
:1048A0000000808080808080808000020204000000
:1048B00000000000000000000000000080808080F8
:1048C00000000019242222223F2008F800808000E6
:1048D0000000003F112020110E00000000808080A9
:1048E0000000000E112020201100000000808088B0
:1048F000F800000E112020103F20000080808080F2
:104900000000001F222222221300008080F08888ED
:1049100088180020203F2020000000008080808038
:104920008000006B94949493600008F8008080806D
:104930000000203F210000203F20008098980000C8
:1049400000000020203F20200000000000809898F8
:10495000000000C08080807F000008F80000808098
:104960008000203F24022D302000000808F80000BD
:1049700000000020203F2020000080808080808078
:104980008000203F20003F20003F8080008080800A
:104990000000203F210000203F2000008080808018
:1049A0000000001F202020201F0080800080800049
:1049B000000080FFA12020110E00000000808080F8
:1049C0008000000E112020A0FF8080808000808069
:1049D000800020203F212000010000008080808096
:1049E00080000033242424241900008080E080808B
:1049F00000000000001F20200000808000000080D8
:104A00008000001F202020103F2080808000008038
:104A1000808000010E300806010080800080008048
:104A200080800F300C030C300F00008080008080ED
:104A300080000020312E0E31200080808000008018
:104A4000808080818E7018060100008080808080C8
:104A500080000021302C2221300000000000807CEA
:104A6000020200000000003F404000000000FF0084
:104A7000000000000000FF0000000002027C800037
:104A800000000040403F000000000006010102025B
:104A9000040400000000000000000000BC4A000800
:104AA0000000002034130000C40100086C5100080D
:104AB000341300201C1100002802000852000103DA
:104AC000300100016006E8030000180D70047A034D
:104AD0000A4C6008020304060708090C9110000F35
:104AE0001002FE9292FE0200101116F014131053E1
:104AF000001010101F0808FF048141310D030D3113
:104B0000418120F00F1010FF9020984828090E28AE
:104B100048A81820100C0242817F004040424242C7
:104B20007E040210406020099453321E325210005D
:104B30001F02137ED643FF49010212FFF30010113A
:104B400008CC4A49484ACC18007F88888482E03ED5
:104B5000000915121252927F00007E20100400F806
:104B6000880122FF050613F85515011308085EF4A5
:104B70000688889F80F07333808201040914E2A2C2
:104B8000928A868280809804041640807FB3100A3F
:104B90002424A4FEA3220022CCAA0113E0200706AD
:104BA00001FF00010401040513FF0202028050040A
:104BB000109008C3F2084004104F0444827F018023
:104BC0008040432C10284681800010091010D0FF2F
:104BD000901000FE9C0212FEC0130403D81404833C
:104BE000601F060805103F404078201006FA8282B8
:104BF000FE8040000610126282621AE0080F100860
:104C0000184884443F007F50484641465840240895
:104C10004044C44444444006031010109F0810123E
:104C200000103C131014B840300E014080403F5F2C
:104C300063FE22010113C1600400FF4201091281D9
:104C4000450012203E12E248061420002804130CEE
:104C500003030F10010620031D1B03080C12CC00D8
:104C600004F49494FF9494F4043C0C0D10201F2041
:104C7000484442415F414244484003200B0000FC4D
:104C8000242424FC25262408011041080E1140305C
:104C90008F80844C55252525554C80A0280A100C62
:104CA000048414640506F4620B10140C40000E1109
:104CB0008484444724140C070C14244484A104065F
:104CC00018FE225A86000004071D00FF0408071082
:104CD00000153F0314A2623F35001404444E45E51D
:104CE00004041145464C002C061088C433006004AF
:104CF0000E13C260044F020158030D178303100600
:104D0000083000FF200111050711222CC0280604DD
:104D10000201FF80400C05110618204040032521A8
:104D2000240424548F1E05121F1406413900003C30
:104D3000E50808144C404070040931400C0A151471
:104D4000E4AFA4A4A4AFE4044003040A11894B2AED
:104D50001A0E1A2A4B88C0231090013D00030F1130
:104D60001116C1051C052060203F1B030408140018
:104D7000030C102040F8801C0440A09EC4040404CE
:104D8000129EA020814C05003F90883F040E1241E6
:104D9000E00410081715D55557557D040C0411D59E
:104DA0001517FB04400540407F5501127F0C0D1282
:104DB000420311B70C051310F010107F061C0800F9
:104DC0008181414121117D060C0712112141418150
:104DD0008140032D9B033EFEA5030113600D1C8043
:104DE000050C0E128060F807000474545556545494
:104DF0007480031DBF030C0C1203010545857D055E
:104E00000505010341042D150612FFE80113DE25F7
:104E10000051040113225D40070C09148888E98EB3
:104E20008888A89840070409110080844B2810281E
:104E3000477F080F104030EF242480E49C10545426
:104E4000FF547C0008105101017F2151261827448E
:104E500045455F454544801D00080C071300F800D8
:104E6000020418C10641C00C0A503F108840300CA3
:104E70000B30C080060C0E1060028C004464544D50
:104E800046445464C400051C0804047E0180403E6E
:104E9000E7051D03080E118020081D7A062C07F275
:104EA000929292021242030D10E0072C06403F80BE
:104EB000601FBD045107ED73090C0E1184E45CC43E
:104EC0000008C8398E0808CC3B800711FB40073F1B
:104ED00000635A46E1050D13420608081398A447DB
:104EE00044A4540C7E080D130081898944444A313E
:104EF000211109057E2DFB075DC0070211087F1DEA
:104F0000F40518044142243D0C04132442410006D8
:104F10003D3A040C0811404848487F48C860063DA7
:104F200040080C09110002020A1242827F80080D1B
:104F30003E40083D81033F109005040E11D0800AC9
:104F40003E015C031F415E3F050F114E4140034D82
:104F5000C0041D66040D1782032C04007F20170374
:104F60000E15FF9B091D7F071C0400FE82050B0C1C
:104F70000413929282C20819BC0C08127F001E1200
:104F800012125E43060D3EC0070DFF800B3DBB07AE
:104F90004E7EBE070D11DF071C048040203E083DF9
:104FA0003D0A1D42070D113E031C090C0555D55540
:104FB000057F8565060E1105C0083C05080402FF43
:104FC0007D062D8506021341602806180F0808E8A3
:104FD000A50610283F5C0600201008063D081F02A9
:104FE000042C08FDA00A2D1E0C4C04F8898E8003A9
:104FF000021408612E07030C0D147E0A1DC0043F25
:105000000CC0840C1D830C0D11400D1C0504047C88
:105010000382040E1780C00B2C04F801223F091EE6
:10502000FA3F090D13820B26FF030C041511201FF4
:1050300003091DE0091C04FC848427050C07128465
:10504000E41C8404043F084C051F101004470903A6
:10505000110106A0113A1F3C27840A00041124E420
:105060000440313A1209010F1449898109458036FB
:10507000F8480D3100081DBA0943BEAA010F12BE3F
:1050800020C00810048080AF1C12FF200E13AF9FB9
:105090000D093D801D800B0C0C1004D4545454D4C5
:1050A000047F84C536800B08108F886601006382F8
:1050B0008292AB8482C10224CF401C0A0434C4040F
:1050C000C43C0004FC610E11080D11400C18050CC5
:1050D000030C30C50C0412130C13000B2D000F3EF3
:1050E000FE030F21060911A01D3C0B5E0F48090DA0
:1050F00013200E093D806DE60F354809134263FF0A
:1051000041010D13C00D1C080C442414040506FDB8
:105110000C0F112444000D1D610A213B227F450D17
:10512000145F063EFED8091D240C1D2B040D147FB0
:10513000061E207F0B39400D11000F1D40070C0A81
:1051400012494A4C48F8484C4A4980101C04101037
:10515000137B061E12C6100C0690121213101000BC
:0C51600004093D400D3F40042101000007
:040000050800018965
:00000001FF
